{
  "_format": "hh-sol-artifact-1",
  "contractName": "VefiEcosystemTokenV2",
  "sourceName": "contracts/VefiEcosystemTokenV2.sol",
  "abi": [
    {
      "inputs": [
        {
          "internalType": "string",
          "name": "name_",
          "type": "string"
        },
        {
          "internalType": "string",
          "name": "symbol_",
          "type": "string"
        },
        {
          "internalType": "uint256",
          "name": "amount",
          "type": "uint256"
        },
        {
          "internalType": "address",
          "name": "_taxCollector",
          "type": "address"
        },
        {
          "internalType": "uint8",
          "name": "_taxPercentage",
          "type": "uint8"
        }
      ],
      "stateMutability": "nonpayable",
      "type": "constructor"
    },
    {
      "anonymous": false,
      "inputs": [
        {
          "indexed": true,
          "internalType": "address",
          "name": "owner",
          "type": "address"
        },
        {
          "indexed": true,
          "internalType": "address",
          "name": "spender",
          "type": "address"
        },
        {
          "indexed": false,
          "internalType": "uint256",
          "name": "value",
          "type": "uint256"
        }
      ],
      "name": "Approval",
      "type": "event"
    },
    {
      "anonymous": false,
      "inputs": [
        {
          "indexed": true,
          "internalType": "address",
          "name": "previousOwner",
          "type": "address"
        },
        {
          "indexed": true,
          "internalType": "address",
          "name": "newOwner",
          "type": "address"
        }
      ],
      "name": "OwnershipTransferred",
      "type": "event"
    },
    {
      "anonymous": false,
      "inputs": [
        {
          "indexed": true,
          "internalType": "bytes32",
          "name": "role",
          "type": "bytes32"
        },
        {
          "indexed": true,
          "internalType": "bytes32",
          "name": "previousAdminRole",
          "type": "bytes32"
        },
        {
          "indexed": true,
          "internalType": "bytes32",
          "name": "newAdminRole",
          "type": "bytes32"
        }
      ],
      "name": "RoleAdminChanged",
      "type": "event"
    },
    {
      "anonymous": false,
      "inputs": [
        {
          "indexed": true,
          "internalType": "bytes32",
          "name": "role",
          "type": "bytes32"
        },
        {
          "indexed": true,
          "internalType": "address",
          "name": "account",
          "type": "address"
        },
        {
          "indexed": true,
          "internalType": "address",
          "name": "sender",
          "type": "address"
        }
      ],
      "name": "RoleGranted",
      "type": "event"
    },
    {
      "anonymous": false,
      "inputs": [
        {
          "indexed": true,
          "internalType": "bytes32",
          "name": "role",
          "type": "bytes32"
        },
        {
          "indexed": true,
          "internalType": "address",
          "name": "account",
          "type": "address"
        },
        {
          "indexed": true,
          "internalType": "address",
          "name": "sender",
          "type": "address"
        }
      ],
      "name": "RoleRevoked",
      "type": "event"
    },
    {
      "anonymous": false,
      "inputs": [
        {
          "indexed": true,
          "internalType": "address",
          "name": "from",
          "type": "address"
        },
        {
          "indexed": true,
          "internalType": "address",
          "name": "to",
          "type": "address"
        },
        {
          "indexed": false,
          "internalType": "uint256",
          "name": "value",
          "type": "uint256"
        }
      ],
      "name": "Transfer",
      "type": "event"
    },
    {
      "inputs": [],
      "name": "DEFAULT_ADMIN_ROLE",
      "outputs": [
        {
          "internalType": "bytes32",
          "name": "",
          "type": "bytes32"
        }
      ],
      "stateMutability": "view",
      "type": "function"
    },
    {
      "inputs": [
        {
          "internalType": "address",
          "name": "lp",
          "type": "address"
        }
      ],
      "name": "addLiquidityPool",
      "outputs": [],
      "stateMutability": "nonpayable",
      "type": "function"
    },
    {
      "inputs": [
        {
          "internalType": "address",
          "name": "owner",
          "type": "address"
        },
        {
          "internalType": "address",
          "name": "spender",
          "type": "address"
        }
      ],
      "name": "allowance",
      "outputs": [
        {
          "internalType": "uint256",
          "name": "",
          "type": "uint256"
        }
      ],
      "stateMutability": "view",
      "type": "function"
    },
    {
      "inputs": [
        {
          "internalType": "address",
          "name": "spender",
          "type": "address"
        },
        {
          "internalType": "uint256",
          "name": "amount",
          "type": "uint256"
        }
      ],
      "name": "approve",
      "outputs": [
        {
          "internalType": "bool",
          "name": "",
          "type": "bool"
        }
      ],
      "stateMutability": "nonpayable",
      "type": "function"
    },
    {
      "inputs": [
        {
          "internalType": "address",
          "name": "account",
          "type": "address"
        }
      ],
      "name": "balanceOf",
      "outputs": [
        {
          "internalType": "uint256",
          "name": "",
          "type": "uint256"
        }
      ],
      "stateMutability": "view",
      "type": "function"
    },
    {
      "inputs": [],
      "name": "decimals",
      "outputs": [
        {
          "internalType": "uint8",
          "name": "",
          "type": "uint8"
        }
      ],
      "stateMutability": "view",
      "type": "function"
    },
    {
      "inputs": [
        {
          "internalType": "address",
          "name": "spender",
          "type": "address"
        },
        {
          "internalType": "uint256",
          "name": "subtractedValue",
          "type": "uint256"
        }
      ],
      "name": "decreaseAllowance",
      "outputs": [
        {
          "internalType": "bool",
          "name": "",
          "type": "bool"
        }
      ],
      "stateMutability": "nonpayable",
      "type": "function"
    },
    {
      "inputs": [
        {
          "internalType": "address",
          "name": "account",
          "type": "address"
        }
      ],
      "name": "excludeFromPayingTax",
      "outputs": [],
      "stateMutability": "nonpayable",
      "type": "function"
    },
    {
      "inputs": [
        {
          "internalType": "bytes32",
          "name": "role",
          "type": "bytes32"
        }
      ],
      "name": "getRoleAdmin",
      "outputs": [
        {
          "internalType": "bytes32",
          "name": "",
          "type": "bytes32"
        }
      ],
      "stateMutability": "view",
      "type": "function"
    },
    {
      "inputs": [
        {
          "internalType": "bytes32",
          "name": "role",
          "type": "bytes32"
        },
        {
          "internalType": "address",
          "name": "account",
          "type": "address"
        }
      ],
      "name": "grantRole",
      "outputs": [],
      "stateMutability": "nonpayable",
      "type": "function"
    },
    {
      "inputs": [
        {
          "internalType": "bytes32",
          "name": "role",
          "type": "bytes32"
        },
        {
          "internalType": "address",
          "name": "account",
          "type": "address"
        }
      ],
      "name": "hasRole",
      "outputs": [
        {
          "internalType": "bool",
          "name": "",
          "type": "bool"
        }
      ],
      "stateMutability": "view",
      "type": "function"
    },
    {
      "inputs": [
        {
          "internalType": "uint256",
          "name": "",
          "type": "uint256"
        }
      ],
      "name": "holders",
      "outputs": [
        {
          "internalType": "address",
          "name": "",
          "type": "address"
        }
      ],
      "stateMutability": "view",
      "type": "function"
    },
    {
      "inputs": [
        {
          "internalType": "address",
          "name": "account",
          "type": "address"
        }
      ],
      "name": "includeInTaxPayment",
      "outputs": [],
      "stateMutability": "nonpayable",
      "type": "function"
    },
    {
      "inputs": [
        {
          "internalType": "address",
          "name": "spender",
          "type": "address"
        },
        {
          "internalType": "uint256",
          "name": "addedValue",
          "type": "uint256"
        }
      ],
      "name": "increaseAllowance",
      "outputs": [
        {
          "internalType": "bool",
          "name": "",
          "type": "bool"
        }
      ],
      "stateMutability": "nonpayable",
      "type": "function"
    },
    {
      "inputs": [
        {
          "internalType": "uint256",
          "name": "",
          "type": "uint256"
        }
      ],
      "name": "liquidityPools",
      "outputs": [
        {
          "internalType": "address",
          "name": "",
          "type": "address"
        }
      ],
      "stateMutability": "view",
      "type": "function"
    },
    {
      "inputs": [],
      "name": "name",
      "outputs": [
        {
          "internalType": "string",
          "name": "",
          "type": "string"
        }
      ],
      "stateMutability": "view",
      "type": "function"
    },
    {
      "inputs": [],
      "name": "owner",
      "outputs": [
        {
          "internalType": "address",
          "name": "",
          "type": "address"
        }
      ],
      "stateMutability": "view",
      "type": "function"
    },
    {
      "inputs": [
        {
          "internalType": "address",
          "name": "lp",
          "type": "address"
        }
      ],
      "name": "removeLiquidityPool",
      "outputs": [],
      "stateMutability": "nonpayable",
      "type": "function"
    },
    {
      "inputs": [],
      "name": "renounceOwnership",
      "outputs": [],
      "stateMutability": "nonpayable",
      "type": "function"
    },
    {
      "inputs": [
        {
          "internalType": "bytes32",
          "name": "role",
          "type": "bytes32"
        },
        {
          "internalType": "address",
          "name": "account",
          "type": "address"
        }
      ],
      "name": "renounceRole",
      "outputs": [],
      "stateMutability": "nonpayable",
      "type": "function"
    },
    {
      "inputs": [
        {
          "internalType": "address",
          "name": "token",
          "type": "address"
        },
        {
          "internalType": "address",
          "name": "to",
          "type": "address"
        },
        {
          "internalType": "uint256",
          "name": "amount",
          "type": "uint256"
        }
      ],
      "name": "retrieveERC20",
      "outputs": [],
      "stateMutability": "nonpayable",
      "type": "function"
    },
    {
      "inputs": [
        {
          "internalType": "address",
          "name": "to",
          "type": "address"
        }
      ],
      "name": "retrieveEther",
      "outputs": [],
      "stateMutability": "nonpayable",
      "type": "function"
    },
    {
      "inputs": [
        {
          "internalType": "bytes32",
          "name": "role",
          "type": "bytes32"
        },
        {
          "internalType": "address",
          "name": "account",
          "type": "address"
        }
      ],
      "name": "revokeRole",
      "outputs": [],
      "stateMutability": "nonpayable",
      "type": "function"
    },
    {
      "inputs": [
        {
          "internalType": "address",
          "name": "_taxCollector",
          "type": "address"
        }
      ],
      "name": "setTaxCollector",
      "outputs": [],
      "stateMutability": "nonpayable",
      "type": "function"
    },
    {
      "inputs": [
        {
          "internalType": "uint8",
          "name": "_taxPercentage",
          "type": "uint8"
        }
      ],
      "name": "setTaxPercentage",
      "outputs": [],
      "stateMutability": "nonpayable",
      "type": "function"
    },
    {
      "inputs": [
        {
          "internalType": "bytes4",
          "name": "interfaceId",
          "type": "bytes4"
        }
      ],
      "name": "supportsInterface",
      "outputs": [
        {
          "internalType": "bool",
          "name": "",
          "type": "bool"
        }
      ],
      "stateMutability": "view",
      "type": "function"
    },
    {
      "inputs": [],
      "name": "symbol",
      "outputs": [
        {
          "internalType": "string",
          "name": "",
          "type": "string"
        }
      ],
      "stateMutability": "view",
      "type": "function"
    },
    {
      "inputs": [],
      "name": "taxCollector",
      "outputs": [
        {
          "internalType": "address",
          "name": "",
          "type": "address"
        }
      ],
      "stateMutability": "view",
      "type": "function"
    },
    {
      "inputs": [],
      "name": "taxExclusionPrivilege",
      "outputs": [
        {
          "internalType": "bytes32",
          "name": "",
          "type": "bytes32"
        }
      ],
      "stateMutability": "view",
      "type": "function"
    },
    {
      "inputs": [],
      "name": "taxPercentage",
      "outputs": [
        {
          "internalType": "uint8",
          "name": "",
          "type": "uint8"
        }
      ],
      "stateMutability": "view",
      "type": "function"
    },
    {
      "inputs": [],
      "name": "totalSupply",
      "outputs": [
        {
          "internalType": "uint256",
          "name": "",
          "type": "uint256"
        }
      ],
      "stateMutability": "view",
      "type": "function"
    },
    {
      "inputs": [
        {
          "internalType": "address",
          "name": "to",
          "type": "address"
        },
        {
          "internalType": "uint256",
          "name": "amount",
          "type": "uint256"
        }
      ],
      "name": "transfer",
      "outputs": [
        {
          "internalType": "bool",
          "name": "",
          "type": "bool"
        }
      ],
      "stateMutability": "nonpayable",
      "type": "function"
    },
    {
      "inputs": [
        {
          "internalType": "address",
          "name": "from",
          "type": "address"
        },
        {
          "internalType": "address",
          "name": "to",
          "type": "address"
        },
        {
          "internalType": "uint256",
          "name": "amount",
          "type": "uint256"
        }
      ],
      "name": "transferFrom",
      "outputs": [
        {
          "internalType": "bool",
          "name": "",
          "type": "bool"
        }
      ],
      "stateMutability": "nonpayable",
      "type": "function"
    },
    {
      "inputs": [
        {
          "internalType": "address",
          "name": "newOwner",
          "type": "address"
        }
      ],
      "name": "transferOwnership",
      "outputs": [],
      "stateMutability": "nonpayable",
      "type": "function"
    }
  ],
  "bytecode": "0x608060405260405160200162000015906200086c565b60405160208183030381529060405280519060200120600a553480156200003b57600080fd5b5060405162004ac538038062004ac5833981810160405281019062000061919062000aff565b84846200008362000077620001c660201b60201c565b620001ce60201b60201c565b816005908162000094919062000e06565b508060069081620000a6919062000e06565b50505081600760006101000a81548173ffffffffffffffffffffffffffffffffffffffff021916908373ffffffffffffffffffffffffffffffffffffffff16021790555080600b60006101000a81548160ff021916908360ff1602179055506200012662000119620001c660201b60201c565b846200029260201b60201c565b62000149600a546200013d620001c660201b60201c565b6200040b60201b60201c565b60096200015b620001c660201b60201c565b9080600181540180825580915050600190039060005260206000200160009091909190916101000a81548173ffffffffffffffffffffffffffffffffffffffff021916908373ffffffffffffffffffffffffffffffffffffffff160217905550505050505062001073565b600033905090565b60008060009054906101000a900473ffffffffffffffffffffffffffffffffffffffff169050816000806101000a81548173ffffffffffffffffffffffffffffffffffffffff021916908373ffffffffffffffffffffffffffffffffffffffff1602179055508173ffffffffffffffffffffffffffffffffffffffff168173ffffffffffffffffffffffffffffffffffffffff167f8be0079c531659141344cd1fd0a4f28419497f9722a3daafe3b4186f6b6457e060405160405180910390a35050565b600073ffffffffffffffffffffffffffffffffffffffff168273ffffffffffffffffffffffffffffffffffffffff160362000304576040517f08c379a0000000000000000000000000000000000000000000000000000000008152600401620002fb9062000f3d565b60405180910390fd5b6200031860008383620004fc60201b60201c565b80600460008282546200032c919062000f8e565b9250508190555080600260008473ffffffffffffffffffffffffffffffffffffffff1673ffffffffffffffffffffffffffffffffffffffff168152602001908152602001600020600082825462000384919062000f8e565b925050819055508173ffffffffffffffffffffffffffffffffffffffff16600073ffffffffffffffffffffffffffffffffffffffff167fddf252ad1be2c89b69c2b068fc378daa952ba7f163c4a11628f55a4df523b3ef83604051620003eb919062000fda565b60405180910390a362000407600083836200050160201b60201c565b5050565b6200041d8282620006fc60201b60201c565b620004f857600180600084815260200190815260200160002060000160008373ffffffffffffffffffffffffffffffffffffffff1673ffffffffffffffffffffffffffffffffffffffff16815260200190815260200160002060006101000a81548160ff0219169083151502179055506200049d620001c660201b60201c565b73ffffffffffffffffffffffffffffffffffffffff168173ffffffffffffffffffffffffffffffffffffffff16837f2f8788117e7eff1d82e926ec794901d17c78024a50270940304540a733656f0d60405160405180910390a45b5050565b505050565b6000811115620006f7577fffffffffffffffffffffffffffffffffffffffffffffffffffffffffffffffff620005c66009805480602002602001604051908101604052809291908181526020018280548015620005b457602002820191906000526020600020905b8160009054906101000a900473ffffffffffffffffffffffffffffffffffffffff1673ffffffffffffffffffffffffffffffffffffffff168152602001906001019080831162000569575b5050505050846200076760201b60201c565b1480156200068c57507fffffffffffffffffffffffffffffffffffffffffffffffffffffffffffffffff6200068a60088054806020026020016040519081016040528092919081815260200182805480156200067857602002820191906000526020600020905b8160009054906101000a900473ffffffffffffffffffffffffffffffffffffffff1673ffffffffffffffffffffffffffffffffffffffff16815260200190600101908083116200062d575b5050505050846200076760201b60201c565b145b15620006f6576009829080600181540180825580915050600190039060005260206000200160009091909190916101000a81548173ffffffffffffffffffffffffffffffffffffffff021916908373ffffffffffffffffffffffffffffffffffffffff1602179055505b5b505050565b60006001600084815260200190815260200160002060000160008373ffffffffffffffffffffffffffffffffffffffff1673ffffffffffffffffffffffffffffffffffffffff16815260200190815260200160002060009054906101000a900460ff16905092915050565b60007fffffffffffffffffffffffffffffffffffffffffffffffffffffffffffffffff905060005b835181101562000804578273ffffffffffffffffffffffffffffffffffffffff16848281518110620007c657620007c562000ff7565b5b602002602001015173ffffffffffffffffffffffffffffffffffffffff1603620007ee578091505b8080620007fb9062001026565b9150506200078f565b5092915050565b600082825260208201905092915050565b7f5441585f4558434c5553494f4e5f50524956494c454745000000000000000000600082015250565b6000620008546017836200080b565b915062000861826200081c565b602082019050919050565b60006020820190508181036000830152620008878162000845565b9050919050565b6000604051905090565b600080fd5b600080fd5b600080fd5b600080fd5b6000601f19601f8301169050919050565b7f4e487b7100000000000000000000000000000000000000000000000000000000600052604160045260246000fd5b620008f782620008ac565b810181811067ffffffffffffffff82111715620009195762000918620008bd565b5b80604052505050565b60006200092e6200088e565b90506200093c8282620008ec565b919050565b600067ffffffffffffffff8211156200095f576200095e620008bd565b5b6200096a82620008ac565b9050602081019050919050565b60005b83811015620009975780820151818401526020810190506200097a565b60008484015250505050565b6000620009ba620009b48462000941565b62000922565b905082815260208101848484011115620009d957620009d8620008a7565b5b620009e684828562000977565b509392505050565b600082601f83011262000a065762000a05620008a2565b5b815162000a18848260208601620009a3565b91505092915050565b6000819050919050565b62000a368162000a21565b811462000a4257600080fd5b50565b60008151905062000a568162000a2b565b92915050565b600073ffffffffffffffffffffffffffffffffffffffff82169050919050565b600062000a898262000a5c565b9050919050565b62000a9b8162000a7c565b811462000aa757600080fd5b50565b60008151905062000abb8162000a90565b92915050565b600060ff82169050919050565b62000ad98162000ac1565b811462000ae557600080fd5b50565b60008151905062000af98162000ace565b92915050565b600080600080600060a0868803121562000b1e5762000b1d62000898565b5b600086015167ffffffffffffffff81111562000b3f5762000b3e6200089d565b5b62000b4d88828901620009ee565b955050602086015167ffffffffffffffff81111562000b715762000b706200089d565b5b62000b7f88828901620009ee565b945050604062000b928882890162000a45565b935050606062000ba58882890162000aaa565b925050608062000bb88882890162000ae8565b9150509295509295909350565b600081519050919050565b7f4e487b7100000000000000000000000000000000000000000000000000000000600052602260045260246000fd5b6000600282049050600182168062000c1857607f821691505b60208210810362000c2e5762000c2d62000bd0565b5b50919050565b60008190508160005260206000209050919050565b60006020601f8301049050919050565b600082821b905092915050565b60006008830262000c987fffffffffffffffffffffffffffffffffffffffffffffffffffffffffffffffff8262000c59565b62000ca4868362000c59565b95508019841693508086168417925050509392505050565b6000819050919050565b600062000ce762000ce162000cdb8462000a21565b62000cbc565b62000a21565b9050919050565b6000819050919050565b62000d038362000cc6565b62000d1b62000d128262000cee565b84845462000c66565b825550505050565b600090565b62000d3262000d23565b62000d3f81848462000cf8565b505050565b5b8181101562000d675762000d5b60008262000d28565b60018101905062000d45565b5050565b601f82111562000db65762000d808162000c34565b62000d8b8462000c49565b8101602085101562000d9b578190505b62000db362000daa8562000c49565b83018262000d44565b50505b505050565b600082821c905092915050565b600062000ddb6000198460080262000dbb565b1980831691505092915050565b600062000df6838362000dc8565b9150826002028217905092915050565b62000e118262000bc5565b67ffffffffffffffff81111562000e2d5762000e2c620008bd565b5b62000e39825462000bff565b62000e4682828562000d6b565b600060209050601f83116001811462000e7e576000841562000e69578287015190505b62000e75858262000de8565b86555062000ee5565b601f19841662000e8e8662000c34565b60005b8281101562000eb85784890151825560018201915060208501945060208101905062000e91565b8683101562000ed8578489015162000ed4601f89168262000dc8565b8355505b6001600288020188555050505b505050505050565b7f45524332303a206d696e7420746f20746865207a65726f206164647265737300600082015250565b600062000f25601f836200080b565b915062000f328262000eed565b602082019050919050565b6000602082019050818103600083015262000f588162000f16565b9050919050565b7f4e487b7100000000000000000000000000000000000000000000000000000000600052601160045260246000fd5b600062000f9b8262000a21565b915062000fa88362000a21565b925082820190508082111562000fc35762000fc262000f5f565b5b92915050565b62000fd48162000a21565b82525050565b600060208201905062000ff1600083018462000fc9565b92915050565b7f4e487b7100000000000000000000000000000000000000000000000000000000600052603260045260246000fd5b6000620010338262000a21565b91507fffffffffffffffffffffffffffffffffffffffffffffffffffffffffffffffff820362001068576200106762000f5f565b5b600182019050919050565b613a4280620010836000396000f3fe608060405234801561001057600080fd5b50600436106102065760003560e01c80638da5cb5b1161011a578063ae22107f116100ad578063d63f45941161007c578063d63f459414610613578063dd62ed3e1461062f578063ee6a934c1461065f578063f2fde38b1461067b578063f3bf29de1461069757610206565b8063ae22107f1461059f578063ae7b6d16146105bb578063bea1dcf8146105d9578063d547741f146105f757610206565b8063a217fddf116100e9578063a217fddf14610505578063a457c2d714610523578063a5ffad5214610553578063a9059cbb1461056f57610206565b80638da5cb5b1461047d5780638e6dda251461049b57806391d14854146104b757806395d89b41146104e757610206565b80632a11ced01161019d578063395093511161016c57806339509351146103c557806346e65523146103f557806370a0823114610413578063715018a61461044357806379d747be1461044d57610206565b80632a11ced01461033f5780632f2ff15d1461036f578063313ce5671461038b57806336568abe146103a957610206565b8063095ea7b3116101d9578063095ea7b31461029157806318160ddd146102c157806323b872dd146102df578063248a9ca31461030f57610206565b806301ffc9a71461020b57806306fdde031461023b578063084a13921461025957806308695b4114610275575b600080fd5b61022560048036038101906102209190612885565b6106b3565b60405161023291906128cd565b60405180910390f35b61024361072d565b6040516102509190612978565b60405180910390f35b610273600480360381019061026e91906129f8565b6107bf565b005b61028f600480360381019061028a91906129f8565b6107d5565b005b6102ab60048036038101906102a69190612a5b565b610821565b6040516102b891906128cd565b60405180910390f35b6102c9610844565b6040516102d69190612aaa565b60405180910390f35b6102f960048036038101906102f49190612ac5565b61084e565b60405161030691906128cd565b60405180910390f35b61032960048036038101906103249190612b4e565b61087d565b6040516103369190612b8a565b60405180910390f35b61035960048036038101906103549190612ba5565b61089d565b6040516103669190612be1565b60405180910390f35b61038960048036038101906103849190612bfc565b6108dc565b005b6103936108fd565b6040516103a09190612c58565b60405180910390f35b6103c360048036038101906103be9190612bfc565b610906565b005b6103df60048036038101906103da9190612a5b565b610989565b6040516103ec91906128cd565b60405180910390f35b6103fd6109c0565b60405161040a9190612b8a565b60405180910390f35b61042d600480360381019061042891906129f8565b6109c6565b60405161043a9190612aaa565b60405180910390f35b61044b610a0f565b005b61046760048036038101906104629190612ba5565b610a23565b6040516104749190612be1565b60405180910390f35b610485610a62565b6040516104929190612be1565b60405180910390f35b6104b560048036038101906104b091906129f8565b610a8b565b005b6104d160048036038101906104cc9190612bfc565b610aee565b6040516104de91906128cd565b60405180910390f35b6104ef610b59565b6040516104fc9190612978565b60405180910390f35b61050d610beb565b60405161051a9190612b8a565b60405180910390f35b61053d60048036038101906105389190612a5b565b610bf2565b60405161054a91906128cd565b60405180910390f35b61056d60048036038101906105689190612c9f565b610c69565b005b61058960048036038101906105849190612a5b565b610c8f565b60405161059691906128cd565b60405180910390f35b6105b960048036038101906105b491906129f8565b610cb2565b005b6105c3610dfb565b6040516105d09190612c58565b60405180910390f35b6105e1610e0e565b6040516105ee9190612be1565b60405180910390f35b610611600480360381019061060c9190612bfc565b610e34565b005b61062d60048036038101906106289190612ac5565b610e55565b005b61064960048036038101906106449190612ccc565b610e6e565b6040516106569190612aaa565b60405180910390f35b610679600480360381019061067491906129f8565b610ef5565b005b610695600480360381019061069091906129f8565b61105a565b005b6106b160048036038101906106ac91906129f8565b6110dd565b005b60007f7965db0b000000000000000000000000000000000000000000000000000000007bffffffffffffffffffffffffffffffffffffffffffffffffffffffff1916827bffffffffffffffffffffffffffffffffffffffffffffffffffffffff1916148061072657506107258261113f565b5b9050919050565b60606005805461073c90612d3b565b80601f016020809104026020016040519081016040528092919081815260200182805461076890612d3b565b80156107b55780601f1061078a576101008083540402835291602001916107b5565b820191906000526020600020905b81548152906001019060200180831161079857829003601f168201915b5050505050905090565b6107c76111a9565b6107d18147611227565b5050565b6107dd6111a9565b80600760006101000a81548173ffffffffffffffffffffffffffffffffffffffff021916908373ffffffffffffffffffffffffffffffffffffffff16021790555050565b60008061082c6112db565b90506108398185856112e3565b600191505092915050565b6000600454905090565b6000806108596112db565b90506108668582856114ac565b610871858585611538565b60019150509392505050565b600060016000838152602001908152602001600020600101549050919050565b600981815481106108ad57600080fd5b906000526020600020016000915054906101000a900473ffffffffffffffffffffffffffffffffffffffff1681565b6108e58261087d565b6108ee81611ae9565b6108f88383611afd565b505050565b60006012905090565b61090e6112db565b73ffffffffffffffffffffffffffffffffffffffff168173ffffffffffffffffffffffffffffffffffffffff161461097b576040517f08c379a000000000000000000000000000000000000000000000000000000000815260040161097290612dde565b60405180910390fd5b6109858282611bdd565b5050565b6000806109946112db565b90506109b58185856109a68589610e6e565b6109b09190612e2d565b6112e3565b600191505092915050565b600a5481565b6000600260008373ffffffffffffffffffffffffffffffffffffffff1673ffffffffffffffffffffffffffffffffffffffff168152602001908152602001600020549050919050565b610a176111a9565b610a216000611cbf565b565b60088181548110610a3357600080fd5b906000526020600020016000915054906101000a900473ffffffffffffffffffffffffffffffffffffffff1681565b60008060009054906101000a900473ffffffffffffffffffffffffffffffffffffffff16905090565b610a936111a9565b610a9f600a5482610aee565b15610adf576040517f08c379a0000000000000000000000000000000000000000000000000000000008152600401610ad690612ead565b60405180910390fd5b610aeb600a5482611afd565b50565b60006001600084815260200190815260200160002060000160008373ffffffffffffffffffffffffffffffffffffffff1673ffffffffffffffffffffffffffffffffffffffff16815260200190815260200160002060009054906101000a900460ff16905092915050565b606060068054610b6890612d3b565b80601f0160208091040260200160405190810160405280929190818152602001828054610b9490612d3b565b8015610be15780601f10610bb657610100808354040283529160200191610be1565b820191906000526020600020905b815481529060010190602001808311610bc457829003601f168201915b5050505050905090565b6000801b81565b600080610bfd6112db565b90506000610c0b8286610e6e565b905083811015610c50576040517f08c379a0000000000000000000000000000000000000000000000000000000008152600401610c4790612f3f565b60405180910390fd5b610c5d82868684036112e3565b60019250505092915050565b610c716111a9565b80600b60006101000a81548160ff021916908360ff16021790555050565b600080610c9a6112db565b9050610ca7818585611538565b600191505092915050565b610cba6111a9565b6000610d4c6008805480602002602001604051908101604052809291908181526020018280548015610d4157602002820191906000526020600020905b8160009054906101000a900473ffffffffffffffffffffffffffffffffffffffff1673ffffffffffffffffffffffffffffffffffffffff1681526020019060010190808311610cf7575b505050505083611d83565b90507fffffffffffffffffffffffffffffffffffffffffffffffffffffffffffffffff8111610db0576040517f08c379a0000000000000000000000000000000000000000000000000000000008152600401610da790612fab565b60405180910390fd5b600060089050808281548110610dc957610dc8612fcb565b5b9060005260206000200160006101000a81549073ffffffffffffffffffffffffffffffffffffffff0219169055505050565b600b60009054906101000a900460ff1681565b600760009054906101000a900473ffffffffffffffffffffffffffffffffffffffff1681565b610e3d8261087d565b610e4681611ae9565b610e508383611bdd565b505050565b610e5d6111a9565b610e68838383611e1f565b50505050565b6000600360008473ffffffffffffffffffffffffffffffffffffffff1673ffffffffffffffffffffffffffffffffffffffff16815260200190815260200160002060008373ffffffffffffffffffffffffffffffffffffffff1673ffffffffffffffffffffffffffffffffffffffff16815260200190815260200160002054905092915050565b610efd6111a9565b6000610f8f6008805480602002602001604051908101604052809291908181526020018280548015610f8457602002820191906000526020600020905b8160009054906101000a900473ffffffffffffffffffffffffffffffffffffffff1673ffffffffffffffffffffffffffffffffffffffff1681526020019060010190808311610f3a575b505050505083611d83565b90507fffffffffffffffffffffffffffffffffffffffffffffffffffffffffffffffff8114610ff3576040517f08c379a0000000000000000000000000000000000000000000000000000000008152600401610fea90613046565b60405180910390fd5b6008829080600181540180825580915050600190039060005260206000200160009091909190916101000a81548173ffffffffffffffffffffffffffffffffffffffff021916908373ffffffffffffffffffffffffffffffffffffffff1602179055505050565b6110626111a9565b600073ffffffffffffffffffffffffffffffffffffffff168173ffffffffffffffffffffffffffffffffffffffff16036110d1576040517f08c379a00000000000000000000000000000000000000000000000000000000081526004016110c8906130d8565b60405180910390fd5b6110da81611cbf565b50565b6110e56111a9565b6110f1600a5482610aee565b611130576040517f08c379a000000000000000000000000000000000000000000000000000000000815260040161112790613144565b60405180910390fd5b61113c600a5482611bdd565b50565b60007f01ffc9a7000000000000000000000000000000000000000000000000000000007bffffffffffffffffffffffffffffffffffffffffffffffffffffffff1916827bffffffffffffffffffffffffffffffffffffffffffffffffffffffff1916149050919050565b6111b16112db565b73ffffffffffffffffffffffffffffffffffffffff166111cf610a62565b73ffffffffffffffffffffffffffffffffffffffff1614611225576040517f08c379a000000000000000000000000000000000000000000000000000000000815260040161121c906131b0565b60405180910390fd5b565b60008273ffffffffffffffffffffffffffffffffffffffff168260405161124d90613201565b60006040518083038185875af1925050503d806000811461128a576040519150601f19603f3d011682016040523d82523d6000602084013e61128f565b606091505b505080915050806112d5576040517f08c379a00000000000000000000000000000000000000000000000000000000081526004016112cc90613262565b60405180910390fd5b92915050565b600033905090565b600073ffffffffffffffffffffffffffffffffffffffff168373ffffffffffffffffffffffffffffffffffffffff1603611352576040517f08c379a0000000000000000000000000000000000000000000000000000000008152600401611349906132f4565b60405180910390fd5b600073ffffffffffffffffffffffffffffffffffffffff168273ffffffffffffffffffffffffffffffffffffffff16036113c1576040517f08c379a00000000000000000000000000000000000000000000000000000000081526004016113b890613386565b60405180910390fd5b80600360008573ffffffffffffffffffffffffffffffffffffffff1673ffffffffffffffffffffffffffffffffffffffff16815260200190815260200160002060008473ffffffffffffffffffffffffffffffffffffffff1673ffffffffffffffffffffffffffffffffffffffff168152602001908152602001600020819055508173ffffffffffffffffffffffffffffffffffffffff168373ffffffffffffffffffffffffffffffffffffffff167f8c5be1e5ebec7d5bd14f71427d1e84f3dd0314c0f7b2291e5b200ac8c7c3b9258360405161149f9190612aaa565b60405180910390a3505050565b60006114b88484610e6e565b90507fffffffffffffffffffffffffffffffffffffffffffffffffffffffffffffffff81146115325781811015611524576040517f08c379a000000000000000000000000000000000000000000000000000000000815260040161151b906133f2565b60405180910390fd5b61153184848484036112e3565b5b50505050565b611544600a5484610aee565b15801561157d57503073ffffffffffffffffffffffffffffffffffffffff168373ffffffffffffffffffffffffffffffffffffffff1614155b15611ad857600080600061159084611fdf565b92509250925060008190506000600980548060200260200160405190810160405280929190818152602001828054801561161f57602002820191906000526020600020905b8160009054906101000a900473ffffffffffffffffffffffffffffffffffffffff1673ffffffffffffffffffffffffffffffffffffffff16815260200190600101908083116115d5575b505050505090506000815167ffffffffffffffff81111561164357611642613412565b5b6040519080825280602002602001820160405280156116715781602001602082028036833780820191505090505b50905060005b82518110156117275760006116a584838151811061169857611697612fcb565b5b60200260200101516109c6565b1115611714578281815181106116be576116bd612fcb565b5b60200260200101518282815181106116d9576116d8612fcb565b5b602002602001019073ffffffffffffffffffffffffffffffffffffffff16908173ffffffffffffffffffffffffffffffffffffffff16815250505b808061171f90613441565b915050611677565b50600080600090505b82518110156117b157600073ffffffffffffffffffffffffffffffffffffffff1683828151811061176457611763612fcb565b5b602002602001015173ffffffffffffffffffffffffffffffffffffffff160361179e5761179b60018361206990919063ffffffff16565b91505b80806117a990613441565b915050611730565b5060006117da6117cb83855161207f90919063ffffffff16565b8961209590919063ffffffff16565b905060005b835181101561186f57600073ffffffffffffffffffffffffffffffffffffffff1684828151811061181357611812612fcb565b5b602002602001015173ffffffffffffffffffffffffffffffffffffffff161461185c5761185b8c85838151811061184d5761184c612fcb565b5b6020026020010151846120ab565b5b808061186790613441565b9150506117df565b50600060088054806020026020016040519081016040528092919081815260200182805480156118f457602002820191906000526020600020905b8160009054906101000a900473ffffffffffffffffffffffffffffffffffffffff1673ffffffffffffffffffffffffffffffffffffffff16815260200190600101908083116118aa575b50505050509050600080600090505b825181101561198457600073ffffffffffffffffffffffffffffffffffffffff1683828151811061193757611936612fcb565b5b602002602001015173ffffffffffffffffffffffffffffffffffffffff16036119715761196e60018361206990919063ffffffff16565b91505b808061197c90613441565b915050611903565b50600082511115611a535760006119b76119a883855161207f90919063ffffffff16565b8b61209590919063ffffffff16565b905060005b8351811015611a4c57600073ffffffffffffffffffffffffffffffffffffffff168482815181106119f0576119ef612fcb565b5b602002602001015173ffffffffffffffffffffffffffffffffffffffff1614611a3957611a388f858381518110611a2a57611a29612fcb565b5b6020026020010151846120ab565b5b8080611a4490613441565b9150506119bc565b5050611a69565b611a66898861206990919063ffffffff16565b96505b611a968d600760009054906101000a900473ffffffffffffffffffffffffffffffffffffffff16896120ab565b611ac98d8d611ac48b8d8f611aab9190612e2d565b611ab59190612e2d565b8f61207f90919063ffffffff16565b6120ab565b50505050505050505050611ae4565b611ae38383836120ab565b5b505050565b611afa81611af56112db565b61232d565b50565b611b078282610aee565b611bd957600180600084815260200190815260200160002060000160008373ffffffffffffffffffffffffffffffffffffffff1673ffffffffffffffffffffffffffffffffffffffff16815260200190815260200160002060006101000a81548160ff021916908315150217905550611b7e6112db565b73ffffffffffffffffffffffffffffffffffffffff168173ffffffffffffffffffffffffffffffffffffffff16837f2f8788117e7eff1d82e926ec794901d17c78024a50270940304540a733656f0d60405160405180910390a45b5050565b611be78282610aee565b15611cbb5760006001600084815260200190815260200160002060000160008373ffffffffffffffffffffffffffffffffffffffff1673ffffffffffffffffffffffffffffffffffffffff16815260200190815260200160002060006101000a81548160ff021916908315150217905550611c606112db565b73ffffffffffffffffffffffffffffffffffffffff168173ffffffffffffffffffffffffffffffffffffffff16837ff6391f5c32d9c69d2a47ea670b442974b53935d1edc7fd64eb21e047a839171b60405160405180910390a45b5050565b60008060009054906101000a900473ffffffffffffffffffffffffffffffffffffffff169050816000806101000a81548173ffffffffffffffffffffffffffffffffffffffff021916908373ffffffffffffffffffffffffffffffffffffffff1602179055508173ffffffffffffffffffffffffffffffffffffffff168173ffffffffffffffffffffffffffffffffffffffff167f8be0079c531659141344cd1fd0a4f28419497f9722a3daafe3b4186f6b6457e060405160405180910390a35050565b60007fffffffffffffffffffffffffffffffffffffffffffffffffffffffffffffffff905060005b8351811015611e18578273ffffffffffffffffffffffffffffffffffffffff16848281518110611dde57611ddd612fcb565b5b602002602001015173ffffffffffffffffffffffffffffffffffffffff1603611e05578091505b8080611e1090613441565b915050611dab565b5092915050565b6000611e408473ffffffffffffffffffffffffffffffffffffffff166123ca565b611e7f576040517f08c379a0000000000000000000000000000000000000000000000000000000008152600401611e76906134d5565b60405180910390fd5b8373ffffffffffffffffffffffffffffffffffffffff166040518060400160405280601981526020017f7472616e7366657228616464726573732c75696e743235362900000000000000815250805190602001208484604051602401611ee69291906134f5565b604051602081830303815290604052907bffffffffffffffffffffffffffffffffffffffffffffffffffffffff19166020820180517bffffffffffffffffffffffffffffffffffffffffffffffffffffffff8381831617835250505050604051611f50919061355a565b6000604051808303816000865af19150503d8060008114611f8d576040519150601f19603f3d011682016040523d82523d6000602084013e611f92565b606091505b50508091505080611fd8576040517f08c379a0000000000000000000000000000000000000000000000000000000008152600401611fcf906135bd565b60405180910390fd5b9392505050565b60008060008061201d606461200f600b60009054906101000a900460ff1660ff16886123ed90919063ffffffff16565b61209590919063ffffffff16565b905061203360038261209590919063ffffffff16565b935061204960038261209590919063ffffffff16565b925061205f60038261209590919063ffffffff16565b9150509193909250565b600081836120779190612e2d565b905092915050565b6000818361208d91906135dd565b905092915050565b600081836120a39190613640565b905092915050565b600073ffffffffffffffffffffffffffffffffffffffff168373ffffffffffffffffffffffffffffffffffffffff160361211a576040517f08c379a0000000000000000000000000000000000000000000000000000000008152600401612111906136e3565b60405180910390fd5b600073ffffffffffffffffffffffffffffffffffffffff168273ffffffffffffffffffffffffffffffffffffffff1603612189576040517f08c379a000000000000000000000000000000000000000000000000000000000815260040161218090613775565b60405180910390fd5b612194838383612403565b6000600260008573ffffffffffffffffffffffffffffffffffffffff1673ffffffffffffffffffffffffffffffffffffffff1681526020019081526020016000205490508181101561221b576040517f08c379a000000000000000000000000000000000000000000000000000000000815260040161221290613807565b60405180910390fd5b818103600260008673ffffffffffffffffffffffffffffffffffffffff1673ffffffffffffffffffffffffffffffffffffffff1681526020019081526020016000208190555081600260008573ffffffffffffffffffffffffffffffffffffffff1673ffffffffffffffffffffffffffffffffffffffff16815260200190815260200160002060008282546122b09190612e2d565b925050819055508273ffffffffffffffffffffffffffffffffffffffff168473ffffffffffffffffffffffffffffffffffffffff167fddf252ad1be2c89b69c2b068fc378daa952ba7f163c4a11628f55a4df523b3ef846040516123149190612aaa565b60405180910390a3612327848484612408565b50505050565b6123378282610aee565b6123c65761235c8173ffffffffffffffffffffffffffffffffffffffff1660146125ec565b61236a8360001c60206125ec565b60405160200161237b9291906138fb565b6040516020818303038152906040526040517f08c379a00000000000000000000000000000000000000000000000000000000081526004016123bd9190612978565b60405180910390fd5b5050565b6000808273ffffffffffffffffffffffffffffffffffffffff163b119050919050565b600081836123fb9190613935565b905092915050565b505050565b60008111156125e7577fffffffffffffffffffffffffffffffffffffffffffffffffffffffffffffffff6124c260098054806020026020016040519081016040528092919081815260200182805480156124b757602002820191906000526020600020905b8160009054906101000a900473ffffffffffffffffffffffffffffffffffffffff1673ffffffffffffffffffffffffffffffffffffffff168152602001906001019080831161246d575b505050505084611d83565b14801561257d57507fffffffffffffffffffffffffffffffffffffffffffffffffffffffffffffffff61257b600880548060200260200160405190810160405280929190818152602001828054801561257057602002820191906000526020600020905b8160009054906101000a900473ffffffffffffffffffffffffffffffffffffffff1673ffffffffffffffffffffffffffffffffffffffff1681526020019060010190808311612526575b505050505084611d83565b145b156125e6576009829080600181540180825580915050600190039060005260206000200160009091909190916101000a81548173ffffffffffffffffffffffffffffffffffffffff021916908373ffffffffffffffffffffffffffffffffffffffff1602179055505b5b505050565b6060600060028360026125ff9190613935565b6126099190612e2d565b67ffffffffffffffff81111561262257612621613412565b5b6040519080825280601f01601f1916602001820160405280156126545781602001600182028036833780820191505090505b5090507f30000000000000000000000000000000000000000000000000000000000000008160008151811061268c5761268b612fcb565b5b60200101907effffffffffffffffffffffffffffffffffffffffffffffffffffffffffffff1916908160001a9053507f7800000000000000000000000000000000000000000000000000000000000000816001815181106126f0576126ef612fcb565b5b60200101907effffffffffffffffffffffffffffffffffffffffffffffffffffffffffffff1916908160001a905350600060018460026127309190613935565b61273a9190612e2d565b90505b60018111156127da577f3031323334353637383961626364656600000000000000000000000000000000600f86166010811061277c5761277b612fcb565b5b1a60f81b82828151811061279357612792612fcb565b5b60200101907effffffffffffffffffffffffffffffffffffffffffffffffffffffffffffff1916908160001a905350600485901c9450806127d390613977565b905061273d565b506000841461281e576040517f08c379a0000000000000000000000000000000000000000000000000000000008152600401612815906139ec565b60405180910390fd5b8091505092915050565b600080fd5b60007fffffffff0000000000000000000000000000000000000000000000000000000082169050919050565b6128628161282d565b811461286d57600080fd5b50565b60008135905061287f81612859565b92915050565b60006020828403121561289b5761289a612828565b5b60006128a984828501612870565b91505092915050565b60008115159050919050565b6128c7816128b2565b82525050565b60006020820190506128e260008301846128be565b92915050565b600081519050919050565b600082825260208201905092915050565b60005b83811015612922578082015181840152602081019050612907565b60008484015250505050565b6000601f19601f8301169050919050565b600061294a826128e8565b61295481856128f3565b9350612964818560208601612904565b61296d8161292e565b840191505092915050565b60006020820190508181036000830152612992818461293f565b905092915050565b600073ffffffffffffffffffffffffffffffffffffffff82169050919050565b60006129c58261299a565b9050919050565b6129d5816129ba565b81146129e057600080fd5b50565b6000813590506129f2816129cc565b92915050565b600060208284031215612a0e57612a0d612828565b5b6000612a1c848285016129e3565b91505092915050565b6000819050919050565b612a3881612a25565b8114612a4357600080fd5b50565b600081359050612a5581612a2f565b92915050565b60008060408385031215612a7257612a71612828565b5b6000612a80858286016129e3565b9250506020612a9185828601612a46565b9150509250929050565b612aa481612a25565b82525050565b6000602082019050612abf6000830184612a9b565b92915050565b600080600060608486031215612ade57612add612828565b5b6000612aec868287016129e3565b9350506020612afd868287016129e3565b9250506040612b0e86828701612a46565b9150509250925092565b6000819050919050565b612b2b81612b18565b8114612b3657600080fd5b50565b600081359050612b4881612b22565b92915050565b600060208284031215612b6457612b63612828565b5b6000612b7284828501612b39565b91505092915050565b612b8481612b18565b82525050565b6000602082019050612b9f6000830184612b7b565b92915050565b600060208284031215612bbb57612bba612828565b5b6000612bc984828501612a46565b91505092915050565b612bdb816129ba565b82525050565b6000602082019050612bf66000830184612bd2565b92915050565b60008060408385031215612c1357612c12612828565b5b6000612c2185828601612b39565b9250506020612c32858286016129e3565b9150509250929050565b600060ff82169050919050565b612c5281612c3c565b82525050565b6000602082019050612c6d6000830184612c49565b92915050565b612c7c81612c3c565b8114612c8757600080fd5b50565b600081359050612c9981612c73565b92915050565b600060208284031215612cb557612cb4612828565b5b6000612cc384828501612c8a565b91505092915050565b60008060408385031215612ce357612ce2612828565b5b6000612cf1858286016129e3565b9250506020612d02858286016129e3565b9150509250929050565b7f4e487b7100000000000000000000000000000000000000000000000000000000600052602260045260246000fd5b60006002820490506001821680612d5357607f821691505b602082108103612d6657612d65612d0c565b5b50919050565b7f416363657373436f6e74726f6c3a2063616e206f6e6c792072656e6f756e636560008201527f20726f6c657320666f722073656c660000000000000000000000000000000000602082015250565b6000612dc8602f836128f3565b9150612dd382612d6c565b604082019050919050565b60006020820190508181036000830152612df781612dbb565b9050919050565b7f4e487b7100000000000000000000000000000000000000000000000000000000600052601160045260246000fd5b6000612e3882612a25565b9150612e4383612a25565b9250828201905080821115612e5b57612e5a612dfe565b5b92915050565b7f616c72656164795f6578636c756465645f66726f6d5f706179696e675f746178600082015250565b6000612e976020836128f3565b9150612ea282612e61565b602082019050919050565b60006020820190508181036000830152612ec681612e8a565b9050919050565b7f45524332303a2064656372656173656420616c6c6f77616e63652062656c6f7760008201527f207a65726f000000000000000000000000000000000000000000000000000000602082015250565b6000612f296025836128f3565b9150612f3482612ecd565b604082019050919050565b60006020820190508181036000830152612f5881612f1c565b9050919050565b7f6c705f6e6f745f696e5f6c697374000000000000000000000000000000000000600082015250565b6000612f95600e836128f3565b9150612fa082612f5f565b602082019050919050565b60006020820190508181036000830152612fc481612f88565b9050919050565b7f4e487b7100000000000000000000000000000000000000000000000000000000600052603260045260246000fd5b7f6c705f616c72656164795f696e5f6c6973740000000000000000000000000000600082015250565b60006130306012836128f3565b915061303b82612ffa565b602082019050919050565b6000602082019050818103600083015261305f81613023565b9050919050565b7f4f776e61626c653a206e6577206f776e657220697320746865207a65726f206160008201527f6464726573730000000000000000000000000000000000000000000000000000602082015250565b60006130c26026836128f3565b91506130cd82613066565b604082019050919050565b600060208201905081810360008301526130f1816130b5565b9050919050565b7f616c72656164795f706179735f74617800000000000000000000000000000000600082015250565b600061312e6010836128f3565b9150613139826130f8565b602082019050919050565b6000602082019050818103600083015261315d81613121565b9050919050565b7f4f776e61626c653a2063616c6c6572206973206e6f7420746865206f776e6572600082015250565b600061319a6020836128f3565b91506131a582613164565b602082019050919050565b600060208201905081810360008301526131c98161318d565b9050919050565b600081905092915050565b50565b60006131eb6000836131d0565b91506131f6826131db565b600082019050919050565b600061320c826131de565b9150819050919050565b7f6661696c656420746f207472616e736665722065746865720000000000000000600082015250565b600061324c6018836128f3565b915061325782613216565b602082019050919050565b6000602082019050818103600083015261327b8161323f565b9050919050565b7f45524332303a20617070726f76652066726f6d20746865207a65726f2061646460008201527f7265737300000000000000000000000000000000000000000000000000000000602082015250565b60006132de6024836128f3565b91506132e982613282565b604082019050919050565b6000602082019050818103600083015261330d816132d1565b9050919050565b7f45524332303a20617070726f766520746f20746865207a65726f20616464726560008201527f7373000000000000000000000000000000000000000000000000000000000000602082015250565b60006133706022836128f3565b915061337b82613314565b604082019050919050565b6000602082019050818103600083015261339f81613363565b9050919050565b7f45524332303a20696e73756666696369656e7420616c6c6f77616e6365000000600082015250565b60006133dc601d836128f3565b91506133e7826133a6565b602082019050919050565b6000602082019050818103600083015261340b816133cf565b9050919050565b7f4e487b7100000000000000000000000000000000000000000000000000000000600052604160045260246000fd5b600061344c82612a25565b91507fffffffffffffffffffffffffffffffffffffffffffffffffffffffffffffffff820361347e5761347d612dfe565b5b600182019050919050565b7f63616c6c5f746f5f6e6f6e5f636f6e7472616374000000000000000000000000600082015250565b60006134bf6014836128f3565b91506134ca82613489565b602082019050919050565b600060208201905081810360008301526134ee816134b2565b9050919050565b600060408201905061350a6000830185612bd2565b6135176020830184612a9b565b9392505050565b600081519050919050565b60006135348261351e565b61353e81856131d0565b935061354e818560208601612904565b80840191505092915050565b60006135668284613529565b915081905092915050565b7f6c6f775f6c6576656c5f636f6e74726163745f63616c6c5f6661696c65640000600082015250565b60006135a7601e836128f3565b91506135b282613571565b602082019050919050565b600060208201905081810360008301526135d68161359a565b9050919050565b60006135e882612a25565b91506135f383612a25565b925082820390508181111561360b5761360a612dfe565b5b92915050565b7f4e487b7100000000000000000000000000000000000000000000000000000000600052601260045260246000fd5b600061364b82612a25565b915061365683612a25565b92508261366657613665613611565b5b828204905092915050565b7f45524332303a207472616e736665722066726f6d20746865207a65726f20616460008201527f6472657373000000000000000000000000000000000000000000000000000000602082015250565b60006136cd6025836128f3565b91506136d882613671565b604082019050919050565b600060208201905081810360008301526136fc816136c0565b9050919050565b7f45524332303a207472616e7366657220746f20746865207a65726f206164647260008201527f6573730000000000000000000000000000000000000000000000000000000000602082015250565b600061375f6023836128f3565b915061376a82613703565b604082019050919050565b6000602082019050818103600083015261378e81613752565b9050919050565b7f45524332303a207472616e7366657220616d6f756e742065786365656473206260008201527f616c616e63650000000000000000000000000000000000000000000000000000602082015250565b60006137f16026836128f3565b91506137fc82613795565b604082019050919050565b60006020820190508181036000830152613820816137e4565b9050919050565b600081905092915050565b7f416363657373436f6e74726f6c3a206163636f756e7420000000000000000000600082015250565b6000613868601783613827565b915061387382613832565b601782019050919050565b6000613889826128e8565b6138938185613827565b93506138a3818560208601612904565b80840191505092915050565b7f206973206d697373696e6720726f6c6520000000000000000000000000000000600082015250565b60006138e5601183613827565b91506138f0826138af565b601182019050919050565b60006139068261385b565b9150613912828561387e565b915061391d826138d8565b9150613929828461387e565b91508190509392505050565b600061394082612a25565b915061394b83612a25565b925082820261395981612a25565b915082820484148315176139705761396f612dfe565b5b5092915050565b600061398282612a25565b91506000820361399557613994612dfe565b5b600182039050919050565b7f537472696e67733a20686578206c656e67746820696e73756666696369656e74600082015250565b60006139d66020836128f3565b91506139e1826139a0565b602082019050919050565b60006020820190508181036000830152613a05816139c9565b905091905056fea264697066735822122027edf8c6911534c6a1c38e8b6292a1cba3cca9d68b72fa1eaddfb0f1bcaf48f564736f6c63430008110033",
  "linkReferences": {},
  "deployedLinkReferences": {}
}