{
  "contracts/VefiEcosystemTokenUpdated.sol": {
    "VefiEcosystemTokenUpdated": {
      "abi": [
        {
          "inputs": [
            {
              "internalType": "string",
              "name": "name_",
              "type": "string"
            },
            {
              "internalType": "string",
              "name": "symbol_",
              "type": "string"
            },
            {
              "internalType": "uint256",
              "name": "amount",
              "type": "uint256"
            },
            {
              "internalType": "address",
              "name": "_taxCollector",
              "type": "address"
            },
            {
              "internalType": "uint8",
              "name": "_taxPercentage",
              "type": "uint8"
            }
          ],
          "stateMutability": "nonpayable",
          "type": "constructor"
        },
        {
          "anonymous": false,
          "inputs": [
            {
              "indexed": true,
              "internalType": "address",
              "name": "owner",
              "type": "address"
            },
            {
              "indexed": true,
              "internalType": "address",
              "name": "spender",
              "type": "address"
            },
            {
              "indexed": false,
              "internalType": "uint256",
              "name": "value",
              "type": "uint256"
            }
          ],
          "name": "Approval",
          "type": "event"
        },
        {
          "anonymous": false,
          "inputs": [
            {
              "indexed": true,
              "internalType": "address",
              "name": "previousOwner",
              "type": "address"
            },
            {
              "indexed": true,
              "internalType": "address",
              "name": "newOwner",
              "type": "address"
            }
          ],
          "name": "OwnershipTransferred",
          "type": "event"
        },
        {
          "anonymous": false,
          "inputs": [
            {
              "indexed": true,
              "internalType": "bytes32",
              "name": "role",
              "type": "bytes32"
            },
            {
              "indexed": true,
              "internalType": "bytes32",
              "name": "previousAdminRole",
              "type": "bytes32"
            },
            {
              "indexed": true,
              "internalType": "bytes32",
              "name": "newAdminRole",
              "type": "bytes32"
            }
          ],
          "name": "RoleAdminChanged",
          "type": "event"
        },
        {
          "anonymous": false,
          "inputs": [
            {
              "indexed": true,
              "internalType": "bytes32",
              "name": "role",
              "type": "bytes32"
            },
            {
              "indexed": true,
              "internalType": "address",
              "name": "account",
              "type": "address"
            },
            {
              "indexed": true,
              "internalType": "address",
              "name": "sender",
              "type": "address"
            }
          ],
          "name": "RoleGranted",
          "type": "event"
        },
        {
          "anonymous": false,
          "inputs": [
            {
              "indexed": true,
              "internalType": "bytes32",
              "name": "role",
              "type": "bytes32"
            },
            {
              "indexed": true,
              "internalType": "address",
              "name": "account",
              "type": "address"
            },
            {
              "indexed": true,
              "internalType": "address",
              "name": "sender",
              "type": "address"
            }
          ],
          "name": "RoleRevoked",
          "type": "event"
        },
        {
          "anonymous": false,
          "inputs": [
            {
              "indexed": true,
              "internalType": "address",
              "name": "from",
              "type": "address"
            },
            {
              "indexed": true,
              "internalType": "address",
              "name": "to",
              "type": "address"
            },
            {
              "indexed": false,
              "internalType": "uint256",
              "name": "value",
              "type": "uint256"
            }
          ],
          "name": "Transfer",
          "type": "event"
        },
        {
          "inputs": [],
          "name": "DEFAULT_ADMIN_ROLE",
          "outputs": [
            {
              "internalType": "bytes32",
              "name": "",
              "type": "bytes32"
            }
          ],
          "stateMutability": "view",
          "type": "function"
        },
        {
          "inputs": [
            {
              "internalType": "address",
              "name": "owner",
              "type": "address"
            },
            {
              "internalType": "address",
              "name": "spender",
              "type": "address"
            }
          ],
          "name": "allowance",
          "outputs": [
            {
              "internalType": "uint256",
              "name": "",
              "type": "uint256"
            }
          ],
          "stateMutability": "view",
          "type": "function"
        },
        {
          "inputs": [
            {
              "internalType": "address",
              "name": "spender",
              "type": "address"
            },
            {
              "internalType": "uint256",
              "name": "amount",
              "type": "uint256"
            }
          ],
          "name": "approve",
          "outputs": [
            {
              "internalType": "bool",
              "name": "",
              "type": "bool"
            }
          ],
          "stateMutability": "nonpayable",
          "type": "function"
        },
        {
          "inputs": [
            {
              "internalType": "address",
              "name": "account",
              "type": "address"
            }
          ],
          "name": "balanceOf",
          "outputs": [
            {
              "internalType": "uint256",
              "name": "",
              "type": "uint256"
            }
          ],
          "stateMutability": "view",
          "type": "function"
        },
        {
          "inputs": [],
          "name": "decimals",
          "outputs": [
            {
              "internalType": "uint8",
              "name": "",
              "type": "uint8"
            }
          ],
          "stateMutability": "view",
          "type": "function"
        },
        {
          "inputs": [
            {
              "internalType": "address",
              "name": "spender",
              "type": "address"
            },
            {
              "internalType": "uint256",
              "name": "subtractedValue",
              "type": "uint256"
            }
          ],
          "name": "decreaseAllowance",
          "outputs": [
            {
              "internalType": "bool",
              "name": "",
              "type": "bool"
            }
          ],
          "stateMutability": "nonpayable",
          "type": "function"
        },
        {
          "inputs": [
            {
              "internalType": "address",
              "name": "account",
              "type": "address"
            }
          ],
          "name": "excludeFromPayingTax",
          "outputs": [],
          "stateMutability": "nonpayable",
          "type": "function"
        },
        {
          "inputs": [
            {
              "internalType": "bytes32",
              "name": "role",
              "type": "bytes32"
            }
          ],
          "name": "getRoleAdmin",
          "outputs": [
            {
              "internalType": "bytes32",
              "name": "",
              "type": "bytes32"
            }
          ],
          "stateMutability": "view",
          "type": "function"
        },
        {
          "inputs": [
            {
              "internalType": "bytes32",
              "name": "role",
              "type": "bytes32"
            },
            {
              "internalType": "address",
              "name": "account",
              "type": "address"
            }
          ],
          "name": "grantRole",
          "outputs": [],
          "stateMutability": "nonpayable",
          "type": "function"
        },
        {
          "inputs": [
            {
              "internalType": "bytes32",
              "name": "role",
              "type": "bytes32"
            },
            {
              "internalType": "address",
              "name": "account",
              "type": "address"
            }
          ],
          "name": "hasRole",
          "outputs": [
            {
              "internalType": "bool",
              "name": "",
              "type": "bool"
            }
          ],
          "stateMutability": "view",
          "type": "function"
        },
        {
          "inputs": [],
          "name": "inSwapAndLiquify",
          "outputs": [
            {
              "internalType": "bool",
              "name": "",
              "type": "bool"
            }
          ],
          "stateMutability": "view",
          "type": "function"
        },
        {
          "inputs": [
            {
              "internalType": "address",
              "name": "account",
              "type": "address"
            }
          ],
          "name": "includeInTaxPayment",
          "outputs": [],
          "stateMutability": "nonpayable",
          "type": "function"
        },
        {
          "inputs": [
            {
              "internalType": "address",
              "name": "spender",
              "type": "address"
            },
            {
              "internalType": "uint256",
              "name": "addedValue",
              "type": "uint256"
            }
          ],
          "name": "increaseAllowance",
          "outputs": [
            {
              "internalType": "bool",
              "name": "",
              "type": "bool"
            }
          ],
          "stateMutability": "nonpayable",
          "type": "function"
        },
        {
          "inputs": [],
          "name": "liquidityExclusionPrivilege",
          "outputs": [
            {
              "internalType": "bytes32",
              "name": "",
              "type": "bytes32"
            }
          ],
          "stateMutability": "view",
          "type": "function"
        },
        {
          "inputs": [],
          "name": "liquidityPercentageForEcosystem",
          "outputs": [
            {
              "internalType": "uint8",
              "name": "",
              "type": "uint8"
            }
          ],
          "stateMutability": "view",
          "type": "function"
        },
        {
          "inputs": [],
          "name": "maxAmount",
          "outputs": [
            {
              "internalType": "uint256",
              "name": "",
              "type": "uint256"
            }
          ],
          "stateMutability": "view",
          "type": "function"
        },
        {
          "inputs": [],
          "name": "minHoldOfTokenForContract",
          "outputs": [
            {
              "internalType": "uint256",
              "name": "",
              "type": "uint256"
            }
          ],
          "stateMutability": "view",
          "type": "function"
        },
        {
          "inputs": [],
          "name": "name",
          "outputs": [
            {
              "internalType": "string",
              "name": "",
              "type": "string"
            }
          ],
          "stateMutability": "view",
          "type": "function"
        },
        {
          "inputs": [],
          "name": "owner",
          "outputs": [
            {
              "internalType": "address",
              "name": "",
              "type": "address"
            }
          ],
          "stateMutability": "view",
          "type": "function"
        },
        {
          "inputs": [],
          "name": "renounceOwnership",
          "outputs": [],
          "stateMutability": "nonpayable",
          "type": "function"
        },
        {
          "inputs": [
            {
              "internalType": "bytes32",
              "name": "role",
              "type": "bytes32"
            },
            {
              "internalType": "address",
              "name": "account",
              "type": "address"
            }
          ],
          "name": "renounceRole",
          "outputs": [],
          "stateMutability": "nonpayable",
          "type": "function"
        },
        {
          "inputs": [
            {
              "internalType": "address",
              "name": "token",
              "type": "address"
            },
            {
              "internalType": "address",
              "name": "to",
              "type": "address"
            },
            {
              "internalType": "uint256",
              "name": "amount",
              "type": "uint256"
            }
          ],
          "name": "retrieveERC20",
          "outputs": [],
          "stateMutability": "nonpayable",
          "type": "function"
        },
        {
          "inputs": [
            {
              "internalType": "address",
              "name": "to",
              "type": "address"
            }
          ],
          "name": "retrieveEther",
          "outputs": [],
          "stateMutability": "nonpayable",
          "type": "function"
        },
        {
          "inputs": [
            {
              "internalType": "bytes32",
              "name": "role",
              "type": "bytes32"
            },
            {
              "internalType": "address",
              "name": "account",
              "type": "address"
            }
          ],
          "name": "revokeRole",
          "outputs": [],
          "stateMutability": "nonpayable",
          "type": "function"
        },
        {
          "inputs": [
            {
              "internalType": "uint8",
              "name": "_lpPercentage",
              "type": "uint8"
            }
          ],
          "name": "setLiquidityPercentageForEcosystem",
          "outputs": [],
          "stateMutability": "nonpayable",
          "type": "function"
        },
        {
          "inputs": [
            {
              "internalType": "uint256",
              "name": "_max",
              "type": "uint256"
            }
          ],
          "name": "setMaxAmount",
          "outputs": [],
          "stateMutability": "nonpayable",
          "type": "function"
        },
        {
          "inputs": [
            {
              "internalType": "uint256",
              "name": "minHold",
              "type": "uint256"
            }
          ],
          "name": "setMinHoldOfTokenForContract",
          "outputs": [],
          "stateMutability": "nonpayable",
          "type": "function"
        },
        {
          "inputs": [
            {
              "internalType": "address",
              "name": "router",
              "type": "address"
            }
          ],
          "name": "setSphynxRouter",
          "outputs": [],
          "stateMutability": "nonpayable",
          "type": "function"
        },
        {
          "inputs": [
            {
              "internalType": "address",
              "name": "_taxCollector",
              "type": "address"
            }
          ],
          "name": "setTaxCollector",
          "outputs": [],
          "stateMutability": "nonpayable",
          "type": "function"
        },
        {
          "inputs": [
            {
              "internalType": "uint8",
              "name": "_taxPercentage",
              "type": "uint8"
            }
          ],
          "name": "setTaxPercentage",
          "outputs": [],
          "stateMutability": "nonpayable",
          "type": "function"
        },
        {
          "inputs": [
            {
              "internalType": "bytes4",
              "name": "interfaceId",
              "type": "bytes4"
            }
          ],
          "name": "supportsInterface",
          "outputs": [
            {
              "internalType": "bool",
              "name": "",
              "type": "bool"
            }
          ],
          "stateMutability": "view",
          "type": "function"
        },
        {
          "inputs": [],
          "name": "swapAndLiquifyEnabled",
          "outputs": [
            {
              "internalType": "bool",
              "name": "",
              "type": "bool"
            }
          ],
          "stateMutability": "view",
          "type": "function"
        },
        {
          "inputs": [],
          "name": "switchSwapAndLiquifyEnabled",
          "outputs": [],
          "stateMutability": "nonpayable",
          "type": "function"
        },
        {
          "inputs": [],
          "name": "symbol",
          "outputs": [
            {
              "internalType": "string",
              "name": "",
              "type": "string"
            }
          ],
          "stateMutability": "view",
          "type": "function"
        },
        {
          "inputs": [],
          "name": "taxCollector",
          "outputs": [
            {
              "internalType": "address",
              "name": "",
              "type": "address"
            }
          ],
          "stateMutability": "view",
          "type": "function"
        },
        {
          "inputs": [],
          "name": "taxExclusionPrivilege",
          "outputs": [
            {
              "internalType": "bytes32",
              "name": "",
              "type": "bytes32"
            }
          ],
          "stateMutability": "view",
          "type": "function"
        },
        {
          "inputs": [],
          "name": "taxPercentage",
          "outputs": [
            {
              "internalType": "uint8",
              "name": "",
              "type": "uint8"
            }
          ],
          "stateMutability": "view",
          "type": "function"
        },
        {
          "inputs": [],
          "name": "totalSupply",
          "outputs": [
            {
              "internalType": "uint256",
              "name": "",
              "type": "uint256"
            }
          ],
          "stateMutability": "view",
          "type": "function"
        },
        {
          "inputs": [
            {
              "internalType": "address",
              "name": "to",
              "type": "address"
            },
            {
              "internalType": "uint256",
              "name": "amount",
              "type": "uint256"
            }
          ],
          "name": "transfer",
          "outputs": [
            {
              "internalType": "bool",
              "name": "",
              "type": "bool"
            }
          ],
          "stateMutability": "nonpayable",
          "type": "function"
        },
        {
          "inputs": [
            {
              "internalType": "address",
              "name": "from",
              "type": "address"
            },
            {
              "internalType": "address",
              "name": "to",
              "type": "address"
            },
            {
              "internalType": "uint256",
              "name": "amount",
              "type": "uint256"
            }
          ],
          "name": "transferFrom",
          "outputs": [
            {
              "internalType": "bool",
              "name": "",
              "type": "bool"
            }
          ],
          "stateMutability": "nonpayable",
          "type": "function"
        },
        {
          "inputs": [
            {
              "internalType": "address",
              "name": "newOwner",
              "type": "address"
            }
          ],
          "name": "transferOwnership",
          "outputs": [],
          "stateMutability": "nonpayable",
          "type": "function"
        },
        {
          "stateMutability": "payable",
          "type": "receive"
        }
      ],
      "evm": {
        "bytecode": {
          "linkReferences": {},
          "object": "608060409080825234620004475762002875803803809162000022828562000757565b833981019060a081830312620004475780516001600160401b038111620004475782620000519183016200077b565b602082015190926001600160401b0382116200044757620000749183016200077b565b838201519060806200008960608501620007f2565b9301519060ff82168203620004475760008054336001600160a01b03198216811783556001600160a01b03979290918816907f8be0079c531659141344cd1fd0a4f28419497f9722a3daafe3b4186f6b6457e09080a380516001600160401b0381116200064757600591825490600182811c9216801562000730575b6020831014620006265781601f849311620006da575b50602090601f831160011462000669576000926200065d575b50508160011b916000199060031b1c19161781555b8151916001600160401b0383116200064757600654600181811c911680156200063c575b602082101462000626578392601f8211620005c7575b5050602090601f83116001146200054d5760009262000541575b50508160011b916000199060031b1c1916176006555b84516020810190602082526017878201527f5441585f4558434c5553494f4e5f50524956494c454745000000000000000000606082015260608152620001f9816200073b565b5190206008558451602081019060208252601d878201527f4c49515549444954595f4558434c5553494f4e5f50524956494c45474500000060608201526060815262000245816200073b565b519020600955600a80546b024306c4097859c43c000000600b55691969368974c05b000000600c55600780546001600160a01b03191686881617905561ffff60a01b191660a09290921b60ff60a01b1691909117600160ab1b1790553315620004fd579081620002bc6200031f9360045462000882565b60045533600052600260205284600020620002d982825462000882565b9055845190815260007fddf252ad1be2c89b69c2b068fc378daa952ba7f163c4a11628f55a4df523b3ef60203393a3620003163360085462000807565b60085462000807565b600a80546001600160a01b0319167383f465457c8cafbe85abb941f20291f826c7f72a908117909155825163c45a015560e01b81529190602083600481845afa928315620004a957600093620004b4575b5060206004918551928380926315ab88c960e31b82525afa908115620004a957829060009262000460575b506044602092600083885197889586946364e329cb60e11b8652166004850152306024850152165af1918215620004555760009262000405575b50620003e8620003f79260095462000807565b60095490600a54169062000807565b51611fae9081620008a78239f35b91506020823d6020116200044c575b81620004236020938362000757565b810103126200044757620003e86200043f620003f793620007f2565b9250620003d5565b600080fd5b3d915062000414565b83513d6000823e3d90fd5b9150506020813d602011620004a0575b816200047f6020938362000757565b81010312620004475781604462000498602093620007f2565b92506200039b565b3d915062000470565b84513d6000823e3d90fd5b9092506020813d602011620004f4575b81620004d36020938362000757565b8101031262000447576020620004eb600492620007f2565b93915062000370565b3d9150620004c4565b835162461bcd60e51b815260206004820152601f60248201527f45524332303a206d696e7420746f20746865207a65726f2061646472657373006044820152606490fd5b0151905038806200019d565b60066000908152600080516020620028558339815191529350601f198516905b818110620005ae575090846001959493921062000594575b505050811b01600655620001b3565b015160001960f88460031b161c1916905538808062000585565b929360206001819287860151815501950193016200056d565b600660005291925060008051602062002855833981519152601f8501831c8101929091602086106200061b575b90601f869594939201901c01905b8181101562000183576000815584935060010162000602565b9192508291620005f4565b634e487b7160e01b600052602260045260246000fd5b90607f16906200016d565b634e487b7160e01b600052604160045260246000fd5b01519050388062000134565b9250836000526020600020906000935b601f1984168510620006be576001945083601f19811610620006a4575b505050811b01815562000149565b015160001960f88460031b161c1916905538808062000696565b8181015183556020948501946001909301929091019062000679565b909150836000526020600020601f8401851c8101916020851062000725575b90601f8594939201861c01905b8181106200071557506200011b565b6000815584935060010162000706565b9091508190620006f9565b91607f169162000105565b608081019081106001600160401b038211176200064757604052565b601f909101601f19168101906001600160401b038211908210176200064757604052565b919080601f8401121562000447578251906001600160401b038211620006475760405191602091620007b7601f8301601f191684018562000757565b818452828287010111620004475760005b818110620007de57508260009394955001015290565b8581018301518482018401528201620007c8565b51906001600160a01b03821682036200044757565b906000918083526001602052604083209160018060a01b03169182845260205260ff604084205416156200083a57505050565b80835260016020526040832082845260205260408320600160ff198254161790557f2f8788117e7eff1d82e926ec794901d17c78024a50270940304540a733656f0d339380a4565b919082018092116200089057565b634e487b7160e01b600052601160045260246000fdfe608060409080825260049081361015610023575b505050361561002157600080fd5b005b600092833560e01c91826301ffc9a714610eff5750816306fdde0314610e41578163084a139214610e1157816308695b4114610daf578163095ea7b314610d8557816318160ddd14610d66578163220f669614610d3f57816323b872dd14610c86578163248a9ca314610c5b5781632f2ff15d14610c32578163313ce56714610c1657816331e4e4e514610bf757816336568abe14610b665781633950935114610b1657816346e6552314610af75781634a74bb0214610ad35781634fe47f7014610ab157816359102d1c14610a8c5781635c2a00b214610a6d5781635f48f39314610a4e57816370a0823114610a16578163715018a6146109bc578163808c16431461098d5781638da5cb5b146109655781638e6dda25146108be57816391d148541461087657816395d89b4114610774578163a217fddf14610759578163a457c2d7146106b5578163a5ffad521461066f578163a9059cbb1461063e578163ae7b6d1614610619578163bea1dcf8146105f0578163c676ee6b146105ce578163d547741f14610594578163d63f459414610435578163dd62ed3e146103ec578163f2fde38b14610324578163f3bf29de1461028657508063f6ed11c11461023e5763fd7b674d146101f65780610013565b3461023a57602036600319011261023a573560ff8116810361023a5761021a611438565b600a805460ff60a81b191660a89290921b60ff60a81b1691909117905580f35b5080fd5b823461028357602036600319011261028357610258610fa2565b610260611438565b60018060a01b03166bffffffffffffffffffffffff60a01b600a541617600a5580f35b80fd5b83833461023a57602036600319011261023a576102a1610fa2565b906102aa611438565b600854906102db8383600052600160205260406000209060018060a01b031660005260205260ff6040600020541690565b156102ee5750906102eb916113c2565b80f35b606490602086519162461bcd60e51b8352820152601060248201526f0c2d8e4cac2c8f2bee0c2f2e6bee8c2f60831b6044820152fd5b919050346103e85760203660031901126103e857610340610fa2565b90610349611438565b6001600160a01b0391821692831561039657505082546001600160a01b0319811683178455167f8be0079c531659141344cd1fd0a4f28419497f9722a3daafe3b4186f6b6457e08380a380f35b906020608492519162461bcd60e51b8352820152602660248201527f4f776e61626c653a206e6577206f776e657220697320746865207a65726f206160448201526564647265737360d01b6064820152fd5b8280fd5b83903461023a578060031936011261023a578060209261040a610fa2565b610412610fbd565b6001600160a01b0391821683526003865283832091168252845220549051908152f35b9050346103e85761044536610fd3565b61044d611438565b823b1561055a57835167ffffffffffffffff9080860182811182821017610547577f7472616e7366657228616464726573732c75696e743235362900000000000000916020918852601981520152845191602083019363a9059cbb60e01b855260018060a01b0316602484015260448301526044825260808201908282109082111761053457845251859283929083905af16104e7611ed8565b50156104f1578280f35b906020606492519162461bcd60e51b8352820152601e60248201527f6c6f775f6c6576656c5f636f6e74726163745f63616c6c5f6661696c656400006044820152fd5b634e487b7160e01b875260418652602487fd5b634e487b7160e01b895260418852602489fd5b835162461bcd60e51b8152602081870152601460248201527318d85b1b17dd1bd7db9bdb97d8dbdb9d1c9858dd60621b6044820152606490fd5b9050346103e857806003193601126103e8576102eb91356105c960016105b8610fbd565b938387528160205286200154611008565b6113c2565b50503461023a57602036600319011261023a576105e9611438565b35600c5580f35b83903461023a578160031936011261023a5760075490516001600160a01b039091168152602090f35b83903461023a578160031936011261023a5760209060ff600a5460a01c169051908152f35b83903461023a578060031936011261023a5760209061066861065e610fa2565b60243590336115ef565b5160018152f35b50503461023a57602036600319011261023a573560ff8116810361023a57610695611438565b600a805460ff60a01b191660a09290921b60ff60a01b1691909117905580f35b8284346102835782600319360112610283576106cf610fa2565b918360243592338152600360205281812060018060a01b03861682526020522054908282106107085760208561066885850387336114b3565b608490602086519162461bcd60e51b8352820152602560248201527f45524332303a2064656372656173656420616c6c6f77616e63652062656c6f77604482015264207a65726f60d81b6064820152fd5b83903461023a578160031936011261023a5751908152602090f35b9050346103e857826003193601126103e857805191836006549060019082821c92828116801561086c575b6020958686108214610859575084885290811561083757506001146107de575b6107da86866107d0828b0383611310565b5191829182610f76565b0390f35b929550600683527ff652222313e28459528d920b65115c16c04f3efc82aaedc97be59f3f377c0d3f5b82841061082457505050826107da946107d09282010194386107bf565b8054868501880152928601928101610807565b60ff191687860152505050151560051b83010192506107d0826107da386107bf565b634e487b7160e01b845260229052602483fd5b93607f169361079f565b919050346103e857816003193601126103e8578160209360ff92610898610fbd565b90358252600186528282206001600160a01b039091168252855220549151911615158152f35b83833461023a57602036600319011261023a576108d9610fa2565b906108e2611438565b600854906109138383600052600160205260406000209060018060a01b031660005260205260ff6040600020541690565b6109225750906102eb91611348565b606490602086519162461bcd60e51b8352820152602060248201527f616c72656164795f6578636c756465645f66726f6d5f706179696e675f7461786044820152fd5b83903461023a578160031936011261023a57905490516001600160a01b039091168152602090f35b83346102835780600319360112610283576109a6611438565b600d5460ff80821615169060ff191617600d5580f35b83346102835780600319360112610283576109d5611438565b80546001600160a01b03198116825581906001600160a01b03167f8be0079c531659141344cd1fd0a4f28419497f9722a3daafe3b4186f6b6457e08280a380f35b83903461023a57602036600319011261023a5760209181906001600160a01b03610a3e610fa2565b1681526002845220549051908152f35b83903461023a578160031936011261023a57602090600b549051908152f35b83903461023a578160031936011261023a57602090600c549051908152f35b83903461023a578160031936011261023a5760209060ff600a5460a81c169051908152f35b50503461023a57602036600319011261023a57610acc611438565b35600b5580f35b83903461023a578160031936011261023a5760209060ff600d541690519015158152f35b83903461023a578160031936011261023a576020906008549051908152f35b83903461023a578060031936011261023a57610668602092610b5f610b39610fa2565b338352600386528483206001600160a01b03821684528652918490205460243590611490565b90336114b3565b83833461023a578260031936011261023a57610b80610fbd565b90336001600160a01b03831603610b9c57906102eb91356113c2565b608490602085519162461bcd60e51b8352820152602f60248201527f416363657373436f6e74726f6c3a2063616e206f6e6c792072656e6f756e636560448201526e103937b632b9903337b91039b2b63360891b6064820152fd5b83903461023a578160031936011261023a576020906009549051908152f35b83903461023a578160031936011261023a576020905160128152f35b9050346103e857806003193601126103e8576102eb9135610c5660016105b8610fbd565b611348565b919050346103e85760203660031901126103e857816020936001923581528285522001549051908152f35b8284346102835782610c9736610fd3565b6001600160a01b03831685526003602090815284862033875290529290932054919390919060018201610cd3575b6020866106688787876115ef565b848210610cfc5750918391610cf160209695610668950333836114b3565b919394819350610cc5565b606490602087519162461bcd60e51b8352820152601d60248201527f45524332303a20696e73756666696369656e7420616c6c6f77616e63650000006044820152fd5b83903461023a578160031936011261023a5760209060ff600d5460081c1690519015158152f35b919050346103e857826003193601126103e85760209250549051908152f35b83903461023a578060031936011261023a57602090610668610da5610fa2565b60243590336114b3565b8334610283576020366003190112610283576102eb610dcc610fa2565b610dd4611438565b6008546007546001600160a01b0391610def918316906113c2565b81166bffffffffffffffffffffffff60a01b6007541617600755600854611348565b833461028357602036600319011261028357610e3d610e2e610fa2565b610e36611438565b4790611f18565b5080f35b9050346103e857826003193601126103e857805191836005549060019082821c928281168015610ef5575b602095868610821461085957508488529081156108375750600114610e9c576107da86866107d0828b0383611310565b929550600583527f036b6384b5eca791c62761152d0c79bb0604c104a5fb6f4eb0703f3154bb3db05b828410610ee257505050826107da946107d09282010194386107bf565b8054868501880152928601928101610ec5565b93607f1693610e6c565b849084346103e85760203660031901126103e8573563ffffffff60e01b81168091036103e85760209250637965db0b60e01b8114908115610f42575b5015158152f35b6301ffc9a760e01b14905083610f3b565b60005b838110610f665750506000910152565b8181015183820152602001610f56565b60409160208252610f968151809281602086015260208686019101610f53565b601f01601f1916010190565b600435906001600160a01b0382168203610fb857565b600080fd5b602435906001600160a01b0382168203610fb857565b6060906003190112610fb8576001600160a01b03906004358281168103610fb857916024359081168103610fb8579060443590565b600090808252600191602091838352604093848320338452845260ff858420541615611035575050505050565b845167ffffffffffffffff92339290606083018581118482101761123c578852602a835286830193883686378351156112fc576030855383518310156112fc576078602185015360295b8381116112925750611250579087519460808601908682109082111761123c57885260428552868501956060368837855115611228576030875385518210156112285790607860218701536041915b8183116111ba575050506111785793859361115e9361114f6048946111267f416363657373436f6e74726f6c3a206163636f756e7420000000000000000000996111749b519a8b978801525180926037880190610f53565b8401917001034b99036b4b9b9b4b733903937b6329607d1b603784015251809386840190610f53565b01036028810185520183611310565b5162461bcd60e51b815291829160048301610f76565b0390fd5b60648587519062461bcd60e51b825280600483015260248201527f537472696e67733a20686578206c656e67746820696e73756666696369656e746044820152fd5b909192600f81166010811015611214576f181899199a1a9b1b9c1cb0b131b232b360811b901a6111ea85896115c8565b5360041c928015611200576000190191906110ce565b634e487b7160e01b82526011600452602482fd5b634e487b7160e01b83526032600452602483fd5b634e487b7160e01b81526032600452602490fd5b634e487b7160e01b87526041600452602487fd5b60648789519062461bcd60e51b825280600483015260248201527f537472696e67733a20686578206c656e67746820696e73756666696369656e746044820152fd5b90600f811660108110156112e8576f181899199a1a9b1b9c1cb0b131b232b360811b901a6112c083876115c8565b5360041c9080156112d4576000190161107f565b634e487b7160e01b88526011600452602488fd5b634e487b7160e01b89526032600452602489fd5b634e487b7160e01b87526032600452602487fd5b90601f8019910116810190811067ffffffffffffffff82111761133257604052565b634e487b7160e01b600052604160045260246000fd5b906000918083526001602052604083209160018060a01b03169182845260205260ff6040842054161561137a57505050565b80835260016020526040832082845260205260408320600160ff198254161790557f2f8788117e7eff1d82e926ec794901d17c78024a50270940304540a733656f0d339380a4565b906000918083526001602052604083209160018060a01b03169182845260205260ff6040842054166113f357505050565b8083526001602052604083208284526020526040832060ff1981541690557ff6391f5c32d9c69d2a47ea670b442974b53935d1edc7fd64eb21e047a839171b339380a4565b6000546001600160a01b0316330361144c57565b606460405162461bcd60e51b815260206004820152602060248201527f4f776e61626c653a2063616c6c6572206973206e6f7420746865206f776e65726044820152fd5b9190820180921161149d57565b634e487b7160e01b600052601160045260246000fd5b6001600160a01b0390811691821561156457169182156115145760207f8c5be1e5ebec7d5bd14f71427d1e84f3dd0314c0f7b2291e5b200ac8c7c3b925918360005260038252604060002085600052825280604060002055604051908152a3565b60405162461bcd60e51b815260206004820152602260248201527f45524332303a20617070726f766520746f20746865207a65726f206164647265604482015261737360f01b6064820152608490fd5b60405162461bcd60e51b8152602060048201526024808201527f45524332303a20617070726f76652066726f6d20746865207a65726f206164646044820152637265737360e01b6064820152608490fd5b8181029291811591840414171561149d57565b9081518110156115d9570160200190565b634e487b7160e01b600052603260045260246000fd5b600080549394939092906001600160a01b038084169116818114159081611d1f575b81611cec575b50611c8c575b60085460009081526001602090815260408083206001600160a01b038716845290915290205460ff16159081611c81575b5015611c7457600a54946003606461166c60ff8960a01c16846115b5565b0404938460011c963082526002602052604082205490600b5480831015611c6c575b50600c548210156116c487600954600052600160205260406000209060018060a01b031660005260205260ff6040600020541690565b159081611c64575b5080611c54575b80611c48575b61173b575b5050509461171561171c9261170e83611703611739999a6117088a6117038180611490565b611490565b90611eac565b9085611d35565b8280611d35565b611727823083611d35565b6007546001600160a01b031690611d35565b565b61010061ff0019600d541617600d556117578260011c83611eac565b91479161177390600183901c906001600160a01b0316306114b3565b600a5460405163c45a015560e01b81526001600160a01b0390911690602081600481855afa908115611c3d578691611c1e575b50604051906060820182811067ffffffffffffffff821117611c0a576040526002825260403660208401378151156112fc573060208301526040516315ab88c960e31b8152602081600481875afa908115611b83578891611beb575b50825160011015611bd7576001600160a01b0316604083810191909152516315ab88c960e31b815290602082600481875afa918215611b83578892611bb6575b506040516315ab88c960e31b8152602081600481885afa908115611bab57906020918a91611b8e575b5060405163e6a4390560e01b81523060048201526001600160a01b0391821660248201529283916044918391165afa908115611b8357906020918991611b56575b506040516370a0823160e01b81526001600160a01b0391821660048201529283916024918391165afa908115611b4b578791611b15575b50611a18575b5050506118f69047611eac565b611915606461190d60ff600a5460a81c16846115b5565b048092611eac565b90806119fb575b50600a546119359083906001600160a01b0316306114b3565b600a546001600160a01b031691426104b08101929083106119e7576060929160c491604051958694859363f305d71960e01b8552306004860152602485015288604485015288606485015230608485015260a48401525af180156119dc576119b1575b5050600d805461ff00191690556117158261170e6116de565b606090813d81116119d5575b6119c78183611310565b810103126102835780611998565b503d6119bd565b6040513d84823e3d90fd5b634e487b7160e01b85526011600452602485fd5b600754611a1191906001600160a01b0316611f18565b503861191c565b6104b042014211611b0157813b15611afd5791859160405193849263791ac94760e01b845260a484019060011c600485015284602485015260a060448501528151809152602060c48501920190855b818110611ad857505050838380923060648301526104b04201608483015203925af18015611acd57611a9b575b80806118e9565b67ffffffffffffffff8194929411611ab957604052916118f6611a94565b634e487b7160e01b82526041600452602482fd5b6040513d86823e3d90fd5b82516001600160a01b031684528a965087955060209384019390920191600101611a67565b8580fd5b634e487b7160e01b86526011600452602486fd5b90506020813d602011611b43575b81611b3060209383611310565b81010312611b3f5751386118e3565b8680fd5b3d9150611b23565b6040513d89823e3d90fd5b611b769150823d8411611b7c575b611b6e8183611310565b810190611eb9565b386118ac565b503d611b64565b6040513d8a823e3d90fd5b611ba59150823d8411611b7c57611b6e8183611310565b3861186b565b6040513d8b823e3d90fd5b611bd091925060203d602011611b7c57611b6e8183611310565b9038611842565b634e487b7160e01b88526032600452602488fd5b611c04915060203d602011611b7c57611b6e8183611310565b38611802565b634e487b7160e01b88526041600452602488fd5b611c37915060203d602011611b7c57611b6e8183611310565b386117a6565b6040513d88823e3d90fd5b5060ff600d54166116d9565b5060ff600d5460081c16156116d3565b9050386116cc565b91503861168e565b9061173993949250611d35565b90503014153861164e565b600b5486111561161d5760405162461bcd60e51b815260206004820152602860248201527f7472616e736665725f616d6f756e745f63616e6e6f745f6578636565645f6d616044820152671e17d85b5bdd5b9d60c21b6064820152608490fd5b6001600160a01b03841690811415915081611d09575b5038611617565b6007546001600160a01b03161415905038611d02565b6007546001600160a01b03168314159150611611565b6001600160a01b03908116918215611e595716918215611e085760008281526002602052604081205491808310611db457604082827fddf252ad1be2c89b69c2b068fc378daa952ba7f163c4a11628f55a4df523b3ef95876020965260028652038282205586815220611da9828254611490565b9055604051908152a3565b60405162461bcd60e51b815260206004820152602660248201527f45524332303a207472616e7366657220616d6f756e7420657863656564732062604482015265616c616e636560d01b6064820152608490fd5b60405162461bcd60e51b815260206004820152602360248201527f45524332303a207472616e7366657220746f20746865207a65726f206164647260448201526265737360e81b6064820152608490fd5b60405162461bcd60e51b815260206004820152602560248201527f45524332303a207472616e736665722066726f6d20746865207a65726f206164604482015264647265737360d81b6064820152608490fd5b9190820391821161149d57565b90816020910312610fb857516001600160a01b0381168103610fb85790565b3d15611f13573d9067ffffffffffffffff82116113325760405191611f07601f8201601f191660200184611310565b82523d6000602084013e565b606090565b600080809381935af190611f2a611ed8565b508115611f3357565b60405162461bcd60e51b815260206004820152601860248201527f6661696c656420746f207472616e7366657220657468657200000000000000006044820152606490fdfea264697066735822122093d92d8f0c66bdb4e23f6e5395d869c4612c6f314993846319b70055f631176d64736f6c63430008110033f652222313e28459528d920b65115c16c04f3efc82aaedc97be59f3f377c0d3f",
          "opcodes": "PUSH1 0x80 PUSH1 0x40 SWAP1 DUP1 DUP3 MSTORE CALLVALUE PUSH3 0x447 JUMPI PUSH3 0x2875 DUP1 CODESIZE SUB DUP1 SWAP2 PUSH3 0x22 DUP3 DUP6 PUSH3 0x757 JUMP JUMPDEST DUP4 CODECOPY DUP2 ADD SWAP1 PUSH1 0xA0 DUP2 DUP4 SUB SLT PUSH3 0x447 JUMPI DUP1 MLOAD PUSH1 0x1 PUSH1 0x1 PUSH1 0x40 SHL SUB DUP2 GT PUSH3 0x447 JUMPI DUP3 PUSH3 0x51 SWAP2 DUP4 ADD PUSH3 0x77B JUMP JUMPDEST PUSH1 0x20 DUP3 ADD MLOAD SWAP1 SWAP3 PUSH1 0x1 PUSH1 0x1 PUSH1 0x40 SHL SUB DUP3 GT PUSH3 0x447 JUMPI PUSH3 0x74 SWAP2 DUP4 ADD PUSH3 0x77B JUMP JUMPDEST DUP4 DUP3 ADD MLOAD SWAP1 PUSH1 0x80 PUSH3 0x89 PUSH1 0x60 DUP6 ADD PUSH3 0x7F2 JUMP JUMPDEST SWAP4 ADD MLOAD SWAP1 PUSH1 0xFF DUP3 AND DUP3 SUB PUSH3 0x447 JUMPI PUSH1 0x0 DUP1 SLOAD CALLER PUSH1 0x1 PUSH1 0x1 PUSH1 0xA0 SHL SUB NOT DUP3 AND DUP2 OR DUP4 SSTORE PUSH1 0x1 PUSH1 0x1 PUSH1 0xA0 SHL SUB SWAP8 SWAP3 SWAP1 SWAP2 DUP9 AND SWAP1 PUSH32 0x8BE0079C531659141344CD1FD0A4F28419497F9722A3DAAFE3B4186F6B6457E0 SWAP1 DUP1 LOG3 DUP1 MLOAD PUSH1 0x1 PUSH1 0x1 PUSH1 0x40 SHL SUB DUP2 GT PUSH3 0x647 JUMPI PUSH1 0x5 SWAP2 DUP3 SLOAD SWAP1 PUSH1 0x1 DUP3 DUP2 SHR SWAP3 AND DUP1 ISZERO PUSH3 0x730 JUMPI JUMPDEST PUSH1 0x20 DUP4 LT EQ PUSH3 0x626 JUMPI DUP2 PUSH1 0x1F DUP5 SWAP4 GT PUSH3 0x6DA JUMPI JUMPDEST POP PUSH1 0x20 SWAP1 PUSH1 0x1F DUP4 GT PUSH1 0x1 EQ PUSH3 0x669 JUMPI PUSH1 0x0 SWAP3 PUSH3 0x65D JUMPI JUMPDEST POP POP DUP2 PUSH1 0x1 SHL SWAP2 PUSH1 0x0 NOT SWAP1 PUSH1 0x3 SHL SHR NOT AND OR DUP2 SSTORE JUMPDEST DUP2 MLOAD SWAP2 PUSH1 0x1 PUSH1 0x1 PUSH1 0x40 SHL SUB DUP4 GT PUSH3 0x647 JUMPI PUSH1 0x6 SLOAD PUSH1 0x1 DUP2 DUP2 SHR SWAP2 AND DUP1 ISZERO PUSH3 0x63C JUMPI JUMPDEST PUSH1 0x20 DUP3 LT EQ PUSH3 0x626 JUMPI DUP4 SWAP3 PUSH1 0x1F DUP3 GT PUSH3 0x5C7 JUMPI JUMPDEST POP POP PUSH1 0x20 SWAP1 PUSH1 0x1F DUP4 GT PUSH1 0x1 EQ PUSH3 0x54D JUMPI PUSH1 0x0 SWAP3 PUSH3 0x541 JUMPI JUMPDEST POP POP DUP2 PUSH1 0x1 SHL SWAP2 PUSH1 0x0 NOT SWAP1 PUSH1 0x3 SHL SHR NOT AND OR PUSH1 0x6 SSTORE JUMPDEST DUP5 MLOAD PUSH1 0x20 DUP2 ADD SWAP1 PUSH1 0x20 DUP3 MSTORE PUSH1 0x17 DUP8 DUP3 ADD MSTORE PUSH32 0x5441585F4558434C5553494F4E5F50524956494C454745000000000000000000 PUSH1 0x60 DUP3 ADD MSTORE PUSH1 0x60 DUP2 MSTORE PUSH3 0x1F9 DUP2 PUSH3 0x73B JUMP JUMPDEST MLOAD SWAP1 KECCAK256 PUSH1 0x8 SSTORE DUP5 MLOAD PUSH1 0x20 DUP2 ADD SWAP1 PUSH1 0x20 DUP3 MSTORE PUSH1 0x1D DUP8 DUP3 ADD MSTORE PUSH32 0x4C49515549444954595F4558434C5553494F4E5F50524956494C454745000000 PUSH1 0x60 DUP3 ADD MSTORE PUSH1 0x60 DUP2 MSTORE PUSH3 0x245 DUP2 PUSH3 0x73B JUMP JUMPDEST MLOAD SWAP1 KECCAK256 PUSH1 0x9 SSTORE PUSH1 0xA DUP1 SLOAD PUSH12 0x24306C4097859C43C000000 PUSH1 0xB SSTORE PUSH10 0x1969368974C05B000000 PUSH1 0xC SSTORE PUSH1 0x7 DUP1 SLOAD PUSH1 0x1 PUSH1 0x1 PUSH1 0xA0 SHL SUB NOT AND DUP7 DUP9 AND OR SWAP1 SSTORE PUSH2 0xFFFF PUSH1 0xA0 SHL NOT AND PUSH1 0xA0 SWAP3 SWAP1 SWAP3 SHL PUSH1 0xFF PUSH1 0xA0 SHL AND SWAP2 SWAP1 SWAP2 OR PUSH1 0x1 PUSH1 0xAB SHL OR SWAP1 SSTORE CALLER ISZERO PUSH3 0x4FD JUMPI SWAP1 DUP2 PUSH3 0x2BC PUSH3 0x31F SWAP4 PUSH1 0x4 SLOAD PUSH3 0x882 JUMP JUMPDEST PUSH1 0x4 SSTORE CALLER PUSH1 0x0 MSTORE PUSH1 0x2 PUSH1 0x20 MSTORE DUP5 PUSH1 0x0 KECCAK256 PUSH3 0x2D9 DUP3 DUP3 SLOAD PUSH3 0x882 JUMP JUMPDEST SWAP1 SSTORE DUP5 MLOAD SWAP1 DUP2 MSTORE PUSH1 0x0 PUSH32 0xDDF252AD1BE2C89B69C2B068FC378DAA952BA7F163C4A11628F55A4DF523B3EF PUSH1 0x20 CALLER SWAP4 LOG3 PUSH3 0x316 CALLER PUSH1 0x8 SLOAD PUSH3 0x807 JUMP JUMPDEST PUSH1 0x8 SLOAD PUSH3 0x807 JUMP JUMPDEST PUSH1 0xA DUP1 SLOAD PUSH1 0x1 PUSH1 0x1 PUSH1 0xA0 SHL SUB NOT AND PUSH20 0x83F465457C8CAFBE85ABB941F20291F826C7F72A SWAP1 DUP2 OR SWAP1 SWAP2 SSTORE DUP3 MLOAD PUSH4 0xC45A0155 PUSH1 0xE0 SHL DUP2 MSTORE SWAP2 SWAP1 PUSH1 0x20 DUP4 PUSH1 0x4 DUP2 DUP5 GAS STATICCALL SWAP3 DUP4 ISZERO PUSH3 0x4A9 JUMPI PUSH1 0x0 SWAP4 PUSH3 0x4B4 JUMPI JUMPDEST POP PUSH1 0x20 PUSH1 0x4 SWAP2 DUP6 MLOAD SWAP3 DUP4 DUP1 SWAP3 PUSH4 0x15AB88C9 PUSH1 0xE3 SHL DUP3 MSTORE GAS STATICCALL SWAP1 DUP2 ISZERO PUSH3 0x4A9 JUMPI DUP3 SWAP1 PUSH1 0x0 SWAP3 PUSH3 0x460 JUMPI JUMPDEST POP PUSH1 0x44 PUSH1 0x20 SWAP3 PUSH1 0x0 DUP4 DUP9 MLOAD SWAP8 DUP9 SWAP6 DUP7 SWAP5 PUSH4 0x64E329CB PUSH1 0xE1 SHL DUP7 MSTORE AND PUSH1 0x4 DUP6 ADD MSTORE ADDRESS PUSH1 0x24 DUP6 ADD MSTORE AND GAS CALL SWAP2 DUP3 ISZERO PUSH3 0x455 JUMPI PUSH1 0x0 SWAP3 PUSH3 0x405 JUMPI JUMPDEST POP PUSH3 0x3E8 PUSH3 0x3F7 SWAP3 PUSH1 0x9 SLOAD PUSH3 0x807 JUMP JUMPDEST PUSH1 0x9 SLOAD SWAP1 PUSH1 0xA SLOAD AND SWAP1 PUSH3 0x807 JUMP JUMPDEST MLOAD PUSH2 0x1FAE SWAP1 DUP2 PUSH3 0x8A7 DUP3 CODECOPY RETURN JUMPDEST SWAP2 POP PUSH1 0x20 DUP3 RETURNDATASIZE PUSH1 0x20 GT PUSH3 0x44C JUMPI JUMPDEST DUP2 PUSH3 0x423 PUSH1 0x20 SWAP4 DUP4 PUSH3 0x757 JUMP JUMPDEST DUP2 ADD SUB SLT PUSH3 0x447 JUMPI PUSH3 0x3E8 PUSH3 0x43F PUSH3 0x3F7 SWAP4 PUSH3 0x7F2 JUMP JUMPDEST SWAP3 POP PUSH3 0x3D5 JUMP JUMPDEST PUSH1 0x0 DUP1 REVERT JUMPDEST RETURNDATASIZE SWAP2 POP PUSH3 0x414 JUMP JUMPDEST DUP4 MLOAD RETURNDATASIZE PUSH1 0x0 DUP3 RETURNDATACOPY RETURNDATASIZE SWAP1 REVERT JUMPDEST SWAP2 POP POP PUSH1 0x20 DUP2 RETURNDATASIZE PUSH1 0x20 GT PUSH3 0x4A0 JUMPI JUMPDEST DUP2 PUSH3 0x47F PUSH1 0x20 SWAP4 DUP4 PUSH3 0x757 JUMP JUMPDEST DUP2 ADD SUB SLT PUSH3 0x447 JUMPI DUP2 PUSH1 0x44 PUSH3 0x498 PUSH1 0x20 SWAP4 PUSH3 0x7F2 JUMP JUMPDEST SWAP3 POP PUSH3 0x39B JUMP JUMPDEST RETURNDATASIZE SWAP2 POP PUSH3 0x470 JUMP JUMPDEST DUP5 MLOAD RETURNDATASIZE PUSH1 0x0 DUP3 RETURNDATACOPY RETURNDATASIZE SWAP1 REVERT JUMPDEST SWAP1 SWAP3 POP PUSH1 0x20 DUP2 RETURNDATASIZE PUSH1 0x20 GT PUSH3 0x4F4 JUMPI JUMPDEST DUP2 PUSH3 0x4D3 PUSH1 0x20 SWAP4 DUP4 PUSH3 0x757 JUMP JUMPDEST DUP2 ADD SUB SLT PUSH3 0x447 JUMPI PUSH1 0x20 PUSH3 0x4EB PUSH1 0x4 SWAP3 PUSH3 0x7F2 JUMP JUMPDEST SWAP4 SWAP2 POP PUSH3 0x370 JUMP JUMPDEST RETURNDATASIZE SWAP2 POP PUSH3 0x4C4 JUMP JUMPDEST DUP4 MLOAD PUSH3 0x461BCD PUSH1 0xE5 SHL DUP2 MSTORE PUSH1 0x20 PUSH1 0x4 DUP3 ADD MSTORE PUSH1 0x1F PUSH1 0x24 DUP3 ADD MSTORE PUSH32 0x45524332303A206D696E7420746F20746865207A65726F206164647265737300 PUSH1 0x44 DUP3 ADD MSTORE PUSH1 0x64 SWAP1 REVERT JUMPDEST ADD MLOAD SWAP1 POP CODESIZE DUP1 PUSH3 0x19D JUMP JUMPDEST PUSH1 0x6 PUSH1 0x0 SWAP1 DUP2 MSTORE PUSH1 0x0 DUP1 MLOAD PUSH1 0x20 PUSH3 0x2855 DUP4 CODECOPY DUP2 MLOAD SWAP2 MSTORE SWAP4 POP PUSH1 0x1F NOT DUP6 AND SWAP1 JUMPDEST DUP2 DUP2 LT PUSH3 0x5AE JUMPI POP SWAP1 DUP5 PUSH1 0x1 SWAP6 SWAP5 SWAP4 SWAP3 LT PUSH3 0x594 JUMPI JUMPDEST POP POP POP DUP2 SHL ADD PUSH1 0x6 SSTORE PUSH3 0x1B3 JUMP JUMPDEST ADD MLOAD PUSH1 0x0 NOT PUSH1 0xF8 DUP5 PUSH1 0x3 SHL AND SHR NOT AND SWAP1 SSTORE CODESIZE DUP1 DUP1 PUSH3 0x585 JUMP JUMPDEST SWAP3 SWAP4 PUSH1 0x20 PUSH1 0x1 DUP2 SWAP3 DUP8 DUP7 ADD MLOAD DUP2 SSTORE ADD SWAP6 ADD SWAP4 ADD PUSH3 0x56D JUMP JUMPDEST PUSH1 0x6 PUSH1 0x0 MSTORE SWAP2 SWAP3 POP PUSH1 0x0 DUP1 MLOAD PUSH1 0x20 PUSH3 0x2855 DUP4 CODECOPY DUP2 MLOAD SWAP2 MSTORE PUSH1 0x1F DUP6 ADD DUP4 SHR DUP2 ADD SWAP3 SWAP1 SWAP2 PUSH1 0x20 DUP7 LT PUSH3 0x61B JUMPI JUMPDEST SWAP1 PUSH1 0x1F DUP7 SWAP6 SWAP5 SWAP4 SWAP3 ADD SWAP1 SHR ADD SWAP1 JUMPDEST DUP2 DUP2 LT ISZERO PUSH3 0x183 JUMPI PUSH1 0x0 DUP2 SSTORE DUP5 SWAP4 POP PUSH1 0x1 ADD PUSH3 0x602 JUMP JUMPDEST SWAP2 SWAP3 POP DUP3 SWAP2 PUSH3 0x5F4 JUMP JUMPDEST PUSH4 0x4E487B71 PUSH1 0xE0 SHL PUSH1 0x0 MSTORE PUSH1 0x22 PUSH1 0x4 MSTORE PUSH1 0x24 PUSH1 0x0 REVERT JUMPDEST SWAP1 PUSH1 0x7F AND SWAP1 PUSH3 0x16D JUMP JUMPDEST PUSH4 0x4E487B71 PUSH1 0xE0 SHL PUSH1 0x0 MSTORE PUSH1 0x41 PUSH1 0x4 MSTORE PUSH1 0x24 PUSH1 0x0 REVERT JUMPDEST ADD MLOAD SWAP1 POP CODESIZE DUP1 PUSH3 0x134 JUMP JUMPDEST SWAP3 POP DUP4 PUSH1 0x0 MSTORE PUSH1 0x20 PUSH1 0x0 KECCAK256 SWAP1 PUSH1 0x0 SWAP4 JUMPDEST PUSH1 0x1F NOT DUP5 AND DUP6 LT PUSH3 0x6BE JUMPI PUSH1 0x1 SWAP5 POP DUP4 PUSH1 0x1F NOT DUP2 AND LT PUSH3 0x6A4 JUMPI JUMPDEST POP POP POP DUP2 SHL ADD DUP2 SSTORE PUSH3 0x149 JUMP JUMPDEST ADD MLOAD PUSH1 0x0 NOT PUSH1 0xF8 DUP5 PUSH1 0x3 SHL AND SHR NOT AND SWAP1 SSTORE CODESIZE DUP1 DUP1 PUSH3 0x696 JUMP JUMPDEST DUP2 DUP2 ADD MLOAD DUP4 SSTORE PUSH1 0x20 SWAP5 DUP6 ADD SWAP5 PUSH1 0x1 SWAP1 SWAP4 ADD SWAP3 SWAP1 SWAP2 ADD SWAP1 PUSH3 0x679 JUMP JUMPDEST SWAP1 SWAP2 POP DUP4 PUSH1 0x0 MSTORE PUSH1 0x20 PUSH1 0x0 KECCAK256 PUSH1 0x1F DUP5 ADD DUP6 SHR DUP2 ADD SWAP2 PUSH1 0x20 DUP6 LT PUSH3 0x725 JUMPI JUMPDEST SWAP1 PUSH1 0x1F DUP6 SWAP5 SWAP4 SWAP3 ADD DUP7 SHR ADD SWAP1 JUMPDEST DUP2 DUP2 LT PUSH3 0x715 JUMPI POP PUSH3 0x11B JUMP JUMPDEST PUSH1 0x0 DUP2 SSTORE DUP5 SWAP4 POP PUSH1 0x1 ADD PUSH3 0x706 JUMP JUMPDEST SWAP1 SWAP2 POP DUP2 SWAP1 PUSH3 0x6F9 JUMP JUMPDEST SWAP2 PUSH1 0x7F AND SWAP2 PUSH3 0x105 JUMP JUMPDEST PUSH1 0x80 DUP2 ADD SWAP1 DUP2 LT PUSH1 0x1 PUSH1 0x1 PUSH1 0x40 SHL SUB DUP3 GT OR PUSH3 0x647 JUMPI PUSH1 0x40 MSTORE JUMP JUMPDEST PUSH1 0x1F SWAP1 SWAP2 ADD PUSH1 0x1F NOT AND DUP2 ADD SWAP1 PUSH1 0x1 PUSH1 0x1 PUSH1 0x40 SHL SUB DUP3 GT SWAP1 DUP3 LT OR PUSH3 0x647 JUMPI PUSH1 0x40 MSTORE JUMP JUMPDEST SWAP2 SWAP1 DUP1 PUSH1 0x1F DUP5 ADD SLT ISZERO PUSH3 0x447 JUMPI DUP3 MLOAD SWAP1 PUSH1 0x1 PUSH1 0x1 PUSH1 0x40 SHL SUB DUP3 GT PUSH3 0x647 JUMPI PUSH1 0x40 MLOAD SWAP2 PUSH1 0x20 SWAP2 PUSH3 0x7B7 PUSH1 0x1F DUP4 ADD PUSH1 0x1F NOT AND DUP5 ADD DUP6 PUSH3 0x757 JUMP JUMPDEST DUP2 DUP5 MSTORE DUP3 DUP3 DUP8 ADD ADD GT PUSH3 0x447 JUMPI PUSH1 0x0 JUMPDEST DUP2 DUP2 LT PUSH3 0x7DE JUMPI POP DUP3 PUSH1 0x0 SWAP4 SWAP5 SWAP6 POP ADD ADD MSTORE SWAP1 JUMP JUMPDEST DUP6 DUP2 ADD DUP4 ADD MLOAD DUP5 DUP3 ADD DUP5 ADD MSTORE DUP3 ADD PUSH3 0x7C8 JUMP JUMPDEST MLOAD SWAP1 PUSH1 0x1 PUSH1 0x1 PUSH1 0xA0 SHL SUB DUP3 AND DUP3 SUB PUSH3 0x447 JUMPI JUMP JUMPDEST SWAP1 PUSH1 0x0 SWAP2 DUP1 DUP4 MSTORE PUSH1 0x1 PUSH1 0x20 MSTORE PUSH1 0x40 DUP4 KECCAK256 SWAP2 PUSH1 0x1 DUP1 PUSH1 0xA0 SHL SUB AND SWAP2 DUP3 DUP5 MSTORE PUSH1 0x20 MSTORE PUSH1 0xFF PUSH1 0x40 DUP5 KECCAK256 SLOAD AND ISZERO PUSH3 0x83A JUMPI POP POP POP JUMP JUMPDEST DUP1 DUP4 MSTORE PUSH1 0x1 PUSH1 0x20 MSTORE PUSH1 0x40 DUP4 KECCAK256 DUP3 DUP5 MSTORE PUSH1 0x20 MSTORE PUSH1 0x40 DUP4 KECCAK256 PUSH1 0x1 PUSH1 0xFF NOT DUP3 SLOAD AND OR SWAP1 SSTORE PUSH32 0x2F8788117E7EFF1D82E926EC794901D17C78024A50270940304540A733656F0D CALLER SWAP4 DUP1 LOG4 JUMP JUMPDEST SWAP2 SWAP1 DUP3 ADD DUP1 SWAP3 GT PUSH3 0x890 JUMPI JUMP JUMPDEST PUSH4 0x4E487B71 PUSH1 0xE0 SHL PUSH1 0x0 MSTORE PUSH1 0x11 PUSH1 0x4 MSTORE PUSH1 0x24 PUSH1 0x0 REVERT INVALID PUSH1 0x80 PUSH1 0x40 SWAP1 DUP1 DUP3 MSTORE PUSH1 0x4 SWAP1 DUP2 CALLDATASIZE LT ISZERO PUSH2 0x23 JUMPI JUMPDEST POP POP POP CALLDATASIZE ISZERO PUSH2 0x21 JUMPI PUSH1 0x0 DUP1 REVERT JUMPDEST STOP JUMPDEST PUSH1 0x0 SWAP3 DUP4 CALLDATALOAD PUSH1 0xE0 SHR SWAP2 DUP3 PUSH4 0x1FFC9A7 EQ PUSH2 0xEFF JUMPI POP DUP2 PUSH4 0x6FDDE03 EQ PUSH2 0xE41 JUMPI DUP2 PUSH4 0x84A1392 EQ PUSH2 0xE11 JUMPI DUP2 PUSH4 0x8695B41 EQ PUSH2 0xDAF JUMPI DUP2 PUSH4 0x95EA7B3 EQ PUSH2 0xD85 JUMPI DUP2 PUSH4 0x18160DDD EQ PUSH2 0xD66 JUMPI DUP2 PUSH4 0x220F6696 EQ PUSH2 0xD3F JUMPI DUP2 PUSH4 0x23B872DD EQ PUSH2 0xC86 JUMPI DUP2 PUSH4 0x248A9CA3 EQ PUSH2 0xC5B JUMPI DUP2 PUSH4 0x2F2FF15D EQ PUSH2 0xC32 JUMPI DUP2 PUSH4 0x313CE567 EQ PUSH2 0xC16 JUMPI DUP2 PUSH4 0x31E4E4E5 EQ PUSH2 0xBF7 JUMPI DUP2 PUSH4 0x36568ABE EQ PUSH2 0xB66 JUMPI DUP2 PUSH4 0x39509351 EQ PUSH2 0xB16 JUMPI DUP2 PUSH4 0x46E65523 EQ PUSH2 0xAF7 JUMPI DUP2 PUSH4 0x4A74BB02 EQ PUSH2 0xAD3 JUMPI DUP2 PUSH4 0x4FE47F70 EQ PUSH2 0xAB1 JUMPI DUP2 PUSH4 0x59102D1C EQ PUSH2 0xA8C JUMPI DUP2 PUSH4 0x5C2A00B2 EQ PUSH2 0xA6D JUMPI DUP2 PUSH4 0x5F48F393 EQ PUSH2 0xA4E JUMPI DUP2 PUSH4 0x70A08231 EQ PUSH2 0xA16 JUMPI DUP2 PUSH4 0x715018A6 EQ PUSH2 0x9BC JUMPI DUP2 PUSH4 0x808C1643 EQ PUSH2 0x98D JUMPI DUP2 PUSH4 0x8DA5CB5B EQ PUSH2 0x965 JUMPI DUP2 PUSH4 0x8E6DDA25 EQ PUSH2 0x8BE JUMPI DUP2 PUSH4 0x91D14854 EQ PUSH2 0x876 JUMPI DUP2 PUSH4 0x95D89B41 EQ PUSH2 0x774 JUMPI DUP2 PUSH4 0xA217FDDF EQ PUSH2 0x759 JUMPI DUP2 PUSH4 0xA457C2D7 EQ PUSH2 0x6B5 JUMPI DUP2 PUSH4 0xA5FFAD52 EQ PUSH2 0x66F JUMPI DUP2 PUSH4 0xA9059CBB EQ PUSH2 0x63E JUMPI DUP2 PUSH4 0xAE7B6D16 EQ PUSH2 0x619 JUMPI DUP2 PUSH4 0xBEA1DCF8 EQ PUSH2 0x5F0 JUMPI DUP2 PUSH4 0xC676EE6B EQ PUSH2 0x5CE JUMPI DUP2 PUSH4 0xD547741F EQ PUSH2 0x594 JUMPI DUP2 PUSH4 0xD63F4594 EQ PUSH2 0x435 JUMPI DUP2 PUSH4 0xDD62ED3E EQ PUSH2 0x3EC JUMPI DUP2 PUSH4 0xF2FDE38B EQ PUSH2 0x324 JUMPI DUP2 PUSH4 0xF3BF29DE EQ PUSH2 0x286 JUMPI POP DUP1 PUSH4 0xF6ED11C1 EQ PUSH2 0x23E JUMPI PUSH4 0xFD7B674D EQ PUSH2 0x1F6 JUMPI DUP1 PUSH2 0x13 JUMP JUMPDEST CALLVALUE PUSH2 0x23A JUMPI PUSH1 0x20 CALLDATASIZE PUSH1 0x3 NOT ADD SLT PUSH2 0x23A JUMPI CALLDATALOAD PUSH1 0xFF DUP2 AND DUP2 SUB PUSH2 0x23A JUMPI PUSH2 0x21A PUSH2 0x1438 JUMP JUMPDEST PUSH1 0xA DUP1 SLOAD PUSH1 0xFF PUSH1 0xA8 SHL NOT AND PUSH1 0xA8 SWAP3 SWAP1 SWAP3 SHL PUSH1 0xFF PUSH1 0xA8 SHL AND SWAP2 SWAP1 SWAP2 OR SWAP1 SSTORE DUP1 RETURN JUMPDEST POP DUP1 REVERT JUMPDEST DUP3 CALLVALUE PUSH2 0x283 JUMPI PUSH1 0x20 CALLDATASIZE PUSH1 0x3 NOT ADD SLT PUSH2 0x283 JUMPI PUSH2 0x258 PUSH2 0xFA2 JUMP JUMPDEST PUSH2 0x260 PUSH2 0x1438 JUMP JUMPDEST PUSH1 0x1 DUP1 PUSH1 0xA0 SHL SUB AND PUSH12 0xFFFFFFFFFFFFFFFFFFFFFFFF PUSH1 0xA0 SHL PUSH1 0xA SLOAD AND OR PUSH1 0xA SSTORE DUP1 RETURN JUMPDEST DUP1 REVERT JUMPDEST DUP4 DUP4 CALLVALUE PUSH2 0x23A JUMPI PUSH1 0x20 CALLDATASIZE PUSH1 0x3 NOT ADD SLT PUSH2 0x23A JUMPI PUSH2 0x2A1 PUSH2 0xFA2 JUMP JUMPDEST SWAP1 PUSH2 0x2AA PUSH2 0x1438 JUMP JUMPDEST PUSH1 0x8 SLOAD SWAP1 PUSH2 0x2DB DUP4 DUP4 PUSH1 0x0 MSTORE PUSH1 0x1 PUSH1 0x20 MSTORE PUSH1 0x40 PUSH1 0x0 KECCAK256 SWAP1 PUSH1 0x1 DUP1 PUSH1 0xA0 SHL SUB AND PUSH1 0x0 MSTORE PUSH1 0x20 MSTORE PUSH1 0xFF PUSH1 0x40 PUSH1 0x0 KECCAK256 SLOAD AND SWAP1 JUMP JUMPDEST ISZERO PUSH2 0x2EE JUMPI POP SWAP1 PUSH2 0x2EB SWAP2 PUSH2 0x13C2 JUMP JUMPDEST DUP1 RETURN JUMPDEST PUSH1 0x64 SWAP1 PUSH1 0x20 DUP7 MLOAD SWAP2 PUSH3 0x461BCD PUSH1 0xE5 SHL DUP4 MSTORE DUP3 ADD MSTORE PUSH1 0x10 PUSH1 0x24 DUP3 ADD MSTORE PUSH16 0xC2D8E4CAC2C8F2BEE0C2F2E6BEE8C2F PUSH1 0x83 SHL PUSH1 0x44 DUP3 ADD MSTORE REVERT JUMPDEST SWAP2 SWAP1 POP CALLVALUE PUSH2 0x3E8 JUMPI PUSH1 0x20 CALLDATASIZE PUSH1 0x3 NOT ADD SLT PUSH2 0x3E8 JUMPI PUSH2 0x340 PUSH2 0xFA2 JUMP JUMPDEST SWAP1 PUSH2 0x349 PUSH2 0x1438 JUMP JUMPDEST PUSH1 0x1 PUSH1 0x1 PUSH1 0xA0 SHL SUB SWAP2 DUP3 AND SWAP3 DUP4 ISZERO PUSH2 0x396 JUMPI POP POP DUP3 SLOAD PUSH1 0x1 PUSH1 0x1 PUSH1 0xA0 SHL SUB NOT DUP2 AND DUP4 OR DUP5 SSTORE AND PUSH32 0x8BE0079C531659141344CD1FD0A4F28419497F9722A3DAAFE3B4186F6B6457E0 DUP4 DUP1 LOG3 DUP1 RETURN JUMPDEST SWAP1 PUSH1 0x20 PUSH1 0x84 SWAP3 MLOAD SWAP2 PUSH3 0x461BCD PUSH1 0xE5 SHL DUP4 MSTORE DUP3 ADD MSTORE PUSH1 0x26 PUSH1 0x24 DUP3 ADD MSTORE PUSH32 0x4F776E61626C653A206E6577206F776E657220697320746865207A65726F2061 PUSH1 0x44 DUP3 ADD MSTORE PUSH6 0x646472657373 PUSH1 0xD0 SHL PUSH1 0x64 DUP3 ADD MSTORE REVERT JUMPDEST DUP3 DUP1 REVERT JUMPDEST DUP4 SWAP1 CALLVALUE PUSH2 0x23A JUMPI DUP1 PUSH1 0x3 NOT CALLDATASIZE ADD SLT PUSH2 0x23A JUMPI DUP1 PUSH1 0x20 SWAP3 PUSH2 0x40A PUSH2 0xFA2 JUMP JUMPDEST PUSH2 0x412 PUSH2 0xFBD JUMP JUMPDEST PUSH1 0x1 PUSH1 0x1 PUSH1 0xA0 SHL SUB SWAP2 DUP3 AND DUP4 MSTORE PUSH1 0x3 DUP7 MSTORE DUP4 DUP4 KECCAK256 SWAP2 AND DUP3 MSTORE DUP5 MSTORE KECCAK256 SLOAD SWAP1 MLOAD SWAP1 DUP2 MSTORE RETURN JUMPDEST SWAP1 POP CALLVALUE PUSH2 0x3E8 JUMPI PUSH2 0x445 CALLDATASIZE PUSH2 0xFD3 JUMP JUMPDEST PUSH2 0x44D PUSH2 0x1438 JUMP JUMPDEST DUP3 EXTCODESIZE ISZERO PUSH2 0x55A JUMPI DUP4 MLOAD PUSH8 0xFFFFFFFFFFFFFFFF SWAP1 DUP1 DUP7 ADD DUP3 DUP2 GT DUP3 DUP3 LT OR PUSH2 0x547 JUMPI PUSH32 0x7472616E7366657228616464726573732C75696E743235362900000000000000 SWAP2 PUSH1 0x20 SWAP2 DUP9 MSTORE PUSH1 0x19 DUP2 MSTORE ADD MSTORE DUP5 MLOAD SWAP2 PUSH1 0x20 DUP4 ADD SWAP4 PUSH4 0xA9059CBB PUSH1 0xE0 SHL DUP6 MSTORE PUSH1 0x1 DUP1 PUSH1 0xA0 SHL SUB AND PUSH1 0x24 DUP5 ADD MSTORE PUSH1 0x44 DUP4 ADD MSTORE PUSH1 0x44 DUP3 MSTORE PUSH1 0x80 DUP3 ADD SWAP1 DUP3 DUP3 LT SWAP1 DUP3 GT OR PUSH2 0x534 JUMPI DUP5 MSTORE MLOAD DUP6 SWAP3 DUP4 SWAP3 SWAP1 DUP4 SWAP1 GAS CALL PUSH2 0x4E7 PUSH2 0x1ED8 JUMP JUMPDEST POP ISZERO PUSH2 0x4F1 JUMPI DUP3 DUP1 RETURN JUMPDEST SWAP1 PUSH1 0x20 PUSH1 0x64 SWAP3 MLOAD SWAP2 PUSH3 0x461BCD PUSH1 0xE5 SHL DUP4 MSTORE DUP3 ADD MSTORE PUSH1 0x1E PUSH1 0x24 DUP3 ADD MSTORE PUSH32 0x6C6F775F6C6576656C5F636F6E74726163745F63616C6C5F6661696C65640000 PUSH1 0x44 DUP3 ADD MSTORE REVERT JUMPDEST PUSH4 0x4E487B71 PUSH1 0xE0 SHL DUP8 MSTORE PUSH1 0x41 DUP7 MSTORE PUSH1 0x24 DUP8 REVERT JUMPDEST PUSH4 0x4E487B71 PUSH1 0xE0 SHL DUP10 MSTORE PUSH1 0x41 DUP9 MSTORE PUSH1 0x24 DUP10 REVERT JUMPDEST DUP4 MLOAD PUSH3 0x461BCD PUSH1 0xE5 SHL DUP2 MSTORE PUSH1 0x20 DUP2 DUP8 ADD MSTORE PUSH1 0x14 PUSH1 0x24 DUP3 ADD MSTORE PUSH20 0x18D85B1B17DD1BD7DB9BDB97D8DBDB9D1C9858DD PUSH1 0x62 SHL PUSH1 0x44 DUP3 ADD MSTORE PUSH1 0x64 SWAP1 REVERT JUMPDEST SWAP1 POP CALLVALUE PUSH2 0x3E8 JUMPI DUP1 PUSH1 0x3 NOT CALLDATASIZE ADD SLT PUSH2 0x3E8 JUMPI PUSH2 0x2EB SWAP2 CALLDATALOAD PUSH2 0x5C9 PUSH1 0x1 PUSH2 0x5B8 PUSH2 0xFBD JUMP JUMPDEST SWAP4 DUP4 DUP8 MSTORE DUP2 PUSH1 0x20 MSTORE DUP7 KECCAK256 ADD SLOAD PUSH2 0x1008 JUMP JUMPDEST PUSH2 0x13C2 JUMP JUMPDEST POP POP CALLVALUE PUSH2 0x23A JUMPI PUSH1 0x20 CALLDATASIZE PUSH1 0x3 NOT ADD SLT PUSH2 0x23A JUMPI PUSH2 0x5E9 PUSH2 0x1438 JUMP JUMPDEST CALLDATALOAD PUSH1 0xC SSTORE DUP1 RETURN JUMPDEST DUP4 SWAP1 CALLVALUE PUSH2 0x23A JUMPI DUP2 PUSH1 0x3 NOT CALLDATASIZE ADD SLT PUSH2 0x23A JUMPI PUSH1 0x7 SLOAD SWAP1 MLOAD PUSH1 0x1 PUSH1 0x1 PUSH1 0xA0 SHL SUB SWAP1 SWAP2 AND DUP2 MSTORE PUSH1 0x20 SWAP1 RETURN JUMPDEST DUP4 SWAP1 CALLVALUE PUSH2 0x23A JUMPI DUP2 PUSH1 0x3 NOT CALLDATASIZE ADD SLT PUSH2 0x23A JUMPI PUSH1 0x20 SWAP1 PUSH1 0xFF PUSH1 0xA SLOAD PUSH1 0xA0 SHR AND SWAP1 MLOAD SWAP1 DUP2 MSTORE RETURN JUMPDEST DUP4 SWAP1 CALLVALUE PUSH2 0x23A JUMPI DUP1 PUSH1 0x3 NOT CALLDATASIZE ADD SLT PUSH2 0x23A JUMPI PUSH1 0x20 SWAP1 PUSH2 0x668 PUSH2 0x65E PUSH2 0xFA2 JUMP JUMPDEST PUSH1 0x24 CALLDATALOAD SWAP1 CALLER PUSH2 0x15EF JUMP JUMPDEST MLOAD PUSH1 0x1 DUP2 MSTORE RETURN JUMPDEST POP POP CALLVALUE PUSH2 0x23A JUMPI PUSH1 0x20 CALLDATASIZE PUSH1 0x3 NOT ADD SLT PUSH2 0x23A JUMPI CALLDATALOAD PUSH1 0xFF DUP2 AND DUP2 SUB PUSH2 0x23A JUMPI PUSH2 0x695 PUSH2 0x1438 JUMP JUMPDEST PUSH1 0xA DUP1 SLOAD PUSH1 0xFF PUSH1 0xA0 SHL NOT AND PUSH1 0xA0 SWAP3 SWAP1 SWAP3 SHL PUSH1 0xFF PUSH1 0xA0 SHL AND SWAP2 SWAP1 SWAP2 OR SWAP1 SSTORE DUP1 RETURN JUMPDEST DUP3 DUP5 CALLVALUE PUSH2 0x283 JUMPI DUP3 PUSH1 0x3 NOT CALLDATASIZE ADD SLT PUSH2 0x283 JUMPI PUSH2 0x6CF PUSH2 0xFA2 JUMP JUMPDEST SWAP2 DUP4 PUSH1 0x24 CALLDATALOAD SWAP3 CALLER DUP2 MSTORE PUSH1 0x3 PUSH1 0x20 MSTORE DUP2 DUP2 KECCAK256 PUSH1 0x1 DUP1 PUSH1 0xA0 SHL SUB DUP7 AND DUP3 MSTORE PUSH1 0x20 MSTORE KECCAK256 SLOAD SWAP1 DUP3 DUP3 LT PUSH2 0x708 JUMPI PUSH1 0x20 DUP6 PUSH2 0x668 DUP6 DUP6 SUB DUP8 CALLER PUSH2 0x14B3 JUMP JUMPDEST PUSH1 0x84 SWAP1 PUSH1 0x20 DUP7 MLOAD SWAP2 PUSH3 0x461BCD PUSH1 0xE5 SHL DUP4 MSTORE DUP3 ADD MSTORE PUSH1 0x25 PUSH1 0x24 DUP3 ADD MSTORE PUSH32 0x45524332303A2064656372656173656420616C6C6F77616E63652062656C6F77 PUSH1 0x44 DUP3 ADD MSTORE PUSH5 0x207A65726F PUSH1 0xD8 SHL PUSH1 0x64 DUP3 ADD MSTORE REVERT JUMPDEST DUP4 SWAP1 CALLVALUE PUSH2 0x23A JUMPI DUP2 PUSH1 0x3 NOT CALLDATASIZE ADD SLT PUSH2 0x23A JUMPI MLOAD SWAP1 DUP2 MSTORE PUSH1 0x20 SWAP1 RETURN JUMPDEST SWAP1 POP CALLVALUE PUSH2 0x3E8 JUMPI DUP3 PUSH1 0x3 NOT CALLDATASIZE ADD SLT PUSH2 0x3E8 JUMPI DUP1 MLOAD SWAP2 DUP4 PUSH1 0x6 SLOAD SWAP1 PUSH1 0x1 SWAP1 DUP3 DUP3 SHR SWAP3 DUP3 DUP2 AND DUP1 ISZERO PUSH2 0x86C JUMPI JUMPDEST PUSH1 0x20 SWAP6 DUP7 DUP7 LT DUP3 EQ PUSH2 0x859 JUMPI POP DUP5 DUP9 MSTORE SWAP1 DUP2 ISZERO PUSH2 0x837 JUMPI POP PUSH1 0x1 EQ PUSH2 0x7DE JUMPI JUMPDEST PUSH2 0x7DA DUP7 DUP7 PUSH2 0x7D0 DUP3 DUP12 SUB DUP4 PUSH2 0x1310 JUMP JUMPDEST MLOAD SWAP2 DUP3 SWAP2 DUP3 PUSH2 0xF76 JUMP JUMPDEST SUB SWAP1 RETURN JUMPDEST SWAP3 SWAP6 POP PUSH1 0x6 DUP4 MSTORE PUSH32 0xF652222313E28459528D920B65115C16C04F3EFC82AAEDC97BE59F3F377C0D3F JUMPDEST DUP3 DUP5 LT PUSH2 0x824 JUMPI POP POP POP DUP3 PUSH2 0x7DA SWAP5 PUSH2 0x7D0 SWAP3 DUP3 ADD ADD SWAP5 CODESIZE PUSH2 0x7BF JUMP JUMPDEST DUP1 SLOAD DUP7 DUP6 ADD DUP9 ADD MSTORE SWAP3 DUP7 ADD SWAP3 DUP2 ADD PUSH2 0x807 JUMP JUMPDEST PUSH1 0xFF NOT AND DUP8 DUP7 ADD MSTORE POP POP POP ISZERO ISZERO PUSH1 0x5 SHL DUP4 ADD ADD SWAP3 POP PUSH2 0x7D0 DUP3 PUSH2 0x7DA CODESIZE PUSH2 0x7BF JUMP JUMPDEST PUSH4 0x4E487B71 PUSH1 0xE0 SHL DUP5 MSTORE PUSH1 0x22 SWAP1 MSTORE PUSH1 0x24 DUP4 REVERT JUMPDEST SWAP4 PUSH1 0x7F AND SWAP4 PUSH2 0x79F JUMP JUMPDEST SWAP2 SWAP1 POP CALLVALUE PUSH2 0x3E8 JUMPI DUP2 PUSH1 0x3 NOT CALLDATASIZE ADD SLT PUSH2 0x3E8 JUMPI DUP2 PUSH1 0x20 SWAP4 PUSH1 0xFF SWAP3 PUSH2 0x898 PUSH2 0xFBD JUMP JUMPDEST SWAP1 CALLDATALOAD DUP3 MSTORE PUSH1 0x1 DUP7 MSTORE DUP3 DUP3 KECCAK256 PUSH1 0x1 PUSH1 0x1 PUSH1 0xA0 SHL SUB SWAP1 SWAP2 AND DUP3 MSTORE DUP6 MSTORE KECCAK256 SLOAD SWAP2 MLOAD SWAP2 AND ISZERO ISZERO DUP2 MSTORE RETURN JUMPDEST DUP4 DUP4 CALLVALUE PUSH2 0x23A JUMPI PUSH1 0x20 CALLDATASIZE PUSH1 0x3 NOT ADD SLT PUSH2 0x23A JUMPI PUSH2 0x8D9 PUSH2 0xFA2 JUMP JUMPDEST SWAP1 PUSH2 0x8E2 PUSH2 0x1438 JUMP JUMPDEST PUSH1 0x8 SLOAD SWAP1 PUSH2 0x913 DUP4 DUP4 PUSH1 0x0 MSTORE PUSH1 0x1 PUSH1 0x20 MSTORE PUSH1 0x40 PUSH1 0x0 KECCAK256 SWAP1 PUSH1 0x1 DUP1 PUSH1 0xA0 SHL SUB AND PUSH1 0x0 MSTORE PUSH1 0x20 MSTORE PUSH1 0xFF PUSH1 0x40 PUSH1 0x0 KECCAK256 SLOAD AND SWAP1 JUMP JUMPDEST PUSH2 0x922 JUMPI POP SWAP1 PUSH2 0x2EB SWAP2 PUSH2 0x1348 JUMP JUMPDEST PUSH1 0x64 SWAP1 PUSH1 0x20 DUP7 MLOAD SWAP2 PUSH3 0x461BCD PUSH1 0xE5 SHL DUP4 MSTORE DUP3 ADD MSTORE PUSH1 0x20 PUSH1 0x24 DUP3 ADD MSTORE PUSH32 0x616C72656164795F6578636C756465645F66726F6D5F706179696E675F746178 PUSH1 0x44 DUP3 ADD MSTORE REVERT JUMPDEST DUP4 SWAP1 CALLVALUE PUSH2 0x23A JUMPI DUP2 PUSH1 0x3 NOT CALLDATASIZE ADD SLT PUSH2 0x23A JUMPI SWAP1 SLOAD SWAP1 MLOAD PUSH1 0x1 PUSH1 0x1 PUSH1 0xA0 SHL SUB SWAP1 SWAP2 AND DUP2 MSTORE PUSH1 0x20 SWAP1 RETURN JUMPDEST DUP4 CALLVALUE PUSH2 0x283 JUMPI DUP1 PUSH1 0x3 NOT CALLDATASIZE ADD SLT PUSH2 0x283 JUMPI PUSH2 0x9A6 PUSH2 0x1438 JUMP JUMPDEST PUSH1 0xD SLOAD PUSH1 0xFF DUP1 DUP3 AND ISZERO AND SWAP1 PUSH1 0xFF NOT AND OR PUSH1 0xD SSTORE DUP1 RETURN JUMPDEST DUP4 CALLVALUE PUSH2 0x283 JUMPI DUP1 PUSH1 0x3 NOT CALLDATASIZE ADD SLT PUSH2 0x283 JUMPI PUSH2 0x9D5 PUSH2 0x1438 JUMP JUMPDEST DUP1 SLOAD PUSH1 0x1 PUSH1 0x1 PUSH1 0xA0 SHL SUB NOT DUP2 AND DUP3 SSTORE DUP2 SWAP1 PUSH1 0x1 PUSH1 0x1 PUSH1 0xA0 SHL SUB AND PUSH32 0x8BE0079C531659141344CD1FD0A4F28419497F9722A3DAAFE3B4186F6B6457E0 DUP3 DUP1 LOG3 DUP1 RETURN JUMPDEST DUP4 SWAP1 CALLVALUE PUSH2 0x23A JUMPI PUSH1 0x20 CALLDATASIZE PUSH1 0x3 NOT ADD SLT PUSH2 0x23A JUMPI PUSH1 0x20 SWAP2 DUP2 SWAP1 PUSH1 0x1 PUSH1 0x1 PUSH1 0xA0 SHL SUB PUSH2 0xA3E PUSH2 0xFA2 JUMP JUMPDEST AND DUP2 MSTORE PUSH1 0x2 DUP5 MSTORE KECCAK256 SLOAD SWAP1 MLOAD SWAP1 DUP2 MSTORE RETURN JUMPDEST DUP4 SWAP1 CALLVALUE PUSH2 0x23A JUMPI DUP2 PUSH1 0x3 NOT CALLDATASIZE ADD SLT PUSH2 0x23A JUMPI PUSH1 0x20 SWAP1 PUSH1 0xB SLOAD SWAP1 MLOAD SWAP1 DUP2 MSTORE RETURN JUMPDEST DUP4 SWAP1 CALLVALUE PUSH2 0x23A JUMPI DUP2 PUSH1 0x3 NOT CALLDATASIZE ADD SLT PUSH2 0x23A JUMPI PUSH1 0x20 SWAP1 PUSH1 0xC SLOAD SWAP1 MLOAD SWAP1 DUP2 MSTORE RETURN JUMPDEST DUP4 SWAP1 CALLVALUE PUSH2 0x23A JUMPI DUP2 PUSH1 0x3 NOT CALLDATASIZE ADD SLT PUSH2 0x23A JUMPI PUSH1 0x20 SWAP1 PUSH1 0xFF PUSH1 0xA SLOAD PUSH1 0xA8 SHR AND SWAP1 MLOAD SWAP1 DUP2 MSTORE RETURN JUMPDEST POP POP CALLVALUE PUSH2 0x23A JUMPI PUSH1 0x20 CALLDATASIZE PUSH1 0x3 NOT ADD SLT PUSH2 0x23A JUMPI PUSH2 0xACC PUSH2 0x1438 JUMP JUMPDEST CALLDATALOAD PUSH1 0xB SSTORE DUP1 RETURN JUMPDEST DUP4 SWAP1 CALLVALUE PUSH2 0x23A JUMPI DUP2 PUSH1 0x3 NOT CALLDATASIZE ADD SLT PUSH2 0x23A JUMPI PUSH1 0x20 SWAP1 PUSH1 0xFF PUSH1 0xD SLOAD AND SWAP1 MLOAD SWAP1 ISZERO ISZERO DUP2 MSTORE RETURN JUMPDEST DUP4 SWAP1 CALLVALUE PUSH2 0x23A JUMPI DUP2 PUSH1 0x3 NOT CALLDATASIZE ADD SLT PUSH2 0x23A JUMPI PUSH1 0x20 SWAP1 PUSH1 0x8 SLOAD SWAP1 MLOAD SWAP1 DUP2 MSTORE RETURN JUMPDEST DUP4 SWAP1 CALLVALUE PUSH2 0x23A JUMPI DUP1 PUSH1 0x3 NOT CALLDATASIZE ADD SLT PUSH2 0x23A JUMPI PUSH2 0x668 PUSH1 0x20 SWAP3 PUSH2 0xB5F PUSH2 0xB39 PUSH2 0xFA2 JUMP JUMPDEST CALLER DUP4 MSTORE PUSH1 0x3 DUP7 MSTORE DUP5 DUP4 KECCAK256 PUSH1 0x1 PUSH1 0x1 PUSH1 0xA0 SHL SUB DUP3 AND DUP5 MSTORE DUP7 MSTORE SWAP2 DUP5 SWAP1 KECCAK256 SLOAD PUSH1 0x24 CALLDATALOAD SWAP1 PUSH2 0x1490 JUMP JUMPDEST SWAP1 CALLER PUSH2 0x14B3 JUMP JUMPDEST DUP4 DUP4 CALLVALUE PUSH2 0x23A JUMPI DUP3 PUSH1 0x3 NOT CALLDATASIZE ADD SLT PUSH2 0x23A JUMPI PUSH2 0xB80 PUSH2 0xFBD JUMP JUMPDEST SWAP1 CALLER PUSH1 0x1 PUSH1 0x1 PUSH1 0xA0 SHL SUB DUP4 AND SUB PUSH2 0xB9C JUMPI SWAP1 PUSH2 0x2EB SWAP2 CALLDATALOAD PUSH2 0x13C2 JUMP JUMPDEST PUSH1 0x84 SWAP1 PUSH1 0x20 DUP6 MLOAD SWAP2 PUSH3 0x461BCD PUSH1 0xE5 SHL DUP4 MSTORE DUP3 ADD MSTORE PUSH1 0x2F PUSH1 0x24 DUP3 ADD MSTORE PUSH32 0x416363657373436F6E74726F6C3A2063616E206F6E6C792072656E6F756E6365 PUSH1 0x44 DUP3 ADD MSTORE PUSH15 0x103937B632B9903337B91039B2B633 PUSH1 0x89 SHL PUSH1 0x64 DUP3 ADD MSTORE REVERT JUMPDEST DUP4 SWAP1 CALLVALUE PUSH2 0x23A JUMPI DUP2 PUSH1 0x3 NOT CALLDATASIZE ADD SLT PUSH2 0x23A JUMPI PUSH1 0x20 SWAP1 PUSH1 0x9 SLOAD SWAP1 MLOAD SWAP1 DUP2 MSTORE RETURN JUMPDEST DUP4 SWAP1 CALLVALUE PUSH2 0x23A JUMPI DUP2 PUSH1 0x3 NOT CALLDATASIZE ADD SLT PUSH2 0x23A JUMPI PUSH1 0x20 SWAP1 MLOAD PUSH1 0x12 DUP2 MSTORE RETURN JUMPDEST SWAP1 POP CALLVALUE PUSH2 0x3E8 JUMPI DUP1 PUSH1 0x3 NOT CALLDATASIZE ADD SLT PUSH2 0x3E8 JUMPI PUSH2 0x2EB SWAP2 CALLDATALOAD PUSH2 0xC56 PUSH1 0x1 PUSH2 0x5B8 PUSH2 0xFBD JUMP JUMPDEST PUSH2 0x1348 JUMP JUMPDEST SWAP2 SWAP1 POP CALLVALUE PUSH2 0x3E8 JUMPI PUSH1 0x20 CALLDATASIZE PUSH1 0x3 NOT ADD SLT PUSH2 0x3E8 JUMPI DUP2 PUSH1 0x20 SWAP4 PUSH1 0x1 SWAP3 CALLDATALOAD DUP2 MSTORE DUP3 DUP6 MSTORE KECCAK256 ADD SLOAD SWAP1 MLOAD SWAP1 DUP2 MSTORE RETURN JUMPDEST DUP3 DUP5 CALLVALUE PUSH2 0x283 JUMPI DUP3 PUSH2 0xC97 CALLDATASIZE PUSH2 0xFD3 JUMP JUMPDEST PUSH1 0x1 PUSH1 0x1 PUSH1 0xA0 SHL SUB DUP4 AND DUP6 MSTORE PUSH1 0x3 PUSH1 0x20 SWAP1 DUP2 MSTORE DUP5 DUP7 KECCAK256 CALLER DUP8 MSTORE SWAP1 MSTORE SWAP3 SWAP1 SWAP4 KECCAK256 SLOAD SWAP2 SWAP4 SWAP1 SWAP2 SWAP1 PUSH1 0x1 DUP3 ADD PUSH2 0xCD3 JUMPI JUMPDEST PUSH1 0x20 DUP7 PUSH2 0x668 DUP8 DUP8 DUP8 PUSH2 0x15EF JUMP JUMPDEST DUP5 DUP3 LT PUSH2 0xCFC JUMPI POP SWAP2 DUP4 SWAP2 PUSH2 0xCF1 PUSH1 0x20 SWAP7 SWAP6 PUSH2 0x668 SWAP6 SUB CALLER DUP4 PUSH2 0x14B3 JUMP JUMPDEST SWAP2 SWAP4 SWAP5 DUP2 SWAP4 POP PUSH2 0xCC5 JUMP JUMPDEST PUSH1 0x64 SWAP1 PUSH1 0x20 DUP8 MLOAD SWAP2 PUSH3 0x461BCD PUSH1 0xE5 SHL DUP4 MSTORE DUP3 ADD MSTORE PUSH1 0x1D PUSH1 0x24 DUP3 ADD MSTORE PUSH32 0x45524332303A20696E73756666696369656E7420616C6C6F77616E6365000000 PUSH1 0x44 DUP3 ADD MSTORE REVERT JUMPDEST DUP4 SWAP1 CALLVALUE PUSH2 0x23A JUMPI DUP2 PUSH1 0x3 NOT CALLDATASIZE ADD SLT PUSH2 0x23A JUMPI PUSH1 0x20 SWAP1 PUSH1 0xFF PUSH1 0xD SLOAD PUSH1 0x8 SHR AND SWAP1 MLOAD SWAP1 ISZERO ISZERO DUP2 MSTORE RETURN JUMPDEST SWAP2 SWAP1 POP CALLVALUE PUSH2 0x3E8 JUMPI DUP3 PUSH1 0x3 NOT CALLDATASIZE ADD SLT PUSH2 0x3E8 JUMPI PUSH1 0x20 SWAP3 POP SLOAD SWAP1 MLOAD SWAP1 DUP2 MSTORE RETURN JUMPDEST DUP4 SWAP1 CALLVALUE PUSH2 0x23A JUMPI DUP1 PUSH1 0x3 NOT CALLDATASIZE ADD SLT PUSH2 0x23A JUMPI PUSH1 0x20 SWAP1 PUSH2 0x668 PUSH2 0xDA5 PUSH2 0xFA2 JUMP JUMPDEST PUSH1 0x24 CALLDATALOAD SWAP1 CALLER PUSH2 0x14B3 JUMP JUMPDEST DUP4 CALLVALUE PUSH2 0x283 JUMPI PUSH1 0x20 CALLDATASIZE PUSH1 0x3 NOT ADD SLT PUSH2 0x283 JUMPI PUSH2 0x2EB PUSH2 0xDCC PUSH2 0xFA2 JUMP JUMPDEST PUSH2 0xDD4 PUSH2 0x1438 JUMP JUMPDEST PUSH1 0x8 SLOAD PUSH1 0x7 SLOAD PUSH1 0x1 PUSH1 0x1 PUSH1 0xA0 SHL SUB SWAP2 PUSH2 0xDEF SWAP2 DUP4 AND SWAP1 PUSH2 0x13C2 JUMP JUMPDEST DUP2 AND PUSH12 0xFFFFFFFFFFFFFFFFFFFFFFFF PUSH1 0xA0 SHL PUSH1 0x7 SLOAD AND OR PUSH1 0x7 SSTORE PUSH1 0x8 SLOAD PUSH2 0x1348 JUMP JUMPDEST DUP4 CALLVALUE PUSH2 0x283 JUMPI PUSH1 0x20 CALLDATASIZE PUSH1 0x3 NOT ADD SLT PUSH2 0x283 JUMPI PUSH2 0xE3D PUSH2 0xE2E PUSH2 0xFA2 JUMP JUMPDEST PUSH2 0xE36 PUSH2 0x1438 JUMP JUMPDEST SELFBALANCE SWAP1 PUSH2 0x1F18 JUMP JUMPDEST POP DUP1 RETURN JUMPDEST SWAP1 POP CALLVALUE PUSH2 0x3E8 JUMPI DUP3 PUSH1 0x3 NOT CALLDATASIZE ADD SLT PUSH2 0x3E8 JUMPI DUP1 MLOAD SWAP2 DUP4 PUSH1 0x5 SLOAD SWAP1 PUSH1 0x1 SWAP1 DUP3 DUP3 SHR SWAP3 DUP3 DUP2 AND DUP1 ISZERO PUSH2 0xEF5 JUMPI JUMPDEST PUSH1 0x20 SWAP6 DUP7 DUP7 LT DUP3 EQ PUSH2 0x859 JUMPI POP DUP5 DUP9 MSTORE SWAP1 DUP2 ISZERO PUSH2 0x837 JUMPI POP PUSH1 0x1 EQ PUSH2 0xE9C JUMPI PUSH2 0x7DA DUP7 DUP7 PUSH2 0x7D0 DUP3 DUP12 SUB DUP4 PUSH2 0x1310 JUMP JUMPDEST SWAP3 SWAP6 POP PUSH1 0x5 DUP4 MSTORE PUSH32 0x36B6384B5ECA791C62761152D0C79BB0604C104A5FB6F4EB0703F3154BB3DB0 JUMPDEST DUP3 DUP5 LT PUSH2 0xEE2 JUMPI POP POP POP DUP3 PUSH2 0x7DA SWAP5 PUSH2 0x7D0 SWAP3 DUP3 ADD ADD SWAP5 CODESIZE PUSH2 0x7BF JUMP JUMPDEST DUP1 SLOAD DUP7 DUP6 ADD DUP9 ADD MSTORE SWAP3 DUP7 ADD SWAP3 DUP2 ADD PUSH2 0xEC5 JUMP JUMPDEST SWAP4 PUSH1 0x7F AND SWAP4 PUSH2 0xE6C JUMP JUMPDEST DUP5 SWAP1 DUP5 CALLVALUE PUSH2 0x3E8 JUMPI PUSH1 0x20 CALLDATASIZE PUSH1 0x3 NOT ADD SLT PUSH2 0x3E8 JUMPI CALLDATALOAD PUSH4 0xFFFFFFFF PUSH1 0xE0 SHL DUP2 AND DUP1 SWAP2 SUB PUSH2 0x3E8 JUMPI PUSH1 0x20 SWAP3 POP PUSH4 0x7965DB0B PUSH1 0xE0 SHL DUP2 EQ SWAP1 DUP2 ISZERO PUSH2 0xF42 JUMPI JUMPDEST POP ISZERO ISZERO DUP2 MSTORE RETURN JUMPDEST PUSH4 0x1FFC9A7 PUSH1 0xE0 SHL EQ SWAP1 POP DUP4 PUSH2 0xF3B JUMP JUMPDEST PUSH1 0x0 JUMPDEST DUP4 DUP2 LT PUSH2 0xF66 JUMPI POP POP PUSH1 0x0 SWAP2 ADD MSTORE JUMP JUMPDEST DUP2 DUP2 ADD MLOAD DUP4 DUP3 ADD MSTORE PUSH1 0x20 ADD PUSH2 0xF56 JUMP JUMPDEST PUSH1 0x40 SWAP2 PUSH1 0x20 DUP3 MSTORE PUSH2 0xF96 DUP2 MLOAD DUP1 SWAP3 DUP2 PUSH1 0x20 DUP7 ADD MSTORE PUSH1 0x20 DUP7 DUP7 ADD SWAP2 ADD PUSH2 0xF53 JUMP JUMPDEST PUSH1 0x1F ADD PUSH1 0x1F NOT AND ADD ADD SWAP1 JUMP JUMPDEST PUSH1 0x4 CALLDATALOAD SWAP1 PUSH1 0x1 PUSH1 0x1 PUSH1 0xA0 SHL SUB DUP3 AND DUP3 SUB PUSH2 0xFB8 JUMPI JUMP JUMPDEST PUSH1 0x0 DUP1 REVERT JUMPDEST PUSH1 0x24 CALLDATALOAD SWAP1 PUSH1 0x1 PUSH1 0x1 PUSH1 0xA0 SHL SUB DUP3 AND DUP3 SUB PUSH2 0xFB8 JUMPI JUMP JUMPDEST PUSH1 0x60 SWAP1 PUSH1 0x3 NOT ADD SLT PUSH2 0xFB8 JUMPI PUSH1 0x1 PUSH1 0x1 PUSH1 0xA0 SHL SUB SWAP1 PUSH1 0x4 CALLDATALOAD DUP3 DUP2 AND DUP2 SUB PUSH2 0xFB8 JUMPI SWAP2 PUSH1 0x24 CALLDATALOAD SWAP1 DUP2 AND DUP2 SUB PUSH2 0xFB8 JUMPI SWAP1 PUSH1 0x44 CALLDATALOAD SWAP1 JUMP JUMPDEST PUSH1 0x0 SWAP1 DUP1 DUP3 MSTORE PUSH1 0x1 SWAP2 PUSH1 0x20 SWAP2 DUP4 DUP4 MSTORE PUSH1 0x40 SWAP4 DUP5 DUP4 KECCAK256 CALLER DUP5 MSTORE DUP5 MSTORE PUSH1 0xFF DUP6 DUP5 KECCAK256 SLOAD AND ISZERO PUSH2 0x1035 JUMPI POP POP POP POP POP JUMP JUMPDEST DUP5 MLOAD PUSH8 0xFFFFFFFFFFFFFFFF SWAP3 CALLER SWAP3 SWAP1 PUSH1 0x60 DUP4 ADD DUP6 DUP2 GT DUP5 DUP3 LT OR PUSH2 0x123C JUMPI DUP9 MSTORE PUSH1 0x2A DUP4 MSTORE DUP7 DUP4 ADD SWAP4 DUP9 CALLDATASIZE DUP7 CALLDATACOPY DUP4 MLOAD ISZERO PUSH2 0x12FC JUMPI PUSH1 0x30 DUP6 MSTORE8 DUP4 MLOAD DUP4 LT ISZERO PUSH2 0x12FC JUMPI PUSH1 0x78 PUSH1 0x21 DUP6 ADD MSTORE8 PUSH1 0x29 JUMPDEST DUP4 DUP2 GT PUSH2 0x1292 JUMPI POP PUSH2 0x1250 JUMPI SWAP1 DUP8 MLOAD SWAP5 PUSH1 0x80 DUP7 ADD SWAP1 DUP7 DUP3 LT SWAP1 DUP3 GT OR PUSH2 0x123C JUMPI DUP9 MSTORE PUSH1 0x42 DUP6 MSTORE DUP7 DUP6 ADD SWAP6 PUSH1 0x60 CALLDATASIZE DUP9 CALLDATACOPY DUP6 MLOAD ISZERO PUSH2 0x1228 JUMPI PUSH1 0x30 DUP8 MSTORE8 DUP6 MLOAD DUP3 LT ISZERO PUSH2 0x1228 JUMPI SWAP1 PUSH1 0x78 PUSH1 0x21 DUP8 ADD MSTORE8 PUSH1 0x41 SWAP2 JUMPDEST DUP2 DUP4 GT PUSH2 0x11BA JUMPI POP POP POP PUSH2 0x1178 JUMPI SWAP4 DUP6 SWAP4 PUSH2 0x115E SWAP4 PUSH2 0x114F PUSH1 0x48 SWAP5 PUSH2 0x1126 PUSH32 0x416363657373436F6E74726F6C3A206163636F756E7420000000000000000000 SWAP10 PUSH2 0x1174 SWAP12 MLOAD SWAP11 DUP12 SWAP8 DUP9 ADD MSTORE MLOAD DUP1 SWAP3 PUSH1 0x37 DUP9 ADD SWAP1 PUSH2 0xF53 JUMP JUMPDEST DUP5 ADD SWAP2 PUSH17 0x1034B99036B4B9B9B4B733903937B6329 PUSH1 0x7D SHL PUSH1 0x37 DUP5 ADD MSTORE MLOAD DUP1 SWAP4 DUP7 DUP5 ADD SWAP1 PUSH2 0xF53 JUMP JUMPDEST ADD SUB PUSH1 0x28 DUP2 ADD DUP6 MSTORE ADD DUP4 PUSH2 0x1310 JUMP JUMPDEST MLOAD PUSH3 0x461BCD PUSH1 0xE5 SHL DUP2 MSTORE SWAP2 DUP3 SWAP2 PUSH1 0x4 DUP4 ADD PUSH2 0xF76 JUMP JUMPDEST SUB SWAP1 REVERT JUMPDEST PUSH1 0x64 DUP6 DUP8 MLOAD SWAP1 PUSH3 0x461BCD PUSH1 0xE5 SHL DUP3 MSTORE DUP1 PUSH1 0x4 DUP4 ADD MSTORE PUSH1 0x24 DUP3 ADD MSTORE PUSH32 0x537472696E67733A20686578206C656E67746820696E73756666696369656E74 PUSH1 0x44 DUP3 ADD MSTORE REVERT JUMPDEST SWAP1 SWAP2 SWAP3 PUSH1 0xF DUP2 AND PUSH1 0x10 DUP2 LT ISZERO PUSH2 0x1214 JUMPI PUSH16 0x181899199A1A9B1B9C1CB0B131B232B3 PUSH1 0x81 SHL SWAP1 BYTE PUSH2 0x11EA DUP6 DUP10 PUSH2 0x15C8 JUMP JUMPDEST MSTORE8 PUSH1 0x4 SHR SWAP3 DUP1 ISZERO PUSH2 0x1200 JUMPI PUSH1 0x0 NOT ADD SWAP2 SWAP1 PUSH2 0x10CE JUMP JUMPDEST PUSH4 0x4E487B71 PUSH1 0xE0 SHL DUP3 MSTORE PUSH1 0x11 PUSH1 0x4 MSTORE PUSH1 0x24 DUP3 REVERT JUMPDEST PUSH4 0x4E487B71 PUSH1 0xE0 SHL DUP4 MSTORE PUSH1 0x32 PUSH1 0x4 MSTORE PUSH1 0x24 DUP4 REVERT JUMPDEST PUSH4 0x4E487B71 PUSH1 0xE0 SHL DUP2 MSTORE PUSH1 0x32 PUSH1 0x4 MSTORE PUSH1 0x24 SWAP1 REVERT JUMPDEST PUSH4 0x4E487B71 PUSH1 0xE0 SHL DUP8 MSTORE PUSH1 0x41 PUSH1 0x4 MSTORE PUSH1 0x24 DUP8 REVERT JUMPDEST PUSH1 0x64 DUP8 DUP10 MLOAD SWAP1 PUSH3 0x461BCD PUSH1 0xE5 SHL DUP3 MSTORE DUP1 PUSH1 0x4 DUP4 ADD MSTORE PUSH1 0x24 DUP3 ADD MSTORE PUSH32 0x537472696E67733A20686578206C656E67746820696E73756666696369656E74 PUSH1 0x44 DUP3 ADD MSTORE REVERT JUMPDEST SWAP1 PUSH1 0xF DUP2 AND PUSH1 0x10 DUP2 LT ISZERO PUSH2 0x12E8 JUMPI PUSH16 0x181899199A1A9B1B9C1CB0B131B232B3 PUSH1 0x81 SHL SWAP1 BYTE PUSH2 0x12C0 DUP4 DUP8 PUSH2 0x15C8 JUMP JUMPDEST MSTORE8 PUSH1 0x4 SHR SWAP1 DUP1 ISZERO PUSH2 0x12D4 JUMPI PUSH1 0x0 NOT ADD PUSH2 0x107F JUMP JUMPDEST PUSH4 0x4E487B71 PUSH1 0xE0 SHL DUP9 MSTORE PUSH1 0x11 PUSH1 0x4 MSTORE PUSH1 0x24 DUP9 REVERT JUMPDEST PUSH4 0x4E487B71 PUSH1 0xE0 SHL DUP10 MSTORE PUSH1 0x32 PUSH1 0x4 MSTORE PUSH1 0x24 DUP10 REVERT JUMPDEST PUSH4 0x4E487B71 PUSH1 0xE0 SHL DUP8 MSTORE PUSH1 0x32 PUSH1 0x4 MSTORE PUSH1 0x24 DUP8 REVERT JUMPDEST SWAP1 PUSH1 0x1F DUP1 NOT SWAP2 ADD AND DUP2 ADD SWAP1 DUP2 LT PUSH8 0xFFFFFFFFFFFFFFFF DUP3 GT OR PUSH2 0x1332 JUMPI PUSH1 0x40 MSTORE JUMP JUMPDEST PUSH4 0x4E487B71 PUSH1 0xE0 SHL PUSH1 0x0 MSTORE PUSH1 0x41 PUSH1 0x4 MSTORE PUSH1 0x24 PUSH1 0x0 REVERT JUMPDEST SWAP1 PUSH1 0x0 SWAP2 DUP1 DUP4 MSTORE PUSH1 0x1 PUSH1 0x20 MSTORE PUSH1 0x40 DUP4 KECCAK256 SWAP2 PUSH1 0x1 DUP1 PUSH1 0xA0 SHL SUB AND SWAP2 DUP3 DUP5 MSTORE PUSH1 0x20 MSTORE PUSH1 0xFF PUSH1 0x40 DUP5 KECCAK256 SLOAD AND ISZERO PUSH2 0x137A JUMPI POP POP POP JUMP JUMPDEST DUP1 DUP4 MSTORE PUSH1 0x1 PUSH1 0x20 MSTORE PUSH1 0x40 DUP4 KECCAK256 DUP3 DUP5 MSTORE PUSH1 0x20 MSTORE PUSH1 0x40 DUP4 KECCAK256 PUSH1 0x1 PUSH1 0xFF NOT DUP3 SLOAD AND OR SWAP1 SSTORE PUSH32 0x2F8788117E7EFF1D82E926EC794901D17C78024A50270940304540A733656F0D CALLER SWAP4 DUP1 LOG4 JUMP JUMPDEST SWAP1 PUSH1 0x0 SWAP2 DUP1 DUP4 MSTORE PUSH1 0x1 PUSH1 0x20 MSTORE PUSH1 0x40 DUP4 KECCAK256 SWAP2 PUSH1 0x1 DUP1 PUSH1 0xA0 SHL SUB AND SWAP2 DUP3 DUP5 MSTORE PUSH1 0x20 MSTORE PUSH1 0xFF PUSH1 0x40 DUP5 KECCAK256 SLOAD AND PUSH2 0x13F3 JUMPI POP POP POP JUMP JUMPDEST DUP1 DUP4 MSTORE PUSH1 0x1 PUSH1 0x20 MSTORE PUSH1 0x40 DUP4 KECCAK256 DUP3 DUP5 MSTORE PUSH1 0x20 MSTORE PUSH1 0x40 DUP4 KECCAK256 PUSH1 0xFF NOT DUP2 SLOAD AND SWAP1 SSTORE PUSH32 0xF6391F5C32D9C69D2A47EA670B442974B53935D1EDC7FD64EB21E047A839171B CALLER SWAP4 DUP1 LOG4 JUMP JUMPDEST PUSH1 0x0 SLOAD PUSH1 0x1 PUSH1 0x1 PUSH1 0xA0 SHL SUB AND CALLER SUB PUSH2 0x144C JUMPI JUMP JUMPDEST PUSH1 0x64 PUSH1 0x40 MLOAD PUSH3 0x461BCD PUSH1 0xE5 SHL DUP2 MSTORE PUSH1 0x20 PUSH1 0x4 DUP3 ADD MSTORE PUSH1 0x20 PUSH1 0x24 DUP3 ADD MSTORE PUSH32 0x4F776E61626C653A2063616C6C6572206973206E6F7420746865206F776E6572 PUSH1 0x44 DUP3 ADD MSTORE REVERT JUMPDEST SWAP2 SWAP1 DUP3 ADD DUP1 SWAP3 GT PUSH2 0x149D JUMPI JUMP JUMPDEST PUSH4 0x4E487B71 PUSH1 0xE0 SHL PUSH1 0x0 MSTORE PUSH1 0x11 PUSH1 0x4 MSTORE PUSH1 0x24 PUSH1 0x0 REVERT JUMPDEST PUSH1 0x1 PUSH1 0x1 PUSH1 0xA0 SHL SUB SWAP1 DUP2 AND SWAP2 DUP3 ISZERO PUSH2 0x1564 JUMPI AND SWAP2 DUP3 ISZERO PUSH2 0x1514 JUMPI PUSH1 0x20 PUSH32 0x8C5BE1E5EBEC7D5BD14F71427D1E84F3DD0314C0F7B2291E5B200AC8C7C3B925 SWAP2 DUP4 PUSH1 0x0 MSTORE PUSH1 0x3 DUP3 MSTORE PUSH1 0x40 PUSH1 0x0 KECCAK256 DUP6 PUSH1 0x0 MSTORE DUP3 MSTORE DUP1 PUSH1 0x40 PUSH1 0x0 KECCAK256 SSTORE PUSH1 0x40 MLOAD SWAP1 DUP2 MSTORE LOG3 JUMP JUMPDEST PUSH1 0x40 MLOAD PUSH3 0x461BCD PUSH1 0xE5 SHL DUP2 MSTORE PUSH1 0x20 PUSH1 0x4 DUP3 ADD MSTORE PUSH1 0x22 PUSH1 0x24 DUP3 ADD MSTORE PUSH32 0x45524332303A20617070726F766520746F20746865207A65726F206164647265 PUSH1 0x44 DUP3 ADD MSTORE PUSH2 0x7373 PUSH1 0xF0 SHL PUSH1 0x64 DUP3 ADD MSTORE PUSH1 0x84 SWAP1 REVERT JUMPDEST PUSH1 0x40 MLOAD PUSH3 0x461BCD PUSH1 0xE5 SHL DUP2 MSTORE PUSH1 0x20 PUSH1 0x4 DUP3 ADD MSTORE PUSH1 0x24 DUP1 DUP3 ADD MSTORE PUSH32 0x45524332303A20617070726F76652066726F6D20746865207A65726F20616464 PUSH1 0x44 DUP3 ADD MSTORE PUSH4 0x72657373 PUSH1 0xE0 SHL PUSH1 0x64 DUP3 ADD MSTORE PUSH1 0x84 SWAP1 REVERT JUMPDEST DUP2 DUP2 MUL SWAP3 SWAP2 DUP2 ISZERO SWAP2 DUP5 DIV EQ OR ISZERO PUSH2 0x149D JUMPI JUMP JUMPDEST SWAP1 DUP2 MLOAD DUP2 LT ISZERO PUSH2 0x15D9 JUMPI ADD PUSH1 0x20 ADD SWAP1 JUMP JUMPDEST PUSH4 0x4E487B71 PUSH1 0xE0 SHL PUSH1 0x0 MSTORE PUSH1 0x32 PUSH1 0x4 MSTORE PUSH1 0x24 PUSH1 0x0 REVERT JUMPDEST PUSH1 0x0 DUP1 SLOAD SWAP4 SWAP5 SWAP4 SWAP1 SWAP3 SWAP1 PUSH1 0x1 PUSH1 0x1 PUSH1 0xA0 SHL SUB DUP1 DUP5 AND SWAP2 AND DUP2 DUP2 EQ ISZERO SWAP1 DUP2 PUSH2 0x1D1F JUMPI JUMPDEST DUP2 PUSH2 0x1CEC JUMPI JUMPDEST POP PUSH2 0x1C8C JUMPI JUMPDEST PUSH1 0x8 SLOAD PUSH1 0x0 SWAP1 DUP2 MSTORE PUSH1 0x1 PUSH1 0x20 SWAP1 DUP2 MSTORE PUSH1 0x40 DUP1 DUP4 KECCAK256 PUSH1 0x1 PUSH1 0x1 PUSH1 0xA0 SHL SUB DUP8 AND DUP5 MSTORE SWAP1 SWAP2 MSTORE SWAP1 KECCAK256 SLOAD PUSH1 0xFF AND ISZERO SWAP1 DUP2 PUSH2 0x1C81 JUMPI JUMPDEST POP ISZERO PUSH2 0x1C74 JUMPI PUSH1 0xA SLOAD SWAP5 PUSH1 0x3 PUSH1 0x64 PUSH2 0x166C PUSH1 0xFF DUP10 PUSH1 0xA0 SHR AND DUP5 PUSH2 0x15B5 JUMP JUMPDEST DIV DIV SWAP4 DUP5 PUSH1 0x1 SHR SWAP7 ADDRESS DUP3 MSTORE PUSH1 0x2 PUSH1 0x20 MSTORE PUSH1 0x40 DUP3 KECCAK256 SLOAD SWAP1 PUSH1 0xB SLOAD DUP1 DUP4 LT ISZERO PUSH2 0x1C6C JUMPI JUMPDEST POP PUSH1 0xC SLOAD DUP3 LT ISZERO PUSH2 0x16C4 DUP8 PUSH1 0x9 SLOAD PUSH1 0x0 MSTORE PUSH1 0x1 PUSH1 0x20 MSTORE PUSH1 0x40 PUSH1 0x0 KECCAK256 SWAP1 PUSH1 0x1 DUP1 PUSH1 0xA0 SHL SUB AND PUSH1 0x0 MSTORE PUSH1 0x20 MSTORE PUSH1 0xFF PUSH1 0x40 PUSH1 0x0 KECCAK256 SLOAD AND SWAP1 JUMP JUMPDEST ISZERO SWAP1 DUP2 PUSH2 0x1C64 JUMPI JUMPDEST POP DUP1 PUSH2 0x1C54 JUMPI JUMPDEST DUP1 PUSH2 0x1C48 JUMPI JUMPDEST PUSH2 0x173B JUMPI JUMPDEST POP POP POP SWAP5 PUSH2 0x1715 PUSH2 0x171C SWAP3 PUSH2 0x170E DUP4 PUSH2 0x1703 PUSH2 0x1739 SWAP10 SWAP11 PUSH2 0x1708 DUP11 PUSH2 0x1703 DUP2 DUP1 PUSH2 0x1490 JUMP JUMPDEST PUSH2 0x1490 JUMP JUMPDEST SWAP1 PUSH2 0x1EAC JUMP JUMPDEST SWAP1 DUP6 PUSH2 0x1D35 JUMP JUMPDEST DUP3 DUP1 PUSH2 0x1D35 JUMP JUMPDEST PUSH2 0x1727 DUP3 ADDRESS DUP4 PUSH2 0x1D35 JUMP JUMPDEST PUSH1 0x7 SLOAD PUSH1 0x1 PUSH1 0x1 PUSH1 0xA0 SHL SUB AND SWAP1 PUSH2 0x1D35 JUMP JUMPDEST JUMP JUMPDEST PUSH2 0x100 PUSH2 0xFF00 NOT PUSH1 0xD SLOAD AND OR PUSH1 0xD SSTORE PUSH2 0x1757 DUP3 PUSH1 0x1 SHR DUP4 PUSH2 0x1EAC JUMP JUMPDEST SWAP2 SELFBALANCE SWAP2 PUSH2 0x1773 SWAP1 PUSH1 0x1 DUP4 SWAP1 SHR SWAP1 PUSH1 0x1 PUSH1 0x1 PUSH1 0xA0 SHL SUB AND ADDRESS PUSH2 0x14B3 JUMP JUMPDEST PUSH1 0xA SLOAD PUSH1 0x40 MLOAD PUSH4 0xC45A0155 PUSH1 0xE0 SHL DUP2 MSTORE PUSH1 0x1 PUSH1 0x1 PUSH1 0xA0 SHL SUB SWAP1 SWAP2 AND SWAP1 PUSH1 0x20 DUP2 PUSH1 0x4 DUP2 DUP6 GAS STATICCALL SWAP1 DUP2 ISZERO PUSH2 0x1C3D JUMPI DUP7 SWAP2 PUSH2 0x1C1E JUMPI JUMPDEST POP PUSH1 0x40 MLOAD SWAP1 PUSH1 0x60 DUP3 ADD DUP3 DUP2 LT PUSH8 0xFFFFFFFFFFFFFFFF DUP3 GT OR PUSH2 0x1C0A JUMPI PUSH1 0x40 MSTORE PUSH1 0x2 DUP3 MSTORE PUSH1 0x40 CALLDATASIZE PUSH1 0x20 DUP5 ADD CALLDATACOPY DUP2 MLOAD ISZERO PUSH2 0x12FC JUMPI ADDRESS PUSH1 0x20 DUP4 ADD MSTORE PUSH1 0x40 MLOAD PUSH4 0x15AB88C9 PUSH1 0xE3 SHL DUP2 MSTORE PUSH1 0x20 DUP2 PUSH1 0x4 DUP2 DUP8 GAS STATICCALL SWAP1 DUP2 ISZERO PUSH2 0x1B83 JUMPI DUP9 SWAP2 PUSH2 0x1BEB JUMPI JUMPDEST POP DUP3 MLOAD PUSH1 0x1 LT ISZERO PUSH2 0x1BD7 JUMPI PUSH1 0x1 PUSH1 0x1 PUSH1 0xA0 SHL SUB AND PUSH1 0x40 DUP4 DUP2 ADD SWAP2 SWAP1 SWAP2 MSTORE MLOAD PUSH4 0x15AB88C9 PUSH1 0xE3 SHL DUP2 MSTORE SWAP1 PUSH1 0x20 DUP3 PUSH1 0x4 DUP2 DUP8 GAS STATICCALL SWAP2 DUP3 ISZERO PUSH2 0x1B83 JUMPI DUP9 SWAP3 PUSH2 0x1BB6 JUMPI JUMPDEST POP PUSH1 0x40 MLOAD PUSH4 0x15AB88C9 PUSH1 0xE3 SHL DUP2 MSTORE PUSH1 0x20 DUP2 PUSH1 0x4 DUP2 DUP9 GAS STATICCALL SWAP1 DUP2 ISZERO PUSH2 0x1BAB JUMPI SWAP1 PUSH1 0x20 SWAP2 DUP11 SWAP2 PUSH2 0x1B8E JUMPI JUMPDEST POP PUSH1 0x40 MLOAD PUSH4 0xE6A43905 PUSH1 0xE0 SHL DUP2 MSTORE ADDRESS PUSH1 0x4 DUP3 ADD MSTORE PUSH1 0x1 PUSH1 0x1 PUSH1 0xA0 SHL SUB SWAP2 DUP3 AND PUSH1 0x24 DUP3 ADD MSTORE SWAP3 DUP4 SWAP2 PUSH1 0x44 SWAP2 DUP4 SWAP2 AND GAS STATICCALL SWAP1 DUP2 ISZERO PUSH2 0x1B83 JUMPI SWAP1 PUSH1 0x20 SWAP2 DUP10 SWAP2 PUSH2 0x1B56 JUMPI JUMPDEST POP PUSH1 0x40 MLOAD PUSH4 0x70A08231 PUSH1 0xE0 SHL DUP2 MSTORE PUSH1 0x1 PUSH1 0x1 PUSH1 0xA0 SHL SUB SWAP2 DUP3 AND PUSH1 0x4 DUP3 ADD MSTORE SWAP3 DUP4 SWAP2 PUSH1 0x24 SWAP2 DUP4 SWAP2 AND GAS STATICCALL SWAP1 DUP2 ISZERO PUSH2 0x1B4B JUMPI DUP8 SWAP2 PUSH2 0x1B15 JUMPI JUMPDEST POP PUSH2 0x1A18 JUMPI JUMPDEST POP POP POP PUSH2 0x18F6 SWAP1 SELFBALANCE PUSH2 0x1EAC JUMP JUMPDEST PUSH2 0x1915 PUSH1 0x64 PUSH2 0x190D PUSH1 0xFF PUSH1 0xA SLOAD PUSH1 0xA8 SHR AND DUP5 PUSH2 0x15B5 JUMP JUMPDEST DIV DUP1 SWAP3 PUSH2 0x1EAC JUMP JUMPDEST SWAP1 DUP1 PUSH2 0x19FB JUMPI JUMPDEST POP PUSH1 0xA SLOAD PUSH2 0x1935 SWAP1 DUP4 SWAP1 PUSH1 0x1 PUSH1 0x1 PUSH1 0xA0 SHL SUB AND ADDRESS PUSH2 0x14B3 JUMP JUMPDEST PUSH1 0xA SLOAD PUSH1 0x1 PUSH1 0x1 PUSH1 0xA0 SHL SUB AND SWAP2 TIMESTAMP PUSH2 0x4B0 DUP2 ADD SWAP3 SWAP1 DUP4 LT PUSH2 0x19E7 JUMPI PUSH1 0x60 SWAP3 SWAP2 PUSH1 0xC4 SWAP2 PUSH1 0x40 MLOAD SWAP6 DUP7 SWAP5 DUP6 SWAP4 PUSH4 0xF305D719 PUSH1 0xE0 SHL DUP6 MSTORE ADDRESS PUSH1 0x4 DUP7 ADD MSTORE PUSH1 0x24 DUP6 ADD MSTORE DUP9 PUSH1 0x44 DUP6 ADD MSTORE DUP9 PUSH1 0x64 DUP6 ADD MSTORE ADDRESS PUSH1 0x84 DUP6 ADD MSTORE PUSH1 0xA4 DUP5 ADD MSTORE GAS CALL DUP1 ISZERO PUSH2 0x19DC JUMPI PUSH2 0x19B1 JUMPI JUMPDEST POP POP PUSH1 0xD DUP1 SLOAD PUSH2 0xFF00 NOT AND SWAP1 SSTORE PUSH2 0x1715 DUP3 PUSH2 0x170E PUSH2 0x16DE JUMP JUMPDEST PUSH1 0x60 SWAP1 DUP2 RETURNDATASIZE DUP2 GT PUSH2 0x19D5 JUMPI JUMPDEST PUSH2 0x19C7 DUP2 DUP4 PUSH2 0x1310 JUMP JUMPDEST DUP2 ADD SUB SLT PUSH2 0x283 JUMPI DUP1 PUSH2 0x1998 JUMP JUMPDEST POP RETURNDATASIZE PUSH2 0x19BD JUMP JUMPDEST PUSH1 0x40 MLOAD RETURNDATASIZE DUP5 DUP3 RETURNDATACOPY RETURNDATASIZE SWAP1 REVERT JUMPDEST PUSH4 0x4E487B71 PUSH1 0xE0 SHL DUP6 MSTORE PUSH1 0x11 PUSH1 0x4 MSTORE PUSH1 0x24 DUP6 REVERT JUMPDEST PUSH1 0x7 SLOAD PUSH2 0x1A11 SWAP2 SWAP1 PUSH1 0x1 PUSH1 0x1 PUSH1 0xA0 SHL SUB AND PUSH2 0x1F18 JUMP JUMPDEST POP CODESIZE PUSH2 0x191C JUMP JUMPDEST PUSH2 0x4B0 TIMESTAMP ADD TIMESTAMP GT PUSH2 0x1B01 JUMPI DUP2 EXTCODESIZE ISZERO PUSH2 0x1AFD JUMPI SWAP2 DUP6 SWAP2 PUSH1 0x40 MLOAD SWAP4 DUP5 SWAP3 PUSH4 0x791AC947 PUSH1 0xE0 SHL DUP5 MSTORE PUSH1 0xA4 DUP5 ADD SWAP1 PUSH1 0x1 SHR PUSH1 0x4 DUP6 ADD MSTORE DUP5 PUSH1 0x24 DUP6 ADD MSTORE PUSH1 0xA0 PUSH1 0x44 DUP6 ADD MSTORE DUP2 MLOAD DUP1 SWAP2 MSTORE PUSH1 0x20 PUSH1 0xC4 DUP6 ADD SWAP3 ADD SWAP1 DUP6 JUMPDEST DUP2 DUP2 LT PUSH2 0x1AD8 JUMPI POP POP POP DUP4 DUP4 DUP1 SWAP3 ADDRESS PUSH1 0x64 DUP4 ADD MSTORE PUSH2 0x4B0 TIMESTAMP ADD PUSH1 0x84 DUP4 ADD MSTORE SUB SWAP3 GAS CALL DUP1 ISZERO PUSH2 0x1ACD JUMPI PUSH2 0x1A9B JUMPI JUMPDEST DUP1 DUP1 PUSH2 0x18E9 JUMP JUMPDEST PUSH8 0xFFFFFFFFFFFFFFFF DUP2 SWAP5 SWAP3 SWAP5 GT PUSH2 0x1AB9 JUMPI PUSH1 0x40 MSTORE SWAP2 PUSH2 0x18F6 PUSH2 0x1A94 JUMP JUMPDEST PUSH4 0x4E487B71 PUSH1 0xE0 SHL DUP3 MSTORE PUSH1 0x41 PUSH1 0x4 MSTORE PUSH1 0x24 DUP3 REVERT JUMPDEST PUSH1 0x40 MLOAD RETURNDATASIZE DUP7 DUP3 RETURNDATACOPY RETURNDATASIZE SWAP1 REVERT JUMPDEST DUP3 MLOAD PUSH1 0x1 PUSH1 0x1 PUSH1 0xA0 SHL SUB AND DUP5 MSTORE DUP11 SWAP7 POP DUP8 SWAP6 POP PUSH1 0x20 SWAP4 DUP5 ADD SWAP4 SWAP1 SWAP3 ADD SWAP2 PUSH1 0x1 ADD PUSH2 0x1A67 JUMP JUMPDEST DUP6 DUP1 REVERT JUMPDEST PUSH4 0x4E487B71 PUSH1 0xE0 SHL DUP7 MSTORE PUSH1 0x11 PUSH1 0x4 MSTORE PUSH1 0x24 DUP7 REVERT JUMPDEST SWAP1 POP PUSH1 0x20 DUP2 RETURNDATASIZE PUSH1 0x20 GT PUSH2 0x1B43 JUMPI JUMPDEST DUP2 PUSH2 0x1B30 PUSH1 0x20 SWAP4 DUP4 PUSH2 0x1310 JUMP JUMPDEST DUP2 ADD SUB SLT PUSH2 0x1B3F JUMPI MLOAD CODESIZE PUSH2 0x18E3 JUMP JUMPDEST DUP7 DUP1 REVERT JUMPDEST RETURNDATASIZE SWAP2 POP PUSH2 0x1B23 JUMP JUMPDEST PUSH1 0x40 MLOAD RETURNDATASIZE DUP10 DUP3 RETURNDATACOPY RETURNDATASIZE SWAP1 REVERT JUMPDEST PUSH2 0x1B76 SWAP2 POP DUP3 RETURNDATASIZE DUP5 GT PUSH2 0x1B7C JUMPI JUMPDEST PUSH2 0x1B6E DUP2 DUP4 PUSH2 0x1310 JUMP JUMPDEST DUP2 ADD SWAP1 PUSH2 0x1EB9 JUMP JUMPDEST CODESIZE PUSH2 0x18AC JUMP JUMPDEST POP RETURNDATASIZE PUSH2 0x1B64 JUMP JUMPDEST PUSH1 0x40 MLOAD RETURNDATASIZE DUP11 DUP3 RETURNDATACOPY RETURNDATASIZE SWAP1 REVERT JUMPDEST PUSH2 0x1BA5 SWAP2 POP DUP3 RETURNDATASIZE DUP5 GT PUSH2 0x1B7C JUMPI PUSH2 0x1B6E DUP2 DUP4 PUSH2 0x1310 JUMP JUMPDEST CODESIZE PUSH2 0x186B JUMP JUMPDEST PUSH1 0x40 MLOAD RETURNDATASIZE DUP12 DUP3 RETURNDATACOPY RETURNDATASIZE SWAP1 REVERT JUMPDEST PUSH2 0x1BD0 SWAP2 SWAP3 POP PUSH1 0x20 RETURNDATASIZE PUSH1 0x20 GT PUSH2 0x1B7C JUMPI PUSH2 0x1B6E DUP2 DUP4 PUSH2 0x1310 JUMP JUMPDEST SWAP1 CODESIZE PUSH2 0x1842 JUMP JUMPDEST PUSH4 0x4E487B71 PUSH1 0xE0 SHL DUP9 MSTORE PUSH1 0x32 PUSH1 0x4 MSTORE PUSH1 0x24 DUP9 REVERT JUMPDEST PUSH2 0x1C04 SWAP2 POP PUSH1 0x20 RETURNDATASIZE PUSH1 0x20 GT PUSH2 0x1B7C JUMPI PUSH2 0x1B6E DUP2 DUP4 PUSH2 0x1310 JUMP JUMPDEST CODESIZE PUSH2 0x1802 JUMP JUMPDEST PUSH4 0x4E487B71 PUSH1 0xE0 SHL DUP9 MSTORE PUSH1 0x41 PUSH1 0x4 MSTORE PUSH1 0x24 DUP9 REVERT JUMPDEST PUSH2 0x1C37 SWAP2 POP PUSH1 0x20 RETURNDATASIZE PUSH1 0x20 GT PUSH2 0x1B7C JUMPI PUSH2 0x1B6E DUP2 DUP4 PUSH2 0x1310 JUMP JUMPDEST CODESIZE PUSH2 0x17A6 JUMP JUMPDEST PUSH1 0x40 MLOAD RETURNDATASIZE DUP9 DUP3 RETURNDATACOPY RETURNDATASIZE SWAP1 REVERT JUMPDEST POP PUSH1 0xFF PUSH1 0xD SLOAD AND PUSH2 0x16D9 JUMP JUMPDEST POP PUSH1 0xFF PUSH1 0xD SLOAD PUSH1 0x8 SHR AND ISZERO PUSH2 0x16D3 JUMP JUMPDEST SWAP1 POP CODESIZE PUSH2 0x16CC JUMP JUMPDEST SWAP2 POP CODESIZE PUSH2 0x168E JUMP JUMPDEST SWAP1 PUSH2 0x1739 SWAP4 SWAP5 SWAP3 POP PUSH2 0x1D35 JUMP JUMPDEST SWAP1 POP ADDRESS EQ ISZERO CODESIZE PUSH2 0x164E JUMP JUMPDEST PUSH1 0xB SLOAD DUP7 GT ISZERO PUSH2 0x161D JUMPI PUSH1 0x40 MLOAD PUSH3 0x461BCD PUSH1 0xE5 SHL DUP2 MSTORE PUSH1 0x20 PUSH1 0x4 DUP3 ADD MSTORE PUSH1 0x28 PUSH1 0x24 DUP3 ADD MSTORE PUSH32 0x7472616E736665725F616D6F756E745F63616E6E6F745F6578636565645F6D61 PUSH1 0x44 DUP3 ADD MSTORE PUSH8 0x1E17D85B5BDD5B9D PUSH1 0xC2 SHL PUSH1 0x64 DUP3 ADD MSTORE PUSH1 0x84 SWAP1 REVERT JUMPDEST PUSH1 0x1 PUSH1 0x1 PUSH1 0xA0 SHL SUB DUP5 AND SWAP1 DUP2 EQ ISZERO SWAP2 POP DUP2 PUSH2 0x1D09 JUMPI JUMPDEST POP CODESIZE PUSH2 0x1617 JUMP JUMPDEST PUSH1 0x7 SLOAD PUSH1 0x1 PUSH1 0x1 PUSH1 0xA0 SHL SUB AND EQ ISZERO SWAP1 POP CODESIZE PUSH2 0x1D02 JUMP JUMPDEST PUSH1 0x7 SLOAD PUSH1 0x1 PUSH1 0x1 PUSH1 0xA0 SHL SUB AND DUP4 EQ ISZERO SWAP2 POP PUSH2 0x1611 JUMP JUMPDEST PUSH1 0x1 PUSH1 0x1 PUSH1 0xA0 SHL SUB SWAP1 DUP2 AND SWAP2 DUP3 ISZERO PUSH2 0x1E59 JUMPI AND SWAP2 DUP3 ISZERO PUSH2 0x1E08 JUMPI PUSH1 0x0 DUP3 DUP2 MSTORE PUSH1 0x2 PUSH1 0x20 MSTORE PUSH1 0x40 DUP2 KECCAK256 SLOAD SWAP2 DUP1 DUP4 LT PUSH2 0x1DB4 JUMPI PUSH1 0x40 DUP3 DUP3 PUSH32 0xDDF252AD1BE2C89B69C2B068FC378DAA952BA7F163C4A11628F55A4DF523B3EF SWAP6 DUP8 PUSH1 0x20 SWAP7 MSTORE PUSH1 0x2 DUP7 MSTORE SUB DUP3 DUP3 KECCAK256 SSTORE DUP7 DUP2 MSTORE KECCAK256 PUSH2 0x1DA9 DUP3 DUP3 SLOAD PUSH2 0x1490 JUMP JUMPDEST SWAP1 SSTORE PUSH1 0x40 MLOAD SWAP1 DUP2 MSTORE LOG3 JUMP JUMPDEST PUSH1 0x40 MLOAD PUSH3 0x461BCD PUSH1 0xE5 SHL DUP2 MSTORE PUSH1 0x20 PUSH1 0x4 DUP3 ADD MSTORE PUSH1 0x26 PUSH1 0x24 DUP3 ADD MSTORE PUSH32 0x45524332303A207472616E7366657220616D6F756E7420657863656564732062 PUSH1 0x44 DUP3 ADD MSTORE PUSH6 0x616C616E6365 PUSH1 0xD0 SHL PUSH1 0x64 DUP3 ADD MSTORE PUSH1 0x84 SWAP1 REVERT JUMPDEST PUSH1 0x40 MLOAD PUSH3 0x461BCD PUSH1 0xE5 SHL DUP2 MSTORE PUSH1 0x20 PUSH1 0x4 DUP3 ADD MSTORE PUSH1 0x23 PUSH1 0x24 DUP3 ADD MSTORE PUSH32 0x45524332303A207472616E7366657220746F20746865207A65726F2061646472 PUSH1 0x44 DUP3 ADD MSTORE PUSH3 0x657373 PUSH1 0xE8 SHL PUSH1 0x64 DUP3 ADD MSTORE PUSH1 0x84 SWAP1 REVERT JUMPDEST PUSH1 0x40 MLOAD PUSH3 0x461BCD PUSH1 0xE5 SHL DUP2 MSTORE PUSH1 0x20 PUSH1 0x4 DUP3 ADD MSTORE PUSH1 0x25 PUSH1 0x24 DUP3 ADD MSTORE PUSH32 0x45524332303A207472616E736665722066726F6D20746865207A65726F206164 PUSH1 0x44 DUP3 ADD MSTORE PUSH5 0x6472657373 PUSH1 0xD8 SHL PUSH1 0x64 DUP3 ADD MSTORE PUSH1 0x84 SWAP1 REVERT JUMPDEST SWAP2 SWAP1 DUP3 SUB SWAP2 DUP3 GT PUSH2 0x149D JUMPI JUMP JUMPDEST SWAP1 DUP2 PUSH1 0x20 SWAP2 SUB SLT PUSH2 0xFB8 JUMPI MLOAD PUSH1 0x1 PUSH1 0x1 PUSH1 0xA0 SHL SUB DUP2 AND DUP2 SUB PUSH2 0xFB8 JUMPI SWAP1 JUMP JUMPDEST RETURNDATASIZE ISZERO PUSH2 0x1F13 JUMPI RETURNDATASIZE SWAP1 PUSH8 0xFFFFFFFFFFFFFFFF DUP3 GT PUSH2 0x1332 JUMPI PUSH1 0x40 MLOAD SWAP2 PUSH2 0x1F07 PUSH1 0x1F DUP3 ADD PUSH1 0x1F NOT AND PUSH1 0x20 ADD DUP5 PUSH2 0x1310 JUMP JUMPDEST DUP3 MSTORE RETURNDATASIZE PUSH1 0x0 PUSH1 0x20 DUP5 ADD RETURNDATACOPY JUMP JUMPDEST PUSH1 0x60 SWAP1 JUMP JUMPDEST PUSH1 0x0 DUP1 DUP1 SWAP4 DUP2 SWAP4 GAS CALL SWAP1 PUSH2 0x1F2A PUSH2 0x1ED8 JUMP JUMPDEST POP DUP2 ISZERO PUSH2 0x1F33 JUMPI JUMP JUMPDEST PUSH1 0x40 MLOAD PUSH3 0x461BCD PUSH1 0xE5 SHL DUP2 MSTORE PUSH1 0x20 PUSH1 0x4 DUP3 ADD MSTORE PUSH1 0x18 PUSH1 0x24 DUP3 ADD MSTORE PUSH32 0x6661696C656420746F207472616E736665722065746865720000000000000000 PUSH1 0x44 DUP3 ADD MSTORE PUSH1 0x64 SWAP1 REVERT INVALID LOG2 PUSH5 0x6970667358 0x22 SLT KECCAK256 SWAP4 0xD9 0x2D DUP16 0xC PUSH7 0xBDB4E23F6E5395 0xD8 PUSH10 0xC4612C6F314993846319 0xB7 STOP SSTORE 0xF6 BALANCE OR PUSH14 0x64736F6C63430008110033F65222 0x23 SGT 0xE2 DUP5 MSIZE MSTORE DUP14 SWAP3 SIGNEXTEND PUSH6 0x115C16C04F3E 0xFC DUP3 0xAA 0xED 0xC9 PUSH28 0xE59F3F377C0D3F000000000000000000000000000000000000000000 "
        },
        "methodIdentifiers": {
          "DEFAULT_ADMIN_ROLE()": "a217fddf",
          "allowance(address,address)": "dd62ed3e",
          "approve(address,uint256)": "095ea7b3",
          "balanceOf(address)": "70a08231",
          "decimals()": "313ce567",
          "decreaseAllowance(address,uint256)": "a457c2d7",
          "excludeFromPayingTax(address)": "8e6dda25",
          "getRoleAdmin(bytes32)": "248a9ca3",
          "grantRole(bytes32,address)": "2f2ff15d",
          "hasRole(bytes32,address)": "91d14854",
          "inSwapAndLiquify()": "220f6696",
          "includeInTaxPayment(address)": "f3bf29de",
          "increaseAllowance(address,uint256)": "39509351",
          "liquidityExclusionPrivilege()": "31e4e4e5",
          "liquidityPercentageForEcosystem()": "59102d1c",
          "maxAmount()": "5f48f393",
          "minHoldOfTokenForContract()": "5c2a00b2",
          "name()": "06fdde03",
          "owner()": "8da5cb5b",
          "renounceOwnership()": "715018a6",
          "renounceRole(bytes32,address)": "36568abe",
          "retrieveERC20(address,address,uint256)": "d63f4594",
          "retrieveEther(address)": "084a1392",
          "revokeRole(bytes32,address)": "d547741f",
          "setLiquidityPercentageForEcosystem(uint8)": "fd7b674d",
          "setMaxAmount(uint256)": "4fe47f70",
          "setMinHoldOfTokenForContract(uint256)": "c676ee6b",
          "setSphynxRouter(address)": "f6ed11c1",
          "setTaxCollector(address)": "08695b41",
          "setTaxPercentage(uint8)": "a5ffad52",
          "supportsInterface(bytes4)": "01ffc9a7",
          "swapAndLiquifyEnabled()": "4a74bb02",
          "switchSwapAndLiquifyEnabled()": "808c1643",
          "symbol()": "95d89b41",
          "taxCollector()": "bea1dcf8",
          "taxExclusionPrivilege()": "46e65523",
          "taxPercentage()": "ae7b6d16",
          "totalSupply()": "18160ddd",
          "transfer(address,uint256)": "a9059cbb",
          "transferFrom(address,address,uint256)": "23b872dd",
          "transferOwnership(address)": "f2fde38b"
        }
      }
    }
  }
}