{"contracts/VefiEcosystemTokenV2.sol":{"VefiEcosystemTokenV2":{"abi":[{"inputs":[{"internalType":"string","name":"name_","type":"string"},{"internalType":"string","name":"symbol_","type":"string"},{"internalType":"uint256","name":"amount","type":"uint256"},{"internalType":"address","name":"_taxCollector","type":"address"},{"internalType":"uint8","name":"_taxPercentage","type":"uint8"}],"stateMutability":"nonpayable","type":"constructor"},{"anonymous":false,"inputs":[{"indexed":true,"internalType":"address","name":"owner","type":"address"},{"indexed":true,"internalType":"address","name":"spender","type":"address"},{"indexed":false,"internalType":"uint256","name":"value","type":"uint256"}],"name":"Approval","type":"event"},{"anonymous":false,"inputs":[{"indexed":true,"internalType":"address","name":"previousOwner","type":"address"},{"indexed":true,"internalType":"address","name":"newOwner","type":"address"}],"name":"OwnershipTransferred","type":"event"},{"anonymous":false,"inputs":[{"indexed":true,"internalType":"bytes32","name":"role","type":"bytes32"},{"indexed":true,"internalType":"bytes32","name":"previousAdminRole","type":"bytes32"},{"indexed":true,"internalType":"bytes32","name":"newAdminRole","type":"bytes32"}],"name":"RoleAdminChanged","type":"event"},{"anonymous":false,"inputs":[{"indexed":true,"internalType":"bytes32","name":"role","type":"bytes32"},{"indexed":true,"internalType":"address","name":"account","type":"address"},{"indexed":true,"internalType":"address","name":"sender","type":"address"}],"name":"RoleGranted","type":"event"},{"anonymous":false,"inputs":[{"indexed":true,"internalType":"bytes32","name":"role","type":"bytes32"},{"indexed":true,"internalType":"address","name":"account","type":"address"},{"indexed":true,"internalType":"address","name":"sender","type":"address"}],"name":"RoleRevoked","type":"event"},{"anonymous":false,"inputs":[{"indexed":true,"internalType":"address","name":"from","type":"address"},{"indexed":true,"internalType":"address","name":"to","type":"address"},{"indexed":false,"internalType":"uint256","name":"value","type":"uint256"}],"name":"Transfer","type":"event"},{"inputs":[],"name":"DEFAULT_ADMIN_ROLE","outputs":[{"internalType":"bytes32","name":"","type":"bytes32"}],"stateMutability":"view","type":"function"},{"inputs":[{"internalType":"address","name":"owner","type":"address"},{"internalType":"address","name":"spender","type":"address"}],"name":"allowance","outputs":[{"internalType":"uint256","name":"","type":"uint256"}],"stateMutability":"view","type":"function"},{"inputs":[{"internalType":"address","name":"spender","type":"address"},{"internalType":"uint256","name":"amount","type":"uint256"}],"name":"approve","outputs":[{"internalType":"bool","name":"","type":"bool"}],"stateMutability":"nonpayable","type":"function"},{"inputs":[{"internalType":"address","name":"account","type":"address"}],"name":"balanceOf","outputs":[{"internalType":"uint256","name":"","type":"uint256"}],"stateMutability":"view","type":"function"},{"inputs":[],"name":"decimals","outputs":[{"internalType":"uint8","name":"","type":"uint8"}],"stateMutability":"view","type":"function"},{"inputs":[{"internalType":"address","name":"spender","type":"address"},{"internalType":"uint256","name":"subtractedValue","type":"uint256"}],"name":"decreaseAllowance","outputs":[{"internalType":"bool","name":"","type":"bool"}],"stateMutability":"nonpayable","type":"function"},{"inputs":[{"internalType":"address","name":"account","type":"address"}],"name":"excludeFromPayingTax","outputs":[],"stateMutability":"nonpayable","type":"function"},{"inputs":[{"internalType":"bytes32","name":"role","type":"bytes32"}],"name":"getRoleAdmin","outputs":[{"internalType":"bytes32","name":"","type":"bytes32"}],"stateMutability":"view","type":"function"},{"inputs":[{"internalType":"bytes32","name":"role","type":"bytes32"},{"internalType":"address","name":"account","type":"address"}],"name":"grantRole","outputs":[],"stateMutability":"nonpayable","type":"function"},{"inputs":[{"internalType":"bytes32","name":"role","type":"bytes32"},{"internalType":"address","name":"account","type":"address"}],"name":"hasRole","outputs":[{"internalType":"bool","name":"","type":"bool"}],"stateMutability":"view","type":"function"},{"inputs":[],"name":"inSwapAndLiquify","outputs":[{"internalType":"bool","name":"","type":"bool"}],"stateMutability":"view","type":"function"},{"inputs":[{"internalType":"address","name":"account","type":"address"}],"name":"includeInTaxPayment","outputs":[],"stateMutability":"nonpayable","type":"function"},{"inputs":[{"internalType":"address","name":"spender","type":"address"},{"internalType":"uint256","name":"addedValue","type":"uint256"}],"name":"increaseAllowance","outputs":[{"internalType":"bool","name":"","type":"bool"}],"stateMutability":"nonpayable","type":"function"},{"inputs":[],"name":"liquidityExclusionPrivilege","outputs":[{"internalType":"bytes32","name":"","type":"bytes32"}],"stateMutability":"view","type":"function"},{"inputs":[],"name":"liquidityPercentageForEcosystem","outputs":[{"internalType":"uint8","name":"","type":"uint8"}],"stateMutability":"view","type":"function"},{"inputs":[],"name":"maxAmount","outputs":[{"internalType":"uint256","name":"","type":"uint256"}],"stateMutability":"view","type":"function"},{"inputs":[],"name":"minHoldOfTokenForContract","outputs":[{"internalType":"uint256","name":"","type":"uint256"}],"stateMutability":"view","type":"function"},{"inputs":[],"name":"name","outputs":[{"internalType":"string","name":"","type":"string"}],"stateMutability":"view","type":"function"},{"inputs":[],"name":"owner","outputs":[{"internalType":"address","name":"","type":"address"}],"stateMutability":"view","type":"function"},{"inputs":[],"name":"renounceOwnership","outputs":[],"stateMutability":"nonpayable","type":"function"},{"inputs":[{"internalType":"bytes32","name":"role","type":"bytes32"},{"internalType":"address","name":"account","type":"address"}],"name":"renounceRole","outputs":[],"stateMutability":"nonpayable","type":"function"},{"inputs":[{"internalType":"address","name":"token","type":"address"},{"internalType":"address","name":"to","type":"address"},{"internalType":"uint256","name":"amount","type":"uint256"}],"name":"retrieveERC20","outputs":[],"stateMutability":"nonpayable","type":"function"},{"inputs":[{"internalType":"address","name":"to","type":"address"}],"name":"retrieveEther","outputs":[],"stateMutability":"nonpayable","type":"function"},{"inputs":[{"internalType":"bytes32","name":"role","type":"bytes32"},{"internalType":"address","name":"account","type":"address"}],"name":"revokeRole","outputs":[],"stateMutability":"nonpayable","type":"function"},{"inputs":[{"internalType":"address","name":"router","type":"address"}],"name":"setIUniswapV2Router","outputs":[],"stateMutability":"nonpayable","type":"function"},{"inputs":[{"internalType":"uint8","name":"_lpPercentage","type":"uint8"}],"name":"setLiquidityPercentageForEcosystem","outputs":[],"stateMutability":"nonpayable","type":"function"},{"inputs":[{"internalType":"uint256","name":"_max","type":"uint256"}],"name":"setMaxAmount","outputs":[],"stateMutability":"nonpayable","type":"function"},{"inputs":[{"internalType":"uint256","name":"minHold","type":"uint256"}],"name":"setMinHoldOfTokenForContract","outputs":[],"stateMutability":"nonpayable","type":"function"},{"inputs":[{"internalType":"address","name":"router","type":"address"}],"name":"setQuasarRouter","outputs":[],"stateMutability":"nonpayable","type":"function"},{"inputs":[{"internalType":"address","name":"router","type":"address"}],"name":"setSphynxRouter","outputs":[],"stateMutability":"nonpayable","type":"function"},{"inputs":[{"internalType":"address","name":"_taxCollector","type":"address"}],"name":"setTaxCollector","outputs":[],"stateMutability":"nonpayable","type":"function"},{"inputs":[{"internalType":"uint8","name":"_taxPercentage","type":"uint8"}],"name":"setTaxPercentage","outputs":[],"stateMutability":"nonpayable","type":"function"},{"inputs":[{"internalType":"bytes4","name":"interfaceId","type":"bytes4"}],"name":"supportsInterface","outputs":[{"internalType":"bool","name":"","type":"bool"}],"stateMutability":"view","type":"function"},{"inputs":[],"name":"swapAndLiquifyEnabled","outputs":[{"internalType":"bool","name":"","type":"bool"}],"stateMutability":"view","type":"function"},{"inputs":[],"name":"switchSwapAndLiquifyEnabled","outputs":[],"stateMutability":"nonpayable","type":"function"},{"inputs":[],"name":"symbol","outputs":[{"internalType":"string","name":"","type":"string"}],"stateMutability":"view","type":"function"},{"inputs":[],"name":"taxCollector","outputs":[{"internalType":"address","name":"","type":"address"}],"stateMutability":"view","type":"function"},{"inputs":[],"name":"taxExclusionPrivilege","outputs":[{"internalType":"bytes32","name":"","type":"bytes32"}],"stateMutability":"view","type":"function"},{"inputs":[],"name":"taxPercentage","outputs":[{"internalType":"uint8","name":"","type":"uint8"}],"stateMutability":"view","type":"function"},{"inputs":[],"name":"totalSupply","outputs":[{"internalType":"uint256","name":"","type":"uint256"}],"stateMutability":"view","type":"function"},{"inputs":[{"internalType":"address","name":"to","type":"address"},{"internalType":"uint256","name":"amount","type":"uint256"}],"name":"transfer","outputs":[{"internalType":"bool","name":"","type":"bool"}],"stateMutability":"nonpayable","type":"function"},{"inputs":[{"internalType":"address","name":"from","type":"address"},{"internalType":"address","name":"to","type":"address"},{"internalType":"uint256","name":"amount","type":"uint256"}],"name":"transferFrom","outputs":[{"internalType":"bool","name":"","type":"bool"}],"stateMutability":"nonpayable","type":"function"},{"inputs":[{"internalType":"address","name":"newOwner","type":"address"}],"name":"transferOwnership","outputs":[],"stateMutability":"nonpayable","type":"function"},{"stateMutability":"payable","type":"receive"}],"evm":{"bytecode":{"linkReferences":{},"object":"608060409080825234620006205762003319803803809162000022828562000b1c565b8339810160a082820312620006205781516001600160401b0392908381116200062057826200005391830162000b40565b9160208201519084821162000620576200006f91830162000b40565b9284820151936080620000856060850162000bb7565b9301519360ff85168503620006205760008054336001600160a01b0319821681178355916001600160a01b03909116907f8be0079c531659141344cd1fd0a4f28419497f9722a3daafe3b4186f6b6457e09080a3805190838211620009f25760055490600182811c9216801562000af5575b6020831014620009d15781601f84931162000a9f575b50602090601f831160011462000a145760009262000a08575b50508160011b916000199060031b1c1916176005555b8051918211620009f25760065490600182811c92168015620009e7575b6020831014620009d15781601f8493116200096d575b50602090601f8311600114620008f357600092620008e7575b50508160011b916000199060031b1c1916176006555b83516020810190602082526017868201527f5441585f4558434c5553494f4e5f50524956494c454745000000000000000000606082015260608152620001e48162000b00565b5190206008558351602081019060208252601d868201527f4c49515549444954595f4558434c5553494f4e5f50524956494c454745000000606082015260608152620002308162000b00565b5190206009908155600c80546b024306c4097859c43c000000600d55691969368974c05b000000600e55600780546001600160a01b0319166001600160a01b03861617905561ffff60a01b191660a09490941b60ff60a01b1693909317600160ab1b178355903315620008a3576200031490600494620002b281875462000c47565b865533600052600260205286600020620002ce82825462000c47565b9055865190815260007fddf252ad1be2c89b69c2b068fc378daa952ba7f163c4a11628f55a4df523b3ef60203393a36200030b3360085462000bcc565b60085462000bcc565b600a80546001600160a01b031990811673518206922ce10787791578299dde90d94dd6faa0908117909255600b805482167383f465457c8cafbe85abb941f20291f826c7f72a17905583541673bb5e1777a331ed93e07cf043363e48d320eb96c4178355845163c45a015560e01b80825294916020828481845afa918215620008985760009262000854575b5086519060208285816315ab88c960e31b948582525afa918215620008055760009262000810575b5087516364e329cb60e11b8082526001600160a01b0390931685820190815230602082810191909152919485918290600090829060400103926001600160a01b03165af19283156200080557600093620007c1575b50600b54885188815292906001600160a01b03166020848781845afa908115620006dc57869460009262000779575b506020908b51978880928782525afa958615620006dc576000966200072b575b5089518281526001600160a01b0390961684870190815230602082810191909152918791829060009082906040015b03926001600160a01b03165af19485156200068b57600095620006e7575b50865489519889526001600160a01b0316916020898581865afa988915620006dc5760009962000696575b50602090848b518095819382525afa9182156200068b5760009262000639575b5088519081526001600160a01b039091169181019182523060208381019190915290969091879190829060009082906040015b03926001600160a01b03165af19485156200062e57600095620005d2575b509362000579620005819262000571620005c497865462000bcc565b845462000bcc565b825462000bcc565b62000599815460018060a01b03600a54169062000bcc565b620005b1815460018060a01b03600b54169062000bcc565b5490546001600160a01b03169062000bcc565b5161268d908162000c6c8239f35b94506020853d60201162000625575b81620005f06020938362000b1c565b8101031262000620576200057962000581926200057162000615620005c49862000bb7565b975050925062000555565b600080fd5b3d9150620005e1565b86513d6000823e3d90fd5b929150966020833d60201162000682575b81620006596020938362000b1c565b810103126200062057620005379760006200067660209562000bb7565b93945050909762000504565b3d91506200064a565b89513d6000823e3d90fd5b9098506020813d602011620006d3575b81620006b56020938362000b1c565b810103126200062057620006cb60209162000bb7565b9890620004e4565b3d9150620006a6565b8a513d6000823e3d90fd5b9094506020813d60201162000722575b81620007066020938362000b1c565b8101031262000620576200071a9062000bb7565b9338620004b9565b3d9150620006f7565b95506020863d60201162000770575b81620007496020938362000b1c565b8101031262000620576200049b6020916200076660009862000bb7565b975091506200046c565b3d91506200073a565b945090506020843d602011620007b8575b81620007996020938362000b1c565b8101031262000620576020620007b0879562000bb7565b91906200044c565b3d91506200078a565b9092506020813d602011620007fc575b81620007e06020938362000b1c565b810103126200062057620007f49062000bb7565b91386200041d565b3d9150620007d1565b88513d6000823e3d90fd5b9091506020813d6020116200084b575b816200082f6020938362000b1c565b810103126200062057620008439062000bb7565b9038620003c8565b3d915062000820565b9091506020813d6020116200088f575b81620008736020938362000b1c565b810103126200062057620008879062000bb7565b9038620003a0565b3d915062000864565b87513d6000823e3d90fd5b845162461bcd60e51b815260206004820152601f60248201527f45524332303a206d696e7420746f20746865207a65726f2061646472657373006044820152606490fd5b01519050388062000188565b60066000908152600080516020620032f98339815191529350601f198516905b8181106200095457509084600195949392106200093a575b505050811b016006556200019e565b015160001960f88460031b161c191690553880806200092b565b9293602060018192878601518155019501930162000913565b6006600052909150600080516020620032f9833981519152601f840160051c81019160208510620009c6575b90601f859493920160051c01905b818110620009b657506200016f565b60008155849350600101620009a7565b909150819062000999565b634e487b7160e01b600052602260045260246000fd5b91607f169162000159565b634e487b7160e01b600052604160045260246000fd5b01519050388062000126565b600560009081527f036b6384b5eca791c62761152d0c79bb0604c104a5fb6f4eb0703f3154bb3db09350601f198516905b81811062000a86575090846001959493921062000a6c575b505050811b016005556200013c565b015160001960f88460031b161c1916905538808062000a5d565b9293602060018192878601518155019501930162000a45565b90915060056000526020600020601f840160051c81016020851062000aed575b90849392915b601f830160051c8201811062000add5750506200010d565b6000815585945060010162000ac5565b508062000abf565b91607f1691620000f7565b608081019081106001600160401b03821117620009f257604052565b601f909101601f19168101906001600160401b03821190821017620009f257604052565b919080601f8401121562000620578251906001600160401b038211620009f2576040519160209162000b7c601f8301601f191684018562000b1c565b818452828287010111620006205760005b81811062000ba357508260009394955001015290565b858101830151848201840152820162000b8d565b51906001600160a01b03821682036200062057565b906000918083526001602052604083209160018060a01b03169182845260205260ff6040842054161562000bff57505050565b80835260016020526040832082845260205260408320600160ff198254161790557f2f8788117e7eff1d82e926ec794901d17c78024a50270940304540a733656f0d339380a4565b9190820180921162000c5557565b634e487b7160e01b600052601160045260246000fdfe608060409080825260049081361015610023575b505050361561002157600080fd5b005b600092833560e01c91826301ffc9a714610f8b5750816306fdde0314610ecd578163084a139214610e9d57816308695b4114610e40578163095ea7b314610e1657816318160ddd14610df7578163220f669614610dd057816323b872dd14610d17578163248a9ca314610cec5781632f2ff15d14610cc3578163313ce56714610ca757816331e4e4e514610c8857816336568abe14610bf75781633821a75814610bb75781633950935114610b6757816346e6552314610b485781634a74bb0214610b245781634fe47f7014610b0257816359102d1c14610add5781635c2a00b214610abe5781635f48f39314610a9f57816370a0823114610a67578163715018a614610a0d578163808c1643146109de5781638da5cb5b146109b65781638e6dda251461090f57816391d14854146108c757816395d89b41146107c5578163a217fddf146107aa578163a457c2d714610706578163a5ffad52146106c0578163a9059cbb1461068f578163ae7b6d161461066a578163bea1dcf814610641578163c676ee6b1461061f578163d547741f146105e5578163d63f459414610486578163dd62ed3e1461043d578163f2fde38b14610375578163f3bf29de146102d757508063f62e383114610297578063f6ed11c1146102545763fd7b674d1461020c5780610013565b34610250576020366003190112610250573560ff81168103610250576102306114e6565b600c805460ff60a81b191660a89290921b60ff60a81b1691909117905580f35b5080fd5b82346102945760203660031901126102945761026e61102e565b6102766114e6565b60018060a01b03166001600160601b0360a01b600b541617600b5580f35b80fd5b8234610294576020366003190112610294576102b161102e565b6102b96114e6565b60018060a01b03166001600160601b0360a01b600a541617600a5580f35b838334610250576020366003190112610250576102f261102e565b906102fb6114e6565b6008549061032c8383600052600160205260406000209060018060a01b031660005260205260ff6040600020541690565b1561033f57509061033c91611470565b80f35b606490602086519162461bcd60e51b8352820152601060248201526f0c2d8e4cac2c8f2bee0c2f2e6bee8c2f60831b6044820152fd5b919050346104395760203660031901126104395761039161102e565b9061039a6114e6565b6001600160a01b039182169283156103e757505082546001600160a01b0319811683178455167f8be0079c531659141344cd1fd0a4f28419497f9722a3daafe3b4186f6b6457e08380a380f35b906020608492519162461bcd60e51b8352820152602660248201527f4f776e61626c653a206e6577206f776e657220697320746865207a65726f206160448201526564647265737360d01b6064820152fd5b8280fd5b8390346102505780600319360112610250578060209261045b61102e565b610463611049565b6001600160a01b0391821683526003865283832091168252845220549051908152f35b905034610439576104963661105f565b61049e6114e6565b823b156105ab57835167ffffffffffffffff9080860182811182821017610598577f7472616e7366657228616464726573732c75696e743235362900000000000000916020918852601981520152845191602083019363a9059cbb60e01b855260018060a01b0316602484015260448301526044825260808201908282109082111761058557845251859283929083905af16105386125b7565b5015610542578280f35b906020606492519162461bcd60e51b8352820152601e60248201527f6c6f775f6c6576656c5f636f6e74726163745f63616c6c5f6661696c656400006044820152fd5b634e487b7160e01b875260418652602487fd5b634e487b7160e01b895260418852602489fd5b835162461bcd60e51b8152602081870152601460248201527318d85b1b17dd1bd7db9bdb97d8dbdb9d1c9858dd60621b6044820152606490fd5b90503461043957806003193601126104395761033c913561061a6001610609611049565b938387528160205286200154611094565b611470565b5050346102505760203660031901126102505761063a6114e6565b35600e5580f35b83903461025057816003193601126102505760075490516001600160a01b039091168152602090f35b83903461025057816003193601126102505760209060ff600c5460a01c169051908152f35b8390346102505780600319360112610250576020906106b96106af61102e565b602435903361169d565b5160018152f35b505034610250576020366003190112610250573560ff81168103610250576106e66114e6565b600c805460ff60a01b191660a09290921b60ff60a01b1691909117905580f35b82843461029457826003193601126102945761072061102e565b918360243592338152600360205281812060018060a01b0386168252602052205490828210610759576020856106b98585038733611561565b608490602086519162461bcd60e51b8352820152602560248201527f45524332303a2064656372656173656420616c6c6f77616e63652062656c6f77604482015264207a65726f60d81b6064820152fd5b83903461025057816003193601126102505751908152602090f35b905034610439578260031936011261043957805191836006549060019082821c9282811680156108bd575b60209586861082146108aa5750848852908115610888575060011461082f575b61082b8686610821828b03836113d4565b5191829182611002565b0390f35b929550600683527ff652222313e28459528d920b65115c16c04f3efc82aaedc97be59f3f377c0d3f5b828410610875575050508261082b94610821928201019438610810565b8054868501880152928601928101610858565b60ff191687860152505050151560051b83010192506108218261082b38610810565b634e487b7160e01b845260229052602483fd5b93607f16936107f0565b919050346104395781600319360112610439578160209360ff926108e9611049565b90358252600186528282206001600160a01b039091168252855220549151911615158152f35b8383346102505760203660031901126102505761092a61102e565b906109336114e6565b600854906109648383600052600160205260406000209060018060a01b031660005260205260ff6040600020541690565b61097357509061033c916113f6565b606490602086519162461bcd60e51b8352820152602060248201527f616c72656164795f6578636c756465645f66726f6d5f706179696e675f7461786044820152fd5b839034610250578160031936011261025057905490516001600160a01b039091168152602090f35b83346102945780600319360112610294576109f76114e6565b600f5460ff80821615169060ff191617600f5580f35b8334610294578060031936011261029457610a266114e6565b80546001600160a01b03198116825581906001600160a01b03167f8be0079c531659141344cd1fd0a4f28419497f9722a3daafe3b4186f6b6457e08280a380f35b8390346102505760203660031901126102505760209181906001600160a01b03610a8f61102e565b1681526002845220549051908152f35b839034610250578160031936011261025057602090600d549051908152f35b839034610250578160031936011261025057602090600e549051908152f35b83903461025057816003193601126102505760209060ff600c5460a81c169051908152f35b50503461025057602036600319011261025057610b1d6114e6565b35600d5580f35b83903461025057816003193601126102505760209060ff600f541690519015158152f35b8390346102505781600319360112610250576020906008549051908152f35b8390346102505780600319360112610250576106b9602092610bb0610b8a61102e565b338352600386528483206001600160a01b0382168452865291849020546024359061153e565b9033611561565b833461029457602036600319011261029457610bd161102e565b610bd96114e6565b60018060a01b03166001600160601b0360a01b600c541617600c5580f35b838334610250578260031936011261025057610c11611049565b90336001600160a01b03831603610c2d579061033c9135611470565b608490602085519162461bcd60e51b8352820152602f60248201527f416363657373436f6e74726f6c3a2063616e206f6e6c792072656e6f756e636560448201526e103937b632b9903337b91039b2b63360891b6064820152fd5b8390346102505781600319360112610250576020906009549051908152f35b8390346102505781600319360112610250576020905160128152f35b90503461043957806003193601126104395761033c9135610ce76001610609611049565b6113f6565b9190503461043957602036600319011261043957816020936001923581528285522001549051908152f35b8284346102945782610d283661105f565b6001600160a01b03831685526003602090815284862033875290529290932054919390919060018201610d64575b6020866106b987878761169d565b848210610d8d5750918391610d82602096956106b995033383611561565b919394819350610d56565b606490602087519162461bcd60e51b8352820152601d60248201527f45524332303a20696e73756666696369656e7420616c6c6f77616e63650000006044820152fd5b83903461025057816003193601126102505760209060ff600f5460081c1690519015158152f35b9190503461043957826003193601126104395760209250549051908152f35b8390346102505780600319360112610250576020906106b9610e3661102e565b6024359033611561565b83346102945760203660031901126102945761033c610e5d61102e565b610e656114e6565b6008546007546001600160a01b0391610e8091831690611470565b81166001600160601b0360a01b60075416176007556008546113f6565b833461029457602036600319011261029457610ec9610eba61102e565b610ec26114e6565b47906125f7565b5080f35b905034610439578260031936011261043957805191836005549060019082821c928281168015610f81575b60209586861082146108aa57508488529081156108885750600114610f285761082b8686610821828b03836113d4565b929550600583527f036b6384b5eca791c62761152d0c79bb0604c104a5fb6f4eb0703f3154bb3db05b828410610f6e575050508261082b94610821928201019438610810565b8054868501880152928601928101610f51565b93607f1693610ef8565b84908434610439576020366003190112610439573563ffffffff60e01b81168091036104395760209250637965db0b60e01b8114908115610fce575b5015158152f35b6301ffc9a760e01b14905083610fc7565b60005b838110610ff25750506000910152565b8181015183820152602001610fe2565b604091602082526110228151809281602086015260208686019101610fdf565b601f01601f1916010190565b600435906001600160a01b038216820361104457565b600080fd5b602435906001600160a01b038216820361104457565b6060906003190112611044576001600160a01b0390600435828116810361104457916024359081168103611044579060443590565b6000818152600190602091808352604093848320338452845260ff8584205416156110c0575050505050565b845133916110cd826113b8565b602a8252858201928736853782511561137a5760308453825185101561137a576078602184015360295b85811161131057506112ce578651936080850185811067ffffffffffffffff8211176112ba578852604285528685019560603688378551156112a6576030875385518210156112a65790607860218701536041915b818311611238575050506111f6579385936111dc936111cd6048946111a47f416363657373436f6e74726f6c3a206163636f756e7420000000000000000000996111f29b519a8b978801525180926037880190610fdf565b8401917001034b99036b4b9b9b4b733903937b6329607d1b603784015251809386840190610fdf565b010360288101855201836113d4565b5162461bcd60e51b815291829160048301611002565b0390fd5b60648587519062461bcd60e51b825280600483015260248201527f537472696e67733a20686578206c656e67746820696e73756666696369656e746044820152fd5b909192600f81166010811015611292576f181899199a1a9b1b9c1cb0b131b232b360811b901a6112688589611676565b5360041c92801561127e5760001901919061114c565b634e487b7160e01b82526011600452602482fd5b634e487b7160e01b83526032600452602483fd5b634e487b7160e01b81526032600452602490fd5b634e487b7160e01b87526041600452602487fd5b60648688519062461bcd60e51b825280600483015260248201527f537472696e67733a20686578206c656e67746820696e73756666696369656e746044820152fd5b90600f81166010811015611366576f181899199a1a9b1b9c1cb0b131b232b360811b901a61133e8386611676565b5360041c90801561135257600019016110f7565b634e487b7160e01b87526011600452602487fd5b634e487b7160e01b88526032600452602488fd5b634e487b7160e01b86526032600452602486fd5b67ffffffffffffffff81116113a257604052565b634e487b7160e01b600052604160045260246000fd5b6060810190811067ffffffffffffffff8211176113a257604052565b90601f8019910116810190811067ffffffffffffffff8211176113a257604052565b906000918083526001602052604083209160018060a01b03169182845260205260ff6040842054161561142857505050565b80835260016020526040832082845260205260408320600160ff198254161790557f2f8788117e7eff1d82e926ec794901d17c78024a50270940304540a733656f0d339380a4565b906000918083526001602052604083209160018060a01b03169182845260205260ff6040842054166114a157505050565b8083526001602052604083208284526020526040832060ff1981541690557ff6391f5c32d9c69d2a47ea670b442974b53935d1edc7fd64eb21e047a839171b339380a4565b6000546001600160a01b031633036114fa57565b606460405162461bcd60e51b815260206004820152602060248201527f4f776e61626c653a2063616c6c6572206973206e6f7420746865206f776e65726044820152fd5b9190820180921161154b57565b634e487b7160e01b600052601160045260246000fd5b6001600160a01b0390811691821561161257169182156115c25760207f8c5be1e5ebec7d5bd14f71427d1e84f3dd0314c0f7b2291e5b200ac8c7c3b925918360005260038252604060002085600052825280604060002055604051908152a3565b60405162461bcd60e51b815260206004820152602260248201527f45524332303a20617070726f766520746f20746865207a65726f206164647265604482015261737360f01b6064820152608490fd5b60405162461bcd60e51b8152602060048201526024808201527f45524332303a20617070726f76652066726f6d20746865207a65726f206164646044820152637265737360e01b6064820152608490fd5b8181029291811591840414171561154b57565b908151811015611687570160200190565b634e487b7160e01b600052603260045260246000fd5b6000805490949392906001600160a01b038084169116818114159081612327575b816122f4575b50612294575b60085460009081526001602090815260408083206001600160a01b038716845290915290205460ff16159081612289575b501561227d576003606461171760ff600c5460a01c1686611663565b0404928360011c953081526002602052604081205490600d5480831015612275575b50600e5482101561176f86600954600052600160205260406000209060018060a01b031660005260205260ff6040600020541690565b15908161226d575b508061225d575b80612251575b6117e5575b5050946117bf6117c6926117b8836117ad6117e3999a6117b28a6117ad818061153e565b61153e565b906124b4565b908561233d565b828061233d565b6117d182308361233d565b6007546001600160a01b03169061233d565b565b61010061ff0019600f541617600f556118028260011c80936124b4565b600a54909247916118219060038304906001600160a01b031630611561565b600b5461183c9060038304906001600160a01b031630611561565b600c546118579060038304906001600160a01b031630611561565b600a5460405163c45a015560e01b8152906001600160a01b0316602082600481845afa918215611ff7578592612230575b5060405191611896836113b8565b600283526040366020850137306118ac8461252f565b526040516315ab88c960e31b8152602081600481865afa908115611f80578791612211575b506118db8461253c565b6001600160a01b0390911690526040516315ab88c960e31b815290602082600481865afa918215611f805787926121f0575b506040516315ab88c960e31b815290602082600481875afa918215611faa579160209161196f938a92611f8b575b5060405163e6a4390560e01b81523060048201526001600160a01b0390921660248301529092839190829081906044820190565b03916001600160a01b03165afa908115611f80579060209188916121d3575b506040516370a0823160e01b81526001600160a01b0391821660048201529283916024918391165afa908115611e4257869161219d575b5061212c575b5050600b5460405163c45a015560e01b8152906001600160a01b0316602082600481845afa918215611ff757859261210b575b5060405191611a0c836113b8565b60028352604036602085013730611a228461252f565b526040516315ab88c960e31b8152602081600481865afa908115611f805787916120ec575b50611a518461253c565b6001600160a01b0390911690526040516315ab88c960e31b815290602082600481865afa918215611f805787926120cb575b506040516315ab88c960e31b815290602082600481875afa918215611faa5791602091611ae4938a92611f8b575060405163e6a4390560e01b81523060048201526001600160a01b0390921660248301529092839190829081906044820190565b03916001600160a01b03165afa908115611f80579060209188916120ae575b506040516370a0823160e01b81526001600160a01b0391821660048201529283916024918391165afa908115611e4257869161207c575b50612002575b5050600c5460405163c45a015560e01b8152906001600160a01b0316602082600481845afa918215611ff7578592611fd6575b5060405191611b81836113b8565b6002835260403660208501376040516315ab88c960e31b815290602082600481865afa918215611f80578792611fb5575b506040516315ab88c960e31b815290602082600481875afa918215611faa5791602091611c13938a92611f8b575060405163e6a4390560e01b81523060048201526001600160a01b0390921660248301529092839190829081906044820190565b03916001600160a01b03165afa908115611f8057906020918891611f53575b506040516370a0823160e01b81526001600160a01b0391821660048201529283916024918391165afa908115611e42578691611f21575b50611e9b575b505050611c7e600391476124b4565b92611c9e6064611c9660ff600c5460a81c1687611663565b0480956124b4565b9380611e7e575b5004611cbc8160018060a01b03600a541630611561565b600b54611cd49082906001600160a01b031630611561565b600c54611cec9082906001600160a01b031630611561565b60018060a01b03600a54166104b0420191824211611e6a57604051948563f305d71960e01b93848252600382611d2888308830600486016124dc565b0393049788938160609a8b945af18015611e4257611e4d575b50600b5460405184815290879082906001600160a01b0316818581611d6c8b308b81600486016124dc565b03925af18015611e425791611dab96959391889593611e25575b5060018060a01b03600c541692604051978895869485938452309030600486016124dc565b03925af1908115611e195750886117ad6117e3999a956117bf956117c698956117b895611ded575b505061ff0019600f5416600f559550509897505092611789565b81611e0c92903d10611e12575b611e0481836113d4565b8101906124c1565b50611dd3565b503d611dfa565b604051903d90823e3d90fd5b611e3b90863d8811611e1257611e0481836113d4565b5050611d86565b6040513d88823e3d90fd5b611e6390873d8911611e1257611e0481836113d4565b5050611d41565b634e487b7160e01b84526011600452602484fd5b600754611e9491906001600160a01b03166125f7565b5038611ca5565b6007546001600160a01b031692426104b0810190811061135257823b15611f1d5760405163791ac94760e01b8152948794869493859387938593611ee693600390046004860161254c565b03925af18015611f1257908391611efe575b80611c6f565b611f079061138e565b610250578138611ef8565b6040513d85823e3d90fd5b8680fd5b90506020813d602011611f4b575b81611f3c602093836113d4565b81010312611044575138611c69565b3d9150611f2f565b611f739150823d8411611f79575b611f6b81836113d4565b810190612510565b38611c32565b503d611f61565b6040513d89823e3d90fd5b611fa3919250833d8511611f7957611f6b81836113d4565b903861193b565b6040513d8a823e3d90fd5b611fcf91925060203d602011611f7957611f6b81836113d4565b9038611bb2565b611ff091925060203d602011611f7957611f6b81836113d4565b9038611b73565b6040513d87823e3d90fd5b60018060a01b03600754166104b042019283421161135257823b15611f1d579161204b93918780946040519687958694859363791ac94760e01b855260038c046004860161254c565b03925af180156120715790849115611b40576120669061138e565b610439578238611b40565b6040513d86823e3d90fd5b90506020813d6020116120a6575b81612097602093836113d4565b81010312611044575138611b3a565b3d915061208a565b6120c59150823d8411611f7957611f6b81836113d4565b38611b03565b6120e591925060203d602011611f7957611f6b81836113d4565b9038611a83565b612105915060203d602011611f7957611f6b81836113d4565b38611a47565b61212591925060203d602011611f7957611f6b81836113d4565b90386119fe565b60018060a01b03600754166104b042019283421161135257823b15611f1d579161217593918780946040519687958694859363791ac94760e01b855260038c046004860161254c565b03925af180156120715761218a575b806119cb565b6121969093919361138e565b9138612184565b90506020813d6020116121cb575b816121b8602093836113d4565b810103126121c75751386119c5565b8580fd5b3d91506121ab565b6121ea9150823d8411611f7957611f6b81836113d4565b3861198e565b61220a91925060203d602011611f7957611f6b81836113d4565b903861190d565b61222a915060203d602011611f7957611f6b81836113d4565b386118d1565b61224a91925060203d602011611f7957611f6b81836113d4565b9038611888565b5060ff600f5416611784565b5060ff600f5460081c161561177e565b905038611777565b915038611739565b906117e393945061233d565b9050301415386116fb565b600d548411156116ca5760405162461bcd60e51b815260206004820152602860248201527f7472616e736665725f616d6f756e745f63616e6e6f745f6578636565645f6d616044820152671e17d85b5bdd5b9d60c21b6064820152608490fd5b6001600160a01b03841690811415915081612311575b50386116c4565b6007546001600160a01b0316141590503861230a565b6007546001600160a01b031683141591506116be565b6001600160a01b03908116918215612461571691821561241057600082815260026020526040812054918083106123bc57604082827fddf252ad1be2c89b69c2b068fc378daa952ba7f163c4a11628f55a4df523b3ef958760209652600286520382822055868152206123b182825461153e565b9055604051908152a3565b60405162461bcd60e51b815260206004820152602660248201527f45524332303a207472616e7366657220616d6f756e7420657863656564732062604482015265616c616e636560d01b6064820152608490fd5b60405162461bcd60e51b815260206004820152602360248201527f45524332303a207472616e7366657220746f20746865207a65726f206164647260448201526265737360e81b6064820152608490fd5b60405162461bcd60e51b815260206004820152602560248201527f45524332303a207472616e736665722066726f6d20746865207a65726f206164604482015264647265737360d81b6064820152608490fd5b9190820391821161154b57565b90816060910312611044578051916040602083015192015190565b9060a09295949360c0830196600180861b038093168452602084015260006040840152600060608401521660808201520152565b9081602091031261104457516001600160a01b03811681036110445790565b8051156116875760200190565b8051600110156116875760400190565b91909493929460a0830190835260209060008285015260a0604085015282518091528160c0850193019160005b82811061259a5750505050906080919460018060a01b031660608201520152565b83516001600160a01b031685529381019392810192600101612579565b3d156125f2573d9067ffffffffffffffff82116113a257604051916125e6601f8201601f1916602001846113d4565b82523d6000602084013e565b606090565b600080809381935af1906126096125b7565b50811561261257565b60405162461bcd60e51b815260206004820152601860248201527f6661696c656420746f207472616e7366657220657468657200000000000000006044820152606490fdfea264697066735822122055f2939c71cd433062d8e61b49a33affd3650a65eaed0370bb3a74f4e5fd06ff64736f6c63430008110033f652222313e28459528d920b65115c16c04f3efc82aaedc97be59f3f377c0d3f","opcodes":"PUSH1 0x80 PUSH1 0x40 SWAP1 DUP1 DUP3 MSTORE CALLVALUE PUSH3 0x620 JUMPI PUSH3 0x3319 DUP1 CODESIZE SUB DUP1 SWAP2 PUSH3 0x22 DUP3 DUP6 PUSH3 0xB1C JUMP JUMPDEST DUP4 CODECOPY DUP2 ADD PUSH1 0xA0 DUP3 DUP3 SUB SLT PUSH3 0x620 JUMPI DUP2 MLOAD PUSH1 0x1 PUSH1 0x1 PUSH1 0x40 SHL SUB SWAP3 SWAP1 DUP4 DUP2 GT PUSH3 0x620 JUMPI DUP3 PUSH3 0x53 SWAP2 DUP4 ADD PUSH3 0xB40 JUMP JUMPDEST SWAP2 PUSH1 0x20 DUP3 ADD MLOAD SWAP1 DUP5 DUP3 GT PUSH3 0x620 JUMPI PUSH3 0x6F SWAP2 DUP4 ADD PUSH3 0xB40 JUMP JUMPDEST SWAP3 DUP5 DUP3 ADD MLOAD SWAP4 PUSH1 0x80 PUSH3 0x85 PUSH1 0x60 DUP6 ADD PUSH3 0xBB7 JUMP JUMPDEST SWAP4 ADD MLOAD SWAP4 PUSH1 0xFF DUP6 AND DUP6 SUB PUSH3 0x620 JUMPI PUSH1 0x0 DUP1 SLOAD CALLER PUSH1 0x1 PUSH1 0x1 PUSH1 0xA0 SHL SUB NOT DUP3 AND DUP2 OR DUP4 SSTORE SWAP2 PUSH1 0x1 PUSH1 0x1 PUSH1 0xA0 SHL SUB SWAP1 SWAP2 AND SWAP1 PUSH32 0x8BE0079C531659141344CD1FD0A4F28419497F9722A3DAAFE3B4186F6B6457E0 SWAP1 DUP1 LOG3 DUP1 MLOAD SWAP1 DUP4 DUP3 GT PUSH3 0x9F2 JUMPI PUSH1 0x5 SLOAD SWAP1 PUSH1 0x1 DUP3 DUP2 SHR SWAP3 AND DUP1 ISZERO PUSH3 0xAF5 JUMPI JUMPDEST PUSH1 0x20 DUP4 LT EQ PUSH3 0x9D1 JUMPI DUP2 PUSH1 0x1F DUP5 SWAP4 GT PUSH3 0xA9F JUMPI JUMPDEST POP PUSH1 0x20 SWAP1 PUSH1 0x1F DUP4 GT PUSH1 0x1 EQ PUSH3 0xA14 JUMPI PUSH1 0x0 SWAP3 PUSH3 0xA08 JUMPI JUMPDEST POP POP DUP2 PUSH1 0x1 SHL SWAP2 PUSH1 0x0 NOT SWAP1 PUSH1 0x3 SHL SHR NOT AND OR PUSH1 0x5 SSTORE JUMPDEST DUP1 MLOAD SWAP2 DUP3 GT PUSH3 0x9F2 JUMPI PUSH1 0x6 SLOAD SWAP1 PUSH1 0x1 DUP3 DUP2 SHR SWAP3 AND DUP1 ISZERO PUSH3 0x9E7 JUMPI JUMPDEST PUSH1 0x20 DUP4 LT EQ PUSH3 0x9D1 JUMPI DUP2 PUSH1 0x1F DUP5 SWAP4 GT PUSH3 0x96D JUMPI JUMPDEST POP PUSH1 0x20 SWAP1 PUSH1 0x1F DUP4 GT PUSH1 0x1 EQ PUSH3 0x8F3 JUMPI PUSH1 0x0 SWAP3 PUSH3 0x8E7 JUMPI JUMPDEST POP POP DUP2 PUSH1 0x1 SHL SWAP2 PUSH1 0x0 NOT SWAP1 PUSH1 0x3 SHL SHR NOT AND OR PUSH1 0x6 SSTORE JUMPDEST DUP4 MLOAD PUSH1 0x20 DUP2 ADD SWAP1 PUSH1 0x20 DUP3 MSTORE PUSH1 0x17 DUP7 DUP3 ADD MSTORE PUSH32 0x5441585F4558434C5553494F4E5F50524956494C454745000000000000000000 PUSH1 0x60 DUP3 ADD MSTORE PUSH1 0x60 DUP2 MSTORE PUSH3 0x1E4 DUP2 PUSH3 0xB00 JUMP JUMPDEST MLOAD SWAP1 KECCAK256 PUSH1 0x8 SSTORE DUP4 MLOAD PUSH1 0x20 DUP2 ADD SWAP1 PUSH1 0x20 DUP3 MSTORE PUSH1 0x1D DUP7 DUP3 ADD MSTORE PUSH32 0x4C49515549444954595F4558434C5553494F4E5F50524956494C454745000000 PUSH1 0x60 DUP3 ADD MSTORE PUSH1 0x60 DUP2 MSTORE PUSH3 0x230 DUP2 PUSH3 0xB00 JUMP JUMPDEST MLOAD SWAP1 KECCAK256 PUSH1 0x9 SWAP1 DUP2 SSTORE PUSH1 0xC DUP1 SLOAD PUSH12 0x24306C4097859C43C000000 PUSH1 0xD SSTORE PUSH10 0x1969368974C05B000000 PUSH1 0xE SSTORE PUSH1 0x7 DUP1 SLOAD PUSH1 0x1 PUSH1 0x1 PUSH1 0xA0 SHL SUB NOT AND PUSH1 0x1 PUSH1 0x1 PUSH1 0xA0 SHL SUB DUP7 AND OR SWAP1 SSTORE PUSH2 0xFFFF PUSH1 0xA0 SHL NOT AND PUSH1 0xA0 SWAP5 SWAP1 SWAP5 SHL PUSH1 0xFF PUSH1 0xA0 SHL AND SWAP4 SWAP1 SWAP4 OR PUSH1 0x1 PUSH1 0xAB SHL OR DUP4 SSTORE SWAP1 CALLER ISZERO PUSH3 0x8A3 JUMPI PUSH3 0x314 SWAP1 PUSH1 0x4 SWAP5 PUSH3 0x2B2 DUP2 DUP8 SLOAD PUSH3 0xC47 JUMP JUMPDEST DUP7 SSTORE CALLER PUSH1 0x0 MSTORE PUSH1 0x2 PUSH1 0x20 MSTORE DUP7 PUSH1 0x0 KECCAK256 PUSH3 0x2CE DUP3 DUP3 SLOAD PUSH3 0xC47 JUMP JUMPDEST SWAP1 SSTORE DUP7 MLOAD SWAP1 DUP2 MSTORE PUSH1 0x0 PUSH32 0xDDF252AD1BE2C89B69C2B068FC378DAA952BA7F163C4A11628F55A4DF523B3EF PUSH1 0x20 CALLER SWAP4 LOG3 PUSH3 0x30B CALLER PUSH1 0x8 SLOAD PUSH3 0xBCC JUMP JUMPDEST PUSH1 0x8 SLOAD PUSH3 0xBCC JUMP JUMPDEST PUSH1 0xA DUP1 SLOAD PUSH1 0x1 PUSH1 0x1 PUSH1 0xA0 SHL SUB NOT SWAP1 DUP2 AND PUSH20 0x518206922CE10787791578299DDE90D94DD6FAA0 SWAP1 DUP2 OR SWAP1 SWAP3 SSTORE PUSH1 0xB DUP1 SLOAD DUP3 AND PUSH20 0x83F465457C8CAFBE85ABB941F20291F826C7F72A OR SWAP1 SSTORE DUP4 SLOAD AND PUSH20 0xBB5E1777A331ED93E07CF043363E48D320EB96C4 OR DUP4 SSTORE DUP5 MLOAD PUSH4 0xC45A0155 PUSH1 0xE0 SHL DUP1 DUP3 MSTORE SWAP5 SWAP2 PUSH1 0x20 DUP3 DUP5 DUP2 DUP5 GAS STATICCALL SWAP2 DUP3 ISZERO PUSH3 0x898 JUMPI PUSH1 0x0 SWAP3 PUSH3 0x854 JUMPI JUMPDEST POP DUP7 MLOAD SWAP1 PUSH1 0x20 DUP3 DUP6 DUP2 PUSH4 0x15AB88C9 PUSH1 0xE3 SHL SWAP5 DUP6 DUP3 MSTORE GAS STATICCALL SWAP2 DUP3 ISZERO PUSH3 0x805 JUMPI PUSH1 0x0 SWAP3 PUSH3 0x810 JUMPI JUMPDEST POP DUP8 MLOAD PUSH4 0x64E329CB PUSH1 0xE1 SHL DUP1 DUP3 MSTORE PUSH1 0x1 PUSH1 0x1 PUSH1 0xA0 SHL SUB SWAP1 SWAP4 AND DUP6 DUP3 ADD SWAP1 DUP2 MSTORE ADDRESS PUSH1 0x20 DUP3 DUP2 ADD SWAP2 SWAP1 SWAP2 MSTORE SWAP2 SWAP5 DUP6 SWAP2 DUP3 SWAP1 PUSH1 0x0 SWAP1 DUP3 SWAP1 PUSH1 0x40 ADD SUB SWAP3 PUSH1 0x1 PUSH1 0x1 PUSH1 0xA0 SHL SUB AND GAS CALL SWAP3 DUP4 ISZERO PUSH3 0x805 JUMPI PUSH1 0x0 SWAP4 PUSH3 0x7C1 JUMPI JUMPDEST POP PUSH1 0xB SLOAD DUP9 MLOAD DUP9 DUP2 MSTORE SWAP3 SWAP1 PUSH1 0x1 PUSH1 0x1 PUSH1 0xA0 SHL SUB AND PUSH1 0x20 DUP5 DUP8 DUP2 DUP5 GAS STATICCALL SWAP1 DUP2 ISZERO PUSH3 0x6DC JUMPI DUP7 SWAP5 PUSH1 0x0 SWAP3 PUSH3 0x779 JUMPI JUMPDEST POP PUSH1 0x20 SWAP1 DUP12 MLOAD SWAP8 DUP9 DUP1 SWAP3 DUP8 DUP3 MSTORE GAS STATICCALL SWAP6 DUP7 ISZERO PUSH3 0x6DC JUMPI PUSH1 0x0 SWAP7 PUSH3 0x72B JUMPI JUMPDEST POP DUP10 MLOAD DUP3 DUP2 MSTORE PUSH1 0x1 PUSH1 0x1 PUSH1 0xA0 SHL SUB SWAP1 SWAP7 AND DUP5 DUP8 ADD SWAP1 DUP2 MSTORE ADDRESS PUSH1 0x20 DUP3 DUP2 ADD SWAP2 SWAP1 SWAP2 MSTORE SWAP2 DUP8 SWAP2 DUP3 SWAP1 PUSH1 0x0 SWAP1 DUP3 SWAP1 PUSH1 0x40 ADD JUMPDEST SUB SWAP3 PUSH1 0x1 PUSH1 0x1 PUSH1 0xA0 SHL SUB AND GAS CALL SWAP5 DUP6 ISZERO PUSH3 0x68B JUMPI PUSH1 0x0 SWAP6 PUSH3 0x6E7 JUMPI JUMPDEST POP DUP7 SLOAD DUP10 MLOAD SWAP9 DUP10 MSTORE PUSH1 0x1 PUSH1 0x1 PUSH1 0xA0 SHL SUB AND SWAP2 PUSH1 0x20 DUP10 DUP6 DUP2 DUP7 GAS STATICCALL SWAP9 DUP10 ISZERO PUSH3 0x6DC JUMPI PUSH1 0x0 SWAP10 PUSH3 0x696 JUMPI JUMPDEST POP PUSH1 0x20 SWAP1 DUP5 DUP12 MLOAD DUP1 SWAP6 DUP2 SWAP4 DUP3 MSTORE GAS STATICCALL SWAP2 DUP3 ISZERO PUSH3 0x68B JUMPI PUSH1 0x0 SWAP3 PUSH3 0x639 JUMPI JUMPDEST POP DUP9 MLOAD SWAP1 DUP2 MSTORE PUSH1 0x1 PUSH1 0x1 PUSH1 0xA0 SHL SUB SWAP1 SWAP2 AND SWAP2 DUP2 ADD SWAP2 DUP3 MSTORE ADDRESS PUSH1 0x20 DUP4 DUP2 ADD SWAP2 SWAP1 SWAP2 MSTORE SWAP1 SWAP7 SWAP1 SWAP2 DUP8 SWAP2 SWAP1 DUP3 SWAP1 PUSH1 0x0 SWAP1 DUP3 SWAP1 PUSH1 0x40 ADD JUMPDEST SUB SWAP3 PUSH1 0x1 PUSH1 0x1 PUSH1 0xA0 SHL SUB AND GAS CALL SWAP5 DUP6 ISZERO PUSH3 0x62E JUMPI PUSH1 0x0 SWAP6 PUSH3 0x5D2 JUMPI JUMPDEST POP SWAP4 PUSH3 0x579 PUSH3 0x581 SWAP3 PUSH3 0x571 PUSH3 0x5C4 SWAP8 DUP7 SLOAD PUSH3 0xBCC JUMP JUMPDEST DUP5 SLOAD PUSH3 0xBCC JUMP JUMPDEST DUP3 SLOAD PUSH3 0xBCC JUMP JUMPDEST PUSH3 0x599 DUP2 SLOAD PUSH1 0x1 DUP1 PUSH1 0xA0 SHL SUB PUSH1 0xA SLOAD AND SWAP1 PUSH3 0xBCC JUMP JUMPDEST PUSH3 0x5B1 DUP2 SLOAD PUSH1 0x1 DUP1 PUSH1 0xA0 SHL SUB PUSH1 0xB SLOAD AND SWAP1 PUSH3 0xBCC JUMP JUMPDEST SLOAD SWAP1 SLOAD PUSH1 0x1 PUSH1 0x1 PUSH1 0xA0 SHL SUB AND SWAP1 PUSH3 0xBCC JUMP JUMPDEST MLOAD PUSH2 0x268D SWAP1 DUP2 PUSH3 0xC6C DUP3 CODECOPY RETURN JUMPDEST SWAP5 POP PUSH1 0x20 DUP6 RETURNDATASIZE PUSH1 0x20 GT PUSH3 0x625 JUMPI JUMPDEST DUP2 PUSH3 0x5F0 PUSH1 0x20 SWAP4 DUP4 PUSH3 0xB1C JUMP JUMPDEST DUP2 ADD SUB SLT PUSH3 0x620 JUMPI PUSH3 0x579 PUSH3 0x581 SWAP3 PUSH3 0x571 PUSH3 0x615 PUSH3 0x5C4 SWAP9 PUSH3 0xBB7 JUMP JUMPDEST SWAP8 POP POP SWAP3 POP PUSH3 0x555 JUMP JUMPDEST PUSH1 0x0 DUP1 REVERT JUMPDEST RETURNDATASIZE SWAP2 POP PUSH3 0x5E1 JUMP JUMPDEST DUP7 MLOAD RETURNDATASIZE PUSH1 0x0 DUP3 RETURNDATACOPY RETURNDATASIZE SWAP1 REVERT JUMPDEST SWAP3 SWAP2 POP SWAP7 PUSH1 0x20 DUP4 RETURNDATASIZE PUSH1 0x20 GT PUSH3 0x682 JUMPI JUMPDEST DUP2 PUSH3 0x659 PUSH1 0x20 SWAP4 DUP4 PUSH3 0xB1C JUMP JUMPDEST DUP2 ADD SUB SLT PUSH3 0x620 JUMPI PUSH3 0x537 SWAP8 PUSH1 0x0 PUSH3 0x676 PUSH1 0x20 SWAP6 PUSH3 0xBB7 JUMP JUMPDEST SWAP4 SWAP5 POP POP SWAP1 SWAP8 PUSH3 0x504 JUMP JUMPDEST RETURNDATASIZE SWAP2 POP PUSH3 0x64A JUMP JUMPDEST DUP10 MLOAD RETURNDATASIZE PUSH1 0x0 DUP3 RETURNDATACOPY RETURNDATASIZE SWAP1 REVERT JUMPDEST SWAP1 SWAP9 POP PUSH1 0x20 DUP2 RETURNDATASIZE PUSH1 0x20 GT PUSH3 0x6D3 JUMPI JUMPDEST DUP2 PUSH3 0x6B5 PUSH1 0x20 SWAP4 DUP4 PUSH3 0xB1C JUMP JUMPDEST DUP2 ADD SUB SLT PUSH3 0x620 JUMPI PUSH3 0x6CB PUSH1 0x20 SWAP2 PUSH3 0xBB7 JUMP JUMPDEST SWAP9 SWAP1 PUSH3 0x4E4 JUMP JUMPDEST RETURNDATASIZE SWAP2 POP PUSH3 0x6A6 JUMP JUMPDEST DUP11 MLOAD RETURNDATASIZE PUSH1 0x0 DUP3 RETURNDATACOPY RETURNDATASIZE SWAP1 REVERT JUMPDEST SWAP1 SWAP5 POP PUSH1 0x20 DUP2 RETURNDATASIZE PUSH1 0x20 GT PUSH3 0x722 JUMPI JUMPDEST DUP2 PUSH3 0x706 PUSH1 0x20 SWAP4 DUP4 PUSH3 0xB1C JUMP JUMPDEST DUP2 ADD SUB SLT PUSH3 0x620 JUMPI PUSH3 0x71A SWAP1 PUSH3 0xBB7 JUMP JUMPDEST SWAP4 CODESIZE PUSH3 0x4B9 JUMP JUMPDEST RETURNDATASIZE SWAP2 POP PUSH3 0x6F7 JUMP JUMPDEST SWAP6 POP PUSH1 0x20 DUP7 RETURNDATASIZE PUSH1 0x20 GT PUSH3 0x770 JUMPI JUMPDEST DUP2 PUSH3 0x749 PUSH1 0x20 SWAP4 DUP4 PUSH3 0xB1C JUMP JUMPDEST DUP2 ADD SUB SLT PUSH3 0x620 JUMPI PUSH3 0x49B PUSH1 0x20 SWAP2 PUSH3 0x766 PUSH1 0x0 SWAP9 PUSH3 0xBB7 JUMP JUMPDEST SWAP8 POP SWAP2 POP PUSH3 0x46C JUMP JUMPDEST RETURNDATASIZE SWAP2 POP PUSH3 0x73A JUMP JUMPDEST SWAP5 POP SWAP1 POP PUSH1 0x20 DUP5 RETURNDATASIZE PUSH1 0x20 GT PUSH3 0x7B8 JUMPI JUMPDEST DUP2 PUSH3 0x799 PUSH1 0x20 SWAP4 DUP4 PUSH3 0xB1C JUMP JUMPDEST DUP2 ADD SUB SLT PUSH3 0x620 JUMPI PUSH1 0x20 PUSH3 0x7B0 DUP8 SWAP6 PUSH3 0xBB7 JUMP JUMPDEST SWAP2 SWAP1 PUSH3 0x44C JUMP JUMPDEST RETURNDATASIZE SWAP2 POP PUSH3 0x78A JUMP JUMPDEST SWAP1 SWAP3 POP PUSH1 0x20 DUP2 RETURNDATASIZE PUSH1 0x20 GT PUSH3 0x7FC JUMPI JUMPDEST DUP2 PUSH3 0x7E0 PUSH1 0x20 SWAP4 DUP4 PUSH3 0xB1C JUMP JUMPDEST DUP2 ADD SUB SLT PUSH3 0x620 JUMPI PUSH3 0x7F4 SWAP1 PUSH3 0xBB7 JUMP JUMPDEST SWAP2 CODESIZE PUSH3 0x41D JUMP JUMPDEST RETURNDATASIZE SWAP2 POP PUSH3 0x7D1 JUMP JUMPDEST DUP9 MLOAD RETURNDATASIZE PUSH1 0x0 DUP3 RETURNDATACOPY RETURNDATASIZE SWAP1 REVERT JUMPDEST SWAP1 SWAP2 POP PUSH1 0x20 DUP2 RETURNDATASIZE PUSH1 0x20 GT PUSH3 0x84B JUMPI JUMPDEST DUP2 PUSH3 0x82F PUSH1 0x20 SWAP4 DUP4 PUSH3 0xB1C JUMP JUMPDEST DUP2 ADD SUB SLT PUSH3 0x620 JUMPI PUSH3 0x843 SWAP1 PUSH3 0xBB7 JUMP JUMPDEST SWAP1 CODESIZE PUSH3 0x3C8 JUMP JUMPDEST RETURNDATASIZE SWAP2 POP PUSH3 0x820 JUMP JUMPDEST SWAP1 SWAP2 POP PUSH1 0x20 DUP2 RETURNDATASIZE PUSH1 0x20 GT PUSH3 0x88F JUMPI JUMPDEST DUP2 PUSH3 0x873 PUSH1 0x20 SWAP4 DUP4 PUSH3 0xB1C JUMP JUMPDEST DUP2 ADD SUB SLT PUSH3 0x620 JUMPI PUSH3 0x887 SWAP1 PUSH3 0xBB7 JUMP JUMPDEST SWAP1 CODESIZE PUSH3 0x3A0 JUMP JUMPDEST RETURNDATASIZE SWAP2 POP PUSH3 0x864 JUMP JUMPDEST DUP8 MLOAD RETURNDATASIZE PUSH1 0x0 DUP3 RETURNDATACOPY RETURNDATASIZE SWAP1 REVERT JUMPDEST DUP5 MLOAD PUSH3 0x461BCD PUSH1 0xE5 SHL DUP2 MSTORE PUSH1 0x20 PUSH1 0x4 DUP3 ADD MSTORE PUSH1 0x1F PUSH1 0x24 DUP3 ADD MSTORE PUSH32 0x45524332303A206D696E7420746F20746865207A65726F206164647265737300 PUSH1 0x44 DUP3 ADD MSTORE PUSH1 0x64 SWAP1 REVERT JUMPDEST ADD MLOAD SWAP1 POP CODESIZE DUP1 PUSH3 0x188 JUMP JUMPDEST PUSH1 0x6 PUSH1 0x0 SWAP1 DUP2 MSTORE PUSH1 0x0 DUP1 MLOAD PUSH1 0x20 PUSH3 0x32F9 DUP4 CODECOPY DUP2 MLOAD SWAP2 MSTORE SWAP4 POP PUSH1 0x1F NOT DUP6 AND SWAP1 JUMPDEST DUP2 DUP2 LT PUSH3 0x954 JUMPI POP SWAP1 DUP5 PUSH1 0x1 SWAP6 SWAP5 SWAP4 SWAP3 LT PUSH3 0x93A JUMPI JUMPDEST POP POP POP DUP2 SHL ADD PUSH1 0x6 SSTORE PUSH3 0x19E JUMP JUMPDEST ADD MLOAD PUSH1 0x0 NOT PUSH1 0xF8 DUP5 PUSH1 0x3 SHL AND SHR NOT AND SWAP1 SSTORE CODESIZE DUP1 DUP1 PUSH3 0x92B JUMP JUMPDEST SWAP3 SWAP4 PUSH1 0x20 PUSH1 0x1 DUP2 SWAP3 DUP8 DUP7 ADD MLOAD DUP2 SSTORE ADD SWAP6 ADD SWAP4 ADD PUSH3 0x913 JUMP JUMPDEST PUSH1 0x6 PUSH1 0x0 MSTORE SWAP1 SWAP2 POP PUSH1 0x0 DUP1 MLOAD PUSH1 0x20 PUSH3 0x32F9 DUP4 CODECOPY DUP2 MLOAD SWAP2 MSTORE PUSH1 0x1F DUP5 ADD PUSH1 0x5 SHR DUP2 ADD SWAP2 PUSH1 0x20 DUP6 LT PUSH3 0x9C6 JUMPI JUMPDEST SWAP1 PUSH1 0x1F DUP6 SWAP5 SWAP4 SWAP3 ADD PUSH1 0x5 SHR ADD SWAP1 JUMPDEST DUP2 DUP2 LT PUSH3 0x9B6 JUMPI POP PUSH3 0x16F JUMP JUMPDEST PUSH1 0x0 DUP2 SSTORE DUP5 SWAP4 POP PUSH1 0x1 ADD PUSH3 0x9A7 JUMP JUMPDEST SWAP1 SWAP2 POP DUP2 SWAP1 PUSH3 0x999 JUMP JUMPDEST PUSH4 0x4E487B71 PUSH1 0xE0 SHL PUSH1 0x0 MSTORE PUSH1 0x22 PUSH1 0x4 MSTORE PUSH1 0x24 PUSH1 0x0 REVERT JUMPDEST SWAP2 PUSH1 0x7F AND SWAP2 PUSH3 0x159 JUMP JUMPDEST PUSH4 0x4E487B71 PUSH1 0xE0 SHL PUSH1 0x0 MSTORE PUSH1 0x41 PUSH1 0x4 MSTORE PUSH1 0x24 PUSH1 0x0 REVERT JUMPDEST ADD MLOAD SWAP1 POP CODESIZE DUP1 PUSH3 0x126 JUMP JUMPDEST PUSH1 0x5 PUSH1 0x0 SWAP1 DUP2 MSTORE PUSH32 0x36B6384B5ECA791C62761152D0C79BB0604C104A5FB6F4EB0703F3154BB3DB0 SWAP4 POP PUSH1 0x1F NOT DUP6 AND SWAP1 JUMPDEST DUP2 DUP2 LT PUSH3 0xA86 JUMPI POP SWAP1 DUP5 PUSH1 0x1 SWAP6 SWAP5 SWAP4 SWAP3 LT PUSH3 0xA6C JUMPI JUMPDEST POP POP POP DUP2 SHL ADD PUSH1 0x5 SSTORE PUSH3 0x13C JUMP JUMPDEST ADD MLOAD PUSH1 0x0 NOT PUSH1 0xF8 DUP5 PUSH1 0x3 SHL AND SHR NOT AND SWAP1 SSTORE CODESIZE DUP1 DUP1 PUSH3 0xA5D JUMP JUMPDEST SWAP3 SWAP4 PUSH1 0x20 PUSH1 0x1 DUP2 SWAP3 DUP8 DUP7 ADD MLOAD DUP2 SSTORE ADD SWAP6 ADD SWAP4 ADD PUSH3 0xA45 JUMP JUMPDEST SWAP1 SWAP2 POP PUSH1 0x5 PUSH1 0x0 MSTORE PUSH1 0x20 PUSH1 0x0 KECCAK256 PUSH1 0x1F DUP5 ADD PUSH1 0x5 SHR DUP2 ADD PUSH1 0x20 DUP6 LT PUSH3 0xAED JUMPI JUMPDEST SWAP1 DUP5 SWAP4 SWAP3 SWAP2 JUMPDEST PUSH1 0x1F DUP4 ADD PUSH1 0x5 SHR DUP3 ADD DUP2 LT PUSH3 0xADD JUMPI POP POP PUSH3 0x10D JUMP JUMPDEST PUSH1 0x0 DUP2 SSTORE DUP6 SWAP5 POP PUSH1 0x1 ADD PUSH3 0xAC5 JUMP JUMPDEST POP DUP1 PUSH3 0xABF JUMP JUMPDEST SWAP2 PUSH1 0x7F AND SWAP2 PUSH3 0xF7 JUMP JUMPDEST PUSH1 0x80 DUP2 ADD SWAP1 DUP2 LT PUSH1 0x1 PUSH1 0x1 PUSH1 0x40 SHL SUB DUP3 GT OR PUSH3 0x9F2 JUMPI PUSH1 0x40 MSTORE JUMP JUMPDEST PUSH1 0x1F SWAP1 SWAP2 ADD PUSH1 0x1F NOT AND DUP2 ADD SWAP1 PUSH1 0x1 PUSH1 0x1 PUSH1 0x40 SHL SUB DUP3 GT SWAP1 DUP3 LT OR PUSH3 0x9F2 JUMPI PUSH1 0x40 MSTORE JUMP JUMPDEST SWAP2 SWAP1 DUP1 PUSH1 0x1F DUP5 ADD SLT ISZERO PUSH3 0x620 JUMPI DUP3 MLOAD SWAP1 PUSH1 0x1 PUSH1 0x1 PUSH1 0x40 SHL SUB DUP3 GT PUSH3 0x9F2 JUMPI PUSH1 0x40 MLOAD SWAP2 PUSH1 0x20 SWAP2 PUSH3 0xB7C PUSH1 0x1F DUP4 ADD PUSH1 0x1F NOT AND DUP5 ADD DUP6 PUSH3 0xB1C JUMP JUMPDEST DUP2 DUP5 MSTORE DUP3 DUP3 DUP8 ADD ADD GT PUSH3 0x620 JUMPI PUSH1 0x0 JUMPDEST DUP2 DUP2 LT PUSH3 0xBA3 JUMPI POP DUP3 PUSH1 0x0 SWAP4 SWAP5 SWAP6 POP ADD ADD MSTORE SWAP1 JUMP JUMPDEST DUP6 DUP2 ADD DUP4 ADD MLOAD DUP5 DUP3 ADD DUP5 ADD MSTORE DUP3 ADD PUSH3 0xB8D JUMP JUMPDEST MLOAD SWAP1 PUSH1 0x1 PUSH1 0x1 PUSH1 0xA0 SHL SUB DUP3 AND DUP3 SUB PUSH3 0x620 JUMPI JUMP JUMPDEST SWAP1 PUSH1 0x0 SWAP2 DUP1 DUP4 MSTORE PUSH1 0x1 PUSH1 0x20 MSTORE PUSH1 0x40 DUP4 KECCAK256 SWAP2 PUSH1 0x1 DUP1 PUSH1 0xA0 SHL SUB AND SWAP2 DUP3 DUP5 MSTORE PUSH1 0x20 MSTORE PUSH1 0xFF PUSH1 0x40 DUP5 KECCAK256 SLOAD AND ISZERO PUSH3 0xBFF JUMPI POP POP POP JUMP JUMPDEST DUP1 DUP4 MSTORE PUSH1 0x1 PUSH1 0x20 MSTORE PUSH1 0x40 DUP4 KECCAK256 DUP3 DUP5 MSTORE PUSH1 0x20 MSTORE PUSH1 0x40 DUP4 KECCAK256 PUSH1 0x1 PUSH1 0xFF NOT DUP3 SLOAD AND OR SWAP1 SSTORE PUSH32 0x2F8788117E7EFF1D82E926EC794901D17C78024A50270940304540A733656F0D CALLER SWAP4 DUP1 LOG4 JUMP JUMPDEST SWAP2 SWAP1 DUP3 ADD DUP1 SWAP3 GT PUSH3 0xC55 JUMPI JUMP JUMPDEST PUSH4 0x4E487B71 PUSH1 0xE0 SHL PUSH1 0x0 MSTORE PUSH1 0x11 PUSH1 0x4 MSTORE PUSH1 0x24 PUSH1 0x0 REVERT INVALID PUSH1 0x80 PUSH1 0x40 SWAP1 DUP1 DUP3 MSTORE PUSH1 0x4 SWAP1 DUP2 CALLDATASIZE LT ISZERO PUSH2 0x23 JUMPI JUMPDEST POP POP POP CALLDATASIZE ISZERO PUSH2 0x21 JUMPI PUSH1 0x0 DUP1 REVERT JUMPDEST STOP JUMPDEST PUSH1 0x0 SWAP3 DUP4 CALLDATALOAD PUSH1 0xE0 SHR SWAP2 DUP3 PUSH4 0x1FFC9A7 EQ PUSH2 0xF8B JUMPI POP DUP2 PUSH4 0x6FDDE03 EQ PUSH2 0xECD JUMPI DUP2 PUSH4 0x84A1392 EQ PUSH2 0xE9D JUMPI DUP2 PUSH4 0x8695B41 EQ PUSH2 0xE40 JUMPI DUP2 PUSH4 0x95EA7B3 EQ PUSH2 0xE16 JUMPI DUP2 PUSH4 0x18160DDD EQ PUSH2 0xDF7 JUMPI DUP2 PUSH4 0x220F6696 EQ PUSH2 0xDD0 JUMPI DUP2 PUSH4 0x23B872DD EQ PUSH2 0xD17 JUMPI DUP2 PUSH4 0x248A9CA3 EQ PUSH2 0xCEC JUMPI DUP2 PUSH4 0x2F2FF15D EQ PUSH2 0xCC3 JUMPI DUP2 PUSH4 0x313CE567 EQ PUSH2 0xCA7 JUMPI DUP2 PUSH4 0x31E4E4E5 EQ PUSH2 0xC88 JUMPI DUP2 PUSH4 0x36568ABE EQ PUSH2 0xBF7 JUMPI DUP2 PUSH4 0x3821A758 EQ PUSH2 0xBB7 JUMPI DUP2 PUSH4 0x39509351 EQ PUSH2 0xB67 JUMPI DUP2 PUSH4 0x46E65523 EQ PUSH2 0xB48 JUMPI DUP2 PUSH4 0x4A74BB02 EQ PUSH2 0xB24 JUMPI DUP2 PUSH4 0x4FE47F70 EQ PUSH2 0xB02 JUMPI DUP2 PUSH4 0x59102D1C EQ PUSH2 0xADD JUMPI DUP2 PUSH4 0x5C2A00B2 EQ PUSH2 0xABE JUMPI DUP2 PUSH4 0x5F48F393 EQ PUSH2 0xA9F JUMPI DUP2 PUSH4 0x70A08231 EQ PUSH2 0xA67 JUMPI DUP2 PUSH4 0x715018A6 EQ PUSH2 0xA0D JUMPI DUP2 PUSH4 0x808C1643 EQ PUSH2 0x9DE JUMPI DUP2 PUSH4 0x8DA5CB5B EQ PUSH2 0x9B6 JUMPI DUP2 PUSH4 0x8E6DDA25 EQ PUSH2 0x90F JUMPI DUP2 PUSH4 0x91D14854 EQ PUSH2 0x8C7 JUMPI DUP2 PUSH4 0x95D89B41 EQ PUSH2 0x7C5 JUMPI DUP2 PUSH4 0xA217FDDF EQ PUSH2 0x7AA JUMPI DUP2 PUSH4 0xA457C2D7 EQ PUSH2 0x706 JUMPI DUP2 PUSH4 0xA5FFAD52 EQ PUSH2 0x6C0 JUMPI DUP2 PUSH4 0xA9059CBB EQ PUSH2 0x68F JUMPI DUP2 PUSH4 0xAE7B6D16 EQ PUSH2 0x66A JUMPI DUP2 PUSH4 0xBEA1DCF8 EQ PUSH2 0x641 JUMPI DUP2 PUSH4 0xC676EE6B EQ PUSH2 0x61F JUMPI DUP2 PUSH4 0xD547741F EQ PUSH2 0x5E5 JUMPI DUP2 PUSH4 0xD63F4594 EQ PUSH2 0x486 JUMPI DUP2 PUSH4 0xDD62ED3E EQ PUSH2 0x43D JUMPI DUP2 PUSH4 0xF2FDE38B EQ PUSH2 0x375 JUMPI DUP2 PUSH4 0xF3BF29DE EQ PUSH2 0x2D7 JUMPI POP DUP1 PUSH4 0xF62E3831 EQ PUSH2 0x297 JUMPI DUP1 PUSH4 0xF6ED11C1 EQ PUSH2 0x254 JUMPI PUSH4 0xFD7B674D EQ PUSH2 0x20C JUMPI DUP1 PUSH2 0x13 JUMP JUMPDEST CALLVALUE PUSH2 0x250 JUMPI PUSH1 0x20 CALLDATASIZE PUSH1 0x3 NOT ADD SLT PUSH2 0x250 JUMPI CALLDATALOAD PUSH1 0xFF DUP2 AND DUP2 SUB PUSH2 0x250 JUMPI PUSH2 0x230 PUSH2 0x14E6 JUMP JUMPDEST PUSH1 0xC DUP1 SLOAD PUSH1 0xFF PUSH1 0xA8 SHL NOT AND PUSH1 0xA8 SWAP3 SWAP1 SWAP3 SHL PUSH1 0xFF PUSH1 0xA8 SHL AND SWAP2 SWAP1 SWAP2 OR SWAP1 SSTORE DUP1 RETURN JUMPDEST POP DUP1 REVERT JUMPDEST DUP3 CALLVALUE PUSH2 0x294 JUMPI PUSH1 0x20 CALLDATASIZE PUSH1 0x3 NOT ADD SLT PUSH2 0x294 JUMPI PUSH2 0x26E PUSH2 0x102E JUMP JUMPDEST PUSH2 0x276 PUSH2 0x14E6 JUMP JUMPDEST PUSH1 0x1 DUP1 PUSH1 0xA0 SHL SUB AND PUSH1 0x1 PUSH1 0x1 PUSH1 0x60 SHL SUB PUSH1 0xA0 SHL PUSH1 0xB SLOAD AND OR PUSH1 0xB SSTORE DUP1 RETURN JUMPDEST DUP1 REVERT JUMPDEST DUP3 CALLVALUE PUSH2 0x294 JUMPI PUSH1 0x20 CALLDATASIZE PUSH1 0x3 NOT ADD SLT PUSH2 0x294 JUMPI PUSH2 0x2B1 PUSH2 0x102E JUMP JUMPDEST PUSH2 0x2B9 PUSH2 0x14E6 JUMP JUMPDEST PUSH1 0x1 DUP1 PUSH1 0xA0 SHL SUB AND PUSH1 0x1 PUSH1 0x1 PUSH1 0x60 SHL SUB PUSH1 0xA0 SHL PUSH1 0xA SLOAD AND OR PUSH1 0xA SSTORE DUP1 RETURN JUMPDEST DUP4 DUP4 CALLVALUE PUSH2 0x250 JUMPI PUSH1 0x20 CALLDATASIZE PUSH1 0x3 NOT ADD SLT PUSH2 0x250 JUMPI PUSH2 0x2F2 PUSH2 0x102E JUMP JUMPDEST SWAP1 PUSH2 0x2FB PUSH2 0x14E6 JUMP JUMPDEST PUSH1 0x8 SLOAD SWAP1 PUSH2 0x32C DUP4 DUP4 PUSH1 0x0 MSTORE PUSH1 0x1 PUSH1 0x20 MSTORE PUSH1 0x40 PUSH1 0x0 KECCAK256 SWAP1 PUSH1 0x1 DUP1 PUSH1 0xA0 SHL SUB AND PUSH1 0x0 MSTORE PUSH1 0x20 MSTORE PUSH1 0xFF PUSH1 0x40 PUSH1 0x0 KECCAK256 SLOAD AND SWAP1 JUMP JUMPDEST ISZERO PUSH2 0x33F JUMPI POP SWAP1 PUSH2 0x33C SWAP2 PUSH2 0x1470 JUMP JUMPDEST DUP1 RETURN JUMPDEST PUSH1 0x64 SWAP1 PUSH1 0x20 DUP7 MLOAD SWAP2 PUSH3 0x461BCD PUSH1 0xE5 SHL DUP4 MSTORE DUP3 ADD MSTORE PUSH1 0x10 PUSH1 0x24 DUP3 ADD MSTORE PUSH16 0xC2D8E4CAC2C8F2BEE0C2F2E6BEE8C2F PUSH1 0x83 SHL PUSH1 0x44 DUP3 ADD MSTORE REVERT JUMPDEST SWAP2 SWAP1 POP CALLVALUE PUSH2 0x439 JUMPI PUSH1 0x20 CALLDATASIZE PUSH1 0x3 NOT ADD SLT PUSH2 0x439 JUMPI PUSH2 0x391 PUSH2 0x102E JUMP JUMPDEST SWAP1 PUSH2 0x39A PUSH2 0x14E6 JUMP JUMPDEST PUSH1 0x1 PUSH1 0x1 PUSH1 0xA0 SHL SUB SWAP2 DUP3 AND SWAP3 DUP4 ISZERO PUSH2 0x3E7 JUMPI POP POP DUP3 SLOAD PUSH1 0x1 PUSH1 0x1 PUSH1 0xA0 SHL SUB NOT DUP2 AND DUP4 OR DUP5 SSTORE AND PUSH32 0x8BE0079C531659141344CD1FD0A4F28419497F9722A3DAAFE3B4186F6B6457E0 DUP4 DUP1 LOG3 DUP1 RETURN JUMPDEST SWAP1 PUSH1 0x20 PUSH1 0x84 SWAP3 MLOAD SWAP2 PUSH3 0x461BCD PUSH1 0xE5 SHL DUP4 MSTORE DUP3 ADD MSTORE PUSH1 0x26 PUSH1 0x24 DUP3 ADD MSTORE PUSH32 0x4F776E61626C653A206E6577206F776E657220697320746865207A65726F2061 PUSH1 0x44 DUP3 ADD MSTORE PUSH6 0x646472657373 PUSH1 0xD0 SHL PUSH1 0x64 DUP3 ADD MSTORE REVERT JUMPDEST DUP3 DUP1 REVERT JUMPDEST DUP4 SWAP1 CALLVALUE PUSH2 0x250 JUMPI DUP1 PUSH1 0x3 NOT CALLDATASIZE ADD SLT PUSH2 0x250 JUMPI DUP1 PUSH1 0x20 SWAP3 PUSH2 0x45B PUSH2 0x102E JUMP JUMPDEST PUSH2 0x463 PUSH2 0x1049 JUMP JUMPDEST PUSH1 0x1 PUSH1 0x1 PUSH1 0xA0 SHL SUB SWAP2 DUP3 AND DUP4 MSTORE PUSH1 0x3 DUP7 MSTORE DUP4 DUP4 KECCAK256 SWAP2 AND DUP3 MSTORE DUP5 MSTORE KECCAK256 SLOAD SWAP1 MLOAD SWAP1 DUP2 MSTORE RETURN JUMPDEST SWAP1 POP CALLVALUE PUSH2 0x439 JUMPI PUSH2 0x496 CALLDATASIZE PUSH2 0x105F JUMP JUMPDEST PUSH2 0x49E PUSH2 0x14E6 JUMP JUMPDEST DUP3 EXTCODESIZE ISZERO PUSH2 0x5AB JUMPI DUP4 MLOAD PUSH8 0xFFFFFFFFFFFFFFFF SWAP1 DUP1 DUP7 ADD DUP3 DUP2 GT DUP3 DUP3 LT OR PUSH2 0x598 JUMPI PUSH32 0x7472616E7366657228616464726573732C75696E743235362900000000000000 SWAP2 PUSH1 0x20 SWAP2 DUP9 MSTORE PUSH1 0x19 DUP2 MSTORE ADD MSTORE DUP5 MLOAD SWAP2 PUSH1 0x20 DUP4 ADD SWAP4 PUSH4 0xA9059CBB PUSH1 0xE0 SHL DUP6 MSTORE PUSH1 0x1 DUP1 PUSH1 0xA0 SHL SUB AND PUSH1 0x24 DUP5 ADD MSTORE PUSH1 0x44 DUP4 ADD MSTORE PUSH1 0x44 DUP3 MSTORE PUSH1 0x80 DUP3 ADD SWAP1 DUP3 DUP3 LT SWAP1 DUP3 GT OR PUSH2 0x585 JUMPI DUP5 MSTORE MLOAD DUP6 SWAP3 DUP4 SWAP3 SWAP1 DUP4 SWAP1 GAS CALL PUSH2 0x538 PUSH2 0x25B7 JUMP JUMPDEST POP ISZERO PUSH2 0x542 JUMPI DUP3 DUP1 RETURN JUMPDEST SWAP1 PUSH1 0x20 PUSH1 0x64 SWAP3 MLOAD SWAP2 PUSH3 0x461BCD PUSH1 0xE5 SHL DUP4 MSTORE DUP3 ADD MSTORE PUSH1 0x1E PUSH1 0x24 DUP3 ADD MSTORE PUSH32 0x6C6F775F6C6576656C5F636F6E74726163745F63616C6C5F6661696C65640000 PUSH1 0x44 DUP3 ADD MSTORE REVERT JUMPDEST PUSH4 0x4E487B71 PUSH1 0xE0 SHL DUP8 MSTORE PUSH1 0x41 DUP7 MSTORE PUSH1 0x24 DUP8 REVERT JUMPDEST PUSH4 0x4E487B71 PUSH1 0xE0 SHL DUP10 MSTORE PUSH1 0x41 DUP9 MSTORE PUSH1 0x24 DUP10 REVERT JUMPDEST DUP4 MLOAD PUSH3 0x461BCD PUSH1 0xE5 SHL DUP2 MSTORE PUSH1 0x20 DUP2 DUP8 ADD MSTORE PUSH1 0x14 PUSH1 0x24 DUP3 ADD MSTORE PUSH20 0x18D85B1B17DD1BD7DB9BDB97D8DBDB9D1C9858DD PUSH1 0x62 SHL PUSH1 0x44 DUP3 ADD MSTORE PUSH1 0x64 SWAP1 REVERT JUMPDEST SWAP1 POP CALLVALUE PUSH2 0x439 JUMPI DUP1 PUSH1 0x3 NOT CALLDATASIZE ADD SLT PUSH2 0x439 JUMPI PUSH2 0x33C SWAP2 CALLDATALOAD PUSH2 0x61A PUSH1 0x1 PUSH2 0x609 PUSH2 0x1049 JUMP JUMPDEST SWAP4 DUP4 DUP8 MSTORE DUP2 PUSH1 0x20 MSTORE DUP7 KECCAK256 ADD SLOAD PUSH2 0x1094 JUMP JUMPDEST PUSH2 0x1470 JUMP JUMPDEST POP POP CALLVALUE PUSH2 0x250 JUMPI PUSH1 0x20 CALLDATASIZE PUSH1 0x3 NOT ADD SLT PUSH2 0x250 JUMPI PUSH2 0x63A PUSH2 0x14E6 JUMP JUMPDEST CALLDATALOAD PUSH1 0xE SSTORE DUP1 RETURN JUMPDEST DUP4 SWAP1 CALLVALUE PUSH2 0x250 JUMPI DUP2 PUSH1 0x3 NOT CALLDATASIZE ADD SLT PUSH2 0x250 JUMPI PUSH1 0x7 SLOAD SWAP1 MLOAD PUSH1 0x1 PUSH1 0x1 PUSH1 0xA0 SHL SUB SWAP1 SWAP2 AND DUP2 MSTORE PUSH1 0x20 SWAP1 RETURN JUMPDEST DUP4 SWAP1 CALLVALUE PUSH2 0x250 JUMPI DUP2 PUSH1 0x3 NOT CALLDATASIZE ADD SLT PUSH2 0x250 JUMPI PUSH1 0x20 SWAP1 PUSH1 0xFF PUSH1 0xC SLOAD PUSH1 0xA0 SHR AND SWAP1 MLOAD SWAP1 DUP2 MSTORE RETURN JUMPDEST DUP4 SWAP1 CALLVALUE PUSH2 0x250 JUMPI DUP1 PUSH1 0x3 NOT CALLDATASIZE ADD SLT PUSH2 0x250 JUMPI PUSH1 0x20 SWAP1 PUSH2 0x6B9 PUSH2 0x6AF PUSH2 0x102E JUMP JUMPDEST PUSH1 0x24 CALLDATALOAD SWAP1 CALLER PUSH2 0x169D JUMP JUMPDEST MLOAD PUSH1 0x1 DUP2 MSTORE RETURN JUMPDEST POP POP CALLVALUE PUSH2 0x250 JUMPI PUSH1 0x20 CALLDATASIZE PUSH1 0x3 NOT ADD SLT PUSH2 0x250 JUMPI CALLDATALOAD PUSH1 0xFF DUP2 AND DUP2 SUB PUSH2 0x250 JUMPI PUSH2 0x6E6 PUSH2 0x14E6 JUMP JUMPDEST PUSH1 0xC DUP1 SLOAD PUSH1 0xFF PUSH1 0xA0 SHL NOT AND PUSH1 0xA0 SWAP3 SWAP1 SWAP3 SHL PUSH1 0xFF PUSH1 0xA0 SHL AND SWAP2 SWAP1 SWAP2 OR SWAP1 SSTORE DUP1 RETURN JUMPDEST DUP3 DUP5 CALLVALUE PUSH2 0x294 JUMPI DUP3 PUSH1 0x3 NOT CALLDATASIZE ADD SLT PUSH2 0x294 JUMPI PUSH2 0x720 PUSH2 0x102E JUMP JUMPDEST SWAP2 DUP4 PUSH1 0x24 CALLDATALOAD SWAP3 CALLER DUP2 MSTORE PUSH1 0x3 PUSH1 0x20 MSTORE DUP2 DUP2 KECCAK256 PUSH1 0x1 DUP1 PUSH1 0xA0 SHL SUB DUP7 AND DUP3 MSTORE PUSH1 0x20 MSTORE KECCAK256 SLOAD SWAP1 DUP3 DUP3 LT PUSH2 0x759 JUMPI PUSH1 0x20 DUP6 PUSH2 0x6B9 DUP6 DUP6 SUB DUP8 CALLER PUSH2 0x1561 JUMP JUMPDEST PUSH1 0x84 SWAP1 PUSH1 0x20 DUP7 MLOAD SWAP2 PUSH3 0x461BCD PUSH1 0xE5 SHL DUP4 MSTORE DUP3 ADD MSTORE PUSH1 0x25 PUSH1 0x24 DUP3 ADD MSTORE PUSH32 0x45524332303A2064656372656173656420616C6C6F77616E63652062656C6F77 PUSH1 0x44 DUP3 ADD MSTORE PUSH5 0x207A65726F PUSH1 0xD8 SHL PUSH1 0x64 DUP3 ADD MSTORE REVERT JUMPDEST DUP4 SWAP1 CALLVALUE PUSH2 0x250 JUMPI DUP2 PUSH1 0x3 NOT CALLDATASIZE ADD SLT PUSH2 0x250 JUMPI MLOAD SWAP1 DUP2 MSTORE PUSH1 0x20 SWAP1 RETURN JUMPDEST SWAP1 POP CALLVALUE PUSH2 0x439 JUMPI DUP3 PUSH1 0x3 NOT CALLDATASIZE ADD SLT PUSH2 0x439 JUMPI DUP1 MLOAD SWAP2 DUP4 PUSH1 0x6 SLOAD SWAP1 PUSH1 0x1 SWAP1 DUP3 DUP3 SHR SWAP3 DUP3 DUP2 AND DUP1 ISZERO PUSH2 0x8BD JUMPI JUMPDEST PUSH1 0x20 SWAP6 DUP7 DUP7 LT DUP3 EQ PUSH2 0x8AA JUMPI POP DUP5 DUP9 MSTORE SWAP1 DUP2 ISZERO PUSH2 0x888 JUMPI POP PUSH1 0x1 EQ PUSH2 0x82F JUMPI JUMPDEST PUSH2 0x82B DUP7 DUP7 PUSH2 0x821 DUP3 DUP12 SUB DUP4 PUSH2 0x13D4 JUMP JUMPDEST MLOAD SWAP2 DUP3 SWAP2 DUP3 PUSH2 0x1002 JUMP JUMPDEST SUB SWAP1 RETURN JUMPDEST SWAP3 SWAP6 POP PUSH1 0x6 DUP4 MSTORE PUSH32 0xF652222313E28459528D920B65115C16C04F3EFC82AAEDC97BE59F3F377C0D3F JUMPDEST DUP3 DUP5 LT PUSH2 0x875 JUMPI POP POP POP DUP3 PUSH2 0x82B SWAP5 PUSH2 0x821 SWAP3 DUP3 ADD ADD SWAP5 CODESIZE PUSH2 0x810 JUMP JUMPDEST DUP1 SLOAD DUP7 DUP6 ADD DUP9 ADD MSTORE SWAP3 DUP7 ADD SWAP3 DUP2 ADD PUSH2 0x858 JUMP JUMPDEST PUSH1 0xFF NOT AND DUP8 DUP7 ADD MSTORE POP POP POP ISZERO ISZERO PUSH1 0x5 SHL DUP4 ADD ADD SWAP3 POP PUSH2 0x821 DUP3 PUSH2 0x82B CODESIZE PUSH2 0x810 JUMP JUMPDEST PUSH4 0x4E487B71 PUSH1 0xE0 SHL DUP5 MSTORE PUSH1 0x22 SWAP1 MSTORE PUSH1 0x24 DUP4 REVERT JUMPDEST SWAP4 PUSH1 0x7F AND SWAP4 PUSH2 0x7F0 JUMP JUMPDEST SWAP2 SWAP1 POP CALLVALUE PUSH2 0x439 JUMPI DUP2 PUSH1 0x3 NOT CALLDATASIZE ADD SLT PUSH2 0x439 JUMPI DUP2 PUSH1 0x20 SWAP4 PUSH1 0xFF SWAP3 PUSH2 0x8E9 PUSH2 0x1049 JUMP JUMPDEST SWAP1 CALLDATALOAD DUP3 MSTORE PUSH1 0x1 DUP7 MSTORE DUP3 DUP3 KECCAK256 PUSH1 0x1 PUSH1 0x1 PUSH1 0xA0 SHL SUB SWAP1 SWAP2 AND DUP3 MSTORE DUP6 MSTORE KECCAK256 SLOAD SWAP2 MLOAD SWAP2 AND ISZERO ISZERO DUP2 MSTORE RETURN JUMPDEST DUP4 DUP4 CALLVALUE PUSH2 0x250 JUMPI PUSH1 0x20 CALLDATASIZE PUSH1 0x3 NOT ADD SLT PUSH2 0x250 JUMPI PUSH2 0x92A PUSH2 0x102E JUMP JUMPDEST SWAP1 PUSH2 0x933 PUSH2 0x14E6 JUMP JUMPDEST PUSH1 0x8 SLOAD SWAP1 PUSH2 0x964 DUP4 DUP4 PUSH1 0x0 MSTORE PUSH1 0x1 PUSH1 0x20 MSTORE PUSH1 0x40 PUSH1 0x0 KECCAK256 SWAP1 PUSH1 0x1 DUP1 PUSH1 0xA0 SHL SUB AND PUSH1 0x0 MSTORE PUSH1 0x20 MSTORE PUSH1 0xFF PUSH1 0x40 PUSH1 0x0 KECCAK256 SLOAD AND SWAP1 JUMP JUMPDEST PUSH2 0x973 JUMPI POP SWAP1 PUSH2 0x33C SWAP2 PUSH2 0x13F6 JUMP JUMPDEST PUSH1 0x64 SWAP1 PUSH1 0x20 DUP7 MLOAD SWAP2 PUSH3 0x461BCD PUSH1 0xE5 SHL DUP4 MSTORE DUP3 ADD MSTORE PUSH1 0x20 PUSH1 0x24 DUP3 ADD MSTORE PUSH32 0x616C72656164795F6578636C756465645F66726F6D5F706179696E675F746178 PUSH1 0x44 DUP3 ADD MSTORE REVERT JUMPDEST DUP4 SWAP1 CALLVALUE PUSH2 0x250 JUMPI DUP2 PUSH1 0x3 NOT CALLDATASIZE ADD SLT PUSH2 0x250 JUMPI SWAP1 SLOAD SWAP1 MLOAD PUSH1 0x1 PUSH1 0x1 PUSH1 0xA0 SHL SUB SWAP1 SWAP2 AND DUP2 MSTORE PUSH1 0x20 SWAP1 RETURN JUMPDEST DUP4 CALLVALUE PUSH2 0x294 JUMPI DUP1 PUSH1 0x3 NOT CALLDATASIZE ADD SLT PUSH2 0x294 JUMPI PUSH2 0x9F7 PUSH2 0x14E6 JUMP JUMPDEST PUSH1 0xF SLOAD PUSH1 0xFF DUP1 DUP3 AND ISZERO AND SWAP1 PUSH1 0xFF NOT AND OR PUSH1 0xF SSTORE DUP1 RETURN JUMPDEST DUP4 CALLVALUE PUSH2 0x294 JUMPI DUP1 PUSH1 0x3 NOT CALLDATASIZE ADD SLT PUSH2 0x294 JUMPI PUSH2 0xA26 PUSH2 0x14E6 JUMP JUMPDEST DUP1 SLOAD PUSH1 0x1 PUSH1 0x1 PUSH1 0xA0 SHL SUB NOT DUP2 AND DUP3 SSTORE DUP2 SWAP1 PUSH1 0x1 PUSH1 0x1 PUSH1 0xA0 SHL SUB AND PUSH32 0x8BE0079C531659141344CD1FD0A4F28419497F9722A3DAAFE3B4186F6B6457E0 DUP3 DUP1 LOG3 DUP1 RETURN JUMPDEST DUP4 SWAP1 CALLVALUE PUSH2 0x250 JUMPI PUSH1 0x20 CALLDATASIZE PUSH1 0x3 NOT ADD SLT PUSH2 0x250 JUMPI PUSH1 0x20 SWAP2 DUP2 SWAP1 PUSH1 0x1 PUSH1 0x1 PUSH1 0xA0 SHL SUB PUSH2 0xA8F PUSH2 0x102E JUMP JUMPDEST AND DUP2 MSTORE PUSH1 0x2 DUP5 MSTORE KECCAK256 SLOAD SWAP1 MLOAD SWAP1 DUP2 MSTORE RETURN JUMPDEST DUP4 SWAP1 CALLVALUE PUSH2 0x250 JUMPI DUP2 PUSH1 0x3 NOT CALLDATASIZE ADD SLT PUSH2 0x250 JUMPI PUSH1 0x20 SWAP1 PUSH1 0xD SLOAD SWAP1 MLOAD SWAP1 DUP2 MSTORE RETURN JUMPDEST DUP4 SWAP1 CALLVALUE PUSH2 0x250 JUMPI DUP2 PUSH1 0x3 NOT CALLDATASIZE ADD SLT PUSH2 0x250 JUMPI PUSH1 0x20 SWAP1 PUSH1 0xE SLOAD SWAP1 MLOAD SWAP1 DUP2 MSTORE RETURN JUMPDEST DUP4 SWAP1 CALLVALUE PUSH2 0x250 JUMPI DUP2 PUSH1 0x3 NOT CALLDATASIZE ADD SLT PUSH2 0x250 JUMPI PUSH1 0x20 SWAP1 PUSH1 0xFF PUSH1 0xC SLOAD PUSH1 0xA8 SHR AND SWAP1 MLOAD SWAP1 DUP2 MSTORE RETURN JUMPDEST POP POP CALLVALUE PUSH2 0x250 JUMPI PUSH1 0x20 CALLDATASIZE PUSH1 0x3 NOT ADD SLT PUSH2 0x250 JUMPI PUSH2 0xB1D PUSH2 0x14E6 JUMP JUMPDEST CALLDATALOAD PUSH1 0xD SSTORE DUP1 RETURN JUMPDEST DUP4 SWAP1 CALLVALUE PUSH2 0x250 JUMPI DUP2 PUSH1 0x3 NOT CALLDATASIZE ADD SLT PUSH2 0x250 JUMPI PUSH1 0x20 SWAP1 PUSH1 0xFF PUSH1 0xF SLOAD AND SWAP1 MLOAD SWAP1 ISZERO ISZERO DUP2 MSTORE RETURN JUMPDEST DUP4 SWAP1 CALLVALUE PUSH2 0x250 JUMPI DUP2 PUSH1 0x3 NOT CALLDATASIZE ADD SLT PUSH2 0x250 JUMPI PUSH1 0x20 SWAP1 PUSH1 0x8 SLOAD SWAP1 MLOAD SWAP1 DUP2 MSTORE RETURN JUMPDEST DUP4 SWAP1 CALLVALUE PUSH2 0x250 JUMPI DUP1 PUSH1 0x3 NOT CALLDATASIZE ADD SLT PUSH2 0x250 JUMPI PUSH2 0x6B9 PUSH1 0x20 SWAP3 PUSH2 0xBB0 PUSH2 0xB8A PUSH2 0x102E JUMP JUMPDEST CALLER DUP4 MSTORE PUSH1 0x3 DUP7 MSTORE DUP5 DUP4 KECCAK256 PUSH1 0x1 PUSH1 0x1 PUSH1 0xA0 SHL SUB DUP3 AND DUP5 MSTORE DUP7 MSTORE SWAP2 DUP5 SWAP1 KECCAK256 SLOAD PUSH1 0x24 CALLDATALOAD SWAP1 PUSH2 0x153E JUMP JUMPDEST SWAP1 CALLER PUSH2 0x1561 JUMP JUMPDEST DUP4 CALLVALUE PUSH2 0x294 JUMPI PUSH1 0x20 CALLDATASIZE PUSH1 0x3 NOT ADD SLT PUSH2 0x294 JUMPI PUSH2 0xBD1 PUSH2 0x102E JUMP JUMPDEST PUSH2 0xBD9 PUSH2 0x14E6 JUMP JUMPDEST PUSH1 0x1 DUP1 PUSH1 0xA0 SHL SUB AND PUSH1 0x1 PUSH1 0x1 PUSH1 0x60 SHL SUB PUSH1 0xA0 SHL PUSH1 0xC SLOAD AND OR PUSH1 0xC SSTORE DUP1 RETURN JUMPDEST DUP4 DUP4 CALLVALUE PUSH2 0x250 JUMPI DUP3 PUSH1 0x3 NOT CALLDATASIZE ADD SLT PUSH2 0x250 JUMPI PUSH2 0xC11 PUSH2 0x1049 JUMP JUMPDEST SWAP1 CALLER PUSH1 0x1 PUSH1 0x1 PUSH1 0xA0 SHL SUB DUP4 AND SUB PUSH2 0xC2D JUMPI SWAP1 PUSH2 0x33C SWAP2 CALLDATALOAD PUSH2 0x1470 JUMP JUMPDEST PUSH1 0x84 SWAP1 PUSH1 0x20 DUP6 MLOAD SWAP2 PUSH3 0x461BCD PUSH1 0xE5 SHL DUP4 MSTORE DUP3 ADD MSTORE PUSH1 0x2F PUSH1 0x24 DUP3 ADD MSTORE PUSH32 0x416363657373436F6E74726F6C3A2063616E206F6E6C792072656E6F756E6365 PUSH1 0x44 DUP3 ADD MSTORE PUSH15 0x103937B632B9903337B91039B2B633 PUSH1 0x89 SHL PUSH1 0x64 DUP3 ADD MSTORE REVERT JUMPDEST DUP4 SWAP1 CALLVALUE PUSH2 0x250 JUMPI DUP2 PUSH1 0x3 NOT CALLDATASIZE ADD SLT PUSH2 0x250 JUMPI PUSH1 0x20 SWAP1 PUSH1 0x9 SLOAD SWAP1 MLOAD SWAP1 DUP2 MSTORE RETURN JUMPDEST DUP4 SWAP1 CALLVALUE PUSH2 0x250 JUMPI DUP2 PUSH1 0x3 NOT CALLDATASIZE ADD SLT PUSH2 0x250 JUMPI PUSH1 0x20 SWAP1 MLOAD PUSH1 0x12 DUP2 MSTORE RETURN JUMPDEST SWAP1 POP CALLVALUE PUSH2 0x439 JUMPI DUP1 PUSH1 0x3 NOT CALLDATASIZE ADD SLT PUSH2 0x439 JUMPI PUSH2 0x33C SWAP2 CALLDATALOAD PUSH2 0xCE7 PUSH1 0x1 PUSH2 0x609 PUSH2 0x1049 JUMP JUMPDEST PUSH2 0x13F6 JUMP JUMPDEST SWAP2 SWAP1 POP CALLVALUE PUSH2 0x439 JUMPI PUSH1 0x20 CALLDATASIZE PUSH1 0x3 NOT ADD SLT PUSH2 0x439 JUMPI DUP2 PUSH1 0x20 SWAP4 PUSH1 0x1 SWAP3 CALLDATALOAD DUP2 MSTORE DUP3 DUP6 MSTORE KECCAK256 ADD SLOAD SWAP1 MLOAD SWAP1 DUP2 MSTORE RETURN JUMPDEST DUP3 DUP5 CALLVALUE PUSH2 0x294 JUMPI DUP3 PUSH2 0xD28 CALLDATASIZE PUSH2 0x105F JUMP JUMPDEST PUSH1 0x1 PUSH1 0x1 PUSH1 0xA0 SHL SUB DUP4 AND DUP6 MSTORE PUSH1 0x3 PUSH1 0x20 SWAP1 DUP2 MSTORE DUP5 DUP7 KECCAK256 CALLER DUP8 MSTORE SWAP1 MSTORE SWAP3 SWAP1 SWAP4 KECCAK256 SLOAD SWAP2 SWAP4 SWAP1 SWAP2 SWAP1 PUSH1 0x1 DUP3 ADD PUSH2 0xD64 JUMPI JUMPDEST PUSH1 0x20 DUP7 PUSH2 0x6B9 DUP8 DUP8 DUP8 PUSH2 0x169D JUMP JUMPDEST DUP5 DUP3 LT PUSH2 0xD8D JUMPI POP SWAP2 DUP4 SWAP2 PUSH2 0xD82 PUSH1 0x20 SWAP7 SWAP6 PUSH2 0x6B9 SWAP6 SUB CALLER DUP4 PUSH2 0x1561 JUMP JUMPDEST SWAP2 SWAP4 SWAP5 DUP2 SWAP4 POP PUSH2 0xD56 JUMP JUMPDEST PUSH1 0x64 SWAP1 PUSH1 0x20 DUP8 MLOAD SWAP2 PUSH3 0x461BCD PUSH1 0xE5 SHL DUP4 MSTORE DUP3 ADD MSTORE PUSH1 0x1D PUSH1 0x24 DUP3 ADD MSTORE PUSH32 0x45524332303A20696E73756666696369656E7420616C6C6F77616E6365000000 PUSH1 0x44 DUP3 ADD MSTORE REVERT JUMPDEST DUP4 SWAP1 CALLVALUE PUSH2 0x250 JUMPI DUP2 PUSH1 0x3 NOT CALLDATASIZE ADD SLT PUSH2 0x250 JUMPI PUSH1 0x20 SWAP1 PUSH1 0xFF PUSH1 0xF SLOAD PUSH1 0x8 SHR AND SWAP1 MLOAD SWAP1 ISZERO ISZERO DUP2 MSTORE RETURN JUMPDEST SWAP2 SWAP1 POP CALLVALUE PUSH2 0x439 JUMPI DUP3 PUSH1 0x3 NOT CALLDATASIZE ADD SLT PUSH2 0x439 JUMPI PUSH1 0x20 SWAP3 POP SLOAD SWAP1 MLOAD SWAP1 DUP2 MSTORE RETURN JUMPDEST DUP4 SWAP1 CALLVALUE PUSH2 0x250 JUMPI DUP1 PUSH1 0x3 NOT CALLDATASIZE ADD SLT PUSH2 0x250 JUMPI PUSH1 0x20 SWAP1 PUSH2 0x6B9 PUSH2 0xE36 PUSH2 0x102E JUMP JUMPDEST PUSH1 0x24 CALLDATALOAD SWAP1 CALLER PUSH2 0x1561 JUMP JUMPDEST DUP4 CALLVALUE PUSH2 0x294 JUMPI PUSH1 0x20 CALLDATASIZE PUSH1 0x3 NOT ADD SLT PUSH2 0x294 JUMPI PUSH2 0x33C PUSH2 0xE5D PUSH2 0x102E JUMP JUMPDEST PUSH2 0xE65 PUSH2 0x14E6 JUMP JUMPDEST PUSH1 0x8 SLOAD PUSH1 0x7 SLOAD PUSH1 0x1 PUSH1 0x1 PUSH1 0xA0 SHL SUB SWAP2 PUSH2 0xE80 SWAP2 DUP4 AND SWAP1 PUSH2 0x1470 JUMP JUMPDEST DUP2 AND PUSH1 0x1 PUSH1 0x1 PUSH1 0x60 SHL SUB PUSH1 0xA0 SHL PUSH1 0x7 SLOAD AND OR PUSH1 0x7 SSTORE PUSH1 0x8 SLOAD PUSH2 0x13F6 JUMP JUMPDEST DUP4 CALLVALUE PUSH2 0x294 JUMPI PUSH1 0x20 CALLDATASIZE PUSH1 0x3 NOT ADD SLT PUSH2 0x294 JUMPI PUSH2 0xEC9 PUSH2 0xEBA PUSH2 0x102E JUMP JUMPDEST PUSH2 0xEC2 PUSH2 0x14E6 JUMP JUMPDEST SELFBALANCE SWAP1 PUSH2 0x25F7 JUMP JUMPDEST POP DUP1 RETURN JUMPDEST SWAP1 POP CALLVALUE PUSH2 0x439 JUMPI DUP3 PUSH1 0x3 NOT CALLDATASIZE ADD SLT PUSH2 0x439 JUMPI DUP1 MLOAD SWAP2 DUP4 PUSH1 0x5 SLOAD SWAP1 PUSH1 0x1 SWAP1 DUP3 DUP3 SHR SWAP3 DUP3 DUP2 AND DUP1 ISZERO PUSH2 0xF81 JUMPI JUMPDEST PUSH1 0x20 SWAP6 DUP7 DUP7 LT DUP3 EQ PUSH2 0x8AA JUMPI POP DUP5 DUP9 MSTORE SWAP1 DUP2 ISZERO PUSH2 0x888 JUMPI POP PUSH1 0x1 EQ PUSH2 0xF28 JUMPI PUSH2 0x82B DUP7 DUP7 PUSH2 0x821 DUP3 DUP12 SUB DUP4 PUSH2 0x13D4 JUMP JUMPDEST SWAP3 SWAP6 POP PUSH1 0x5 DUP4 MSTORE PUSH32 0x36B6384B5ECA791C62761152D0C79BB0604C104A5FB6F4EB0703F3154BB3DB0 JUMPDEST DUP3 DUP5 LT PUSH2 0xF6E JUMPI POP POP POP DUP3 PUSH2 0x82B SWAP5 PUSH2 0x821 SWAP3 DUP3 ADD ADD SWAP5 CODESIZE PUSH2 0x810 JUMP JUMPDEST DUP1 SLOAD DUP7 DUP6 ADD DUP9 ADD MSTORE SWAP3 DUP7 ADD SWAP3 DUP2 ADD PUSH2 0xF51 JUMP JUMPDEST SWAP4 PUSH1 0x7F AND SWAP4 PUSH2 0xEF8 JUMP JUMPDEST DUP5 SWAP1 DUP5 CALLVALUE PUSH2 0x439 JUMPI PUSH1 0x20 CALLDATASIZE PUSH1 0x3 NOT ADD SLT PUSH2 0x439 JUMPI CALLDATALOAD PUSH4 0xFFFFFFFF PUSH1 0xE0 SHL DUP2 AND DUP1 SWAP2 SUB PUSH2 0x439 JUMPI PUSH1 0x20 SWAP3 POP PUSH4 0x7965DB0B PUSH1 0xE0 SHL DUP2 EQ SWAP1 DUP2 ISZERO PUSH2 0xFCE JUMPI JUMPDEST POP ISZERO ISZERO DUP2 MSTORE RETURN JUMPDEST PUSH4 0x1FFC9A7 PUSH1 0xE0 SHL EQ SWAP1 POP DUP4 PUSH2 0xFC7 JUMP JUMPDEST PUSH1 0x0 JUMPDEST DUP4 DUP2 LT PUSH2 0xFF2 JUMPI POP POP PUSH1 0x0 SWAP2 ADD MSTORE JUMP JUMPDEST DUP2 DUP2 ADD MLOAD DUP4 DUP3 ADD MSTORE PUSH1 0x20 ADD PUSH2 0xFE2 JUMP JUMPDEST PUSH1 0x40 SWAP2 PUSH1 0x20 DUP3 MSTORE PUSH2 0x1022 DUP2 MLOAD DUP1 SWAP3 DUP2 PUSH1 0x20 DUP7 ADD MSTORE PUSH1 0x20 DUP7 DUP7 ADD SWAP2 ADD PUSH2 0xFDF JUMP JUMPDEST PUSH1 0x1F ADD PUSH1 0x1F NOT AND ADD ADD SWAP1 JUMP JUMPDEST PUSH1 0x4 CALLDATALOAD SWAP1 PUSH1 0x1 PUSH1 0x1 PUSH1 0xA0 SHL SUB DUP3 AND DUP3 SUB PUSH2 0x1044 JUMPI JUMP JUMPDEST PUSH1 0x0 DUP1 REVERT JUMPDEST PUSH1 0x24 CALLDATALOAD SWAP1 PUSH1 0x1 PUSH1 0x1 PUSH1 0xA0 SHL SUB DUP3 AND DUP3 SUB PUSH2 0x1044 JUMPI JUMP JUMPDEST PUSH1 0x60 SWAP1 PUSH1 0x3 NOT ADD SLT PUSH2 0x1044 JUMPI PUSH1 0x1 PUSH1 0x1 PUSH1 0xA0 SHL SUB SWAP1 PUSH1 0x4 CALLDATALOAD DUP3 DUP2 AND DUP2 SUB PUSH2 0x1044 JUMPI SWAP2 PUSH1 0x24 CALLDATALOAD SWAP1 DUP2 AND DUP2 SUB PUSH2 0x1044 JUMPI SWAP1 PUSH1 0x44 CALLDATALOAD SWAP1 JUMP JUMPDEST PUSH1 0x0 DUP2 DUP2 MSTORE PUSH1 0x1 SWAP1 PUSH1 0x20 SWAP2 DUP1 DUP4 MSTORE PUSH1 0x40 SWAP4 DUP5 DUP4 KECCAK256 CALLER DUP5 MSTORE DUP5 MSTORE PUSH1 0xFF DUP6 DUP5 KECCAK256 SLOAD AND ISZERO PUSH2 0x10C0 JUMPI POP POP POP POP POP JUMP JUMPDEST DUP5 MLOAD CALLER SWAP2 PUSH2 0x10CD DUP3 PUSH2 0x13B8 JUMP JUMPDEST PUSH1 0x2A DUP3 MSTORE DUP6 DUP3 ADD SWAP3 DUP8 CALLDATASIZE DUP6 CALLDATACOPY DUP3 MLOAD ISZERO PUSH2 0x137A JUMPI PUSH1 0x30 DUP5 MSTORE8 DUP3 MLOAD DUP6 LT ISZERO PUSH2 0x137A JUMPI PUSH1 0x78 PUSH1 0x21 DUP5 ADD MSTORE8 PUSH1 0x29 JUMPDEST DUP6 DUP2 GT PUSH2 0x1310 JUMPI POP PUSH2 0x12CE JUMPI DUP7 MLOAD SWAP4 PUSH1 0x80 DUP6 ADD DUP6 DUP2 LT PUSH8 0xFFFFFFFFFFFFFFFF DUP3 GT OR PUSH2 0x12BA JUMPI DUP9 MSTORE PUSH1 0x42 DUP6 MSTORE DUP7 DUP6 ADD SWAP6 PUSH1 0x60 CALLDATASIZE DUP9 CALLDATACOPY DUP6 MLOAD ISZERO PUSH2 0x12A6 JUMPI PUSH1 0x30 DUP8 MSTORE8 DUP6 MLOAD DUP3 LT ISZERO PUSH2 0x12A6 JUMPI SWAP1 PUSH1 0x78 PUSH1 0x21 DUP8 ADD MSTORE8 PUSH1 0x41 SWAP2 JUMPDEST DUP2 DUP4 GT PUSH2 0x1238 JUMPI POP POP POP PUSH2 0x11F6 JUMPI SWAP4 DUP6 SWAP4 PUSH2 0x11DC SWAP4 PUSH2 0x11CD PUSH1 0x48 SWAP5 PUSH2 0x11A4 PUSH32 0x416363657373436F6E74726F6C3A206163636F756E7420000000000000000000 SWAP10 PUSH2 0x11F2 SWAP12 MLOAD SWAP11 DUP12 SWAP8 DUP9 ADD MSTORE MLOAD DUP1 SWAP3 PUSH1 0x37 DUP9 ADD SWAP1 PUSH2 0xFDF JUMP JUMPDEST DUP5 ADD SWAP2 PUSH17 0x1034B99036B4B9B9B4B733903937B6329 PUSH1 0x7D SHL PUSH1 0x37 DUP5 ADD MSTORE MLOAD DUP1 SWAP4 DUP7 DUP5 ADD SWAP1 PUSH2 0xFDF JUMP JUMPDEST ADD SUB PUSH1 0x28 DUP2 ADD DUP6 MSTORE ADD DUP4 PUSH2 0x13D4 JUMP JUMPDEST MLOAD PUSH3 0x461BCD PUSH1 0xE5 SHL DUP2 MSTORE SWAP2 DUP3 SWAP2 PUSH1 0x4 DUP4 ADD PUSH2 0x1002 JUMP JUMPDEST SUB SWAP1 REVERT JUMPDEST PUSH1 0x64 DUP6 DUP8 MLOAD SWAP1 PUSH3 0x461BCD PUSH1 0xE5 SHL DUP3 MSTORE DUP1 PUSH1 0x4 DUP4 ADD MSTORE PUSH1 0x24 DUP3 ADD MSTORE PUSH32 0x537472696E67733A20686578206C656E67746820696E73756666696369656E74 PUSH1 0x44 DUP3 ADD MSTORE REVERT JUMPDEST SWAP1 SWAP2 SWAP3 PUSH1 0xF DUP2 AND PUSH1 0x10 DUP2 LT ISZERO PUSH2 0x1292 JUMPI PUSH16 0x181899199A1A9B1B9C1CB0B131B232B3 PUSH1 0x81 SHL SWAP1 BYTE PUSH2 0x1268 DUP6 DUP10 PUSH2 0x1676 JUMP JUMPDEST MSTORE8 PUSH1 0x4 SHR SWAP3 DUP1 ISZERO PUSH2 0x127E JUMPI PUSH1 0x0 NOT ADD SWAP2 SWAP1 PUSH2 0x114C JUMP JUMPDEST PUSH4 0x4E487B71 PUSH1 0xE0 SHL DUP3 MSTORE PUSH1 0x11 PUSH1 0x4 MSTORE PUSH1 0x24 DUP3 REVERT JUMPDEST PUSH4 0x4E487B71 PUSH1 0xE0 SHL DUP4 MSTORE PUSH1 0x32 PUSH1 0x4 MSTORE PUSH1 0x24 DUP4 REVERT JUMPDEST PUSH4 0x4E487B71 PUSH1 0xE0 SHL DUP2 MSTORE PUSH1 0x32 PUSH1 0x4 MSTORE PUSH1 0x24 SWAP1 REVERT JUMPDEST PUSH4 0x4E487B71 PUSH1 0xE0 SHL DUP8 MSTORE PUSH1 0x41 PUSH1 0x4 MSTORE PUSH1 0x24 DUP8 REVERT JUMPDEST PUSH1 0x64 DUP7 DUP9 MLOAD SWAP1 PUSH3 0x461BCD PUSH1 0xE5 SHL DUP3 MSTORE DUP1 PUSH1 0x4 DUP4 ADD MSTORE PUSH1 0x24 DUP3 ADD MSTORE PUSH32 0x537472696E67733A20686578206C656E67746820696E73756666696369656E74 PUSH1 0x44 DUP3 ADD MSTORE REVERT JUMPDEST SWAP1 PUSH1 0xF DUP2 AND PUSH1 0x10 DUP2 LT ISZERO PUSH2 0x1366 JUMPI PUSH16 0x181899199A1A9B1B9C1CB0B131B232B3 PUSH1 0x81 SHL SWAP1 BYTE PUSH2 0x133E DUP4 DUP7 PUSH2 0x1676 JUMP JUMPDEST MSTORE8 PUSH1 0x4 SHR SWAP1 DUP1 ISZERO PUSH2 0x1352 JUMPI PUSH1 0x0 NOT ADD PUSH2 0x10F7 JUMP JUMPDEST PUSH4 0x4E487B71 PUSH1 0xE0 SHL DUP8 MSTORE PUSH1 0x11 PUSH1 0x4 MSTORE PUSH1 0x24 DUP8 REVERT JUMPDEST PUSH4 0x4E487B71 PUSH1 0xE0 SHL DUP9 MSTORE PUSH1 0x32 PUSH1 0x4 MSTORE PUSH1 0x24 DUP9 REVERT JUMPDEST PUSH4 0x4E487B71 PUSH1 0xE0 SHL DUP7 MSTORE PUSH1 0x32 PUSH1 0x4 MSTORE PUSH1 0x24 DUP7 REVERT JUMPDEST PUSH8 0xFFFFFFFFFFFFFFFF DUP2 GT PUSH2 0x13A2 JUMPI PUSH1 0x40 MSTORE JUMP JUMPDEST PUSH4 0x4E487B71 PUSH1 0xE0 SHL PUSH1 0x0 MSTORE PUSH1 0x41 PUSH1 0x4 MSTORE PUSH1 0x24 PUSH1 0x0 REVERT JUMPDEST PUSH1 0x60 DUP2 ADD SWAP1 DUP2 LT PUSH8 0xFFFFFFFFFFFFFFFF DUP3 GT OR PUSH2 0x13A2 JUMPI PUSH1 0x40 MSTORE JUMP JUMPDEST SWAP1 PUSH1 0x1F DUP1 NOT SWAP2 ADD AND DUP2 ADD SWAP1 DUP2 LT PUSH8 0xFFFFFFFFFFFFFFFF DUP3 GT OR PUSH2 0x13A2 JUMPI PUSH1 0x40 MSTORE JUMP JUMPDEST SWAP1 PUSH1 0x0 SWAP2 DUP1 DUP4 MSTORE PUSH1 0x1 PUSH1 0x20 MSTORE PUSH1 0x40 DUP4 KECCAK256 SWAP2 PUSH1 0x1 DUP1 PUSH1 0xA0 SHL SUB AND SWAP2 DUP3 DUP5 MSTORE PUSH1 0x20 MSTORE PUSH1 0xFF PUSH1 0x40 DUP5 KECCAK256 SLOAD AND ISZERO PUSH2 0x1428 JUMPI POP POP POP JUMP JUMPDEST DUP1 DUP4 MSTORE PUSH1 0x1 PUSH1 0x20 MSTORE PUSH1 0x40 DUP4 KECCAK256 DUP3 DUP5 MSTORE PUSH1 0x20 MSTORE PUSH1 0x40 DUP4 KECCAK256 PUSH1 0x1 PUSH1 0xFF NOT DUP3 SLOAD AND OR SWAP1 SSTORE PUSH32 0x2F8788117E7EFF1D82E926EC794901D17C78024A50270940304540A733656F0D CALLER SWAP4 DUP1 LOG4 JUMP JUMPDEST SWAP1 PUSH1 0x0 SWAP2 DUP1 DUP4 MSTORE PUSH1 0x1 PUSH1 0x20 MSTORE PUSH1 0x40 DUP4 KECCAK256 SWAP2 PUSH1 0x1 DUP1 PUSH1 0xA0 SHL SUB AND SWAP2 DUP3 DUP5 MSTORE PUSH1 0x20 MSTORE PUSH1 0xFF PUSH1 0x40 DUP5 KECCAK256 SLOAD AND PUSH2 0x14A1 JUMPI POP POP POP JUMP JUMPDEST DUP1 DUP4 MSTORE PUSH1 0x1 PUSH1 0x20 MSTORE PUSH1 0x40 DUP4 KECCAK256 DUP3 DUP5 MSTORE PUSH1 0x20 MSTORE PUSH1 0x40 DUP4 KECCAK256 PUSH1 0xFF NOT DUP2 SLOAD AND SWAP1 SSTORE PUSH32 0xF6391F5C32D9C69D2A47EA670B442974B53935D1EDC7FD64EB21E047A839171B CALLER SWAP4 DUP1 LOG4 JUMP JUMPDEST PUSH1 0x0 SLOAD PUSH1 0x1 PUSH1 0x1 PUSH1 0xA0 SHL SUB AND CALLER SUB PUSH2 0x14FA JUMPI JUMP JUMPDEST PUSH1 0x64 PUSH1 0x40 MLOAD PUSH3 0x461BCD PUSH1 0xE5 SHL DUP2 MSTORE PUSH1 0x20 PUSH1 0x4 DUP3 ADD MSTORE PUSH1 0x20 PUSH1 0x24 DUP3 ADD MSTORE PUSH32 0x4F776E61626C653A2063616C6C6572206973206E6F7420746865206F776E6572 PUSH1 0x44 DUP3 ADD MSTORE REVERT JUMPDEST SWAP2 SWAP1 DUP3 ADD DUP1 SWAP3 GT PUSH2 0x154B JUMPI JUMP JUMPDEST PUSH4 0x4E487B71 PUSH1 0xE0 SHL PUSH1 0x0 MSTORE PUSH1 0x11 PUSH1 0x4 MSTORE PUSH1 0x24 PUSH1 0x0 REVERT JUMPDEST PUSH1 0x1 PUSH1 0x1 PUSH1 0xA0 SHL SUB SWAP1 DUP2 AND SWAP2 DUP3 ISZERO PUSH2 0x1612 JUMPI AND SWAP2 DUP3 ISZERO PUSH2 0x15C2 JUMPI PUSH1 0x20 PUSH32 0x8C5BE1E5EBEC7D5BD14F71427D1E84F3DD0314C0F7B2291E5B200AC8C7C3B925 SWAP2 DUP4 PUSH1 0x0 MSTORE PUSH1 0x3 DUP3 MSTORE PUSH1 0x40 PUSH1 0x0 KECCAK256 DUP6 PUSH1 0x0 MSTORE DUP3 MSTORE DUP1 PUSH1 0x40 PUSH1 0x0 KECCAK256 SSTORE PUSH1 0x40 MLOAD SWAP1 DUP2 MSTORE LOG3 JUMP JUMPDEST PUSH1 0x40 MLOAD PUSH3 0x461BCD PUSH1 0xE5 SHL DUP2 MSTORE PUSH1 0x20 PUSH1 0x4 DUP3 ADD MSTORE PUSH1 0x22 PUSH1 0x24 DUP3 ADD MSTORE PUSH32 0x45524332303A20617070726F766520746F20746865207A65726F206164647265 PUSH1 0x44 DUP3 ADD MSTORE PUSH2 0x7373 PUSH1 0xF0 SHL PUSH1 0x64 DUP3 ADD MSTORE PUSH1 0x84 SWAP1 REVERT JUMPDEST PUSH1 0x40 MLOAD PUSH3 0x461BCD PUSH1 0xE5 SHL DUP2 MSTORE PUSH1 0x20 PUSH1 0x4 DUP3 ADD MSTORE PUSH1 0x24 DUP1 DUP3 ADD MSTORE PUSH32 0x45524332303A20617070726F76652066726F6D20746865207A65726F20616464 PUSH1 0x44 DUP3 ADD MSTORE PUSH4 0x72657373 PUSH1 0xE0 SHL PUSH1 0x64 DUP3 ADD MSTORE PUSH1 0x84 SWAP1 REVERT JUMPDEST DUP2 DUP2 MUL SWAP3 SWAP2 DUP2 ISZERO SWAP2 DUP5 DIV EQ OR ISZERO PUSH2 0x154B JUMPI JUMP JUMPDEST SWAP1 DUP2 MLOAD DUP2 LT ISZERO PUSH2 0x1687 JUMPI ADD PUSH1 0x20 ADD SWAP1 JUMP JUMPDEST PUSH4 0x4E487B71 PUSH1 0xE0 SHL PUSH1 0x0 MSTORE PUSH1 0x32 PUSH1 0x4 MSTORE PUSH1 0x24 PUSH1 0x0 REVERT JUMPDEST PUSH1 0x0 DUP1 SLOAD SWAP1 SWAP5 SWAP4 SWAP3 SWAP1 PUSH1 0x1 PUSH1 0x1 PUSH1 0xA0 SHL SUB DUP1 DUP5 AND SWAP2 AND DUP2 DUP2 EQ ISZERO SWAP1 DUP2 PUSH2 0x2327 JUMPI JUMPDEST DUP2 PUSH2 0x22F4 JUMPI JUMPDEST POP PUSH2 0x2294 JUMPI JUMPDEST PUSH1 0x8 SLOAD PUSH1 0x0 SWAP1 DUP2 MSTORE PUSH1 0x1 PUSH1 0x20 SWAP1 DUP2 MSTORE PUSH1 0x40 DUP1 DUP4 KECCAK256 PUSH1 0x1 PUSH1 0x1 PUSH1 0xA0 SHL SUB DUP8 AND DUP5 MSTORE SWAP1 SWAP2 MSTORE SWAP1 KECCAK256 SLOAD PUSH1 0xFF AND ISZERO SWAP1 DUP2 PUSH2 0x2289 JUMPI JUMPDEST POP ISZERO PUSH2 0x227D JUMPI PUSH1 0x3 PUSH1 0x64 PUSH2 0x1717 PUSH1 0xFF PUSH1 0xC SLOAD PUSH1 0xA0 SHR AND DUP7 PUSH2 0x1663 JUMP JUMPDEST DIV DIV SWAP3 DUP4 PUSH1 0x1 SHR SWAP6 ADDRESS DUP2 MSTORE PUSH1 0x2 PUSH1 0x20 MSTORE PUSH1 0x40 DUP2 KECCAK256 SLOAD SWAP1 PUSH1 0xD SLOAD DUP1 DUP4 LT ISZERO PUSH2 0x2275 JUMPI JUMPDEST POP PUSH1 0xE SLOAD DUP3 LT ISZERO PUSH2 0x176F DUP7 PUSH1 0x9 SLOAD PUSH1 0x0 MSTORE PUSH1 0x1 PUSH1 0x20 MSTORE PUSH1 0x40 PUSH1 0x0 KECCAK256 SWAP1 PUSH1 0x1 DUP1 PUSH1 0xA0 SHL SUB AND PUSH1 0x0 MSTORE PUSH1 0x20 MSTORE PUSH1 0xFF PUSH1 0x40 PUSH1 0x0 KECCAK256 SLOAD AND SWAP1 JUMP JUMPDEST ISZERO SWAP1 DUP2 PUSH2 0x226D JUMPI JUMPDEST POP DUP1 PUSH2 0x225D JUMPI JUMPDEST DUP1 PUSH2 0x2251 JUMPI JUMPDEST PUSH2 0x17E5 JUMPI JUMPDEST POP POP SWAP5 PUSH2 0x17BF PUSH2 0x17C6 SWAP3 PUSH2 0x17B8 DUP4 PUSH2 0x17AD PUSH2 0x17E3 SWAP10 SWAP11 PUSH2 0x17B2 DUP11 PUSH2 0x17AD DUP2 DUP1 PUSH2 0x153E JUMP JUMPDEST PUSH2 0x153E JUMP JUMPDEST SWAP1 PUSH2 0x24B4 JUMP JUMPDEST SWAP1 DUP6 PUSH2 0x233D JUMP JUMPDEST DUP3 DUP1 PUSH2 0x233D JUMP JUMPDEST PUSH2 0x17D1 DUP3 ADDRESS DUP4 PUSH2 0x233D JUMP JUMPDEST PUSH1 0x7 SLOAD PUSH1 0x1 PUSH1 0x1 PUSH1 0xA0 SHL SUB AND SWAP1 PUSH2 0x233D JUMP JUMPDEST JUMP JUMPDEST PUSH2 0x100 PUSH2 0xFF00 NOT PUSH1 0xF SLOAD AND OR PUSH1 0xF SSTORE PUSH2 0x1802 DUP3 PUSH1 0x1 SHR DUP1 SWAP4 PUSH2 0x24B4 JUMP JUMPDEST PUSH1 0xA SLOAD SWAP1 SWAP3 SELFBALANCE SWAP2 PUSH2 0x1821 SWAP1 PUSH1 0x3 DUP4 DIV SWAP1 PUSH1 0x1 PUSH1 0x1 PUSH1 0xA0 SHL SUB AND ADDRESS PUSH2 0x1561 JUMP JUMPDEST PUSH1 0xB SLOAD PUSH2 0x183C SWAP1 PUSH1 0x3 DUP4 DIV SWAP1 PUSH1 0x1 PUSH1 0x1 PUSH1 0xA0 SHL SUB AND ADDRESS PUSH2 0x1561 JUMP JUMPDEST PUSH1 0xC SLOAD PUSH2 0x1857 SWAP1 PUSH1 0x3 DUP4 DIV SWAP1 PUSH1 0x1 PUSH1 0x1 PUSH1 0xA0 SHL SUB AND ADDRESS PUSH2 0x1561 JUMP JUMPDEST PUSH1 0xA SLOAD PUSH1 0x40 MLOAD PUSH4 0xC45A0155 PUSH1 0xE0 SHL DUP2 MSTORE SWAP1 PUSH1 0x1 PUSH1 0x1 PUSH1 0xA0 SHL SUB AND PUSH1 0x20 DUP3 PUSH1 0x4 DUP2 DUP5 GAS STATICCALL SWAP2 DUP3 ISZERO PUSH2 0x1FF7 JUMPI DUP6 SWAP3 PUSH2 0x2230 JUMPI JUMPDEST POP PUSH1 0x40 MLOAD SWAP2 PUSH2 0x1896 DUP4 PUSH2 0x13B8 JUMP JUMPDEST PUSH1 0x2 DUP4 MSTORE PUSH1 0x40 CALLDATASIZE PUSH1 0x20 DUP6 ADD CALLDATACOPY ADDRESS PUSH2 0x18AC DUP5 PUSH2 0x252F JUMP JUMPDEST MSTORE PUSH1 0x40 MLOAD PUSH4 0x15AB88C9 PUSH1 0xE3 SHL DUP2 MSTORE PUSH1 0x20 DUP2 PUSH1 0x4 DUP2 DUP7 GAS STATICCALL SWAP1 DUP2 ISZERO PUSH2 0x1F80 JUMPI DUP8 SWAP2 PUSH2 0x2211 JUMPI JUMPDEST POP PUSH2 0x18DB DUP5 PUSH2 0x253C JUMP JUMPDEST PUSH1 0x1 PUSH1 0x1 PUSH1 0xA0 SHL SUB SWAP1 SWAP2 AND SWAP1 MSTORE PUSH1 0x40 MLOAD PUSH4 0x15AB88C9 PUSH1 0xE3 SHL DUP2 MSTORE SWAP1 PUSH1 0x20 DUP3 PUSH1 0x4 DUP2 DUP7 GAS STATICCALL SWAP2 DUP3 ISZERO PUSH2 0x1F80 JUMPI DUP8 SWAP3 PUSH2 0x21F0 JUMPI JUMPDEST POP PUSH1 0x40 MLOAD PUSH4 0x15AB88C9 PUSH1 0xE3 SHL DUP2 MSTORE SWAP1 PUSH1 0x20 DUP3 PUSH1 0x4 DUP2 DUP8 GAS STATICCALL SWAP2 DUP3 ISZERO PUSH2 0x1FAA JUMPI SWAP2 PUSH1 0x20 SWAP2 PUSH2 0x196F SWAP4 DUP11 SWAP3 PUSH2 0x1F8B JUMPI JUMPDEST POP PUSH1 0x40 MLOAD PUSH4 0xE6A43905 PUSH1 0xE0 SHL DUP2 MSTORE ADDRESS PUSH1 0x4 DUP3 ADD MSTORE PUSH1 0x1 PUSH1 0x1 PUSH1 0xA0 SHL SUB SWAP1 SWAP3 AND PUSH1 0x24 DUP4 ADD MSTORE SWAP1 SWAP3 DUP4 SWAP2 SWAP1 DUP3 SWAP1 DUP2 SWAP1 PUSH1 0x44 DUP3 ADD SWAP1 JUMP JUMPDEST SUB SWAP2 PUSH1 0x1 PUSH1 0x1 PUSH1 0xA0 SHL SUB AND GAS STATICCALL SWAP1 DUP2 ISZERO PUSH2 0x1F80 JUMPI SWAP1 PUSH1 0x20 SWAP2 DUP9 SWAP2 PUSH2 0x21D3 JUMPI JUMPDEST POP PUSH1 0x40 MLOAD PUSH4 0x70A08231 PUSH1 0xE0 SHL DUP2 MSTORE PUSH1 0x1 PUSH1 0x1 PUSH1 0xA0 SHL SUB SWAP2 DUP3 AND PUSH1 0x4 DUP3 ADD MSTORE SWAP3 DUP4 SWAP2 PUSH1 0x24 SWAP2 DUP4 SWAP2 AND GAS STATICCALL SWAP1 DUP2 ISZERO PUSH2 0x1E42 JUMPI DUP7 SWAP2 PUSH2 0x219D JUMPI JUMPDEST POP PUSH2 0x212C JUMPI JUMPDEST POP POP PUSH1 0xB SLOAD PUSH1 0x40 MLOAD PUSH4 0xC45A0155 PUSH1 0xE0 SHL DUP2 MSTORE SWAP1 PUSH1 0x1 PUSH1 0x1 PUSH1 0xA0 SHL SUB AND PUSH1 0x20 DUP3 PUSH1 0x4 DUP2 DUP5 GAS STATICCALL SWAP2 DUP3 ISZERO PUSH2 0x1FF7 JUMPI DUP6 SWAP3 PUSH2 0x210B JUMPI JUMPDEST POP PUSH1 0x40 MLOAD SWAP2 PUSH2 0x1A0C DUP4 PUSH2 0x13B8 JUMP JUMPDEST PUSH1 0x2 DUP4 MSTORE PUSH1 0x40 CALLDATASIZE PUSH1 0x20 DUP6 ADD CALLDATACOPY ADDRESS PUSH2 0x1A22 DUP5 PUSH2 0x252F JUMP JUMPDEST MSTORE PUSH1 0x40 MLOAD PUSH4 0x15AB88C9 PUSH1 0xE3 SHL DUP2 MSTORE PUSH1 0x20 DUP2 PUSH1 0x4 DUP2 DUP7 GAS STATICCALL SWAP1 DUP2 ISZERO PUSH2 0x1F80 JUMPI DUP8 SWAP2 PUSH2 0x20EC JUMPI JUMPDEST POP PUSH2 0x1A51 DUP5 PUSH2 0x253C JUMP JUMPDEST PUSH1 0x1 PUSH1 0x1 PUSH1 0xA0 SHL SUB SWAP1 SWAP2 AND SWAP1 MSTORE PUSH1 0x40 MLOAD PUSH4 0x15AB88C9 PUSH1 0xE3 SHL DUP2 MSTORE SWAP1 PUSH1 0x20 DUP3 PUSH1 0x4 DUP2 DUP7 GAS STATICCALL SWAP2 DUP3 ISZERO PUSH2 0x1F80 JUMPI DUP8 SWAP3 PUSH2 0x20CB JUMPI JUMPDEST POP PUSH1 0x40 MLOAD PUSH4 0x15AB88C9 PUSH1 0xE3 SHL DUP2 MSTORE SWAP1 PUSH1 0x20 DUP3 PUSH1 0x4 DUP2 DUP8 GAS STATICCALL SWAP2 DUP3 ISZERO PUSH2 0x1FAA JUMPI SWAP2 PUSH1 0x20 SWAP2 PUSH2 0x1AE4 SWAP4 DUP11 SWAP3 PUSH2 0x1F8B JUMPI POP PUSH1 0x40 MLOAD PUSH4 0xE6A43905 PUSH1 0xE0 SHL DUP2 MSTORE ADDRESS PUSH1 0x4 DUP3 ADD MSTORE PUSH1 0x1 PUSH1 0x1 PUSH1 0xA0 SHL SUB SWAP1 SWAP3 AND PUSH1 0x24 DUP4 ADD MSTORE SWAP1 SWAP3 DUP4 SWAP2 SWAP1 DUP3 SWAP1 DUP2 SWAP1 PUSH1 0x44 DUP3 ADD SWAP1 JUMP JUMPDEST SUB SWAP2 PUSH1 0x1 PUSH1 0x1 PUSH1 0xA0 SHL SUB AND GAS STATICCALL SWAP1 DUP2 ISZERO PUSH2 0x1F80 JUMPI SWAP1 PUSH1 0x20 SWAP2 DUP9 SWAP2 PUSH2 0x20AE JUMPI JUMPDEST POP PUSH1 0x40 MLOAD PUSH4 0x70A08231 PUSH1 0xE0 SHL DUP2 MSTORE PUSH1 0x1 PUSH1 0x1 PUSH1 0xA0 SHL SUB SWAP2 DUP3 AND PUSH1 0x4 DUP3 ADD MSTORE SWAP3 DUP4 SWAP2 PUSH1 0x24 SWAP2 DUP4 SWAP2 AND GAS STATICCALL SWAP1 DUP2 ISZERO PUSH2 0x1E42 JUMPI DUP7 SWAP2 PUSH2 0x207C JUMPI JUMPDEST POP PUSH2 0x2002 JUMPI JUMPDEST POP POP PUSH1 0xC SLOAD PUSH1 0x40 MLOAD PUSH4 0xC45A0155 PUSH1 0xE0 SHL DUP2 MSTORE SWAP1 PUSH1 0x1 PUSH1 0x1 PUSH1 0xA0 SHL SUB AND PUSH1 0x20 DUP3 PUSH1 0x4 DUP2 DUP5 GAS STATICCALL SWAP2 DUP3 ISZERO PUSH2 0x1FF7 JUMPI DUP6 SWAP3 PUSH2 0x1FD6 JUMPI JUMPDEST POP PUSH1 0x40 MLOAD SWAP2 PUSH2 0x1B81 DUP4 PUSH2 0x13B8 JUMP JUMPDEST PUSH1 0x2 DUP4 MSTORE PUSH1 0x40 CALLDATASIZE PUSH1 0x20 DUP6 ADD CALLDATACOPY PUSH1 0x40 MLOAD PUSH4 0x15AB88C9 PUSH1 0xE3 SHL DUP2 MSTORE SWAP1 PUSH1 0x20 DUP3 PUSH1 0x4 DUP2 DUP7 GAS STATICCALL SWAP2 DUP3 ISZERO PUSH2 0x1F80 JUMPI DUP8 SWAP3 PUSH2 0x1FB5 JUMPI JUMPDEST POP PUSH1 0x40 MLOAD PUSH4 0x15AB88C9 PUSH1 0xE3 SHL DUP2 MSTORE SWAP1 PUSH1 0x20 DUP3 PUSH1 0x4 DUP2 DUP8 GAS STATICCALL SWAP2 DUP3 ISZERO PUSH2 0x1FAA JUMPI SWAP2 PUSH1 0x20 SWAP2 PUSH2 0x1C13 SWAP4 DUP11 SWAP3 PUSH2 0x1F8B JUMPI POP PUSH1 0x40 MLOAD PUSH4 0xE6A43905 PUSH1 0xE0 SHL DUP2 MSTORE ADDRESS PUSH1 0x4 DUP3 ADD MSTORE PUSH1 0x1 PUSH1 0x1 PUSH1 0xA0 SHL SUB SWAP1 SWAP3 AND PUSH1 0x24 DUP4 ADD MSTORE SWAP1 SWAP3 DUP4 SWAP2 SWAP1 DUP3 SWAP1 DUP2 SWAP1 PUSH1 0x44 DUP3 ADD SWAP1 JUMP JUMPDEST SUB SWAP2 PUSH1 0x1 PUSH1 0x1 PUSH1 0xA0 SHL SUB AND GAS STATICCALL SWAP1 DUP2 ISZERO PUSH2 0x1F80 JUMPI SWAP1 PUSH1 0x20 SWAP2 DUP9 SWAP2 PUSH2 0x1F53 JUMPI JUMPDEST POP PUSH1 0x40 MLOAD PUSH4 0x70A08231 PUSH1 0xE0 SHL DUP2 MSTORE PUSH1 0x1 PUSH1 0x1 PUSH1 0xA0 SHL SUB SWAP2 DUP3 AND PUSH1 0x4 DUP3 ADD MSTORE SWAP3 DUP4 SWAP2 PUSH1 0x24 SWAP2 DUP4 SWAP2 AND GAS STATICCALL SWAP1 DUP2 ISZERO PUSH2 0x1E42 JUMPI DUP7 SWAP2 PUSH2 0x1F21 JUMPI JUMPDEST POP PUSH2 0x1E9B JUMPI JUMPDEST POP POP POP PUSH2 0x1C7E PUSH1 0x3 SWAP2 SELFBALANCE PUSH2 0x24B4 JUMP JUMPDEST SWAP3 PUSH2 0x1C9E PUSH1 0x64 PUSH2 0x1C96 PUSH1 0xFF PUSH1 0xC SLOAD PUSH1 0xA8 SHR AND DUP8 PUSH2 0x1663 JUMP JUMPDEST DIV DUP1 SWAP6 PUSH2 0x24B4 JUMP JUMPDEST SWAP4 DUP1 PUSH2 0x1E7E JUMPI JUMPDEST POP DIV PUSH2 0x1CBC DUP2 PUSH1 0x1 DUP1 PUSH1 0xA0 SHL SUB PUSH1 0xA SLOAD AND ADDRESS PUSH2 0x1561 JUMP JUMPDEST PUSH1 0xB SLOAD PUSH2 0x1CD4 SWAP1 DUP3 SWAP1 PUSH1 0x1 PUSH1 0x1 PUSH1 0xA0 SHL SUB AND ADDRESS PUSH2 0x1561 JUMP JUMPDEST PUSH1 0xC SLOAD PUSH2 0x1CEC SWAP1 DUP3 SWAP1 PUSH1 0x1 PUSH1 0x1 PUSH1 0xA0 SHL SUB AND ADDRESS PUSH2 0x1561 JUMP JUMPDEST PUSH1 0x1 DUP1 PUSH1 0xA0 SHL SUB PUSH1 0xA SLOAD AND PUSH2 0x4B0 TIMESTAMP ADD SWAP2 DUP3 TIMESTAMP GT PUSH2 0x1E6A JUMPI PUSH1 0x40 MLOAD SWAP5 DUP6 PUSH4 0xF305D719 PUSH1 0xE0 SHL SWAP4 DUP5 DUP3 MSTORE PUSH1 0x3 DUP3 PUSH2 0x1D28 DUP9 ADDRESS DUP9 ADDRESS PUSH1 0x4 DUP7 ADD PUSH2 0x24DC JUMP JUMPDEST SUB SWAP4 DIV SWAP8 DUP9 SWAP4 DUP2 PUSH1 0x60 SWAP11 DUP12 SWAP5 GAS CALL DUP1 ISZERO PUSH2 0x1E42 JUMPI PUSH2 0x1E4D JUMPI JUMPDEST POP PUSH1 0xB SLOAD PUSH1 0x40 MLOAD DUP5 DUP2 MSTORE SWAP1 DUP8 SWAP1 DUP3 SWAP1 PUSH1 0x1 PUSH1 0x1 PUSH1 0xA0 SHL SUB AND DUP2 DUP6 DUP2 PUSH2 0x1D6C DUP12 ADDRESS DUP12 DUP2 PUSH1 0x4 DUP7 ADD PUSH2 0x24DC JUMP JUMPDEST SUB SWAP3 GAS CALL DUP1 ISZERO PUSH2 0x1E42 JUMPI SWAP2 PUSH2 0x1DAB SWAP7 SWAP6 SWAP4 SWAP2 DUP9 SWAP6 SWAP4 PUSH2 0x1E25 JUMPI JUMPDEST POP PUSH1 0x1 DUP1 PUSH1 0xA0 SHL SUB PUSH1 0xC SLOAD AND SWAP3 PUSH1 0x40 MLOAD SWAP8 DUP9 SWAP6 DUP7 SWAP5 DUP6 SWAP4 DUP5 MSTORE ADDRESS SWAP1 ADDRESS PUSH1 0x4 DUP7 ADD PUSH2 0x24DC JUMP JUMPDEST SUB SWAP3 GAS CALL SWAP1 DUP2 ISZERO PUSH2 0x1E19 JUMPI POP DUP9 PUSH2 0x17AD PUSH2 0x17E3 SWAP10 SWAP11 SWAP6 PUSH2 0x17BF SWAP6 PUSH2 0x17C6 SWAP9 SWAP6 PUSH2 0x17B8 SWAP6 PUSH2 0x1DED JUMPI JUMPDEST POP POP PUSH2 0xFF00 NOT PUSH1 0xF SLOAD AND PUSH1 0xF SSTORE SWAP6 POP POP SWAP9 SWAP8 POP POP SWAP3 PUSH2 0x1789 JUMP JUMPDEST DUP2 PUSH2 0x1E0C SWAP3 SWAP1 RETURNDATASIZE LT PUSH2 0x1E12 JUMPI JUMPDEST PUSH2 0x1E04 DUP2 DUP4 PUSH2 0x13D4 JUMP JUMPDEST DUP2 ADD SWAP1 PUSH2 0x24C1 JUMP JUMPDEST POP PUSH2 0x1DD3 JUMP JUMPDEST POP RETURNDATASIZE PUSH2 0x1DFA JUMP JUMPDEST PUSH1 0x40 MLOAD SWAP1 RETURNDATASIZE SWAP1 DUP3 RETURNDATACOPY RETURNDATASIZE SWAP1 REVERT JUMPDEST PUSH2 0x1E3B SWAP1 DUP7 RETURNDATASIZE DUP9 GT PUSH2 0x1E12 JUMPI PUSH2 0x1E04 DUP2 DUP4 PUSH2 0x13D4 JUMP JUMPDEST POP POP PUSH2 0x1D86 JUMP JUMPDEST PUSH1 0x40 MLOAD RETURNDATASIZE DUP9 DUP3 RETURNDATACOPY RETURNDATASIZE SWAP1 REVERT JUMPDEST PUSH2 0x1E63 SWAP1 DUP8 RETURNDATASIZE DUP10 GT PUSH2 0x1E12 JUMPI PUSH2 0x1E04 DUP2 DUP4 PUSH2 0x13D4 JUMP JUMPDEST POP POP PUSH2 0x1D41 JUMP JUMPDEST PUSH4 0x4E487B71 PUSH1 0xE0 SHL DUP5 MSTORE PUSH1 0x11 PUSH1 0x4 MSTORE PUSH1 0x24 DUP5 REVERT JUMPDEST PUSH1 0x7 SLOAD PUSH2 0x1E94 SWAP2 SWAP1 PUSH1 0x1 PUSH1 0x1 PUSH1 0xA0 SHL SUB AND PUSH2 0x25F7 JUMP JUMPDEST POP CODESIZE PUSH2 0x1CA5 JUMP JUMPDEST PUSH1 0x7 SLOAD PUSH1 0x1 PUSH1 0x1 PUSH1 0xA0 SHL SUB AND SWAP3 TIMESTAMP PUSH2 0x4B0 DUP2 ADD SWAP1 DUP2 LT PUSH2 0x1352 JUMPI DUP3 EXTCODESIZE ISZERO PUSH2 0x1F1D JUMPI PUSH1 0x40 MLOAD PUSH4 0x791AC947 PUSH1 0xE0 SHL DUP2 MSTORE SWAP5 DUP8 SWAP5 DUP7 SWAP5 SWAP4 DUP6 SWAP4 DUP8 SWAP4 DUP6 SWAP4 PUSH2 0x1EE6 SWAP4 PUSH1 0x3 SWAP1 DIV PUSH1 0x4 DUP7 ADD PUSH2 0x254C JUMP JUMPDEST SUB SWAP3 GAS CALL DUP1 ISZERO PUSH2 0x1F12 JUMPI SWAP1 DUP4 SWAP2 PUSH2 0x1EFE JUMPI JUMPDEST DUP1 PUSH2 0x1C6F JUMP JUMPDEST PUSH2 0x1F07 SWAP1 PUSH2 0x138E JUMP JUMPDEST PUSH2 0x250 JUMPI DUP2 CODESIZE PUSH2 0x1EF8 JUMP JUMPDEST PUSH1 0x40 MLOAD RETURNDATASIZE DUP6 DUP3 RETURNDATACOPY RETURNDATASIZE SWAP1 REVERT JUMPDEST DUP7 DUP1 REVERT JUMPDEST SWAP1 POP PUSH1 0x20 DUP2 RETURNDATASIZE PUSH1 0x20 GT PUSH2 0x1F4B JUMPI JUMPDEST DUP2 PUSH2 0x1F3C PUSH1 0x20 SWAP4 DUP4 PUSH2 0x13D4 JUMP JUMPDEST DUP2 ADD SUB SLT PUSH2 0x1044 JUMPI MLOAD CODESIZE PUSH2 0x1C69 JUMP JUMPDEST RETURNDATASIZE SWAP2 POP PUSH2 0x1F2F JUMP JUMPDEST PUSH2 0x1F73 SWAP2 POP DUP3 RETURNDATASIZE DUP5 GT PUSH2 0x1F79 JUMPI JUMPDEST PUSH2 0x1F6B DUP2 DUP4 PUSH2 0x13D4 JUMP JUMPDEST DUP2 ADD SWAP1 PUSH2 0x2510 JUMP JUMPDEST CODESIZE PUSH2 0x1C32 JUMP JUMPDEST POP RETURNDATASIZE PUSH2 0x1F61 JUMP JUMPDEST PUSH1 0x40 MLOAD RETURNDATASIZE DUP10 DUP3 RETURNDATACOPY RETURNDATASIZE SWAP1 REVERT JUMPDEST PUSH2 0x1FA3 SWAP2 SWAP3 POP DUP4 RETURNDATASIZE DUP6 GT PUSH2 0x1F79 JUMPI PUSH2 0x1F6B DUP2 DUP4 PUSH2 0x13D4 JUMP JUMPDEST SWAP1 CODESIZE PUSH2 0x193B JUMP JUMPDEST PUSH1 0x40 MLOAD RETURNDATASIZE DUP11 DUP3 RETURNDATACOPY RETURNDATASIZE SWAP1 REVERT JUMPDEST PUSH2 0x1FCF SWAP2 SWAP3 POP PUSH1 0x20 RETURNDATASIZE PUSH1 0x20 GT PUSH2 0x1F79 JUMPI PUSH2 0x1F6B DUP2 DUP4 PUSH2 0x13D4 JUMP JUMPDEST SWAP1 CODESIZE PUSH2 0x1BB2 JUMP JUMPDEST PUSH2 0x1FF0 SWAP2 SWAP3 POP PUSH1 0x20 RETURNDATASIZE PUSH1 0x20 GT PUSH2 0x1F79 JUMPI PUSH2 0x1F6B DUP2 DUP4 PUSH2 0x13D4 JUMP JUMPDEST SWAP1 CODESIZE PUSH2 0x1B73 JUMP JUMPDEST PUSH1 0x40 MLOAD RETURNDATASIZE DUP8 DUP3 RETURNDATACOPY RETURNDATASIZE SWAP1 REVERT JUMPDEST PUSH1 0x1 DUP1 PUSH1 0xA0 SHL SUB PUSH1 0x7 SLOAD AND PUSH2 0x4B0 TIMESTAMP ADD SWAP3 DUP4 TIMESTAMP GT PUSH2 0x1352 JUMPI DUP3 EXTCODESIZE ISZERO PUSH2 0x1F1D JUMPI SWAP2 PUSH2 0x204B SWAP4 SWAP2 DUP8 DUP1 SWAP5 PUSH1 0x40 MLOAD SWAP7 DUP8 SWAP6 DUP7 SWAP5 DUP6 SWAP4 PUSH4 0x791AC947 PUSH1 0xE0 SHL DUP6 MSTORE PUSH1 0x3 DUP13 DIV PUSH1 0x4 DUP7 ADD PUSH2 0x254C JUMP JUMPDEST SUB SWAP3 GAS CALL DUP1 ISZERO PUSH2 0x2071 JUMPI SWAP1 DUP5 SWAP2 ISZERO PUSH2 0x1B40 JUMPI PUSH2 0x2066 SWAP1 PUSH2 0x138E JUMP JUMPDEST PUSH2 0x439 JUMPI DUP3 CODESIZE PUSH2 0x1B40 JUMP JUMPDEST PUSH1 0x40 MLOAD RETURNDATASIZE DUP7 DUP3 RETURNDATACOPY RETURNDATASIZE SWAP1 REVERT JUMPDEST SWAP1 POP PUSH1 0x20 DUP2 RETURNDATASIZE PUSH1 0x20 GT PUSH2 0x20A6 JUMPI JUMPDEST DUP2 PUSH2 0x2097 PUSH1 0x20 SWAP4 DUP4 PUSH2 0x13D4 JUMP JUMPDEST DUP2 ADD SUB SLT PUSH2 0x1044 JUMPI MLOAD CODESIZE PUSH2 0x1B3A JUMP JUMPDEST RETURNDATASIZE SWAP2 POP PUSH2 0x208A JUMP JUMPDEST PUSH2 0x20C5 SWAP2 POP DUP3 RETURNDATASIZE DUP5 GT PUSH2 0x1F79 JUMPI PUSH2 0x1F6B DUP2 DUP4 PUSH2 0x13D4 JUMP JUMPDEST CODESIZE PUSH2 0x1B03 JUMP JUMPDEST PUSH2 0x20E5 SWAP2 SWAP3 POP PUSH1 0x20 RETURNDATASIZE PUSH1 0x20 GT PUSH2 0x1F79 JUMPI PUSH2 0x1F6B DUP2 DUP4 PUSH2 0x13D4 JUMP JUMPDEST SWAP1 CODESIZE PUSH2 0x1A83 JUMP JUMPDEST PUSH2 0x2105 SWAP2 POP PUSH1 0x20 RETURNDATASIZE PUSH1 0x20 GT PUSH2 0x1F79 JUMPI PUSH2 0x1F6B DUP2 DUP4 PUSH2 0x13D4 JUMP JUMPDEST CODESIZE PUSH2 0x1A47 JUMP JUMPDEST PUSH2 0x2125 SWAP2 SWAP3 POP PUSH1 0x20 RETURNDATASIZE PUSH1 0x20 GT PUSH2 0x1F79 JUMPI PUSH2 0x1F6B DUP2 DUP4 PUSH2 0x13D4 JUMP JUMPDEST SWAP1 CODESIZE PUSH2 0x19FE JUMP JUMPDEST PUSH1 0x1 DUP1 PUSH1 0xA0 SHL SUB PUSH1 0x7 SLOAD AND PUSH2 0x4B0 TIMESTAMP ADD SWAP3 DUP4 TIMESTAMP GT PUSH2 0x1352 JUMPI DUP3 EXTCODESIZE ISZERO PUSH2 0x1F1D JUMPI SWAP2 PUSH2 0x2175 SWAP4 SWAP2 DUP8 DUP1 SWAP5 PUSH1 0x40 MLOAD SWAP7 DUP8 SWAP6 DUP7 SWAP5 DUP6 SWAP4 PUSH4 0x791AC947 PUSH1 0xE0 SHL DUP6 MSTORE PUSH1 0x3 DUP13 DIV PUSH1 0x4 DUP7 ADD PUSH2 0x254C JUMP JUMPDEST SUB SWAP3 GAS CALL DUP1 ISZERO PUSH2 0x2071 JUMPI PUSH2 0x218A JUMPI JUMPDEST DUP1 PUSH2 0x19CB JUMP JUMPDEST PUSH2 0x2196 SWAP1 SWAP4 SWAP2 SWAP4 PUSH2 0x138E JUMP JUMPDEST SWAP2 CODESIZE PUSH2 0x2184 JUMP JUMPDEST SWAP1 POP PUSH1 0x20 DUP2 RETURNDATASIZE PUSH1 0x20 GT PUSH2 0x21CB JUMPI JUMPDEST DUP2 PUSH2 0x21B8 PUSH1 0x20 SWAP4 DUP4 PUSH2 0x13D4 JUMP JUMPDEST DUP2 ADD SUB SLT PUSH2 0x21C7 JUMPI MLOAD CODESIZE PUSH2 0x19C5 JUMP JUMPDEST DUP6 DUP1 REVERT JUMPDEST RETURNDATASIZE SWAP2 POP PUSH2 0x21AB JUMP JUMPDEST PUSH2 0x21EA SWAP2 POP DUP3 RETURNDATASIZE DUP5 GT PUSH2 0x1F79 JUMPI PUSH2 0x1F6B DUP2 DUP4 PUSH2 0x13D4 JUMP JUMPDEST CODESIZE PUSH2 0x198E JUMP JUMPDEST PUSH2 0x220A SWAP2 SWAP3 POP PUSH1 0x20 RETURNDATASIZE PUSH1 0x20 GT PUSH2 0x1F79 JUMPI PUSH2 0x1F6B DUP2 DUP4 PUSH2 0x13D4 JUMP JUMPDEST SWAP1 CODESIZE PUSH2 0x190D JUMP JUMPDEST PUSH2 0x222A SWAP2 POP PUSH1 0x20 RETURNDATASIZE PUSH1 0x20 GT PUSH2 0x1F79 JUMPI PUSH2 0x1F6B DUP2 DUP4 PUSH2 0x13D4 JUMP JUMPDEST CODESIZE PUSH2 0x18D1 JUMP JUMPDEST PUSH2 0x224A SWAP2 SWAP3 POP PUSH1 0x20 RETURNDATASIZE PUSH1 0x20 GT PUSH2 0x1F79 JUMPI PUSH2 0x1F6B DUP2 DUP4 PUSH2 0x13D4 JUMP JUMPDEST SWAP1 CODESIZE PUSH2 0x1888 JUMP JUMPDEST POP PUSH1 0xFF PUSH1 0xF SLOAD AND PUSH2 0x1784 JUMP JUMPDEST POP PUSH1 0xFF PUSH1 0xF SLOAD PUSH1 0x8 SHR AND ISZERO PUSH2 0x177E JUMP JUMPDEST SWAP1 POP CODESIZE PUSH2 0x1777 JUMP JUMPDEST SWAP2 POP CODESIZE PUSH2 0x1739 JUMP JUMPDEST SWAP1 PUSH2 0x17E3 SWAP4 SWAP5 POP PUSH2 0x233D JUMP JUMPDEST SWAP1 POP ADDRESS EQ ISZERO CODESIZE PUSH2 0x16FB JUMP JUMPDEST PUSH1 0xD SLOAD DUP5 GT ISZERO PUSH2 0x16CA JUMPI PUSH1 0x40 MLOAD PUSH3 0x461BCD PUSH1 0xE5 SHL DUP2 MSTORE PUSH1 0x20 PUSH1 0x4 DUP3 ADD MSTORE PUSH1 0x28 PUSH1 0x24 DUP3 ADD MSTORE PUSH32 0x7472616E736665725F616D6F756E745F63616E6E6F745F6578636565645F6D61 PUSH1 0x44 DUP3 ADD MSTORE PUSH8 0x1E17D85B5BDD5B9D PUSH1 0xC2 SHL PUSH1 0x64 DUP3 ADD MSTORE PUSH1 0x84 SWAP1 REVERT JUMPDEST PUSH1 0x1 PUSH1 0x1 PUSH1 0xA0 SHL SUB DUP5 AND SWAP1 DUP2 EQ ISZERO SWAP2 POP DUP2 PUSH2 0x2311 JUMPI JUMPDEST POP CODESIZE PUSH2 0x16C4 JUMP JUMPDEST PUSH1 0x7 SLOAD PUSH1 0x1 PUSH1 0x1 PUSH1 0xA0 SHL SUB AND EQ ISZERO SWAP1 POP CODESIZE PUSH2 0x230A JUMP JUMPDEST PUSH1 0x7 SLOAD PUSH1 0x1 PUSH1 0x1 PUSH1 0xA0 SHL SUB AND DUP4 EQ ISZERO SWAP2 POP PUSH2 0x16BE JUMP JUMPDEST PUSH1 0x1 PUSH1 0x1 PUSH1 0xA0 SHL SUB SWAP1 DUP2 AND SWAP2 DUP3 ISZERO PUSH2 0x2461 JUMPI AND SWAP2 DUP3 ISZERO PUSH2 0x2410 JUMPI PUSH1 0x0 DUP3 DUP2 MSTORE PUSH1 0x2 PUSH1 0x20 MSTORE PUSH1 0x40 DUP2 KECCAK256 SLOAD SWAP2 DUP1 DUP4 LT PUSH2 0x23BC JUMPI PUSH1 0x40 DUP3 DUP3 PUSH32 0xDDF252AD1BE2C89B69C2B068FC378DAA952BA7F163C4A11628F55A4DF523B3EF SWAP6 DUP8 PUSH1 0x20 SWAP7 MSTORE PUSH1 0x2 DUP7 MSTORE SUB DUP3 DUP3 KECCAK256 SSTORE DUP7 DUP2 MSTORE KECCAK256 PUSH2 0x23B1 DUP3 DUP3 SLOAD PUSH2 0x153E JUMP JUMPDEST SWAP1 SSTORE PUSH1 0x40 MLOAD SWAP1 DUP2 MSTORE LOG3 JUMP JUMPDEST PUSH1 0x40 MLOAD PUSH3 0x461BCD PUSH1 0xE5 SHL DUP2 MSTORE PUSH1 0x20 PUSH1 0x4 DUP3 ADD MSTORE PUSH1 0x26 PUSH1 0x24 DUP3 ADD MSTORE PUSH32 0x45524332303A207472616E7366657220616D6F756E7420657863656564732062 PUSH1 0x44 DUP3 ADD MSTORE PUSH6 0x616C616E6365 PUSH1 0xD0 SHL PUSH1 0x64 DUP3 ADD MSTORE PUSH1 0x84 SWAP1 REVERT JUMPDEST PUSH1 0x40 MLOAD PUSH3 0x461BCD PUSH1 0xE5 SHL DUP2 MSTORE PUSH1 0x20 PUSH1 0x4 DUP3 ADD MSTORE PUSH1 0x23 PUSH1 0x24 DUP3 ADD MSTORE PUSH32 0x45524332303A207472616E7366657220746F20746865207A65726F2061646472 PUSH1 0x44 DUP3 ADD MSTORE PUSH3 0x657373 PUSH1 0xE8 SHL PUSH1 0x64 DUP3 ADD MSTORE PUSH1 0x84 SWAP1 REVERT JUMPDEST PUSH1 0x40 MLOAD PUSH3 0x461BCD PUSH1 0xE5 SHL DUP2 MSTORE PUSH1 0x20 PUSH1 0x4 DUP3 ADD MSTORE PUSH1 0x25 PUSH1 0x24 DUP3 ADD MSTORE PUSH32 0x45524332303A207472616E736665722066726F6D20746865207A65726F206164 PUSH1 0x44 DUP3 ADD MSTORE PUSH5 0x6472657373 PUSH1 0xD8 SHL PUSH1 0x64 DUP3 ADD MSTORE PUSH1 0x84 SWAP1 REVERT JUMPDEST SWAP2 SWAP1 DUP3 SUB SWAP2 DUP3 GT PUSH2 0x154B JUMPI JUMP JUMPDEST SWAP1 DUP2 PUSH1 0x60 SWAP2 SUB SLT PUSH2 0x1044 JUMPI DUP1 MLOAD SWAP2 PUSH1 0x40 PUSH1 0x20 DUP4 ADD MLOAD SWAP3 ADD MLOAD SWAP1 JUMP JUMPDEST SWAP1 PUSH1 0xA0 SWAP3 SWAP6 SWAP5 SWAP4 PUSH1 0xC0 DUP4 ADD SWAP7 PUSH1 0x1 DUP1 DUP7 SHL SUB DUP1 SWAP4 AND DUP5 MSTORE PUSH1 0x20 DUP5 ADD MSTORE PUSH1 0x0 PUSH1 0x40 DUP5 ADD MSTORE PUSH1 0x0 PUSH1 0x60 DUP5 ADD MSTORE AND PUSH1 0x80 DUP3 ADD MSTORE ADD MSTORE JUMP JUMPDEST SWAP1 DUP2 PUSH1 0x20 SWAP2 SUB SLT PUSH2 0x1044 JUMPI MLOAD PUSH1 0x1 PUSH1 0x1 PUSH1 0xA0 SHL SUB DUP2 AND DUP2 SUB PUSH2 0x1044 JUMPI SWAP1 JUMP JUMPDEST DUP1 MLOAD ISZERO PUSH2 0x1687 JUMPI PUSH1 0x20 ADD SWAP1 JUMP JUMPDEST DUP1 MLOAD PUSH1 0x1 LT ISZERO PUSH2 0x1687 JUMPI PUSH1 0x40 ADD SWAP1 JUMP JUMPDEST SWAP2 SWAP1 SWAP5 SWAP4 SWAP3 SWAP5 PUSH1 0xA0 DUP4 ADD SWAP1 DUP4 MSTORE PUSH1 0x20 SWAP1 PUSH1 0x0 DUP3 DUP6 ADD MSTORE PUSH1 0xA0 PUSH1 0x40 DUP6 ADD MSTORE DUP3 MLOAD DUP1 SWAP2 MSTORE DUP2 PUSH1 0xC0 DUP6 ADD SWAP4 ADD SWAP2 PUSH1 0x0 JUMPDEST DUP3 DUP2 LT PUSH2 0x259A JUMPI POP POP POP POP SWAP1 PUSH1 0x80 SWAP2 SWAP5 PUSH1 0x1 DUP1 PUSH1 0xA0 SHL SUB AND PUSH1 0x60 DUP3 ADD MSTORE ADD MSTORE JUMP JUMPDEST DUP4 MLOAD PUSH1 0x1 PUSH1 0x1 PUSH1 0xA0 SHL SUB AND DUP6 MSTORE SWAP4 DUP2 ADD SWAP4 SWAP3 DUP2 ADD SWAP3 PUSH1 0x1 ADD PUSH2 0x2579 JUMP JUMPDEST RETURNDATASIZE ISZERO PUSH2 0x25F2 JUMPI RETURNDATASIZE SWAP1 PUSH8 0xFFFFFFFFFFFFFFFF DUP3 GT PUSH2 0x13A2 JUMPI PUSH1 0x40 MLOAD SWAP2 PUSH2 0x25E6 PUSH1 0x1F DUP3 ADD PUSH1 0x1F NOT AND PUSH1 0x20 ADD DUP5 PUSH2 0x13D4 JUMP JUMPDEST DUP3 MSTORE RETURNDATASIZE PUSH1 0x0 PUSH1 0x20 DUP5 ADD RETURNDATACOPY JUMP JUMPDEST PUSH1 0x60 SWAP1 JUMP JUMPDEST PUSH1 0x0 DUP1 DUP1 SWAP4 DUP2 SWAP4 GAS CALL SWAP1 PUSH2 0x2609 PUSH2 0x25B7 JUMP JUMPDEST POP DUP2 ISZERO PUSH2 0x2612 JUMPI JUMP JUMPDEST PUSH1 0x40 MLOAD PUSH3 0x461BCD PUSH1 0xE5 SHL DUP2 MSTORE PUSH1 0x20 PUSH1 0x4 DUP3 ADD MSTORE PUSH1 0x18 PUSH1 0x24 DUP3 ADD MSTORE PUSH32 0x6661696C656420746F207472616E736665722065746865720000000000000000 PUSH1 0x44 DUP3 ADD MSTORE PUSH1 0x64 SWAP1 REVERT INVALID LOG2 PUSH5 0x6970667358 0x22 SLT KECCAK256 SSTORE CALLCODE SWAP4 SWAP13 PUSH18 0xCD433062D8E61B49A33AFFD3650A65EAED03 PUSH17 0xBB3A74F4E5FD06FF64736F6C6343000811 STOP CALLER 0xF6 MSTORE 0x22 0x23 SGT 0xE2 DUP5 MSIZE MSTORE DUP14 SWAP3 SIGNEXTEND PUSH6 0x115C16C04F3E 0xFC DUP3 0xAA 0xED 0xC9 PUSH28 0xE59F3F377C0D3F000000000000000000000000000000000000000000 "},"methodIdentifiers":{"DEFAULT_ADMIN_ROLE()":"a217fddf","allowance(address,address)":"dd62ed3e","approve(address,uint256)":"095ea7b3","balanceOf(address)":"70a08231","decimals()":"313ce567","decreaseAllowance(address,uint256)":"a457c2d7","excludeFromPayingTax(address)":"8e6dda25","getRoleAdmin(bytes32)":"248a9ca3","grantRole(bytes32,address)":"2f2ff15d","hasRole(bytes32,address)":"91d14854","inSwapAndLiquify()":"220f6696","includeInTaxPayment(address)":"f3bf29de","increaseAllowance(address,uint256)":"39509351","liquidityExclusionPrivilege()":"31e4e4e5","liquidityPercentageForEcosystem()":"59102d1c","maxAmount()":"5f48f393","minHoldOfTokenForContract()":"5c2a00b2","name()":"06fdde03","owner()":"8da5cb5b","renounceOwnership()":"715018a6","renounceRole(bytes32,address)":"36568abe","retrieveERC20(address,address,uint256)":"d63f4594","retrieveEther(address)":"084a1392","revokeRole(bytes32,address)":"d547741f","setIUniswapV2Router(address)":"3821a758","setLiquidityPercentageForEcosystem(uint8)":"fd7b674d","setMaxAmount(uint256)":"4fe47f70","setMinHoldOfTokenForContract(uint256)":"c676ee6b","setQuasarRouter(address)":"f62e3831","setSphynxRouter(address)":"f6ed11c1","setTaxCollector(address)":"08695b41","setTaxPercentage(uint8)":"a5ffad52","supportsInterface(bytes4)":"01ffc9a7","swapAndLiquifyEnabled()":"4a74bb02","switchSwapAndLiquifyEnabled()":"808c1643","symbol()":"95d89b41","taxCollector()":"bea1dcf8","taxExclusionPrivilege()":"46e65523","taxPercentage()":"ae7b6d16","totalSupply()":"18160ddd","transfer(address,uint256)":"a9059cbb","transferFrom(address,address,uint256)":"23b872dd","transferOwnership(address)":"f2fde38b"}}}}}