{
  "contracts/VefiEcosystemTokenUpdated.sol": {
    "VefiEcosystemTokenUpdated": {
      "abi": [
        {
          "inputs": [
            {
              "internalType": "string",
              "name": "name_",
              "type": "string"
            },
            {
              "internalType": "string",
              "name": "symbol_",
              "type": "string"
            },
            {
              "internalType": "uint256",
              "name": "amount",
              "type": "uint256"
            },
            {
              "internalType": "address",
              "name": "_taxCollector",
              "type": "address"
            },
            {
              "internalType": "uint8",
              "name": "_taxPercentage",
              "type": "uint8"
            }
          ],
          "stateMutability": "nonpayable",
          "type": "constructor"
        },
        {
          "anonymous": false,
          "inputs": [
            {
              "indexed": true,
              "internalType": "address",
              "name": "owner",
              "type": "address"
            },
            {
              "indexed": true,
              "internalType": "address",
              "name": "spender",
              "type": "address"
            },
            {
              "indexed": false,
              "internalType": "uint256",
              "name": "value",
              "type": "uint256"
            }
          ],
          "name": "Approval",
          "type": "event"
        },
        {
          "anonymous": false,
          "inputs": [
            {
              "indexed": true,
              "internalType": "address",
              "name": "previousOwner",
              "type": "address"
            },
            {
              "indexed": true,
              "internalType": "address",
              "name": "newOwner",
              "type": "address"
            }
          ],
          "name": "OwnershipTransferred",
          "type": "event"
        },
        {
          "anonymous": false,
          "inputs": [
            {
              "indexed": true,
              "internalType": "bytes32",
              "name": "role",
              "type": "bytes32"
            },
            {
              "indexed": true,
              "internalType": "bytes32",
              "name": "previousAdminRole",
              "type": "bytes32"
            },
            {
              "indexed": true,
              "internalType": "bytes32",
              "name": "newAdminRole",
              "type": "bytes32"
            }
          ],
          "name": "RoleAdminChanged",
          "type": "event"
        },
        {
          "anonymous": false,
          "inputs": [
            {
              "indexed": true,
              "internalType": "bytes32",
              "name": "role",
              "type": "bytes32"
            },
            {
              "indexed": true,
              "internalType": "address",
              "name": "account",
              "type": "address"
            },
            {
              "indexed": true,
              "internalType": "address",
              "name": "sender",
              "type": "address"
            }
          ],
          "name": "RoleGranted",
          "type": "event"
        },
        {
          "anonymous": false,
          "inputs": [
            {
              "indexed": true,
              "internalType": "bytes32",
              "name": "role",
              "type": "bytes32"
            },
            {
              "indexed": true,
              "internalType": "address",
              "name": "account",
              "type": "address"
            },
            {
              "indexed": true,
              "internalType": "address",
              "name": "sender",
              "type": "address"
            }
          ],
          "name": "RoleRevoked",
          "type": "event"
        },
        {
          "anonymous": false,
          "inputs": [
            {
              "indexed": true,
              "internalType": "address",
              "name": "from",
              "type": "address"
            },
            {
              "indexed": true,
              "internalType": "address",
              "name": "to",
              "type": "address"
            },
            {
              "indexed": false,
              "internalType": "uint256",
              "name": "value",
              "type": "uint256"
            }
          ],
          "name": "Transfer",
          "type": "event"
        },
        {
          "inputs": [],
          "name": "DEFAULT_ADMIN_ROLE",
          "outputs": [
            {
              "internalType": "bytes32",
              "name": "",
              "type": "bytes32"
            }
          ],
          "stateMutability": "view",
          "type": "function"
        },
        {
          "inputs": [
            {
              "internalType": "address",
              "name": "owner",
              "type": "address"
            },
            {
              "internalType": "address",
              "name": "spender",
              "type": "address"
            }
          ],
          "name": "allowance",
          "outputs": [
            {
              "internalType": "uint256",
              "name": "",
              "type": "uint256"
            }
          ],
          "stateMutability": "view",
          "type": "function"
        },
        {
          "inputs": [
            {
              "internalType": "address",
              "name": "spender",
              "type": "address"
            },
            {
              "internalType": "uint256",
              "name": "amount",
              "type": "uint256"
            }
          ],
          "name": "approve",
          "outputs": [
            {
              "internalType": "bool",
              "name": "",
              "type": "bool"
            }
          ],
          "stateMutability": "nonpayable",
          "type": "function"
        },
        {
          "inputs": [
            {
              "internalType": "address",
              "name": "account",
              "type": "address"
            }
          ],
          "name": "balanceOf",
          "outputs": [
            {
              "internalType": "uint256",
              "name": "",
              "type": "uint256"
            }
          ],
          "stateMutability": "view",
          "type": "function"
        },
        {
          "inputs": [],
          "name": "decimals",
          "outputs": [
            {
              "internalType": "uint8",
              "name": "",
              "type": "uint8"
            }
          ],
          "stateMutability": "view",
          "type": "function"
        },
        {
          "inputs": [
            {
              "internalType": "address",
              "name": "spender",
              "type": "address"
            },
            {
              "internalType": "uint256",
              "name": "subtractedValue",
              "type": "uint256"
            }
          ],
          "name": "decreaseAllowance",
          "outputs": [
            {
              "internalType": "bool",
              "name": "",
              "type": "bool"
            }
          ],
          "stateMutability": "nonpayable",
          "type": "function"
        },
        {
          "inputs": [
            {
              "internalType": "address",
              "name": "account",
              "type": "address"
            }
          ],
          "name": "excludeFromPayingTax",
          "outputs": [],
          "stateMutability": "nonpayable",
          "type": "function"
        },
        {
          "inputs": [
            {
              "internalType": "bytes32",
              "name": "role",
              "type": "bytes32"
            }
          ],
          "name": "getRoleAdmin",
          "outputs": [
            {
              "internalType": "bytes32",
              "name": "",
              "type": "bytes32"
            }
          ],
          "stateMutability": "view",
          "type": "function"
        },
        {
          "inputs": [
            {
              "internalType": "bytes32",
              "name": "role",
              "type": "bytes32"
            },
            {
              "internalType": "address",
              "name": "account",
              "type": "address"
            }
          ],
          "name": "grantRole",
          "outputs": [],
          "stateMutability": "nonpayable",
          "type": "function"
        },
        {
          "inputs": [
            {
              "internalType": "bytes32",
              "name": "role",
              "type": "bytes32"
            },
            {
              "internalType": "address",
              "name": "account",
              "type": "address"
            }
          ],
          "name": "hasRole",
          "outputs": [
            {
              "internalType": "bool",
              "name": "",
              "type": "bool"
            }
          ],
          "stateMutability": "view",
          "type": "function"
        },
        {
          "inputs": [],
          "name": "inSwapAndLiquify",
          "outputs": [
            {
              "internalType": "bool",
              "name": "",
              "type": "bool"
            }
          ],
          "stateMutability": "view",
          "type": "function"
        },
        {
          "inputs": [
            {
              "internalType": "address",
              "name": "account",
              "type": "address"
            }
          ],
          "name": "includeInTaxPayment",
          "outputs": [],
          "stateMutability": "nonpayable",
          "type": "function"
        },
        {
          "inputs": [
            {
              "internalType": "address",
              "name": "spender",
              "type": "address"
            },
            {
              "internalType": "uint256",
              "name": "addedValue",
              "type": "uint256"
            }
          ],
          "name": "increaseAllowance",
          "outputs": [
            {
              "internalType": "bool",
              "name": "",
              "type": "bool"
            }
          ],
          "stateMutability": "nonpayable",
          "type": "function"
        },
        {
          "inputs": [],
          "name": "liquidityExclusionPrivilege",
          "outputs": [
            {
              "internalType": "bytes32",
              "name": "",
              "type": "bytes32"
            }
          ],
          "stateMutability": "view",
          "type": "function"
        },
        {
          "inputs": [],
          "name": "liquidityPercentageForEcosystem",
          "outputs": [
            {
              "internalType": "uint8",
              "name": "",
              "type": "uint8"
            }
          ],
          "stateMutability": "view",
          "type": "function"
        },
        {
          "inputs": [],
          "name": "maxAmount",
          "outputs": [
            {
              "internalType": "uint256",
              "name": "",
              "type": "uint256"
            }
          ],
          "stateMutability": "view",
          "type": "function"
        },
        {
          "inputs": [],
          "name": "minHoldOfTokenForContract",
          "outputs": [
            {
              "internalType": "uint256",
              "name": "",
              "type": "uint256"
            }
          ],
          "stateMutability": "view",
          "type": "function"
        },
        {
          "inputs": [],
          "name": "name",
          "outputs": [
            {
              "internalType": "string",
              "name": "",
              "type": "string"
            }
          ],
          "stateMutability": "view",
          "type": "function"
        },
        {
          "inputs": [],
          "name": "owner",
          "outputs": [
            {
              "internalType": "address",
              "name": "",
              "type": "address"
            }
          ],
          "stateMutability": "view",
          "type": "function"
        },
        {
          "inputs": [],
          "name": "renounceOwnership",
          "outputs": [],
          "stateMutability": "nonpayable",
          "type": "function"
        },
        {
          "inputs": [
            {
              "internalType": "bytes32",
              "name": "role",
              "type": "bytes32"
            },
            {
              "internalType": "address",
              "name": "account",
              "type": "address"
            }
          ],
          "name": "renounceRole",
          "outputs": [],
          "stateMutability": "nonpayable",
          "type": "function"
        },
        {
          "inputs": [
            {
              "internalType": "address",
              "name": "token",
              "type": "address"
            },
            {
              "internalType": "address",
              "name": "to",
              "type": "address"
            },
            {
              "internalType": "uint256",
              "name": "amount",
              "type": "uint256"
            }
          ],
          "name": "retrieveERC20",
          "outputs": [],
          "stateMutability": "nonpayable",
          "type": "function"
        },
        {
          "inputs": [
            {
              "internalType": "address",
              "name": "to",
              "type": "address"
            }
          ],
          "name": "retrieveEther",
          "outputs": [],
          "stateMutability": "nonpayable",
          "type": "function"
        },
        {
          "inputs": [
            {
              "internalType": "bytes32",
              "name": "role",
              "type": "bytes32"
            },
            {
              "internalType": "address",
              "name": "account",
              "type": "address"
            }
          ],
          "name": "revokeRole",
          "outputs": [],
          "stateMutability": "nonpayable",
          "type": "function"
        },
        {
          "inputs": [
            {
              "internalType": "address",
              "name": "router",
              "type": "address"
            }
          ],
          "name": "setIUniswapV2Router",
          "outputs": [],
          "stateMutability": "nonpayable",
          "type": "function"
        },
        {
          "inputs": [
            {
              "internalType": "uint8",
              "name": "_lpPercentage",
              "type": "uint8"
            }
          ],
          "name": "setLiquidityPercentageForEcosystem",
          "outputs": [],
          "stateMutability": "nonpayable",
          "type": "function"
        },
        {
          "inputs": [
            {
              "internalType": "uint256",
              "name": "_max",
              "type": "uint256"
            }
          ],
          "name": "setMaxAmount",
          "outputs": [],
          "stateMutability": "nonpayable",
          "type": "function"
        },
        {
          "inputs": [
            {
              "internalType": "uint256",
              "name": "minHold",
              "type": "uint256"
            }
          ],
          "name": "setMinHoldOfTokenForContract",
          "outputs": [],
          "stateMutability": "nonpayable",
          "type": "function"
        },
        {
          "inputs": [
            {
              "internalType": "address",
              "name": "router",
              "type": "address"
            }
          ],
          "name": "setSphynxRouter",
          "outputs": [],
          "stateMutability": "nonpayable",
          "type": "function"
        },
        {
          "inputs": [
            {
              "internalType": "address",
              "name": "_taxCollector",
              "type": "address"
            }
          ],
          "name": "setTaxCollector",
          "outputs": [],
          "stateMutability": "nonpayable",
          "type": "function"
        },
        {
          "inputs": [
            {
              "internalType": "uint8",
              "name": "_taxPercentage",
              "type": "uint8"
            }
          ],
          "name": "setTaxPercentage",
          "outputs": [],
          "stateMutability": "nonpayable",
          "type": "function"
        },
        {
          "inputs": [
            {
              "internalType": "bytes4",
              "name": "interfaceId",
              "type": "bytes4"
            }
          ],
          "name": "supportsInterface",
          "outputs": [
            {
              "internalType": "bool",
              "name": "",
              "type": "bool"
            }
          ],
          "stateMutability": "view",
          "type": "function"
        },
        {
          "inputs": [],
          "name": "swapAndLiquifyEnabled",
          "outputs": [
            {
              "internalType": "bool",
              "name": "",
              "type": "bool"
            }
          ],
          "stateMutability": "view",
          "type": "function"
        },
        {
          "inputs": [],
          "name": "switchSwapAndLiquifyEnabled",
          "outputs": [],
          "stateMutability": "nonpayable",
          "type": "function"
        },
        {
          "inputs": [],
          "name": "symbol",
          "outputs": [
            {
              "internalType": "string",
              "name": "",
              "type": "string"
            }
          ],
          "stateMutability": "view",
          "type": "function"
        },
        {
          "inputs": [],
          "name": "taxCollector",
          "outputs": [
            {
              "internalType": "address",
              "name": "",
              "type": "address"
            }
          ],
          "stateMutability": "view",
          "type": "function"
        },
        {
          "inputs": [],
          "name": "taxExclusionPrivilege",
          "outputs": [
            {
              "internalType": "bytes32",
              "name": "",
              "type": "bytes32"
            }
          ],
          "stateMutability": "view",
          "type": "function"
        },
        {
          "inputs": [],
          "name": "taxPercentage",
          "outputs": [
            {
              "internalType": "uint8",
              "name": "",
              "type": "uint8"
            }
          ],
          "stateMutability": "view",
          "type": "function"
        },
        {
          "inputs": [],
          "name": "totalSupply",
          "outputs": [
            {
              "internalType": "uint256",
              "name": "",
              "type": "uint256"
            }
          ],
          "stateMutability": "view",
          "type": "function"
        },
        {
          "inputs": [
            {
              "internalType": "address",
              "name": "to",
              "type": "address"
            },
            {
              "internalType": "uint256",
              "name": "amount",
              "type": "uint256"
            }
          ],
          "name": "transfer",
          "outputs": [
            {
              "internalType": "bool",
              "name": "",
              "type": "bool"
            }
          ],
          "stateMutability": "nonpayable",
          "type": "function"
        },
        {
          "inputs": [
            {
              "internalType": "address",
              "name": "from",
              "type": "address"
            },
            {
              "internalType": "address",
              "name": "to",
              "type": "address"
            },
            {
              "internalType": "uint256",
              "name": "amount",
              "type": "uint256"
            }
          ],
          "name": "transferFrom",
          "outputs": [
            {
              "internalType": "bool",
              "name": "",
              "type": "bool"
            }
          ],
          "stateMutability": "nonpayable",
          "type": "function"
        },
        {
          "inputs": [
            {
              "internalType": "address",
              "name": "newOwner",
              "type": "address"
            }
          ],
          "name": "transferOwnership",
          "outputs": [],
          "stateMutability": "nonpayable",
          "type": "function"
        },
        {
          "stateMutability": "payable",
          "type": "receive"
        }
      ],
      "evm": {
        "bytecode": {
          "linkReferences": {},
          "object": "6080604081815234620008a65762002d5f8038038091620000218286620008dd565b843982019160a081840312620008a65780516001600160401b039390848111620008a657816200005391840162000901565b906020908184015190868211620008a6576200007191850162000901565b848401516080620000856060870162000978565b9501519460ff86168603620008a65760008054336001600160a01b0319808316821784559a6001600160a01b03989396939290919089167f8be0079c531659141344cd1fd0a4f28419497f9722a3daafe3b4186f6b6457e08880a3815192818411620008925760058054946001948587811c9716801562000887575b8b881014620008735781908b601f988981116200081f575b50508b90888311600114620007ba578b92620007ae575b5050600019600383901b1c191690851b1781555b81519283116200079a57600654908482811c921680156200078f575b8a8310146200077b5785821162000734575b50508790848311600114620006ce579282939183928994620006c2575b50501b916000199060031b1c1916176006555b87518581019086825260178a8201527f5441585f4558434c5553494f4e5f50524956494c454745000000000000000000606082015260608152620001e681620008ab565b519020600855875185810190868252601d8a8201527f4c49515549444954595f4558434c5553494f4e5f50524956494c4547450000006060820152606081526200023081620008ab565b519020600955600b80546b024306c4097859c43c000000600c55691969368974c05b000000600d55600780548c16858a1617905561ffff60a01b191660a09890981b60ff60a01b1697909717600160ab1b1787553315620006805750620002fe90600492620002a181855462000a08565b845533855260028652888520620002ba82825462000a08565b90558851908152847fddf252ad1be2c89b69c2b068fc378daa952ba7f163c4a11628f55a4df523b3ef873393a3620002f5336008546200098d565b6008546200098d565b73bb5e1777a331ed93e07cf043363e48d320eb96c47383f465457c8cafbe85abb941f20291f826c7f72a978881600a541617600a5586541617855585519663c45a015560e01b9081895284898481845afa9889156200067657849962000633575b508751858185816315ab88c960e31b958682525afa9081156200055f578591620005f6575b5088516364e329cb60e11b8082526001600160a01b03909216858201908152306020820152909a87918c9190829089908c9083906040010393165af1998a156200055f57859a620005b7575b508688541691895193845286848681865afa938415620005ad57908791879562000569575b50858b518095819382525afa9182156200055f57918693918695938997926200050a575b508a519081526001600160a01b039091169281019283523060208401529485928391869183906040015b0393165af1928315620004fe578193620004aa575b5050506200047c90620004736200049c95966009546200098d565b6009546200098d565b6200048f60095482600a5416906200098d565b600954915416906200098d565b51612332908162000a2d8239f35b9091809350813d8311620004f6575b620004c58183620008dd565b81010312620004f357506200049c939462000473620004e86200047c9362000978565b928297965062000458565b80fd5b503d620004b9565b508551903d90823e3d90fd5b92948391949697508092503d831162000557575b6200052a8183620008dd565b8101031262000553579184939162000443958862000549899662000978565b9291509662000419565b8480fd5b503d6200051e565b89513d87823e3d90fd5b8281939296503d8311620005a5575b620005848183620008dd565b81010312620005a15762000599879162000978565b9338620003f5565b8580fd5b503d62000578565b8a513d88823e3d90fd5b9099508581813d8311620005ee575b620005d28183620008dd565b810103126200055357620005e69062000978565b9838620003d0565b503d620005c6565b90508581813d83116200062b575b620006108183620008dd565b810103126200055357620006249062000978565b3862000384565b503d62000604565b9098508481813d83116200066e575b6200064e8183620008dd565b810103126200066a57620006629062000978565b97386200035f565b8380fd5b503d62000642565b88513d86823e3d90fd5b8460649189519162461bcd60e51b8352600483015260248201527f45524332303a206d696e7420746f20746865207a65726f2061646472657373006044820152fd5b0151925038806200018f565b60068852888820919083601f1981168a5b8c888383106200071c575050501062000702575b505050811b01600655620001a2565b015160001960f88460031b161c19169055388080620006f3565b868601518855909601959485019487935001620006df565b600689528989209086808601821c8301938c871062000771575b01901c019084905b82811062000765575062000172565b89815501849062000756565b935082936200074e565b634e487b7160e01b89526022600452602489fd5b91607f169162000160565b634e487b7160e01b88526041600452602488fd5b01519050388062000130565b848c528c8c208894509190601f1984168d8f5b828210620008075750508411620007ed575b505050811b01815562000144565b015160001960f88460031b161c19169055388080620007df565b8385015186558b979095019493840193018f620007cd565b90919250848c5288828d2091818601871c830193861062000869575b9189918695949301871c01915b8281106200085a57508d915062000119565b8d815585945089910162000848565b925081926200083b565b634e487b7160e01b8a52602260045260248afd5b96607f169662000101565b634e487b7160e01b87526041600452602487fd5b600080fd5b608081019081106001600160401b03821117620008c757604052565b634e487b7160e01b600052604160045260246000fd5b601f909101601f19168101906001600160401b03821190821017620008c757604052565b919080601f84011215620008a6578251906001600160401b038211620008c757604051916020916200093d601f8301601f1916840185620008dd565b818452828287010111620008a65760005b8181106200096457508260009394955001015290565b85810183015184820184015282016200094e565b51906001600160a01b0382168203620008a657565b906000918083526001602052604083209160018060a01b03169182845260205260ff60408420541615620009c057505050565b80835260016020526040832082845260205260408320600160ff198254161790557f2f8788117e7eff1d82e926ec794901d17c78024a50270940304540a733656f0d339380a4565b9190820180921162000a1657565b634e487b7160e01b600052601160045260246000fdfe608060409080825260049081361015610023575b505050361561002157600080fd5b005b600092833560e01c91826301ffc9a714610f405750816306fdde0314610e82578163084a139214610e5257816308695b4114610df5578163095ea7b314610dcb57816318160ddd14610dac578163220f669614610d8557816323b872dd14610ccc578163248a9ca314610ca15781632f2ff15d14610c78578163313ce56714610c5c57816331e4e4e514610c3d57816336568abe14610bac5781633821a75814610b6c5781633950935114610b1c57816346e6552314610afd5781634a74bb0214610ad95781634fe47f7014610ab757816359102d1c14610a925781635c2a00b214610a735781635f48f39314610a5457816370a0823114610a1c578163715018a6146109c2578163808c1643146109935781638da5cb5b1461096b5781638e6dda25146108c457816391d148541461087c57816395d89b411461077a578163a217fddf1461075f578163a457c2d7146106bb578163a5ffad5214610675578163a9059cbb14610644578163ae7b6d161461061f578163bea1dcf8146105f6578163c676ee6b146105d4578163d547741f1461059a578163d63f45941461043b578163dd62ed3e146103f2578163f2fde38b1461032a578163f3bf29de1461028c57508063f6ed11c1146102495763fd7b674d146102015780610013565b34610245576020366003190112610245573560ff811681036102455761022561149b565b600b805460ff60a81b191660a89290921b60ff60a81b1691909117905580f35b5080fd5b823461028957602036600319011261028957610263610fe3565b61026b61149b565b60018060a01b03166001600160601b0360a01b600a541617600a5580f35b80fd5b838334610245576020366003190112610245576102a7610fe3565b906102b061149b565b600854906102e18383600052600160205260406000209060018060a01b031660005260205260ff6040600020541690565b156102f45750906102f191611425565b80f35b606490602086519162461bcd60e51b8352820152601060248201526f0c2d8e4cac2c8f2bee0c2f2e6bee8c2f60831b6044820152fd5b919050346103ee5760203660031901126103ee57610346610fe3565b9061034f61149b565b6001600160a01b0391821692831561039c57505082546001600160a01b0319811683178455167f8be0079c531659141344cd1fd0a4f28419497f9722a3daafe3b4186f6b6457e08380a380f35b906020608492519162461bcd60e51b8352820152602660248201527f4f776e61626c653a206e6577206f776e657220697320746865207a65726f206160448201526564647265737360d01b6064820152fd5b8280fd5b83903461024557806003193601126102455780602092610410610fe3565b610418610ffe565b6001600160a01b0391821683526003865283832091168252845220549051908152f35b9050346103ee5761044b36611014565b61045361149b565b823b1561056057835167ffffffffffffffff908086018281118282101761054d577f7472616e7366657228616464726573732c75696e743235362900000000000000916020918852601981520152845191602083019363a9059cbb60e01b855260018060a01b0316602484015260448301526044825260808201908282109082111761053a57845251859283929083905af16104ed61225c565b50156104f7578280f35b906020606492519162461bcd60e51b8352820152601e60248201527f6c6f775f6c6576656c5f636f6e74726163745f63616c6c5f6661696c656400006044820152fd5b634e487b7160e01b875260418652602487fd5b634e487b7160e01b895260418852602489fd5b835162461bcd60e51b8152602081870152601460248201527318d85b1b17dd1bd7db9bdb97d8dbdb9d1c9858dd60621b6044820152606490fd5b9050346103ee57806003193601126103ee576102f191356105cf60016105be610ffe565b938387528160205286200154611049565b611425565b505034610245576020366003190112610245576105ef61149b565b35600d5580f35b83903461024557816003193601126102455760075490516001600160a01b039091168152602090f35b83903461024557816003193601126102455760209060ff600b5460a01c169051908152f35b83903461024557806003193601126102455760209061066e610664610fe3565b6024359033611652565b5160018152f35b505034610245576020366003190112610245573560ff811681036102455761069b61149b565b600b805460ff60a01b191660a09290921b60ff60a01b1691909117905580f35b8284346102895782600319360112610289576106d5610fe3565b918360243592338152600360205281812060018060a01b038616825260205220549082821061070e5760208561066e8585038733611516565b608490602086519162461bcd60e51b8352820152602560248201527f45524332303a2064656372656173656420616c6c6f77616e63652062656c6f77604482015264207a65726f60d81b6064820152fd5b83903461024557816003193601126102455751908152602090f35b9050346103ee57826003193601126103ee57805191836006549060019082821c928281168015610872575b602095868610821461085f575084885290811561083d57506001146107e4575b6107e086866107d6828b0383611389565b5191829182610fb7565b0390f35b929550600683527ff652222313e28459528d920b65115c16c04f3efc82aaedc97be59f3f377c0d3f5b82841061082a57505050826107e0946107d69282010194386107c5565b805486850188015292860192810161080d565b60ff191687860152505050151560051b83010192506107d6826107e0386107c5565b634e487b7160e01b845260229052602483fd5b93607f16936107a5565b919050346103ee57816003193601126103ee578160209360ff9261089e610ffe565b90358252600186528282206001600160a01b039091168252855220549151911615158152f35b838334610245576020366003190112610245576108df610fe3565b906108e861149b565b600854906109198383600052600160205260406000209060018060a01b031660005260205260ff6040600020541690565b6109285750906102f1916113ab565b606490602086519162461bcd60e51b8352820152602060248201527f616c72656164795f6578636c756465645f66726f6d5f706179696e675f7461786044820152fd5b839034610245578160031936011261024557905490516001600160a01b039091168152602090f35b83346102895780600319360112610289576109ac61149b565b600e5460ff80821615169060ff191617600e5580f35b83346102895780600319360112610289576109db61149b565b80546001600160a01b03198116825581906001600160a01b03167f8be0079c531659141344cd1fd0a4f28419497f9722a3daafe3b4186f6b6457e08280a380f35b8390346102455760203660031901126102455760209181906001600160a01b03610a44610fe3565b1681526002845220549051908152f35b839034610245578160031936011261024557602090600c549051908152f35b839034610245578160031936011261024557602090600d549051908152f35b83903461024557816003193601126102455760209060ff600b5460a81c169051908152f35b50503461024557602036600319011261024557610ad261149b565b35600c5580f35b83903461024557816003193601126102455760209060ff600e541690519015158152f35b8390346102455781600319360112610245576020906008549051908152f35b83903461024557806003193601126102455761066e602092610b65610b3f610fe3565b338352600386528483206001600160a01b038216845286529184902054602435906114f3565b9033611516565b833461028957602036600319011261028957610b86610fe3565b610b8e61149b565b60018060a01b03166001600160601b0360a01b600b541617600b5580f35b838334610245578260031936011261024557610bc6610ffe565b90336001600160a01b03831603610be257906102f19135611425565b608490602085519162461bcd60e51b8352820152602f60248201527f416363657373436f6e74726f6c3a2063616e206f6e6c792072656e6f756e636560448201526e103937b632b9903337b91039b2b63360891b6064820152fd5b8390346102455781600319360112610245576020906009549051908152f35b8390346102455781600319360112610245576020905160128152f35b9050346103ee57806003193601126103ee576102f19135610c9c60016105be610ffe565b6113ab565b919050346103ee5760203660031901126103ee57816020936001923581528285522001549051908152f35b8284346102895782610cdd36611014565b6001600160a01b03831685526003602090815284862033875290529290932054919390919060018201610d19575b60208661066e878787611652565b848210610d425750918391610d376020969561066e95033383611516565b919394819350610d0b565b606490602087519162461bcd60e51b8352820152601d60248201527f45524332303a20696e73756666696369656e7420616c6c6f77616e63650000006044820152fd5b83903461024557816003193601126102455760209060ff600e5460081c1690519015158152f35b919050346103ee57826003193601126103ee5760209250549051908152f35b83903461024557806003193601126102455760209061066e610deb610fe3565b6024359033611516565b8334610289576020366003190112610289576102f1610e12610fe3565b610e1a61149b565b6008546007546001600160a01b0391610e3591831690611425565b81166001600160601b0360a01b60075416176007556008546113ab565b833461028957602036600319011261028957610e7e610e6f610fe3565b610e7761149b565b479061229c565b5080f35b9050346103ee57826003193601126103ee57805191836005549060019082821c928281168015610f36575b602095868610821461085f575084885290811561083d5750600114610edd576107e086866107d6828b0383611389565b929550600583527f036b6384b5eca791c62761152d0c79bb0604c104a5fb6f4eb0703f3154bb3db05b828410610f2357505050826107e0946107d69282010194386107c5565b8054868501880152928601928101610f06565b93607f1693610ead565b849084346103ee5760203660031901126103ee573563ffffffff60e01b81168091036103ee5760209250637965db0b60e01b8114908115610f83575b5015158152f35b6301ffc9a760e01b14905083610f7c565b60005b838110610fa75750506000910152565b8181015183820152602001610f97565b60409160208252610fd78151809281602086015260208686019101610f94565b601f01601f1916010190565b600435906001600160a01b0382168203610ff957565b600080fd5b602435906001600160a01b0382168203610ff957565b6060906003190112610ff9576001600160a01b03906004358281168103610ff957916024359081168103610ff9579060443590565b6000818152600190602091808352604093848320338452845260ff858420541615611075575050505050565b845133916110828261136d565b602a8252858201928736853782511561132f5760308453825185101561132f576078602184015360295b8581116112c55750611283578651936080850185811067ffffffffffffffff82111761126f5788526042855286850195606036883785511561125b5760308753855182101561125b5790607860218701536041915b8183116111ed575050506111ab57938593611191936111826048946111597f416363657373436f6e74726f6c3a206163636f756e7420000000000000000000996111a79b519a8b978801525180926037880190610f94565b8401917001034b99036b4b9b9b4b733903937b6329607d1b603784015251809386840190610f94565b01036028810185520183611389565b5162461bcd60e51b815291829160048301610fb7565b0390fd5b60648587519062461bcd60e51b825280600483015260248201527f537472696e67733a20686578206c656e67746820696e73756666696369656e746044820152fd5b909192600f81166010811015611247576f181899199a1a9b1b9c1cb0b131b232b360811b901a61121d858961162b565b5360041c92801561123357600019019190611101565b634e487b7160e01b82526011600452602482fd5b634e487b7160e01b83526032600452602483fd5b634e487b7160e01b81526032600452602490fd5b634e487b7160e01b87526041600452602487fd5b60648688519062461bcd60e51b825280600483015260248201527f537472696e67733a20686578206c656e67746820696e73756666696369656e746044820152fd5b90600f8116601081101561131b576f181899199a1a9b1b9c1cb0b131b232b360811b901a6112f3838661162b565b5360041c90801561130757600019016110ac565b634e487b7160e01b87526011600452602487fd5b634e487b7160e01b88526032600452602488fd5b634e487b7160e01b86526032600452602486fd5b67ffffffffffffffff811161135757604052565b634e487b7160e01b600052604160045260246000fd5b6060810190811067ffffffffffffffff82111761135757604052565b90601f8019910116810190811067ffffffffffffffff82111761135757604052565b906000918083526001602052604083209160018060a01b03169182845260205260ff604084205416156113dd57505050565b80835260016020526040832082845260205260408320600160ff198254161790557f2f8788117e7eff1d82e926ec794901d17c78024a50270940304540a733656f0d339380a4565b906000918083526001602052604083209160018060a01b03169182845260205260ff60408420541661145657505050565b8083526001602052604083208284526020526040832060ff1981541690557ff6391f5c32d9c69d2a47ea670b442974b53935d1edc7fd64eb21e047a839171b339380a4565b6000546001600160a01b031633036114af57565b606460405162461bcd60e51b815260206004820152602060248201527f4f776e61626c653a2063616c6c6572206973206e6f7420746865206f776e65726044820152fd5b9190820180921161150057565b634e487b7160e01b600052601160045260246000fd5b6001600160a01b039081169182156115c757169182156115775760207f8c5be1e5ebec7d5bd14f71427d1e84f3dd0314c0f7b2291e5b200ac8c7c3b925918360005260038252604060002085600052825280604060002055604051908152a3565b60405162461bcd60e51b815260206004820152602260248201527f45524332303a20617070726f766520746f20746865207a65726f206164647265604482015261737360f01b6064820152608490fd5b60405162461bcd60e51b8152602060048201526024808201527f45524332303a20617070726f76652066726f6d20746865207a65726f206164646044820152637265737360e01b6064820152608490fd5b8181029291811591840414171561150057565b90815181101561163c570160200190565b634e487b7160e01b600052603260045260246000fd5b6000805490949392906001600160a01b03808416911681811415908161201d575b81611fea575b50611f8a575b60085460009081526001602090815260408083206001600160a01b038716845290915290205460ff16159081611f7f575b5015611f7357600360646116cc60ff600b5460a01c1686611618565b0404928360011c953081526002602052604081205490600c5480831015611f6b575b50600d5482101561172486600954600052600160205260406000209060018060a01b031660005260205260ff6040600020541690565b159081611f63575b5080611f53575b80611f47575b61179a575b50509461177461177b9261176d83611762611798999a6117678a61176281806114f3565b6114f3565b906121aa565b9085612033565b8280612033565b611786823083612033565b6007546001600160a01b031690612033565b565b61010061ff0019600e541617600e556117b68260011c836121aa565b9147906117d18160021c60018060a01b03600a541630611516565b600b546117ed90600283901c906001600160a01b031630611516565b600a5460405163c45a015560e01b8152906001600160a01b0316602082600481845afa918215611df8578592611f26575b506040519161182c8361136d565b60028352602083016040368237835115611ef3573090526040516315ab88c960e31b8152602081600481865afa908115611d81578791611f07575b50835160011015611ef3576001600160a01b0316604084810191909152516315ab88c960e31b815290602082600481865afa918215611d81578792611ed2575b506040516315ab88c960e31b815290602082600481875afa918215611dab5791602091611909938a92611d8c575b5060405163e6a4390560e01b81523060048201526001600160a01b0390921660248301529092839190829081906044820190565b03916001600160a01b03165afa908115611d8157906020918891611eb5575b506040516370a0823160e01b81526001600160a01b0391821660048201529283916024918391165afa908115611c62578691611e7f575b50611e03575b5050600b5460405163c45a015560e01b8152906001600160a01b0316602082600481845afa918215611df8578592611dd7575b50604051916119a68361136d565b6002835260403660208501376040516315ab88c960e31b815290602082600481865afa918215611d81578792611db6575b506040516315ab88c960e31b815290602082600481875afa918215611dab5791602091611a38938a92611d8c575060405163e6a4390560e01b81523060048201526001600160a01b0390921660248301529092839190829081906044820190565b03916001600160a01b03165afa908115611d8157906020918891611d54575b506040516370a0823160e01b81526001600160a01b0391821660048201529283916024918391165afa908115611c62578691611d22575b50611c9e575b505050611aa190476121aa565b91611ac16064611ab960ff600b5460a81c1686611618565b0480946121aa565b9280611c81575b5060011c611ae18160018060a01b03600a541630611516565b600b54611af99082906001600160a01b031630611516565b60018060a01b03600a54166104b0420191824211611c6d5760405163f305d71960e01b8082523060048301819052602483018490526000604484018190526064840152608483015260a48201859052606096909360019190911c91908790829060c490829086905af18015611c625791611bcb96959391889593611c45575b50600b54604051938452306004850181905260248501939093526000604485018190526064850152608484019290925260a4830193909352909485926001600160a01b03909216918391829060c4820190565b03925af1908115611c39575088611762611798999a956117749561177b989561176d95611c0d575b505061ff0019600e5416600e55955050989750509261173e565b81611c2c92903d10611c32575b611c248183611389565b8101906121b7565b50611bf3565b503d611c1a565b604051903d90823e3d90fd5b611c5b90863d8811611c3257611c248183611389565b5050611b78565b6040513d88823e3d90fd5b634e487b7160e01b84526011600452602484fd5b600754611c9791906001600160a01b031661229c565b5038611ac8565b60018060a01b0360075416916104b042019384421161130757823b15611d1e57908680949392611ce76040519788968795869463791ac94760e01b865260021c600486016121f1565b03925af18015611d1357908391611cff575b80611a94565b611d0890611343565b610245578138611cf9565b6040513d85823e3d90fd5b8680fd5b90506020813d602011611d4c575b81611d3d60209383611389565b81010312610ff9575138611a8e565b3d9150611d30565b611d749150823d8411611d7a575b611d6c8183611389565b8101906121d2565b38611a57565b503d611d62565b6040513d89823e3d90fd5b611da4919250833d8511611d7a57611d6c8183611389565b90386118d5565b6040513d8a823e3d90fd5b611dd091925060203d602011611d7a57611d6c8183611389565b90386119d7565b611df191925060203d602011611d7a57611d6c8183611389565b9038611998565b6040513d87823e3d90fd5b60018060a01b03600754166104b042019283421161130757823b15611d1e5791611e4c93918780946040519687958694859363791ac94760e01b85528b60021c600486016121f1565b03925af18015611e7457611e61575b80611965565b611e6d90939193611343565b9138611e5b565b6040513d86823e3d90fd5b90506020813d602011611ead575b81611e9a60209383611389565b81010312611ea957513861195f565b8580fd5b3d9150611e8d565b611ecc9150823d8411611d7a57611d6c8183611389565b38611928565b611eec91925060203d602011611d7a57611d6c8183611389565b90386118a7565b634e487b7160e01b87526032600452602487fd5b611f20915060203d602011611d7a57611d6c8183611389565b38611867565b611f4091925060203d602011611d7a57611d6c8183611389565b903861181e565b5060ff600e5416611739565b5060ff600e5460081c1615611733565b90503861172c565b9150386116ee565b90611798939450612033565b9050301415386116b0565b600c5484111561167f5760405162461bcd60e51b815260206004820152602860248201527f7472616e736665725f616d6f756e745f63616e6e6f745f6578636565645f6d616044820152671e17d85b5bdd5b9d60c21b6064820152608490fd5b6001600160a01b03841690811415915081612007575b5038611679565b6007546001600160a01b03161415905038612000565b6007546001600160a01b03168314159150611673565b6001600160a01b03908116918215612157571691821561210657600082815260026020526040812054918083106120b257604082827fddf252ad1be2c89b69c2b068fc378daa952ba7f163c4a11628f55a4df523b3ef958760209652600286520382822055868152206120a78282546114f3565b9055604051908152a3565b60405162461bcd60e51b815260206004820152602660248201527f45524332303a207472616e7366657220616d6f756e7420657863656564732062604482015265616c616e636560d01b6064820152608490fd5b60405162461bcd60e51b815260206004820152602360248201527f45524332303a207472616e7366657220746f20746865207a65726f206164647260448201526265737360e81b6064820152608490fd5b60405162461bcd60e51b815260206004820152602560248201527f45524332303a207472616e736665722066726f6d20746865207a65726f206164604482015264647265737360d81b6064820152608490fd5b9190820391821161150057565b90816060910312610ff9578051916040602083015192015190565b90816020910312610ff957516001600160a01b0381168103610ff95790565b91909493929460a0830190835260209060008285015260a0604085015282518091528160c0850193019160005b82811061223f5750505050906080919460018060a01b031660608201520152565b83516001600160a01b03168552938101939281019260010161221e565b3d15612297573d9067ffffffffffffffff8211611357576040519161228b601f8201601f191660200184611389565b82523d6000602084013e565b606090565b600080809381935af1906122ae61225c565b5081156122b757565b60405162461bcd60e51b815260206004820152601860248201527f6661696c656420746f207472616e7366657220657468657200000000000000006044820152606490fdfea264697066735822122076717a7c41a7719f81e86004adb27f8563cda8219c4945d32a73d8c3ece47edd64736f6c63430008110033",
          "opcodes": "PUSH1 0x80 PUSH1 0x40 DUP2 DUP2 MSTORE CALLVALUE PUSH3 0x8A6 JUMPI PUSH3 0x2D5F DUP1 CODESIZE SUB DUP1 SWAP2 PUSH3 0x21 DUP3 DUP7 PUSH3 0x8DD JUMP JUMPDEST DUP5 CODECOPY DUP3 ADD SWAP2 PUSH1 0xA0 DUP2 DUP5 SUB SLT PUSH3 0x8A6 JUMPI DUP1 MLOAD PUSH1 0x1 PUSH1 0x1 PUSH1 0x40 SHL SUB SWAP4 SWAP1 DUP5 DUP2 GT PUSH3 0x8A6 JUMPI DUP2 PUSH3 0x53 SWAP2 DUP5 ADD PUSH3 0x901 JUMP JUMPDEST SWAP1 PUSH1 0x20 SWAP1 DUP2 DUP5 ADD MLOAD SWAP1 DUP7 DUP3 GT PUSH3 0x8A6 JUMPI PUSH3 0x71 SWAP2 DUP6 ADD PUSH3 0x901 JUMP JUMPDEST DUP5 DUP5 ADD MLOAD PUSH1 0x80 PUSH3 0x85 PUSH1 0x60 DUP8 ADD PUSH3 0x978 JUMP JUMPDEST SWAP6 ADD MLOAD SWAP5 PUSH1 0xFF DUP7 AND DUP7 SUB PUSH3 0x8A6 JUMPI PUSH1 0x0 DUP1 SLOAD CALLER PUSH1 0x1 PUSH1 0x1 PUSH1 0xA0 SHL SUB NOT DUP1 DUP4 AND DUP3 OR DUP5 SSTORE SWAP11 PUSH1 0x1 PUSH1 0x1 PUSH1 0xA0 SHL SUB SWAP9 SWAP4 SWAP7 SWAP4 SWAP3 SWAP1 SWAP2 SWAP1 DUP10 AND PUSH32 0x8BE0079C531659141344CD1FD0A4F28419497F9722A3DAAFE3B4186F6B6457E0 DUP9 DUP1 LOG3 DUP2 MLOAD SWAP3 DUP2 DUP5 GT PUSH3 0x892 JUMPI PUSH1 0x5 DUP1 SLOAD SWAP5 PUSH1 0x1 SWAP5 DUP6 DUP8 DUP2 SHR SWAP8 AND DUP1 ISZERO PUSH3 0x887 JUMPI JUMPDEST DUP12 DUP9 LT EQ PUSH3 0x873 JUMPI DUP2 SWAP1 DUP12 PUSH1 0x1F SWAP9 DUP10 DUP2 GT PUSH3 0x81F JUMPI JUMPDEST POP POP DUP12 SWAP1 DUP9 DUP4 GT PUSH1 0x1 EQ PUSH3 0x7BA JUMPI DUP12 SWAP3 PUSH3 0x7AE JUMPI JUMPDEST POP POP PUSH1 0x0 NOT PUSH1 0x3 DUP4 SWAP1 SHL SHR NOT AND SWAP1 DUP6 SHL OR DUP2 SSTORE JUMPDEST DUP2 MLOAD SWAP3 DUP4 GT PUSH3 0x79A JUMPI PUSH1 0x6 SLOAD SWAP1 DUP5 DUP3 DUP2 SHR SWAP3 AND DUP1 ISZERO PUSH3 0x78F JUMPI JUMPDEST DUP11 DUP4 LT EQ PUSH3 0x77B JUMPI DUP6 DUP3 GT PUSH3 0x734 JUMPI JUMPDEST POP POP DUP8 SWAP1 DUP5 DUP4 GT PUSH1 0x1 EQ PUSH3 0x6CE JUMPI SWAP3 DUP3 SWAP4 SWAP2 DUP4 SWAP3 DUP10 SWAP5 PUSH3 0x6C2 JUMPI JUMPDEST POP POP SHL SWAP2 PUSH1 0x0 NOT SWAP1 PUSH1 0x3 SHL SHR NOT AND OR PUSH1 0x6 SSTORE JUMPDEST DUP8 MLOAD DUP6 DUP2 ADD SWAP1 DUP7 DUP3 MSTORE PUSH1 0x17 DUP11 DUP3 ADD MSTORE PUSH32 0x5441585F4558434C5553494F4E5F50524956494C454745000000000000000000 PUSH1 0x60 DUP3 ADD MSTORE PUSH1 0x60 DUP2 MSTORE PUSH3 0x1E6 DUP2 PUSH3 0x8AB JUMP JUMPDEST MLOAD SWAP1 KECCAK256 PUSH1 0x8 SSTORE DUP8 MLOAD DUP6 DUP2 ADD SWAP1 DUP7 DUP3 MSTORE PUSH1 0x1D DUP11 DUP3 ADD MSTORE PUSH32 0x4C49515549444954595F4558434C5553494F4E5F50524956494C454745000000 PUSH1 0x60 DUP3 ADD MSTORE PUSH1 0x60 DUP2 MSTORE PUSH3 0x230 DUP2 PUSH3 0x8AB JUMP JUMPDEST MLOAD SWAP1 KECCAK256 PUSH1 0x9 SSTORE PUSH1 0xB DUP1 SLOAD PUSH12 0x24306C4097859C43C000000 PUSH1 0xC SSTORE PUSH10 0x1969368974C05B000000 PUSH1 0xD SSTORE PUSH1 0x7 DUP1 SLOAD DUP13 AND DUP6 DUP11 AND OR SWAP1 SSTORE PUSH2 0xFFFF PUSH1 0xA0 SHL NOT AND PUSH1 0xA0 SWAP9 SWAP1 SWAP9 SHL PUSH1 0xFF PUSH1 0xA0 SHL AND SWAP8 SWAP1 SWAP8 OR PUSH1 0x1 PUSH1 0xAB SHL OR DUP8 SSTORE CALLER ISZERO PUSH3 0x680 JUMPI POP PUSH3 0x2FE SWAP1 PUSH1 0x4 SWAP3 PUSH3 0x2A1 DUP2 DUP6 SLOAD PUSH3 0xA08 JUMP JUMPDEST DUP5 SSTORE CALLER DUP6 MSTORE PUSH1 0x2 DUP7 MSTORE DUP9 DUP6 KECCAK256 PUSH3 0x2BA DUP3 DUP3 SLOAD PUSH3 0xA08 JUMP JUMPDEST SWAP1 SSTORE DUP9 MLOAD SWAP1 DUP2 MSTORE DUP5 PUSH32 0xDDF252AD1BE2C89B69C2B068FC378DAA952BA7F163C4A11628F55A4DF523B3EF DUP8 CALLER SWAP4 LOG3 PUSH3 0x2F5 CALLER PUSH1 0x8 SLOAD PUSH3 0x98D JUMP JUMPDEST PUSH1 0x8 SLOAD PUSH3 0x98D JUMP JUMPDEST PUSH20 0xBB5E1777A331ED93E07CF043363E48D320EB96C4 PUSH20 0x83F465457C8CAFBE85ABB941F20291F826C7F72A SWAP8 DUP9 DUP2 PUSH1 0xA SLOAD AND OR PUSH1 0xA SSTORE DUP7 SLOAD AND OR DUP6 SSTORE DUP6 MLOAD SWAP7 PUSH4 0xC45A0155 PUSH1 0xE0 SHL SWAP1 DUP2 DUP10 MSTORE DUP5 DUP10 DUP5 DUP2 DUP5 GAS STATICCALL SWAP9 DUP10 ISZERO PUSH3 0x676 JUMPI DUP5 SWAP10 PUSH3 0x633 JUMPI JUMPDEST POP DUP8 MLOAD DUP6 DUP2 DUP6 DUP2 PUSH4 0x15AB88C9 PUSH1 0xE3 SHL SWAP6 DUP7 DUP3 MSTORE GAS STATICCALL SWAP1 DUP2 ISZERO PUSH3 0x55F JUMPI DUP6 SWAP2 PUSH3 0x5F6 JUMPI JUMPDEST POP DUP9 MLOAD PUSH4 0x64E329CB PUSH1 0xE1 SHL DUP1 DUP3 MSTORE PUSH1 0x1 PUSH1 0x1 PUSH1 0xA0 SHL SUB SWAP1 SWAP3 AND DUP6 DUP3 ADD SWAP1 DUP2 MSTORE ADDRESS PUSH1 0x20 DUP3 ADD MSTORE SWAP1 SWAP11 DUP8 SWAP2 DUP13 SWAP2 SWAP1 DUP3 SWAP1 DUP10 SWAP1 DUP13 SWAP1 DUP4 SWAP1 PUSH1 0x40 ADD SUB SWAP4 AND GAS CALL SWAP10 DUP11 ISZERO PUSH3 0x55F JUMPI DUP6 SWAP11 PUSH3 0x5B7 JUMPI JUMPDEST POP DUP7 DUP9 SLOAD AND SWAP2 DUP10 MLOAD SWAP4 DUP5 MSTORE DUP7 DUP5 DUP7 DUP2 DUP7 GAS STATICCALL SWAP4 DUP5 ISZERO PUSH3 0x5AD JUMPI SWAP1 DUP8 SWAP2 DUP8 SWAP6 PUSH3 0x569 JUMPI JUMPDEST POP DUP6 DUP12 MLOAD DUP1 SWAP6 DUP2 SWAP4 DUP3 MSTORE GAS STATICCALL SWAP2 DUP3 ISZERO PUSH3 0x55F JUMPI SWAP2 DUP7 SWAP4 SWAP2 DUP7 SWAP6 SWAP4 DUP10 SWAP8 SWAP3 PUSH3 0x50A JUMPI JUMPDEST POP DUP11 MLOAD SWAP1 DUP2 MSTORE PUSH1 0x1 PUSH1 0x1 PUSH1 0xA0 SHL SUB SWAP1 SWAP2 AND SWAP3 DUP2 ADD SWAP3 DUP4 MSTORE ADDRESS PUSH1 0x20 DUP5 ADD MSTORE SWAP5 DUP6 SWAP3 DUP4 SWAP2 DUP7 SWAP2 DUP4 SWAP1 PUSH1 0x40 ADD JUMPDEST SUB SWAP4 AND GAS CALL SWAP3 DUP4 ISZERO PUSH3 0x4FE JUMPI DUP2 SWAP4 PUSH3 0x4AA JUMPI JUMPDEST POP POP POP PUSH3 0x47C SWAP1 PUSH3 0x473 PUSH3 0x49C SWAP6 SWAP7 PUSH1 0x9 SLOAD PUSH3 0x98D JUMP JUMPDEST PUSH1 0x9 SLOAD PUSH3 0x98D JUMP JUMPDEST PUSH3 0x48F PUSH1 0x9 SLOAD DUP3 PUSH1 0xA SLOAD AND SWAP1 PUSH3 0x98D JUMP JUMPDEST PUSH1 0x9 SLOAD SWAP2 SLOAD AND SWAP1 PUSH3 0x98D JUMP JUMPDEST MLOAD PUSH2 0x2332 SWAP1 DUP2 PUSH3 0xA2D DUP3 CODECOPY RETURN JUMPDEST SWAP1 SWAP2 DUP1 SWAP4 POP DUP2 RETURNDATASIZE DUP4 GT PUSH3 0x4F6 JUMPI JUMPDEST PUSH3 0x4C5 DUP2 DUP4 PUSH3 0x8DD JUMP JUMPDEST DUP2 ADD SUB SLT PUSH3 0x4F3 JUMPI POP PUSH3 0x49C SWAP4 SWAP5 PUSH3 0x473 PUSH3 0x4E8 PUSH3 0x47C SWAP4 PUSH3 0x978 JUMP JUMPDEST SWAP3 DUP3 SWAP8 SWAP7 POP PUSH3 0x458 JUMP JUMPDEST DUP1 REVERT JUMPDEST POP RETURNDATASIZE PUSH3 0x4B9 JUMP JUMPDEST POP DUP6 MLOAD SWAP1 RETURNDATASIZE SWAP1 DUP3 RETURNDATACOPY RETURNDATASIZE SWAP1 REVERT JUMPDEST SWAP3 SWAP5 DUP4 SWAP2 SWAP5 SWAP7 SWAP8 POP DUP1 SWAP3 POP RETURNDATASIZE DUP4 GT PUSH3 0x557 JUMPI JUMPDEST PUSH3 0x52A DUP2 DUP4 PUSH3 0x8DD JUMP JUMPDEST DUP2 ADD SUB SLT PUSH3 0x553 JUMPI SWAP2 DUP5 SWAP4 SWAP2 PUSH3 0x443 SWAP6 DUP9 PUSH3 0x549 DUP10 SWAP7 PUSH3 0x978 JUMP JUMPDEST SWAP3 SWAP2 POP SWAP7 PUSH3 0x419 JUMP JUMPDEST DUP5 DUP1 REVERT JUMPDEST POP RETURNDATASIZE PUSH3 0x51E JUMP JUMPDEST DUP10 MLOAD RETURNDATASIZE DUP8 DUP3 RETURNDATACOPY RETURNDATASIZE SWAP1 REVERT JUMPDEST DUP3 DUP2 SWAP4 SWAP3 SWAP7 POP RETURNDATASIZE DUP4 GT PUSH3 0x5A5 JUMPI JUMPDEST PUSH3 0x584 DUP2 DUP4 PUSH3 0x8DD JUMP JUMPDEST DUP2 ADD SUB SLT PUSH3 0x5A1 JUMPI PUSH3 0x599 DUP8 SWAP2 PUSH3 0x978 JUMP JUMPDEST SWAP4 CODESIZE PUSH3 0x3F5 JUMP JUMPDEST DUP6 DUP1 REVERT JUMPDEST POP RETURNDATASIZE PUSH3 0x578 JUMP JUMPDEST DUP11 MLOAD RETURNDATASIZE DUP9 DUP3 RETURNDATACOPY RETURNDATASIZE SWAP1 REVERT JUMPDEST SWAP1 SWAP10 POP DUP6 DUP2 DUP2 RETURNDATASIZE DUP4 GT PUSH3 0x5EE JUMPI JUMPDEST PUSH3 0x5D2 DUP2 DUP4 PUSH3 0x8DD JUMP JUMPDEST DUP2 ADD SUB SLT PUSH3 0x553 JUMPI PUSH3 0x5E6 SWAP1 PUSH3 0x978 JUMP JUMPDEST SWAP9 CODESIZE PUSH3 0x3D0 JUMP JUMPDEST POP RETURNDATASIZE PUSH3 0x5C6 JUMP JUMPDEST SWAP1 POP DUP6 DUP2 DUP2 RETURNDATASIZE DUP4 GT PUSH3 0x62B JUMPI JUMPDEST PUSH3 0x610 DUP2 DUP4 PUSH3 0x8DD JUMP JUMPDEST DUP2 ADD SUB SLT PUSH3 0x553 JUMPI PUSH3 0x624 SWAP1 PUSH3 0x978 JUMP JUMPDEST CODESIZE PUSH3 0x384 JUMP JUMPDEST POP RETURNDATASIZE PUSH3 0x604 JUMP JUMPDEST SWAP1 SWAP9 POP DUP5 DUP2 DUP2 RETURNDATASIZE DUP4 GT PUSH3 0x66E JUMPI JUMPDEST PUSH3 0x64E DUP2 DUP4 PUSH3 0x8DD JUMP JUMPDEST DUP2 ADD SUB SLT PUSH3 0x66A JUMPI PUSH3 0x662 SWAP1 PUSH3 0x978 JUMP JUMPDEST SWAP8 CODESIZE PUSH3 0x35F JUMP JUMPDEST DUP4 DUP1 REVERT JUMPDEST POP RETURNDATASIZE PUSH3 0x642 JUMP JUMPDEST DUP9 MLOAD RETURNDATASIZE DUP7 DUP3 RETURNDATACOPY RETURNDATASIZE SWAP1 REVERT JUMPDEST DUP5 PUSH1 0x64 SWAP2 DUP10 MLOAD SWAP2 PUSH3 0x461BCD PUSH1 0xE5 SHL DUP4 MSTORE PUSH1 0x4 DUP4 ADD MSTORE PUSH1 0x24 DUP3 ADD MSTORE PUSH32 0x45524332303A206D696E7420746F20746865207A65726F206164647265737300 PUSH1 0x44 DUP3 ADD MSTORE REVERT JUMPDEST ADD MLOAD SWAP3 POP CODESIZE DUP1 PUSH3 0x18F JUMP JUMPDEST PUSH1 0x6 DUP9 MSTORE DUP9 DUP9 KECCAK256 SWAP2 SWAP1 DUP4 PUSH1 0x1F NOT DUP2 AND DUP11 JUMPDEST DUP13 DUP9 DUP4 DUP4 LT PUSH3 0x71C JUMPI POP POP POP LT PUSH3 0x702 JUMPI JUMPDEST POP POP POP DUP2 SHL ADD PUSH1 0x6 SSTORE PUSH3 0x1A2 JUMP JUMPDEST ADD MLOAD PUSH1 0x0 NOT PUSH1 0xF8 DUP5 PUSH1 0x3 SHL AND SHR NOT AND SWAP1 SSTORE CODESIZE DUP1 DUP1 PUSH3 0x6F3 JUMP JUMPDEST DUP7 DUP7 ADD MLOAD DUP9 SSTORE SWAP1 SWAP7 ADD SWAP6 SWAP5 DUP6 ADD SWAP5 DUP8 SWAP4 POP ADD PUSH3 0x6DF JUMP JUMPDEST PUSH1 0x6 DUP10 MSTORE DUP10 DUP10 KECCAK256 SWAP1 DUP7 DUP1 DUP7 ADD DUP3 SHR DUP4 ADD SWAP4 DUP13 DUP8 LT PUSH3 0x771 JUMPI JUMPDEST ADD SWAP1 SHR ADD SWAP1 DUP5 SWAP1 JUMPDEST DUP3 DUP2 LT PUSH3 0x765 JUMPI POP PUSH3 0x172 JUMP JUMPDEST DUP10 DUP2 SSTORE ADD DUP5 SWAP1 PUSH3 0x756 JUMP JUMPDEST SWAP4 POP DUP3 SWAP4 PUSH3 0x74E JUMP JUMPDEST PUSH4 0x4E487B71 PUSH1 0xE0 SHL DUP10 MSTORE PUSH1 0x22 PUSH1 0x4 MSTORE PUSH1 0x24 DUP10 REVERT JUMPDEST SWAP2 PUSH1 0x7F AND SWAP2 PUSH3 0x160 JUMP JUMPDEST PUSH4 0x4E487B71 PUSH1 0xE0 SHL DUP9 MSTORE PUSH1 0x41 PUSH1 0x4 MSTORE PUSH1 0x24 DUP9 REVERT JUMPDEST ADD MLOAD SWAP1 POP CODESIZE DUP1 PUSH3 0x130 JUMP JUMPDEST DUP5 DUP13 MSTORE DUP13 DUP13 KECCAK256 DUP9 SWAP5 POP SWAP2 SWAP1 PUSH1 0x1F NOT DUP5 AND DUP14 DUP16 JUMPDEST DUP3 DUP3 LT PUSH3 0x807 JUMPI POP POP DUP5 GT PUSH3 0x7ED JUMPI JUMPDEST POP POP POP DUP2 SHL ADD DUP2 SSTORE PUSH3 0x144 JUMP JUMPDEST ADD MLOAD PUSH1 0x0 NOT PUSH1 0xF8 DUP5 PUSH1 0x3 SHL AND SHR NOT AND SWAP1 SSTORE CODESIZE DUP1 DUP1 PUSH3 0x7DF JUMP JUMPDEST DUP4 DUP6 ADD MLOAD DUP7 SSTORE DUP12 SWAP8 SWAP1 SWAP6 ADD SWAP5 SWAP4 DUP5 ADD SWAP4 ADD DUP16 PUSH3 0x7CD JUMP JUMPDEST SWAP1 SWAP2 SWAP3 POP DUP5 DUP13 MSTORE DUP9 DUP3 DUP14 KECCAK256 SWAP2 DUP2 DUP7 ADD DUP8 SHR DUP4 ADD SWAP4 DUP7 LT PUSH3 0x869 JUMPI JUMPDEST SWAP2 DUP10 SWAP2 DUP7 SWAP6 SWAP5 SWAP4 ADD DUP8 SHR ADD SWAP2 JUMPDEST DUP3 DUP2 LT PUSH3 0x85A JUMPI POP DUP14 SWAP2 POP PUSH3 0x119 JUMP JUMPDEST DUP14 DUP2 SSTORE DUP6 SWAP5 POP DUP10 SWAP2 ADD PUSH3 0x848 JUMP JUMPDEST SWAP3 POP DUP2 SWAP3 PUSH3 0x83B JUMP JUMPDEST PUSH4 0x4E487B71 PUSH1 0xE0 SHL DUP11 MSTORE PUSH1 0x22 PUSH1 0x4 MSTORE PUSH1 0x24 DUP11 REVERT JUMPDEST SWAP7 PUSH1 0x7F AND SWAP7 PUSH3 0x101 JUMP JUMPDEST PUSH4 0x4E487B71 PUSH1 0xE0 SHL DUP8 MSTORE PUSH1 0x41 PUSH1 0x4 MSTORE PUSH1 0x24 DUP8 REVERT JUMPDEST PUSH1 0x0 DUP1 REVERT JUMPDEST PUSH1 0x80 DUP2 ADD SWAP1 DUP2 LT PUSH1 0x1 PUSH1 0x1 PUSH1 0x40 SHL SUB DUP3 GT OR PUSH3 0x8C7 JUMPI PUSH1 0x40 MSTORE JUMP JUMPDEST PUSH4 0x4E487B71 PUSH1 0xE0 SHL PUSH1 0x0 MSTORE PUSH1 0x41 PUSH1 0x4 MSTORE PUSH1 0x24 PUSH1 0x0 REVERT JUMPDEST PUSH1 0x1F SWAP1 SWAP2 ADD PUSH1 0x1F NOT AND DUP2 ADD SWAP1 PUSH1 0x1 PUSH1 0x1 PUSH1 0x40 SHL SUB DUP3 GT SWAP1 DUP3 LT OR PUSH3 0x8C7 JUMPI PUSH1 0x40 MSTORE JUMP JUMPDEST SWAP2 SWAP1 DUP1 PUSH1 0x1F DUP5 ADD SLT ISZERO PUSH3 0x8A6 JUMPI DUP3 MLOAD SWAP1 PUSH1 0x1 PUSH1 0x1 PUSH1 0x40 SHL SUB DUP3 GT PUSH3 0x8C7 JUMPI PUSH1 0x40 MLOAD SWAP2 PUSH1 0x20 SWAP2 PUSH3 0x93D PUSH1 0x1F DUP4 ADD PUSH1 0x1F NOT AND DUP5 ADD DUP6 PUSH3 0x8DD JUMP JUMPDEST DUP2 DUP5 MSTORE DUP3 DUP3 DUP8 ADD ADD GT PUSH3 0x8A6 JUMPI PUSH1 0x0 JUMPDEST DUP2 DUP2 LT PUSH3 0x964 JUMPI POP DUP3 PUSH1 0x0 SWAP4 SWAP5 SWAP6 POP ADD ADD MSTORE SWAP1 JUMP JUMPDEST DUP6 DUP2 ADD DUP4 ADD MLOAD DUP5 DUP3 ADD DUP5 ADD MSTORE DUP3 ADD PUSH3 0x94E JUMP JUMPDEST MLOAD SWAP1 PUSH1 0x1 PUSH1 0x1 PUSH1 0xA0 SHL SUB DUP3 AND DUP3 SUB PUSH3 0x8A6 JUMPI JUMP JUMPDEST SWAP1 PUSH1 0x0 SWAP2 DUP1 DUP4 MSTORE PUSH1 0x1 PUSH1 0x20 MSTORE PUSH1 0x40 DUP4 KECCAK256 SWAP2 PUSH1 0x1 DUP1 PUSH1 0xA0 SHL SUB AND SWAP2 DUP3 DUP5 MSTORE PUSH1 0x20 MSTORE PUSH1 0xFF PUSH1 0x40 DUP5 KECCAK256 SLOAD AND ISZERO PUSH3 0x9C0 JUMPI POP POP POP JUMP JUMPDEST DUP1 DUP4 MSTORE PUSH1 0x1 PUSH1 0x20 MSTORE PUSH1 0x40 DUP4 KECCAK256 DUP3 DUP5 MSTORE PUSH1 0x20 MSTORE PUSH1 0x40 DUP4 KECCAK256 PUSH1 0x1 PUSH1 0xFF NOT DUP3 SLOAD AND OR SWAP1 SSTORE PUSH32 0x2F8788117E7EFF1D82E926EC794901D17C78024A50270940304540A733656F0D CALLER SWAP4 DUP1 LOG4 JUMP JUMPDEST SWAP2 SWAP1 DUP3 ADD DUP1 SWAP3 GT PUSH3 0xA16 JUMPI JUMP JUMPDEST PUSH4 0x4E487B71 PUSH1 0xE0 SHL PUSH1 0x0 MSTORE PUSH1 0x11 PUSH1 0x4 MSTORE PUSH1 0x24 PUSH1 0x0 REVERT INVALID PUSH1 0x80 PUSH1 0x40 SWAP1 DUP1 DUP3 MSTORE PUSH1 0x4 SWAP1 DUP2 CALLDATASIZE LT ISZERO PUSH2 0x23 JUMPI JUMPDEST POP POP POP CALLDATASIZE ISZERO PUSH2 0x21 JUMPI PUSH1 0x0 DUP1 REVERT JUMPDEST STOP JUMPDEST PUSH1 0x0 SWAP3 DUP4 CALLDATALOAD PUSH1 0xE0 SHR SWAP2 DUP3 PUSH4 0x1FFC9A7 EQ PUSH2 0xF40 JUMPI POP DUP2 PUSH4 0x6FDDE03 EQ PUSH2 0xE82 JUMPI DUP2 PUSH4 0x84A1392 EQ PUSH2 0xE52 JUMPI DUP2 PUSH4 0x8695B41 EQ PUSH2 0xDF5 JUMPI DUP2 PUSH4 0x95EA7B3 EQ PUSH2 0xDCB JUMPI DUP2 PUSH4 0x18160DDD EQ PUSH2 0xDAC JUMPI DUP2 PUSH4 0x220F6696 EQ PUSH2 0xD85 JUMPI DUP2 PUSH4 0x23B872DD EQ PUSH2 0xCCC JUMPI DUP2 PUSH4 0x248A9CA3 EQ PUSH2 0xCA1 JUMPI DUP2 PUSH4 0x2F2FF15D EQ PUSH2 0xC78 JUMPI DUP2 PUSH4 0x313CE567 EQ PUSH2 0xC5C JUMPI DUP2 PUSH4 0x31E4E4E5 EQ PUSH2 0xC3D JUMPI DUP2 PUSH4 0x36568ABE EQ PUSH2 0xBAC JUMPI DUP2 PUSH4 0x3821A758 EQ PUSH2 0xB6C JUMPI DUP2 PUSH4 0x39509351 EQ PUSH2 0xB1C JUMPI DUP2 PUSH4 0x46E65523 EQ PUSH2 0xAFD JUMPI DUP2 PUSH4 0x4A74BB02 EQ PUSH2 0xAD9 JUMPI DUP2 PUSH4 0x4FE47F70 EQ PUSH2 0xAB7 JUMPI DUP2 PUSH4 0x59102D1C EQ PUSH2 0xA92 JUMPI DUP2 PUSH4 0x5C2A00B2 EQ PUSH2 0xA73 JUMPI DUP2 PUSH4 0x5F48F393 EQ PUSH2 0xA54 JUMPI DUP2 PUSH4 0x70A08231 EQ PUSH2 0xA1C JUMPI DUP2 PUSH4 0x715018A6 EQ PUSH2 0x9C2 JUMPI DUP2 PUSH4 0x808C1643 EQ PUSH2 0x993 JUMPI DUP2 PUSH4 0x8DA5CB5B EQ PUSH2 0x96B JUMPI DUP2 PUSH4 0x8E6DDA25 EQ PUSH2 0x8C4 JUMPI DUP2 PUSH4 0x91D14854 EQ PUSH2 0x87C JUMPI DUP2 PUSH4 0x95D89B41 EQ PUSH2 0x77A JUMPI DUP2 PUSH4 0xA217FDDF EQ PUSH2 0x75F JUMPI DUP2 PUSH4 0xA457C2D7 EQ PUSH2 0x6BB JUMPI DUP2 PUSH4 0xA5FFAD52 EQ PUSH2 0x675 JUMPI DUP2 PUSH4 0xA9059CBB EQ PUSH2 0x644 JUMPI DUP2 PUSH4 0xAE7B6D16 EQ PUSH2 0x61F JUMPI DUP2 PUSH4 0xBEA1DCF8 EQ PUSH2 0x5F6 JUMPI DUP2 PUSH4 0xC676EE6B EQ PUSH2 0x5D4 JUMPI DUP2 PUSH4 0xD547741F EQ PUSH2 0x59A JUMPI DUP2 PUSH4 0xD63F4594 EQ PUSH2 0x43B JUMPI DUP2 PUSH4 0xDD62ED3E EQ PUSH2 0x3F2 JUMPI DUP2 PUSH4 0xF2FDE38B EQ PUSH2 0x32A JUMPI DUP2 PUSH4 0xF3BF29DE EQ PUSH2 0x28C JUMPI POP DUP1 PUSH4 0xF6ED11C1 EQ PUSH2 0x249 JUMPI PUSH4 0xFD7B674D EQ PUSH2 0x201 JUMPI DUP1 PUSH2 0x13 JUMP JUMPDEST CALLVALUE PUSH2 0x245 JUMPI PUSH1 0x20 CALLDATASIZE PUSH1 0x3 NOT ADD SLT PUSH2 0x245 JUMPI CALLDATALOAD PUSH1 0xFF DUP2 AND DUP2 SUB PUSH2 0x245 JUMPI PUSH2 0x225 PUSH2 0x149B JUMP JUMPDEST PUSH1 0xB DUP1 SLOAD PUSH1 0xFF PUSH1 0xA8 SHL NOT AND PUSH1 0xA8 SWAP3 SWAP1 SWAP3 SHL PUSH1 0xFF PUSH1 0xA8 SHL AND SWAP2 SWAP1 SWAP2 OR SWAP1 SSTORE DUP1 RETURN JUMPDEST POP DUP1 REVERT JUMPDEST DUP3 CALLVALUE PUSH2 0x289 JUMPI PUSH1 0x20 CALLDATASIZE PUSH1 0x3 NOT ADD SLT PUSH2 0x289 JUMPI PUSH2 0x263 PUSH2 0xFE3 JUMP JUMPDEST PUSH2 0x26B PUSH2 0x149B JUMP JUMPDEST PUSH1 0x1 DUP1 PUSH1 0xA0 SHL SUB AND PUSH1 0x1 PUSH1 0x1 PUSH1 0x60 SHL SUB PUSH1 0xA0 SHL PUSH1 0xA SLOAD AND OR PUSH1 0xA SSTORE DUP1 RETURN JUMPDEST DUP1 REVERT JUMPDEST DUP4 DUP4 CALLVALUE PUSH2 0x245 JUMPI PUSH1 0x20 CALLDATASIZE PUSH1 0x3 NOT ADD SLT PUSH2 0x245 JUMPI PUSH2 0x2A7 PUSH2 0xFE3 JUMP JUMPDEST SWAP1 PUSH2 0x2B0 PUSH2 0x149B JUMP JUMPDEST PUSH1 0x8 SLOAD SWAP1 PUSH2 0x2E1 DUP4 DUP4 PUSH1 0x0 MSTORE PUSH1 0x1 PUSH1 0x20 MSTORE PUSH1 0x40 PUSH1 0x0 KECCAK256 SWAP1 PUSH1 0x1 DUP1 PUSH1 0xA0 SHL SUB AND PUSH1 0x0 MSTORE PUSH1 0x20 MSTORE PUSH1 0xFF PUSH1 0x40 PUSH1 0x0 KECCAK256 SLOAD AND SWAP1 JUMP JUMPDEST ISZERO PUSH2 0x2F4 JUMPI POP SWAP1 PUSH2 0x2F1 SWAP2 PUSH2 0x1425 JUMP JUMPDEST DUP1 RETURN JUMPDEST PUSH1 0x64 SWAP1 PUSH1 0x20 DUP7 MLOAD SWAP2 PUSH3 0x461BCD PUSH1 0xE5 SHL DUP4 MSTORE DUP3 ADD MSTORE PUSH1 0x10 PUSH1 0x24 DUP3 ADD MSTORE PUSH16 0xC2D8E4CAC2C8F2BEE0C2F2E6BEE8C2F PUSH1 0x83 SHL PUSH1 0x44 DUP3 ADD MSTORE REVERT JUMPDEST SWAP2 SWAP1 POP CALLVALUE PUSH2 0x3EE JUMPI PUSH1 0x20 CALLDATASIZE PUSH1 0x3 NOT ADD SLT PUSH2 0x3EE JUMPI PUSH2 0x346 PUSH2 0xFE3 JUMP JUMPDEST SWAP1 PUSH2 0x34F PUSH2 0x149B JUMP JUMPDEST PUSH1 0x1 PUSH1 0x1 PUSH1 0xA0 SHL SUB SWAP2 DUP3 AND SWAP3 DUP4 ISZERO PUSH2 0x39C JUMPI POP POP DUP3 SLOAD PUSH1 0x1 PUSH1 0x1 PUSH1 0xA0 SHL SUB NOT DUP2 AND DUP4 OR DUP5 SSTORE AND PUSH32 0x8BE0079C531659141344CD1FD0A4F28419497F9722A3DAAFE3B4186F6B6457E0 DUP4 DUP1 LOG3 DUP1 RETURN JUMPDEST SWAP1 PUSH1 0x20 PUSH1 0x84 SWAP3 MLOAD SWAP2 PUSH3 0x461BCD PUSH1 0xE5 SHL DUP4 MSTORE DUP3 ADD MSTORE PUSH1 0x26 PUSH1 0x24 DUP3 ADD MSTORE PUSH32 0x4F776E61626C653A206E6577206F776E657220697320746865207A65726F2061 PUSH1 0x44 DUP3 ADD MSTORE PUSH6 0x646472657373 PUSH1 0xD0 SHL PUSH1 0x64 DUP3 ADD MSTORE REVERT JUMPDEST DUP3 DUP1 REVERT JUMPDEST DUP4 SWAP1 CALLVALUE PUSH2 0x245 JUMPI DUP1 PUSH1 0x3 NOT CALLDATASIZE ADD SLT PUSH2 0x245 JUMPI DUP1 PUSH1 0x20 SWAP3 PUSH2 0x410 PUSH2 0xFE3 JUMP JUMPDEST PUSH2 0x418 PUSH2 0xFFE JUMP JUMPDEST PUSH1 0x1 PUSH1 0x1 PUSH1 0xA0 SHL SUB SWAP2 DUP3 AND DUP4 MSTORE PUSH1 0x3 DUP7 MSTORE DUP4 DUP4 KECCAK256 SWAP2 AND DUP3 MSTORE DUP5 MSTORE KECCAK256 SLOAD SWAP1 MLOAD SWAP1 DUP2 MSTORE RETURN JUMPDEST SWAP1 POP CALLVALUE PUSH2 0x3EE JUMPI PUSH2 0x44B CALLDATASIZE PUSH2 0x1014 JUMP JUMPDEST PUSH2 0x453 PUSH2 0x149B JUMP JUMPDEST DUP3 EXTCODESIZE ISZERO PUSH2 0x560 JUMPI DUP4 MLOAD PUSH8 0xFFFFFFFFFFFFFFFF SWAP1 DUP1 DUP7 ADD DUP3 DUP2 GT DUP3 DUP3 LT OR PUSH2 0x54D JUMPI PUSH32 0x7472616E7366657228616464726573732C75696E743235362900000000000000 SWAP2 PUSH1 0x20 SWAP2 DUP9 MSTORE PUSH1 0x19 DUP2 MSTORE ADD MSTORE DUP5 MLOAD SWAP2 PUSH1 0x20 DUP4 ADD SWAP4 PUSH4 0xA9059CBB PUSH1 0xE0 SHL DUP6 MSTORE PUSH1 0x1 DUP1 PUSH1 0xA0 SHL SUB AND PUSH1 0x24 DUP5 ADD MSTORE PUSH1 0x44 DUP4 ADD MSTORE PUSH1 0x44 DUP3 MSTORE PUSH1 0x80 DUP3 ADD SWAP1 DUP3 DUP3 LT SWAP1 DUP3 GT OR PUSH2 0x53A JUMPI DUP5 MSTORE MLOAD DUP6 SWAP3 DUP4 SWAP3 SWAP1 DUP4 SWAP1 GAS CALL PUSH2 0x4ED PUSH2 0x225C JUMP JUMPDEST POP ISZERO PUSH2 0x4F7 JUMPI DUP3 DUP1 RETURN JUMPDEST SWAP1 PUSH1 0x20 PUSH1 0x64 SWAP3 MLOAD SWAP2 PUSH3 0x461BCD PUSH1 0xE5 SHL DUP4 MSTORE DUP3 ADD MSTORE PUSH1 0x1E PUSH1 0x24 DUP3 ADD MSTORE PUSH32 0x6C6F775F6C6576656C5F636F6E74726163745F63616C6C5F6661696C65640000 PUSH1 0x44 DUP3 ADD MSTORE REVERT JUMPDEST PUSH4 0x4E487B71 PUSH1 0xE0 SHL DUP8 MSTORE PUSH1 0x41 DUP7 MSTORE PUSH1 0x24 DUP8 REVERT JUMPDEST PUSH4 0x4E487B71 PUSH1 0xE0 SHL DUP10 MSTORE PUSH1 0x41 DUP9 MSTORE PUSH1 0x24 DUP10 REVERT JUMPDEST DUP4 MLOAD PUSH3 0x461BCD PUSH1 0xE5 SHL DUP2 MSTORE PUSH1 0x20 DUP2 DUP8 ADD MSTORE PUSH1 0x14 PUSH1 0x24 DUP3 ADD MSTORE PUSH20 0x18D85B1B17DD1BD7DB9BDB97D8DBDB9D1C9858DD PUSH1 0x62 SHL PUSH1 0x44 DUP3 ADD MSTORE PUSH1 0x64 SWAP1 REVERT JUMPDEST SWAP1 POP CALLVALUE PUSH2 0x3EE JUMPI DUP1 PUSH1 0x3 NOT CALLDATASIZE ADD SLT PUSH2 0x3EE JUMPI PUSH2 0x2F1 SWAP2 CALLDATALOAD PUSH2 0x5CF PUSH1 0x1 PUSH2 0x5BE PUSH2 0xFFE JUMP JUMPDEST SWAP4 DUP4 DUP8 MSTORE DUP2 PUSH1 0x20 MSTORE DUP7 KECCAK256 ADD SLOAD PUSH2 0x1049 JUMP JUMPDEST PUSH2 0x1425 JUMP JUMPDEST POP POP CALLVALUE PUSH2 0x245 JUMPI PUSH1 0x20 CALLDATASIZE PUSH1 0x3 NOT ADD SLT PUSH2 0x245 JUMPI PUSH2 0x5EF PUSH2 0x149B JUMP JUMPDEST CALLDATALOAD PUSH1 0xD SSTORE DUP1 RETURN JUMPDEST DUP4 SWAP1 CALLVALUE PUSH2 0x245 JUMPI DUP2 PUSH1 0x3 NOT CALLDATASIZE ADD SLT PUSH2 0x245 JUMPI PUSH1 0x7 SLOAD SWAP1 MLOAD PUSH1 0x1 PUSH1 0x1 PUSH1 0xA0 SHL SUB SWAP1 SWAP2 AND DUP2 MSTORE PUSH1 0x20 SWAP1 RETURN JUMPDEST DUP4 SWAP1 CALLVALUE PUSH2 0x245 JUMPI DUP2 PUSH1 0x3 NOT CALLDATASIZE ADD SLT PUSH2 0x245 JUMPI PUSH1 0x20 SWAP1 PUSH1 0xFF PUSH1 0xB SLOAD PUSH1 0xA0 SHR AND SWAP1 MLOAD SWAP1 DUP2 MSTORE RETURN JUMPDEST DUP4 SWAP1 CALLVALUE PUSH2 0x245 JUMPI DUP1 PUSH1 0x3 NOT CALLDATASIZE ADD SLT PUSH2 0x245 JUMPI PUSH1 0x20 SWAP1 PUSH2 0x66E PUSH2 0x664 PUSH2 0xFE3 JUMP JUMPDEST PUSH1 0x24 CALLDATALOAD SWAP1 CALLER PUSH2 0x1652 JUMP JUMPDEST MLOAD PUSH1 0x1 DUP2 MSTORE RETURN JUMPDEST POP POP CALLVALUE PUSH2 0x245 JUMPI PUSH1 0x20 CALLDATASIZE PUSH1 0x3 NOT ADD SLT PUSH2 0x245 JUMPI CALLDATALOAD PUSH1 0xFF DUP2 AND DUP2 SUB PUSH2 0x245 JUMPI PUSH2 0x69B PUSH2 0x149B JUMP JUMPDEST PUSH1 0xB DUP1 SLOAD PUSH1 0xFF PUSH1 0xA0 SHL NOT AND PUSH1 0xA0 SWAP3 SWAP1 SWAP3 SHL PUSH1 0xFF PUSH1 0xA0 SHL AND SWAP2 SWAP1 SWAP2 OR SWAP1 SSTORE DUP1 RETURN JUMPDEST DUP3 DUP5 CALLVALUE PUSH2 0x289 JUMPI DUP3 PUSH1 0x3 NOT CALLDATASIZE ADD SLT PUSH2 0x289 JUMPI PUSH2 0x6D5 PUSH2 0xFE3 JUMP JUMPDEST SWAP2 DUP4 PUSH1 0x24 CALLDATALOAD SWAP3 CALLER DUP2 MSTORE PUSH1 0x3 PUSH1 0x20 MSTORE DUP2 DUP2 KECCAK256 PUSH1 0x1 DUP1 PUSH1 0xA0 SHL SUB DUP7 AND DUP3 MSTORE PUSH1 0x20 MSTORE KECCAK256 SLOAD SWAP1 DUP3 DUP3 LT PUSH2 0x70E JUMPI PUSH1 0x20 DUP6 PUSH2 0x66E DUP6 DUP6 SUB DUP8 CALLER PUSH2 0x1516 JUMP JUMPDEST PUSH1 0x84 SWAP1 PUSH1 0x20 DUP7 MLOAD SWAP2 PUSH3 0x461BCD PUSH1 0xE5 SHL DUP4 MSTORE DUP3 ADD MSTORE PUSH1 0x25 PUSH1 0x24 DUP3 ADD MSTORE PUSH32 0x45524332303A2064656372656173656420616C6C6F77616E63652062656C6F77 PUSH1 0x44 DUP3 ADD MSTORE PUSH5 0x207A65726F PUSH1 0xD8 SHL PUSH1 0x64 DUP3 ADD MSTORE REVERT JUMPDEST DUP4 SWAP1 CALLVALUE PUSH2 0x245 JUMPI DUP2 PUSH1 0x3 NOT CALLDATASIZE ADD SLT PUSH2 0x245 JUMPI MLOAD SWAP1 DUP2 MSTORE PUSH1 0x20 SWAP1 RETURN JUMPDEST SWAP1 POP CALLVALUE PUSH2 0x3EE JUMPI DUP3 PUSH1 0x3 NOT CALLDATASIZE ADD SLT PUSH2 0x3EE JUMPI DUP1 MLOAD SWAP2 DUP4 PUSH1 0x6 SLOAD SWAP1 PUSH1 0x1 SWAP1 DUP3 DUP3 SHR SWAP3 DUP3 DUP2 AND DUP1 ISZERO PUSH2 0x872 JUMPI JUMPDEST PUSH1 0x20 SWAP6 DUP7 DUP7 LT DUP3 EQ PUSH2 0x85F JUMPI POP DUP5 DUP9 MSTORE SWAP1 DUP2 ISZERO PUSH2 0x83D JUMPI POP PUSH1 0x1 EQ PUSH2 0x7E4 JUMPI JUMPDEST PUSH2 0x7E0 DUP7 DUP7 PUSH2 0x7D6 DUP3 DUP12 SUB DUP4 PUSH2 0x1389 JUMP JUMPDEST MLOAD SWAP2 DUP3 SWAP2 DUP3 PUSH2 0xFB7 JUMP JUMPDEST SUB SWAP1 RETURN JUMPDEST SWAP3 SWAP6 POP PUSH1 0x6 DUP4 MSTORE PUSH32 0xF652222313E28459528D920B65115C16C04F3EFC82AAEDC97BE59F3F377C0D3F JUMPDEST DUP3 DUP5 LT PUSH2 0x82A JUMPI POP POP POP DUP3 PUSH2 0x7E0 SWAP5 PUSH2 0x7D6 SWAP3 DUP3 ADD ADD SWAP5 CODESIZE PUSH2 0x7C5 JUMP JUMPDEST DUP1 SLOAD DUP7 DUP6 ADD DUP9 ADD MSTORE SWAP3 DUP7 ADD SWAP3 DUP2 ADD PUSH2 0x80D JUMP JUMPDEST PUSH1 0xFF NOT AND DUP8 DUP7 ADD MSTORE POP POP POP ISZERO ISZERO PUSH1 0x5 SHL DUP4 ADD ADD SWAP3 POP PUSH2 0x7D6 DUP3 PUSH2 0x7E0 CODESIZE PUSH2 0x7C5 JUMP JUMPDEST PUSH4 0x4E487B71 PUSH1 0xE0 SHL DUP5 MSTORE PUSH1 0x22 SWAP1 MSTORE PUSH1 0x24 DUP4 REVERT JUMPDEST SWAP4 PUSH1 0x7F AND SWAP4 PUSH2 0x7A5 JUMP JUMPDEST SWAP2 SWAP1 POP CALLVALUE PUSH2 0x3EE JUMPI DUP2 PUSH1 0x3 NOT CALLDATASIZE ADD SLT PUSH2 0x3EE JUMPI DUP2 PUSH1 0x20 SWAP4 PUSH1 0xFF SWAP3 PUSH2 0x89E PUSH2 0xFFE JUMP JUMPDEST SWAP1 CALLDATALOAD DUP3 MSTORE PUSH1 0x1 DUP7 MSTORE DUP3 DUP3 KECCAK256 PUSH1 0x1 PUSH1 0x1 PUSH1 0xA0 SHL SUB SWAP1 SWAP2 AND DUP3 MSTORE DUP6 MSTORE KECCAK256 SLOAD SWAP2 MLOAD SWAP2 AND ISZERO ISZERO DUP2 MSTORE RETURN JUMPDEST DUP4 DUP4 CALLVALUE PUSH2 0x245 JUMPI PUSH1 0x20 CALLDATASIZE PUSH1 0x3 NOT ADD SLT PUSH2 0x245 JUMPI PUSH2 0x8DF PUSH2 0xFE3 JUMP JUMPDEST SWAP1 PUSH2 0x8E8 PUSH2 0x149B JUMP JUMPDEST PUSH1 0x8 SLOAD SWAP1 PUSH2 0x919 DUP4 DUP4 PUSH1 0x0 MSTORE PUSH1 0x1 PUSH1 0x20 MSTORE PUSH1 0x40 PUSH1 0x0 KECCAK256 SWAP1 PUSH1 0x1 DUP1 PUSH1 0xA0 SHL SUB AND PUSH1 0x0 MSTORE PUSH1 0x20 MSTORE PUSH1 0xFF PUSH1 0x40 PUSH1 0x0 KECCAK256 SLOAD AND SWAP1 JUMP JUMPDEST PUSH2 0x928 JUMPI POP SWAP1 PUSH2 0x2F1 SWAP2 PUSH2 0x13AB JUMP JUMPDEST PUSH1 0x64 SWAP1 PUSH1 0x20 DUP7 MLOAD SWAP2 PUSH3 0x461BCD PUSH1 0xE5 SHL DUP4 MSTORE DUP3 ADD MSTORE PUSH1 0x20 PUSH1 0x24 DUP3 ADD MSTORE PUSH32 0x616C72656164795F6578636C756465645F66726F6D5F706179696E675F746178 PUSH1 0x44 DUP3 ADD MSTORE REVERT JUMPDEST DUP4 SWAP1 CALLVALUE PUSH2 0x245 JUMPI DUP2 PUSH1 0x3 NOT CALLDATASIZE ADD SLT PUSH2 0x245 JUMPI SWAP1 SLOAD SWAP1 MLOAD PUSH1 0x1 PUSH1 0x1 PUSH1 0xA0 SHL SUB SWAP1 SWAP2 AND DUP2 MSTORE PUSH1 0x20 SWAP1 RETURN JUMPDEST DUP4 CALLVALUE PUSH2 0x289 JUMPI DUP1 PUSH1 0x3 NOT CALLDATASIZE ADD SLT PUSH2 0x289 JUMPI PUSH2 0x9AC PUSH2 0x149B JUMP JUMPDEST PUSH1 0xE SLOAD PUSH1 0xFF DUP1 DUP3 AND ISZERO AND SWAP1 PUSH1 0xFF NOT AND OR PUSH1 0xE SSTORE DUP1 RETURN JUMPDEST DUP4 CALLVALUE PUSH2 0x289 JUMPI DUP1 PUSH1 0x3 NOT CALLDATASIZE ADD SLT PUSH2 0x289 JUMPI PUSH2 0x9DB PUSH2 0x149B JUMP JUMPDEST DUP1 SLOAD PUSH1 0x1 PUSH1 0x1 PUSH1 0xA0 SHL SUB NOT DUP2 AND DUP3 SSTORE DUP2 SWAP1 PUSH1 0x1 PUSH1 0x1 PUSH1 0xA0 SHL SUB AND PUSH32 0x8BE0079C531659141344CD1FD0A4F28419497F9722A3DAAFE3B4186F6B6457E0 DUP3 DUP1 LOG3 DUP1 RETURN JUMPDEST DUP4 SWAP1 CALLVALUE PUSH2 0x245 JUMPI PUSH1 0x20 CALLDATASIZE PUSH1 0x3 NOT ADD SLT PUSH2 0x245 JUMPI PUSH1 0x20 SWAP2 DUP2 SWAP1 PUSH1 0x1 PUSH1 0x1 PUSH1 0xA0 SHL SUB PUSH2 0xA44 PUSH2 0xFE3 JUMP JUMPDEST AND DUP2 MSTORE PUSH1 0x2 DUP5 MSTORE KECCAK256 SLOAD SWAP1 MLOAD SWAP1 DUP2 MSTORE RETURN JUMPDEST DUP4 SWAP1 CALLVALUE PUSH2 0x245 JUMPI DUP2 PUSH1 0x3 NOT CALLDATASIZE ADD SLT PUSH2 0x245 JUMPI PUSH1 0x20 SWAP1 PUSH1 0xC SLOAD SWAP1 MLOAD SWAP1 DUP2 MSTORE RETURN JUMPDEST DUP4 SWAP1 CALLVALUE PUSH2 0x245 JUMPI DUP2 PUSH1 0x3 NOT CALLDATASIZE ADD SLT PUSH2 0x245 JUMPI PUSH1 0x20 SWAP1 PUSH1 0xD SLOAD SWAP1 MLOAD SWAP1 DUP2 MSTORE RETURN JUMPDEST DUP4 SWAP1 CALLVALUE PUSH2 0x245 JUMPI DUP2 PUSH1 0x3 NOT CALLDATASIZE ADD SLT PUSH2 0x245 JUMPI PUSH1 0x20 SWAP1 PUSH1 0xFF PUSH1 0xB SLOAD PUSH1 0xA8 SHR AND SWAP1 MLOAD SWAP1 DUP2 MSTORE RETURN JUMPDEST POP POP CALLVALUE PUSH2 0x245 JUMPI PUSH1 0x20 CALLDATASIZE PUSH1 0x3 NOT ADD SLT PUSH2 0x245 JUMPI PUSH2 0xAD2 PUSH2 0x149B JUMP JUMPDEST CALLDATALOAD PUSH1 0xC SSTORE DUP1 RETURN JUMPDEST DUP4 SWAP1 CALLVALUE PUSH2 0x245 JUMPI DUP2 PUSH1 0x3 NOT CALLDATASIZE ADD SLT PUSH2 0x245 JUMPI PUSH1 0x20 SWAP1 PUSH1 0xFF PUSH1 0xE SLOAD AND SWAP1 MLOAD SWAP1 ISZERO ISZERO DUP2 MSTORE RETURN JUMPDEST DUP4 SWAP1 CALLVALUE PUSH2 0x245 JUMPI DUP2 PUSH1 0x3 NOT CALLDATASIZE ADD SLT PUSH2 0x245 JUMPI PUSH1 0x20 SWAP1 PUSH1 0x8 SLOAD SWAP1 MLOAD SWAP1 DUP2 MSTORE RETURN JUMPDEST DUP4 SWAP1 CALLVALUE PUSH2 0x245 JUMPI DUP1 PUSH1 0x3 NOT CALLDATASIZE ADD SLT PUSH2 0x245 JUMPI PUSH2 0x66E PUSH1 0x20 SWAP3 PUSH2 0xB65 PUSH2 0xB3F PUSH2 0xFE3 JUMP JUMPDEST CALLER DUP4 MSTORE PUSH1 0x3 DUP7 MSTORE DUP5 DUP4 KECCAK256 PUSH1 0x1 PUSH1 0x1 PUSH1 0xA0 SHL SUB DUP3 AND DUP5 MSTORE DUP7 MSTORE SWAP2 DUP5 SWAP1 KECCAK256 SLOAD PUSH1 0x24 CALLDATALOAD SWAP1 PUSH2 0x14F3 JUMP JUMPDEST SWAP1 CALLER PUSH2 0x1516 JUMP JUMPDEST DUP4 CALLVALUE PUSH2 0x289 JUMPI PUSH1 0x20 CALLDATASIZE PUSH1 0x3 NOT ADD SLT PUSH2 0x289 JUMPI PUSH2 0xB86 PUSH2 0xFE3 JUMP JUMPDEST PUSH2 0xB8E PUSH2 0x149B JUMP JUMPDEST PUSH1 0x1 DUP1 PUSH1 0xA0 SHL SUB AND PUSH1 0x1 PUSH1 0x1 PUSH1 0x60 SHL SUB PUSH1 0xA0 SHL PUSH1 0xB SLOAD AND OR PUSH1 0xB SSTORE DUP1 RETURN JUMPDEST DUP4 DUP4 CALLVALUE PUSH2 0x245 JUMPI DUP3 PUSH1 0x3 NOT CALLDATASIZE ADD SLT PUSH2 0x245 JUMPI PUSH2 0xBC6 PUSH2 0xFFE JUMP JUMPDEST SWAP1 CALLER PUSH1 0x1 PUSH1 0x1 PUSH1 0xA0 SHL SUB DUP4 AND SUB PUSH2 0xBE2 JUMPI SWAP1 PUSH2 0x2F1 SWAP2 CALLDATALOAD PUSH2 0x1425 JUMP JUMPDEST PUSH1 0x84 SWAP1 PUSH1 0x20 DUP6 MLOAD SWAP2 PUSH3 0x461BCD PUSH1 0xE5 SHL DUP4 MSTORE DUP3 ADD MSTORE PUSH1 0x2F PUSH1 0x24 DUP3 ADD MSTORE PUSH32 0x416363657373436F6E74726F6C3A2063616E206F6E6C792072656E6F756E6365 PUSH1 0x44 DUP3 ADD MSTORE PUSH15 0x103937B632B9903337B91039B2B633 PUSH1 0x89 SHL PUSH1 0x64 DUP3 ADD MSTORE REVERT JUMPDEST DUP4 SWAP1 CALLVALUE PUSH2 0x245 JUMPI DUP2 PUSH1 0x3 NOT CALLDATASIZE ADD SLT PUSH2 0x245 JUMPI PUSH1 0x20 SWAP1 PUSH1 0x9 SLOAD SWAP1 MLOAD SWAP1 DUP2 MSTORE RETURN JUMPDEST DUP4 SWAP1 CALLVALUE PUSH2 0x245 JUMPI DUP2 PUSH1 0x3 NOT CALLDATASIZE ADD SLT PUSH2 0x245 JUMPI PUSH1 0x20 SWAP1 MLOAD PUSH1 0x12 DUP2 MSTORE RETURN JUMPDEST SWAP1 POP CALLVALUE PUSH2 0x3EE JUMPI DUP1 PUSH1 0x3 NOT CALLDATASIZE ADD SLT PUSH2 0x3EE JUMPI PUSH2 0x2F1 SWAP2 CALLDATALOAD PUSH2 0xC9C PUSH1 0x1 PUSH2 0x5BE PUSH2 0xFFE JUMP JUMPDEST PUSH2 0x13AB JUMP JUMPDEST SWAP2 SWAP1 POP CALLVALUE PUSH2 0x3EE JUMPI PUSH1 0x20 CALLDATASIZE PUSH1 0x3 NOT ADD SLT PUSH2 0x3EE JUMPI DUP2 PUSH1 0x20 SWAP4 PUSH1 0x1 SWAP3 CALLDATALOAD DUP2 MSTORE DUP3 DUP6 MSTORE KECCAK256 ADD SLOAD SWAP1 MLOAD SWAP1 DUP2 MSTORE RETURN JUMPDEST DUP3 DUP5 CALLVALUE PUSH2 0x289 JUMPI DUP3 PUSH2 0xCDD CALLDATASIZE PUSH2 0x1014 JUMP JUMPDEST PUSH1 0x1 PUSH1 0x1 PUSH1 0xA0 SHL SUB DUP4 AND DUP6 MSTORE PUSH1 0x3 PUSH1 0x20 SWAP1 DUP2 MSTORE DUP5 DUP7 KECCAK256 CALLER DUP8 MSTORE SWAP1 MSTORE SWAP3 SWAP1 SWAP4 KECCAK256 SLOAD SWAP2 SWAP4 SWAP1 SWAP2 SWAP1 PUSH1 0x1 DUP3 ADD PUSH2 0xD19 JUMPI JUMPDEST PUSH1 0x20 DUP7 PUSH2 0x66E DUP8 DUP8 DUP8 PUSH2 0x1652 JUMP JUMPDEST DUP5 DUP3 LT PUSH2 0xD42 JUMPI POP SWAP2 DUP4 SWAP2 PUSH2 0xD37 PUSH1 0x20 SWAP7 SWAP6 PUSH2 0x66E SWAP6 SUB CALLER DUP4 PUSH2 0x1516 JUMP JUMPDEST SWAP2 SWAP4 SWAP5 DUP2 SWAP4 POP PUSH2 0xD0B JUMP JUMPDEST PUSH1 0x64 SWAP1 PUSH1 0x20 DUP8 MLOAD SWAP2 PUSH3 0x461BCD PUSH1 0xE5 SHL DUP4 MSTORE DUP3 ADD MSTORE PUSH1 0x1D PUSH1 0x24 DUP3 ADD MSTORE PUSH32 0x45524332303A20696E73756666696369656E7420616C6C6F77616E6365000000 PUSH1 0x44 DUP3 ADD MSTORE REVERT JUMPDEST DUP4 SWAP1 CALLVALUE PUSH2 0x245 JUMPI DUP2 PUSH1 0x3 NOT CALLDATASIZE ADD SLT PUSH2 0x245 JUMPI PUSH1 0x20 SWAP1 PUSH1 0xFF PUSH1 0xE SLOAD PUSH1 0x8 SHR AND SWAP1 MLOAD SWAP1 ISZERO ISZERO DUP2 MSTORE RETURN JUMPDEST SWAP2 SWAP1 POP CALLVALUE PUSH2 0x3EE JUMPI DUP3 PUSH1 0x3 NOT CALLDATASIZE ADD SLT PUSH2 0x3EE JUMPI PUSH1 0x20 SWAP3 POP SLOAD SWAP1 MLOAD SWAP1 DUP2 MSTORE RETURN JUMPDEST DUP4 SWAP1 CALLVALUE PUSH2 0x245 JUMPI DUP1 PUSH1 0x3 NOT CALLDATASIZE ADD SLT PUSH2 0x245 JUMPI PUSH1 0x20 SWAP1 PUSH2 0x66E PUSH2 0xDEB PUSH2 0xFE3 JUMP JUMPDEST PUSH1 0x24 CALLDATALOAD SWAP1 CALLER PUSH2 0x1516 JUMP JUMPDEST DUP4 CALLVALUE PUSH2 0x289 JUMPI PUSH1 0x20 CALLDATASIZE PUSH1 0x3 NOT ADD SLT PUSH2 0x289 JUMPI PUSH2 0x2F1 PUSH2 0xE12 PUSH2 0xFE3 JUMP JUMPDEST PUSH2 0xE1A PUSH2 0x149B JUMP JUMPDEST PUSH1 0x8 SLOAD PUSH1 0x7 SLOAD PUSH1 0x1 PUSH1 0x1 PUSH1 0xA0 SHL SUB SWAP2 PUSH2 0xE35 SWAP2 DUP4 AND SWAP1 PUSH2 0x1425 JUMP JUMPDEST DUP2 AND PUSH1 0x1 PUSH1 0x1 PUSH1 0x60 SHL SUB PUSH1 0xA0 SHL PUSH1 0x7 SLOAD AND OR PUSH1 0x7 SSTORE PUSH1 0x8 SLOAD PUSH2 0x13AB JUMP JUMPDEST DUP4 CALLVALUE PUSH2 0x289 JUMPI PUSH1 0x20 CALLDATASIZE PUSH1 0x3 NOT ADD SLT PUSH2 0x289 JUMPI PUSH2 0xE7E PUSH2 0xE6F PUSH2 0xFE3 JUMP JUMPDEST PUSH2 0xE77 PUSH2 0x149B JUMP JUMPDEST SELFBALANCE SWAP1 PUSH2 0x229C JUMP JUMPDEST POP DUP1 RETURN JUMPDEST SWAP1 POP CALLVALUE PUSH2 0x3EE JUMPI DUP3 PUSH1 0x3 NOT CALLDATASIZE ADD SLT PUSH2 0x3EE JUMPI DUP1 MLOAD SWAP2 DUP4 PUSH1 0x5 SLOAD SWAP1 PUSH1 0x1 SWAP1 DUP3 DUP3 SHR SWAP3 DUP3 DUP2 AND DUP1 ISZERO PUSH2 0xF36 JUMPI JUMPDEST PUSH1 0x20 SWAP6 DUP7 DUP7 LT DUP3 EQ PUSH2 0x85F JUMPI POP DUP5 DUP9 MSTORE SWAP1 DUP2 ISZERO PUSH2 0x83D JUMPI POP PUSH1 0x1 EQ PUSH2 0xEDD JUMPI PUSH2 0x7E0 DUP7 DUP7 PUSH2 0x7D6 DUP3 DUP12 SUB DUP4 PUSH2 0x1389 JUMP JUMPDEST SWAP3 SWAP6 POP PUSH1 0x5 DUP4 MSTORE PUSH32 0x36B6384B5ECA791C62761152D0C79BB0604C104A5FB6F4EB0703F3154BB3DB0 JUMPDEST DUP3 DUP5 LT PUSH2 0xF23 JUMPI POP POP POP DUP3 PUSH2 0x7E0 SWAP5 PUSH2 0x7D6 SWAP3 DUP3 ADD ADD SWAP5 CODESIZE PUSH2 0x7C5 JUMP JUMPDEST DUP1 SLOAD DUP7 DUP6 ADD DUP9 ADD MSTORE SWAP3 DUP7 ADD SWAP3 DUP2 ADD PUSH2 0xF06 JUMP JUMPDEST SWAP4 PUSH1 0x7F AND SWAP4 PUSH2 0xEAD JUMP JUMPDEST DUP5 SWAP1 DUP5 CALLVALUE PUSH2 0x3EE JUMPI PUSH1 0x20 CALLDATASIZE PUSH1 0x3 NOT ADD SLT PUSH2 0x3EE JUMPI CALLDATALOAD PUSH4 0xFFFFFFFF PUSH1 0xE0 SHL DUP2 AND DUP1 SWAP2 SUB PUSH2 0x3EE JUMPI PUSH1 0x20 SWAP3 POP PUSH4 0x7965DB0B PUSH1 0xE0 SHL DUP2 EQ SWAP1 DUP2 ISZERO PUSH2 0xF83 JUMPI JUMPDEST POP ISZERO ISZERO DUP2 MSTORE RETURN JUMPDEST PUSH4 0x1FFC9A7 PUSH1 0xE0 SHL EQ SWAP1 POP DUP4 PUSH2 0xF7C JUMP JUMPDEST PUSH1 0x0 JUMPDEST DUP4 DUP2 LT PUSH2 0xFA7 JUMPI POP POP PUSH1 0x0 SWAP2 ADD MSTORE JUMP JUMPDEST DUP2 DUP2 ADD MLOAD DUP4 DUP3 ADD MSTORE PUSH1 0x20 ADD PUSH2 0xF97 JUMP JUMPDEST PUSH1 0x40 SWAP2 PUSH1 0x20 DUP3 MSTORE PUSH2 0xFD7 DUP2 MLOAD DUP1 SWAP3 DUP2 PUSH1 0x20 DUP7 ADD MSTORE PUSH1 0x20 DUP7 DUP7 ADD SWAP2 ADD PUSH2 0xF94 JUMP JUMPDEST PUSH1 0x1F ADD PUSH1 0x1F NOT AND ADD ADD SWAP1 JUMP JUMPDEST PUSH1 0x4 CALLDATALOAD SWAP1 PUSH1 0x1 PUSH1 0x1 PUSH1 0xA0 SHL SUB DUP3 AND DUP3 SUB PUSH2 0xFF9 JUMPI JUMP JUMPDEST PUSH1 0x0 DUP1 REVERT JUMPDEST PUSH1 0x24 CALLDATALOAD SWAP1 PUSH1 0x1 PUSH1 0x1 PUSH1 0xA0 SHL SUB DUP3 AND DUP3 SUB PUSH2 0xFF9 JUMPI JUMP JUMPDEST PUSH1 0x60 SWAP1 PUSH1 0x3 NOT ADD SLT PUSH2 0xFF9 JUMPI PUSH1 0x1 PUSH1 0x1 PUSH1 0xA0 SHL SUB SWAP1 PUSH1 0x4 CALLDATALOAD DUP3 DUP2 AND DUP2 SUB PUSH2 0xFF9 JUMPI SWAP2 PUSH1 0x24 CALLDATALOAD SWAP1 DUP2 AND DUP2 SUB PUSH2 0xFF9 JUMPI SWAP1 PUSH1 0x44 CALLDATALOAD SWAP1 JUMP JUMPDEST PUSH1 0x0 DUP2 DUP2 MSTORE PUSH1 0x1 SWAP1 PUSH1 0x20 SWAP2 DUP1 DUP4 MSTORE PUSH1 0x40 SWAP4 DUP5 DUP4 KECCAK256 CALLER DUP5 MSTORE DUP5 MSTORE PUSH1 0xFF DUP6 DUP5 KECCAK256 SLOAD AND ISZERO PUSH2 0x1075 JUMPI POP POP POP POP POP JUMP JUMPDEST DUP5 MLOAD CALLER SWAP2 PUSH2 0x1082 DUP3 PUSH2 0x136D JUMP JUMPDEST PUSH1 0x2A DUP3 MSTORE DUP6 DUP3 ADD SWAP3 DUP8 CALLDATASIZE DUP6 CALLDATACOPY DUP3 MLOAD ISZERO PUSH2 0x132F JUMPI PUSH1 0x30 DUP5 MSTORE8 DUP3 MLOAD DUP6 LT ISZERO PUSH2 0x132F JUMPI PUSH1 0x78 PUSH1 0x21 DUP5 ADD MSTORE8 PUSH1 0x29 JUMPDEST DUP6 DUP2 GT PUSH2 0x12C5 JUMPI POP PUSH2 0x1283 JUMPI DUP7 MLOAD SWAP4 PUSH1 0x80 DUP6 ADD DUP6 DUP2 LT PUSH8 0xFFFFFFFFFFFFFFFF DUP3 GT OR PUSH2 0x126F JUMPI DUP9 MSTORE PUSH1 0x42 DUP6 MSTORE DUP7 DUP6 ADD SWAP6 PUSH1 0x60 CALLDATASIZE DUP9 CALLDATACOPY DUP6 MLOAD ISZERO PUSH2 0x125B JUMPI PUSH1 0x30 DUP8 MSTORE8 DUP6 MLOAD DUP3 LT ISZERO PUSH2 0x125B JUMPI SWAP1 PUSH1 0x78 PUSH1 0x21 DUP8 ADD MSTORE8 PUSH1 0x41 SWAP2 JUMPDEST DUP2 DUP4 GT PUSH2 0x11ED JUMPI POP POP POP PUSH2 0x11AB JUMPI SWAP4 DUP6 SWAP4 PUSH2 0x1191 SWAP4 PUSH2 0x1182 PUSH1 0x48 SWAP5 PUSH2 0x1159 PUSH32 0x416363657373436F6E74726F6C3A206163636F756E7420000000000000000000 SWAP10 PUSH2 0x11A7 SWAP12 MLOAD SWAP11 DUP12 SWAP8 DUP9 ADD MSTORE MLOAD DUP1 SWAP3 PUSH1 0x37 DUP9 ADD SWAP1 PUSH2 0xF94 JUMP JUMPDEST DUP5 ADD SWAP2 PUSH17 0x1034B99036B4B9B9B4B733903937B6329 PUSH1 0x7D SHL PUSH1 0x37 DUP5 ADD MSTORE MLOAD DUP1 SWAP4 DUP7 DUP5 ADD SWAP1 PUSH2 0xF94 JUMP JUMPDEST ADD SUB PUSH1 0x28 DUP2 ADD DUP6 MSTORE ADD DUP4 PUSH2 0x1389 JUMP JUMPDEST MLOAD PUSH3 0x461BCD PUSH1 0xE5 SHL DUP2 MSTORE SWAP2 DUP3 SWAP2 PUSH1 0x4 DUP4 ADD PUSH2 0xFB7 JUMP JUMPDEST SUB SWAP1 REVERT JUMPDEST PUSH1 0x64 DUP6 DUP8 MLOAD SWAP1 PUSH3 0x461BCD PUSH1 0xE5 SHL DUP3 MSTORE DUP1 PUSH1 0x4 DUP4 ADD MSTORE PUSH1 0x24 DUP3 ADD MSTORE PUSH32 0x537472696E67733A20686578206C656E67746820696E73756666696369656E74 PUSH1 0x44 DUP3 ADD MSTORE REVERT JUMPDEST SWAP1 SWAP2 SWAP3 PUSH1 0xF DUP2 AND PUSH1 0x10 DUP2 LT ISZERO PUSH2 0x1247 JUMPI PUSH16 0x181899199A1A9B1B9C1CB0B131B232B3 PUSH1 0x81 SHL SWAP1 BYTE PUSH2 0x121D DUP6 DUP10 PUSH2 0x162B JUMP JUMPDEST MSTORE8 PUSH1 0x4 SHR SWAP3 DUP1 ISZERO PUSH2 0x1233 JUMPI PUSH1 0x0 NOT ADD SWAP2 SWAP1 PUSH2 0x1101 JUMP JUMPDEST PUSH4 0x4E487B71 PUSH1 0xE0 SHL DUP3 MSTORE PUSH1 0x11 PUSH1 0x4 MSTORE PUSH1 0x24 DUP3 REVERT JUMPDEST PUSH4 0x4E487B71 PUSH1 0xE0 SHL DUP4 MSTORE PUSH1 0x32 PUSH1 0x4 MSTORE PUSH1 0x24 DUP4 REVERT JUMPDEST PUSH4 0x4E487B71 PUSH1 0xE0 SHL DUP2 MSTORE PUSH1 0x32 PUSH1 0x4 MSTORE PUSH1 0x24 SWAP1 REVERT JUMPDEST PUSH4 0x4E487B71 PUSH1 0xE0 SHL DUP8 MSTORE PUSH1 0x41 PUSH1 0x4 MSTORE PUSH1 0x24 DUP8 REVERT JUMPDEST PUSH1 0x64 DUP7 DUP9 MLOAD SWAP1 PUSH3 0x461BCD PUSH1 0xE5 SHL DUP3 MSTORE DUP1 PUSH1 0x4 DUP4 ADD MSTORE PUSH1 0x24 DUP3 ADD MSTORE PUSH32 0x537472696E67733A20686578206C656E67746820696E73756666696369656E74 PUSH1 0x44 DUP3 ADD MSTORE REVERT JUMPDEST SWAP1 PUSH1 0xF DUP2 AND PUSH1 0x10 DUP2 LT ISZERO PUSH2 0x131B JUMPI PUSH16 0x181899199A1A9B1B9C1CB0B131B232B3 PUSH1 0x81 SHL SWAP1 BYTE PUSH2 0x12F3 DUP4 DUP7 PUSH2 0x162B JUMP JUMPDEST MSTORE8 PUSH1 0x4 SHR SWAP1 DUP1 ISZERO PUSH2 0x1307 JUMPI PUSH1 0x0 NOT ADD PUSH2 0x10AC JUMP JUMPDEST PUSH4 0x4E487B71 PUSH1 0xE0 SHL DUP8 MSTORE PUSH1 0x11 PUSH1 0x4 MSTORE PUSH1 0x24 DUP8 REVERT JUMPDEST PUSH4 0x4E487B71 PUSH1 0xE0 SHL DUP9 MSTORE PUSH1 0x32 PUSH1 0x4 MSTORE PUSH1 0x24 DUP9 REVERT JUMPDEST PUSH4 0x4E487B71 PUSH1 0xE0 SHL DUP7 MSTORE PUSH1 0x32 PUSH1 0x4 MSTORE PUSH1 0x24 DUP7 REVERT JUMPDEST PUSH8 0xFFFFFFFFFFFFFFFF DUP2 GT PUSH2 0x1357 JUMPI PUSH1 0x40 MSTORE JUMP JUMPDEST PUSH4 0x4E487B71 PUSH1 0xE0 SHL PUSH1 0x0 MSTORE PUSH1 0x41 PUSH1 0x4 MSTORE PUSH1 0x24 PUSH1 0x0 REVERT JUMPDEST PUSH1 0x60 DUP2 ADD SWAP1 DUP2 LT PUSH8 0xFFFFFFFFFFFFFFFF DUP3 GT OR PUSH2 0x1357 JUMPI PUSH1 0x40 MSTORE JUMP JUMPDEST SWAP1 PUSH1 0x1F DUP1 NOT SWAP2 ADD AND DUP2 ADD SWAP1 DUP2 LT PUSH8 0xFFFFFFFFFFFFFFFF DUP3 GT OR PUSH2 0x1357 JUMPI PUSH1 0x40 MSTORE JUMP JUMPDEST SWAP1 PUSH1 0x0 SWAP2 DUP1 DUP4 MSTORE PUSH1 0x1 PUSH1 0x20 MSTORE PUSH1 0x40 DUP4 KECCAK256 SWAP2 PUSH1 0x1 DUP1 PUSH1 0xA0 SHL SUB AND SWAP2 DUP3 DUP5 MSTORE PUSH1 0x20 MSTORE PUSH1 0xFF PUSH1 0x40 DUP5 KECCAK256 SLOAD AND ISZERO PUSH2 0x13DD JUMPI POP POP POP JUMP JUMPDEST DUP1 DUP4 MSTORE PUSH1 0x1 PUSH1 0x20 MSTORE PUSH1 0x40 DUP4 KECCAK256 DUP3 DUP5 MSTORE PUSH1 0x20 MSTORE PUSH1 0x40 DUP4 KECCAK256 PUSH1 0x1 PUSH1 0xFF NOT DUP3 SLOAD AND OR SWAP1 SSTORE PUSH32 0x2F8788117E7EFF1D82E926EC794901D17C78024A50270940304540A733656F0D CALLER SWAP4 DUP1 LOG4 JUMP JUMPDEST SWAP1 PUSH1 0x0 SWAP2 DUP1 DUP4 MSTORE PUSH1 0x1 PUSH1 0x20 MSTORE PUSH1 0x40 DUP4 KECCAK256 SWAP2 PUSH1 0x1 DUP1 PUSH1 0xA0 SHL SUB AND SWAP2 DUP3 DUP5 MSTORE PUSH1 0x20 MSTORE PUSH1 0xFF PUSH1 0x40 DUP5 KECCAK256 SLOAD AND PUSH2 0x1456 JUMPI POP POP POP JUMP JUMPDEST DUP1 DUP4 MSTORE PUSH1 0x1 PUSH1 0x20 MSTORE PUSH1 0x40 DUP4 KECCAK256 DUP3 DUP5 MSTORE PUSH1 0x20 MSTORE PUSH1 0x40 DUP4 KECCAK256 PUSH1 0xFF NOT DUP2 SLOAD AND SWAP1 SSTORE PUSH32 0xF6391F5C32D9C69D2A47EA670B442974B53935D1EDC7FD64EB21E047A839171B CALLER SWAP4 DUP1 LOG4 JUMP JUMPDEST PUSH1 0x0 SLOAD PUSH1 0x1 PUSH1 0x1 PUSH1 0xA0 SHL SUB AND CALLER SUB PUSH2 0x14AF JUMPI JUMP JUMPDEST PUSH1 0x64 PUSH1 0x40 MLOAD PUSH3 0x461BCD PUSH1 0xE5 SHL DUP2 MSTORE PUSH1 0x20 PUSH1 0x4 DUP3 ADD MSTORE PUSH1 0x20 PUSH1 0x24 DUP3 ADD MSTORE PUSH32 0x4F776E61626C653A2063616C6C6572206973206E6F7420746865206F776E6572 PUSH1 0x44 DUP3 ADD MSTORE REVERT JUMPDEST SWAP2 SWAP1 DUP3 ADD DUP1 SWAP3 GT PUSH2 0x1500 JUMPI JUMP JUMPDEST PUSH4 0x4E487B71 PUSH1 0xE0 SHL PUSH1 0x0 MSTORE PUSH1 0x11 PUSH1 0x4 MSTORE PUSH1 0x24 PUSH1 0x0 REVERT JUMPDEST PUSH1 0x1 PUSH1 0x1 PUSH1 0xA0 SHL SUB SWAP1 DUP2 AND SWAP2 DUP3 ISZERO PUSH2 0x15C7 JUMPI AND SWAP2 DUP3 ISZERO PUSH2 0x1577 JUMPI PUSH1 0x20 PUSH32 0x8C5BE1E5EBEC7D5BD14F71427D1E84F3DD0314C0F7B2291E5B200AC8C7C3B925 SWAP2 DUP4 PUSH1 0x0 MSTORE PUSH1 0x3 DUP3 MSTORE PUSH1 0x40 PUSH1 0x0 KECCAK256 DUP6 PUSH1 0x0 MSTORE DUP3 MSTORE DUP1 PUSH1 0x40 PUSH1 0x0 KECCAK256 SSTORE PUSH1 0x40 MLOAD SWAP1 DUP2 MSTORE LOG3 JUMP JUMPDEST PUSH1 0x40 MLOAD PUSH3 0x461BCD PUSH1 0xE5 SHL DUP2 MSTORE PUSH1 0x20 PUSH1 0x4 DUP3 ADD MSTORE PUSH1 0x22 PUSH1 0x24 DUP3 ADD MSTORE PUSH32 0x45524332303A20617070726F766520746F20746865207A65726F206164647265 PUSH1 0x44 DUP3 ADD MSTORE PUSH2 0x7373 PUSH1 0xF0 SHL PUSH1 0x64 DUP3 ADD MSTORE PUSH1 0x84 SWAP1 REVERT JUMPDEST PUSH1 0x40 MLOAD PUSH3 0x461BCD PUSH1 0xE5 SHL DUP2 MSTORE PUSH1 0x20 PUSH1 0x4 DUP3 ADD MSTORE PUSH1 0x24 DUP1 DUP3 ADD MSTORE PUSH32 0x45524332303A20617070726F76652066726F6D20746865207A65726F20616464 PUSH1 0x44 DUP3 ADD MSTORE PUSH4 0x72657373 PUSH1 0xE0 SHL PUSH1 0x64 DUP3 ADD MSTORE PUSH1 0x84 SWAP1 REVERT JUMPDEST DUP2 DUP2 MUL SWAP3 SWAP2 DUP2 ISZERO SWAP2 DUP5 DIV EQ OR ISZERO PUSH2 0x1500 JUMPI JUMP JUMPDEST SWAP1 DUP2 MLOAD DUP2 LT ISZERO PUSH2 0x163C JUMPI ADD PUSH1 0x20 ADD SWAP1 JUMP JUMPDEST PUSH4 0x4E487B71 PUSH1 0xE0 SHL PUSH1 0x0 MSTORE PUSH1 0x32 PUSH1 0x4 MSTORE PUSH1 0x24 PUSH1 0x0 REVERT JUMPDEST PUSH1 0x0 DUP1 SLOAD SWAP1 SWAP5 SWAP4 SWAP3 SWAP1 PUSH1 0x1 PUSH1 0x1 PUSH1 0xA0 SHL SUB DUP1 DUP5 AND SWAP2 AND DUP2 DUP2 EQ ISZERO SWAP1 DUP2 PUSH2 0x201D JUMPI JUMPDEST DUP2 PUSH2 0x1FEA JUMPI JUMPDEST POP PUSH2 0x1F8A JUMPI JUMPDEST PUSH1 0x8 SLOAD PUSH1 0x0 SWAP1 DUP2 MSTORE PUSH1 0x1 PUSH1 0x20 SWAP1 DUP2 MSTORE PUSH1 0x40 DUP1 DUP4 KECCAK256 PUSH1 0x1 PUSH1 0x1 PUSH1 0xA0 SHL SUB DUP8 AND DUP5 MSTORE SWAP1 SWAP2 MSTORE SWAP1 KECCAK256 SLOAD PUSH1 0xFF AND ISZERO SWAP1 DUP2 PUSH2 0x1F7F JUMPI JUMPDEST POP ISZERO PUSH2 0x1F73 JUMPI PUSH1 0x3 PUSH1 0x64 PUSH2 0x16CC PUSH1 0xFF PUSH1 0xB SLOAD PUSH1 0xA0 SHR AND DUP7 PUSH2 0x1618 JUMP JUMPDEST DIV DIV SWAP3 DUP4 PUSH1 0x1 SHR SWAP6 ADDRESS DUP2 MSTORE PUSH1 0x2 PUSH1 0x20 MSTORE PUSH1 0x40 DUP2 KECCAK256 SLOAD SWAP1 PUSH1 0xC SLOAD DUP1 DUP4 LT ISZERO PUSH2 0x1F6B JUMPI JUMPDEST POP PUSH1 0xD SLOAD DUP3 LT ISZERO PUSH2 0x1724 DUP7 PUSH1 0x9 SLOAD PUSH1 0x0 MSTORE PUSH1 0x1 PUSH1 0x20 MSTORE PUSH1 0x40 PUSH1 0x0 KECCAK256 SWAP1 PUSH1 0x1 DUP1 PUSH1 0xA0 SHL SUB AND PUSH1 0x0 MSTORE PUSH1 0x20 MSTORE PUSH1 0xFF PUSH1 0x40 PUSH1 0x0 KECCAK256 SLOAD AND SWAP1 JUMP JUMPDEST ISZERO SWAP1 DUP2 PUSH2 0x1F63 JUMPI JUMPDEST POP DUP1 PUSH2 0x1F53 JUMPI JUMPDEST DUP1 PUSH2 0x1F47 JUMPI JUMPDEST PUSH2 0x179A JUMPI JUMPDEST POP POP SWAP5 PUSH2 0x1774 PUSH2 0x177B SWAP3 PUSH2 0x176D DUP4 PUSH2 0x1762 PUSH2 0x1798 SWAP10 SWAP11 PUSH2 0x1767 DUP11 PUSH2 0x1762 DUP2 DUP1 PUSH2 0x14F3 JUMP JUMPDEST PUSH2 0x14F3 JUMP JUMPDEST SWAP1 PUSH2 0x21AA JUMP JUMPDEST SWAP1 DUP6 PUSH2 0x2033 JUMP JUMPDEST DUP3 DUP1 PUSH2 0x2033 JUMP JUMPDEST PUSH2 0x1786 DUP3 ADDRESS DUP4 PUSH2 0x2033 JUMP JUMPDEST PUSH1 0x7 SLOAD PUSH1 0x1 PUSH1 0x1 PUSH1 0xA0 SHL SUB AND SWAP1 PUSH2 0x2033 JUMP JUMPDEST JUMP JUMPDEST PUSH2 0x100 PUSH2 0xFF00 NOT PUSH1 0xE SLOAD AND OR PUSH1 0xE SSTORE PUSH2 0x17B6 DUP3 PUSH1 0x1 SHR DUP4 PUSH2 0x21AA JUMP JUMPDEST SWAP2 SELFBALANCE SWAP1 PUSH2 0x17D1 DUP2 PUSH1 0x2 SHR PUSH1 0x1 DUP1 PUSH1 0xA0 SHL SUB PUSH1 0xA SLOAD AND ADDRESS PUSH2 0x1516 JUMP JUMPDEST PUSH1 0xB SLOAD PUSH2 0x17ED SWAP1 PUSH1 0x2 DUP4 SWAP1 SHR SWAP1 PUSH1 0x1 PUSH1 0x1 PUSH1 0xA0 SHL SUB AND ADDRESS PUSH2 0x1516 JUMP JUMPDEST PUSH1 0xA SLOAD PUSH1 0x40 MLOAD PUSH4 0xC45A0155 PUSH1 0xE0 SHL DUP2 MSTORE SWAP1 PUSH1 0x1 PUSH1 0x1 PUSH1 0xA0 SHL SUB AND PUSH1 0x20 DUP3 PUSH1 0x4 DUP2 DUP5 GAS STATICCALL SWAP2 DUP3 ISZERO PUSH2 0x1DF8 JUMPI DUP6 SWAP3 PUSH2 0x1F26 JUMPI JUMPDEST POP PUSH1 0x40 MLOAD SWAP2 PUSH2 0x182C DUP4 PUSH2 0x136D JUMP JUMPDEST PUSH1 0x2 DUP4 MSTORE PUSH1 0x20 DUP4 ADD PUSH1 0x40 CALLDATASIZE DUP3 CALLDATACOPY DUP4 MLOAD ISZERO PUSH2 0x1EF3 JUMPI ADDRESS SWAP1 MSTORE PUSH1 0x40 MLOAD PUSH4 0x15AB88C9 PUSH1 0xE3 SHL DUP2 MSTORE PUSH1 0x20 DUP2 PUSH1 0x4 DUP2 DUP7 GAS STATICCALL SWAP1 DUP2 ISZERO PUSH2 0x1D81 JUMPI DUP8 SWAP2 PUSH2 0x1F07 JUMPI JUMPDEST POP DUP4 MLOAD PUSH1 0x1 LT ISZERO PUSH2 0x1EF3 JUMPI PUSH1 0x1 PUSH1 0x1 PUSH1 0xA0 SHL SUB AND PUSH1 0x40 DUP5 DUP2 ADD SWAP2 SWAP1 SWAP2 MSTORE MLOAD PUSH4 0x15AB88C9 PUSH1 0xE3 SHL DUP2 MSTORE SWAP1 PUSH1 0x20 DUP3 PUSH1 0x4 DUP2 DUP7 GAS STATICCALL SWAP2 DUP3 ISZERO PUSH2 0x1D81 JUMPI DUP8 SWAP3 PUSH2 0x1ED2 JUMPI JUMPDEST POP PUSH1 0x40 MLOAD PUSH4 0x15AB88C9 PUSH1 0xE3 SHL DUP2 MSTORE SWAP1 PUSH1 0x20 DUP3 PUSH1 0x4 DUP2 DUP8 GAS STATICCALL SWAP2 DUP3 ISZERO PUSH2 0x1DAB JUMPI SWAP2 PUSH1 0x20 SWAP2 PUSH2 0x1909 SWAP4 DUP11 SWAP3 PUSH2 0x1D8C JUMPI JUMPDEST POP PUSH1 0x40 MLOAD PUSH4 0xE6A43905 PUSH1 0xE0 SHL DUP2 MSTORE ADDRESS PUSH1 0x4 DUP3 ADD MSTORE PUSH1 0x1 PUSH1 0x1 PUSH1 0xA0 SHL SUB SWAP1 SWAP3 AND PUSH1 0x24 DUP4 ADD MSTORE SWAP1 SWAP3 DUP4 SWAP2 SWAP1 DUP3 SWAP1 DUP2 SWAP1 PUSH1 0x44 DUP3 ADD SWAP1 JUMP JUMPDEST SUB SWAP2 PUSH1 0x1 PUSH1 0x1 PUSH1 0xA0 SHL SUB AND GAS STATICCALL SWAP1 DUP2 ISZERO PUSH2 0x1D81 JUMPI SWAP1 PUSH1 0x20 SWAP2 DUP9 SWAP2 PUSH2 0x1EB5 JUMPI JUMPDEST POP PUSH1 0x40 MLOAD PUSH4 0x70A08231 PUSH1 0xE0 SHL DUP2 MSTORE PUSH1 0x1 PUSH1 0x1 PUSH1 0xA0 SHL SUB SWAP2 DUP3 AND PUSH1 0x4 DUP3 ADD MSTORE SWAP3 DUP4 SWAP2 PUSH1 0x24 SWAP2 DUP4 SWAP2 AND GAS STATICCALL SWAP1 DUP2 ISZERO PUSH2 0x1C62 JUMPI DUP7 SWAP2 PUSH2 0x1E7F JUMPI JUMPDEST POP PUSH2 0x1E03 JUMPI JUMPDEST POP POP PUSH1 0xB SLOAD PUSH1 0x40 MLOAD PUSH4 0xC45A0155 PUSH1 0xE0 SHL DUP2 MSTORE SWAP1 PUSH1 0x1 PUSH1 0x1 PUSH1 0xA0 SHL SUB AND PUSH1 0x20 DUP3 PUSH1 0x4 DUP2 DUP5 GAS STATICCALL SWAP2 DUP3 ISZERO PUSH2 0x1DF8 JUMPI DUP6 SWAP3 PUSH2 0x1DD7 JUMPI JUMPDEST POP PUSH1 0x40 MLOAD SWAP2 PUSH2 0x19A6 DUP4 PUSH2 0x136D JUMP JUMPDEST PUSH1 0x2 DUP4 MSTORE PUSH1 0x40 CALLDATASIZE PUSH1 0x20 DUP6 ADD CALLDATACOPY PUSH1 0x40 MLOAD PUSH4 0x15AB88C9 PUSH1 0xE3 SHL DUP2 MSTORE SWAP1 PUSH1 0x20 DUP3 PUSH1 0x4 DUP2 DUP7 GAS STATICCALL SWAP2 DUP3 ISZERO PUSH2 0x1D81 JUMPI DUP8 SWAP3 PUSH2 0x1DB6 JUMPI JUMPDEST POP PUSH1 0x40 MLOAD PUSH4 0x15AB88C9 PUSH1 0xE3 SHL DUP2 MSTORE SWAP1 PUSH1 0x20 DUP3 PUSH1 0x4 DUP2 DUP8 GAS STATICCALL SWAP2 DUP3 ISZERO PUSH2 0x1DAB JUMPI SWAP2 PUSH1 0x20 SWAP2 PUSH2 0x1A38 SWAP4 DUP11 SWAP3 PUSH2 0x1D8C JUMPI POP PUSH1 0x40 MLOAD PUSH4 0xE6A43905 PUSH1 0xE0 SHL DUP2 MSTORE ADDRESS PUSH1 0x4 DUP3 ADD MSTORE PUSH1 0x1 PUSH1 0x1 PUSH1 0xA0 SHL SUB SWAP1 SWAP3 AND PUSH1 0x24 DUP4 ADD MSTORE SWAP1 SWAP3 DUP4 SWAP2 SWAP1 DUP3 SWAP1 DUP2 SWAP1 PUSH1 0x44 DUP3 ADD SWAP1 JUMP JUMPDEST SUB SWAP2 PUSH1 0x1 PUSH1 0x1 PUSH1 0xA0 SHL SUB AND GAS STATICCALL SWAP1 DUP2 ISZERO PUSH2 0x1D81 JUMPI SWAP1 PUSH1 0x20 SWAP2 DUP9 SWAP2 PUSH2 0x1D54 JUMPI JUMPDEST POP PUSH1 0x40 MLOAD PUSH4 0x70A08231 PUSH1 0xE0 SHL DUP2 MSTORE PUSH1 0x1 PUSH1 0x1 PUSH1 0xA0 SHL SUB SWAP2 DUP3 AND PUSH1 0x4 DUP3 ADD MSTORE SWAP3 DUP4 SWAP2 PUSH1 0x24 SWAP2 DUP4 SWAP2 AND GAS STATICCALL SWAP1 DUP2 ISZERO PUSH2 0x1C62 JUMPI DUP7 SWAP2 PUSH2 0x1D22 JUMPI JUMPDEST POP PUSH2 0x1C9E JUMPI JUMPDEST POP POP POP PUSH2 0x1AA1 SWAP1 SELFBALANCE PUSH2 0x21AA JUMP JUMPDEST SWAP2 PUSH2 0x1AC1 PUSH1 0x64 PUSH2 0x1AB9 PUSH1 0xFF PUSH1 0xB SLOAD PUSH1 0xA8 SHR AND DUP7 PUSH2 0x1618 JUMP JUMPDEST DIV DUP1 SWAP5 PUSH2 0x21AA JUMP JUMPDEST SWAP3 DUP1 PUSH2 0x1C81 JUMPI JUMPDEST POP PUSH1 0x1 SHR PUSH2 0x1AE1 DUP2 PUSH1 0x1 DUP1 PUSH1 0xA0 SHL SUB PUSH1 0xA SLOAD AND ADDRESS PUSH2 0x1516 JUMP JUMPDEST PUSH1 0xB SLOAD PUSH2 0x1AF9 SWAP1 DUP3 SWAP1 PUSH1 0x1 PUSH1 0x1 PUSH1 0xA0 SHL SUB AND ADDRESS PUSH2 0x1516 JUMP JUMPDEST PUSH1 0x1 DUP1 PUSH1 0xA0 SHL SUB PUSH1 0xA SLOAD AND PUSH2 0x4B0 TIMESTAMP ADD SWAP2 DUP3 TIMESTAMP GT PUSH2 0x1C6D JUMPI PUSH1 0x40 MLOAD PUSH4 0xF305D719 PUSH1 0xE0 SHL DUP1 DUP3 MSTORE ADDRESS PUSH1 0x4 DUP4 ADD DUP2 SWAP1 MSTORE PUSH1 0x24 DUP4 ADD DUP5 SWAP1 MSTORE PUSH1 0x0 PUSH1 0x44 DUP5 ADD DUP2 SWAP1 MSTORE PUSH1 0x64 DUP5 ADD MSTORE PUSH1 0x84 DUP4 ADD MSTORE PUSH1 0xA4 DUP3 ADD DUP6 SWAP1 MSTORE PUSH1 0x60 SWAP7 SWAP1 SWAP4 PUSH1 0x1 SWAP2 SWAP1 SWAP2 SHR SWAP2 SWAP1 DUP8 SWAP1 DUP3 SWAP1 PUSH1 0xC4 SWAP1 DUP3 SWAP1 DUP7 SWAP1 GAS CALL DUP1 ISZERO PUSH2 0x1C62 JUMPI SWAP2 PUSH2 0x1BCB SWAP7 SWAP6 SWAP4 SWAP2 DUP9 SWAP6 SWAP4 PUSH2 0x1C45 JUMPI JUMPDEST POP PUSH1 0xB SLOAD PUSH1 0x40 MLOAD SWAP4 DUP5 MSTORE ADDRESS PUSH1 0x4 DUP6 ADD DUP2 SWAP1 MSTORE PUSH1 0x24 DUP6 ADD SWAP4 SWAP1 SWAP4 MSTORE PUSH1 0x0 PUSH1 0x44 DUP6 ADD DUP2 SWAP1 MSTORE PUSH1 0x64 DUP6 ADD MSTORE PUSH1 0x84 DUP5 ADD SWAP3 SWAP1 SWAP3 MSTORE PUSH1 0xA4 DUP4 ADD SWAP4 SWAP1 SWAP4 MSTORE SWAP1 SWAP5 DUP6 SWAP3 PUSH1 0x1 PUSH1 0x1 PUSH1 0xA0 SHL SUB SWAP1 SWAP3 AND SWAP2 DUP4 SWAP2 DUP3 SWAP1 PUSH1 0xC4 DUP3 ADD SWAP1 JUMP JUMPDEST SUB SWAP3 GAS CALL SWAP1 DUP2 ISZERO PUSH2 0x1C39 JUMPI POP DUP9 PUSH2 0x1762 PUSH2 0x1798 SWAP10 SWAP11 SWAP6 PUSH2 0x1774 SWAP6 PUSH2 0x177B SWAP9 SWAP6 PUSH2 0x176D SWAP6 PUSH2 0x1C0D JUMPI JUMPDEST POP POP PUSH2 0xFF00 NOT PUSH1 0xE SLOAD AND PUSH1 0xE SSTORE SWAP6 POP POP SWAP9 SWAP8 POP POP SWAP3 PUSH2 0x173E JUMP JUMPDEST DUP2 PUSH2 0x1C2C SWAP3 SWAP1 RETURNDATASIZE LT PUSH2 0x1C32 JUMPI JUMPDEST PUSH2 0x1C24 DUP2 DUP4 PUSH2 0x1389 JUMP JUMPDEST DUP2 ADD SWAP1 PUSH2 0x21B7 JUMP JUMPDEST POP PUSH2 0x1BF3 JUMP JUMPDEST POP RETURNDATASIZE PUSH2 0x1C1A JUMP JUMPDEST PUSH1 0x40 MLOAD SWAP1 RETURNDATASIZE SWAP1 DUP3 RETURNDATACOPY RETURNDATASIZE SWAP1 REVERT JUMPDEST PUSH2 0x1C5B SWAP1 DUP7 RETURNDATASIZE DUP9 GT PUSH2 0x1C32 JUMPI PUSH2 0x1C24 DUP2 DUP4 PUSH2 0x1389 JUMP JUMPDEST POP POP PUSH2 0x1B78 JUMP JUMPDEST PUSH1 0x40 MLOAD RETURNDATASIZE DUP9 DUP3 RETURNDATACOPY RETURNDATASIZE SWAP1 REVERT JUMPDEST PUSH4 0x4E487B71 PUSH1 0xE0 SHL DUP5 MSTORE PUSH1 0x11 PUSH1 0x4 MSTORE PUSH1 0x24 DUP5 REVERT JUMPDEST PUSH1 0x7 SLOAD PUSH2 0x1C97 SWAP2 SWAP1 PUSH1 0x1 PUSH1 0x1 PUSH1 0xA0 SHL SUB AND PUSH2 0x229C JUMP JUMPDEST POP CODESIZE PUSH2 0x1AC8 JUMP JUMPDEST PUSH1 0x1 DUP1 PUSH1 0xA0 SHL SUB PUSH1 0x7 SLOAD AND SWAP2 PUSH2 0x4B0 TIMESTAMP ADD SWAP4 DUP5 TIMESTAMP GT PUSH2 0x1307 JUMPI DUP3 EXTCODESIZE ISZERO PUSH2 0x1D1E JUMPI SWAP1 DUP7 DUP1 SWAP5 SWAP4 SWAP3 PUSH2 0x1CE7 PUSH1 0x40 MLOAD SWAP8 DUP9 SWAP7 DUP8 SWAP6 DUP7 SWAP5 PUSH4 0x791AC947 PUSH1 0xE0 SHL DUP7 MSTORE PUSH1 0x2 SHR PUSH1 0x4 DUP7 ADD PUSH2 0x21F1 JUMP JUMPDEST SUB SWAP3 GAS CALL DUP1 ISZERO PUSH2 0x1D13 JUMPI SWAP1 DUP4 SWAP2 PUSH2 0x1CFF JUMPI JUMPDEST DUP1 PUSH2 0x1A94 JUMP JUMPDEST PUSH2 0x1D08 SWAP1 PUSH2 0x1343 JUMP JUMPDEST PUSH2 0x245 JUMPI DUP2 CODESIZE PUSH2 0x1CF9 JUMP JUMPDEST PUSH1 0x40 MLOAD RETURNDATASIZE DUP6 DUP3 RETURNDATACOPY RETURNDATASIZE SWAP1 REVERT JUMPDEST DUP7 DUP1 REVERT JUMPDEST SWAP1 POP PUSH1 0x20 DUP2 RETURNDATASIZE PUSH1 0x20 GT PUSH2 0x1D4C JUMPI JUMPDEST DUP2 PUSH2 0x1D3D PUSH1 0x20 SWAP4 DUP4 PUSH2 0x1389 JUMP JUMPDEST DUP2 ADD SUB SLT PUSH2 0xFF9 JUMPI MLOAD CODESIZE PUSH2 0x1A8E JUMP JUMPDEST RETURNDATASIZE SWAP2 POP PUSH2 0x1D30 JUMP JUMPDEST PUSH2 0x1D74 SWAP2 POP DUP3 RETURNDATASIZE DUP5 GT PUSH2 0x1D7A JUMPI JUMPDEST PUSH2 0x1D6C DUP2 DUP4 PUSH2 0x1389 JUMP JUMPDEST DUP2 ADD SWAP1 PUSH2 0x21D2 JUMP JUMPDEST CODESIZE PUSH2 0x1A57 JUMP JUMPDEST POP RETURNDATASIZE PUSH2 0x1D62 JUMP JUMPDEST PUSH1 0x40 MLOAD RETURNDATASIZE DUP10 DUP3 RETURNDATACOPY RETURNDATASIZE SWAP1 REVERT JUMPDEST PUSH2 0x1DA4 SWAP2 SWAP3 POP DUP4 RETURNDATASIZE DUP6 GT PUSH2 0x1D7A JUMPI PUSH2 0x1D6C DUP2 DUP4 PUSH2 0x1389 JUMP JUMPDEST SWAP1 CODESIZE PUSH2 0x18D5 JUMP JUMPDEST PUSH1 0x40 MLOAD RETURNDATASIZE DUP11 DUP3 RETURNDATACOPY RETURNDATASIZE SWAP1 REVERT JUMPDEST PUSH2 0x1DD0 SWAP2 SWAP3 POP PUSH1 0x20 RETURNDATASIZE PUSH1 0x20 GT PUSH2 0x1D7A JUMPI PUSH2 0x1D6C DUP2 DUP4 PUSH2 0x1389 JUMP JUMPDEST SWAP1 CODESIZE PUSH2 0x19D7 JUMP JUMPDEST PUSH2 0x1DF1 SWAP2 SWAP3 POP PUSH1 0x20 RETURNDATASIZE PUSH1 0x20 GT PUSH2 0x1D7A JUMPI PUSH2 0x1D6C DUP2 DUP4 PUSH2 0x1389 JUMP JUMPDEST SWAP1 CODESIZE PUSH2 0x1998 JUMP JUMPDEST PUSH1 0x40 MLOAD RETURNDATASIZE DUP8 DUP3 RETURNDATACOPY RETURNDATASIZE SWAP1 REVERT JUMPDEST PUSH1 0x1 DUP1 PUSH1 0xA0 SHL SUB PUSH1 0x7 SLOAD AND PUSH2 0x4B0 TIMESTAMP ADD SWAP3 DUP4 TIMESTAMP GT PUSH2 0x1307 JUMPI DUP3 EXTCODESIZE ISZERO PUSH2 0x1D1E JUMPI SWAP2 PUSH2 0x1E4C SWAP4 SWAP2 DUP8 DUP1 SWAP5 PUSH1 0x40 MLOAD SWAP7 DUP8 SWAP6 DUP7 SWAP5 DUP6 SWAP4 PUSH4 0x791AC947 PUSH1 0xE0 SHL DUP6 MSTORE DUP12 PUSH1 0x2 SHR PUSH1 0x4 DUP7 ADD PUSH2 0x21F1 JUMP JUMPDEST SUB SWAP3 GAS CALL DUP1 ISZERO PUSH2 0x1E74 JUMPI PUSH2 0x1E61 JUMPI JUMPDEST DUP1 PUSH2 0x1965 JUMP JUMPDEST PUSH2 0x1E6D SWAP1 SWAP4 SWAP2 SWAP4 PUSH2 0x1343 JUMP JUMPDEST SWAP2 CODESIZE PUSH2 0x1E5B JUMP JUMPDEST PUSH1 0x40 MLOAD RETURNDATASIZE DUP7 DUP3 RETURNDATACOPY RETURNDATASIZE SWAP1 REVERT JUMPDEST SWAP1 POP PUSH1 0x20 DUP2 RETURNDATASIZE PUSH1 0x20 GT PUSH2 0x1EAD JUMPI JUMPDEST DUP2 PUSH2 0x1E9A PUSH1 0x20 SWAP4 DUP4 PUSH2 0x1389 JUMP JUMPDEST DUP2 ADD SUB SLT PUSH2 0x1EA9 JUMPI MLOAD CODESIZE PUSH2 0x195F JUMP JUMPDEST DUP6 DUP1 REVERT JUMPDEST RETURNDATASIZE SWAP2 POP PUSH2 0x1E8D JUMP JUMPDEST PUSH2 0x1ECC SWAP2 POP DUP3 RETURNDATASIZE DUP5 GT PUSH2 0x1D7A JUMPI PUSH2 0x1D6C DUP2 DUP4 PUSH2 0x1389 JUMP JUMPDEST CODESIZE PUSH2 0x1928 JUMP JUMPDEST PUSH2 0x1EEC SWAP2 SWAP3 POP PUSH1 0x20 RETURNDATASIZE PUSH1 0x20 GT PUSH2 0x1D7A JUMPI PUSH2 0x1D6C DUP2 DUP4 PUSH2 0x1389 JUMP JUMPDEST SWAP1 CODESIZE PUSH2 0x18A7 JUMP JUMPDEST PUSH4 0x4E487B71 PUSH1 0xE0 SHL DUP8 MSTORE PUSH1 0x32 PUSH1 0x4 MSTORE PUSH1 0x24 DUP8 REVERT JUMPDEST PUSH2 0x1F20 SWAP2 POP PUSH1 0x20 RETURNDATASIZE PUSH1 0x20 GT PUSH2 0x1D7A JUMPI PUSH2 0x1D6C DUP2 DUP4 PUSH2 0x1389 JUMP JUMPDEST CODESIZE PUSH2 0x1867 JUMP JUMPDEST PUSH2 0x1F40 SWAP2 SWAP3 POP PUSH1 0x20 RETURNDATASIZE PUSH1 0x20 GT PUSH2 0x1D7A JUMPI PUSH2 0x1D6C DUP2 DUP4 PUSH2 0x1389 JUMP JUMPDEST SWAP1 CODESIZE PUSH2 0x181E JUMP JUMPDEST POP PUSH1 0xFF PUSH1 0xE SLOAD AND PUSH2 0x1739 JUMP JUMPDEST POP PUSH1 0xFF PUSH1 0xE SLOAD PUSH1 0x8 SHR AND ISZERO PUSH2 0x1733 JUMP JUMPDEST SWAP1 POP CODESIZE PUSH2 0x172C JUMP JUMPDEST SWAP2 POP CODESIZE PUSH2 0x16EE JUMP JUMPDEST SWAP1 PUSH2 0x1798 SWAP4 SWAP5 POP PUSH2 0x2033 JUMP JUMPDEST SWAP1 POP ADDRESS EQ ISZERO CODESIZE PUSH2 0x16B0 JUMP JUMPDEST PUSH1 0xC SLOAD DUP5 GT ISZERO PUSH2 0x167F JUMPI PUSH1 0x40 MLOAD PUSH3 0x461BCD PUSH1 0xE5 SHL DUP2 MSTORE PUSH1 0x20 PUSH1 0x4 DUP3 ADD MSTORE PUSH1 0x28 PUSH1 0x24 DUP3 ADD MSTORE PUSH32 0x7472616E736665725F616D6F756E745F63616E6E6F745F6578636565645F6D61 PUSH1 0x44 DUP3 ADD MSTORE PUSH8 0x1E17D85B5BDD5B9D PUSH1 0xC2 SHL PUSH1 0x64 DUP3 ADD MSTORE PUSH1 0x84 SWAP1 REVERT JUMPDEST PUSH1 0x1 PUSH1 0x1 PUSH1 0xA0 SHL SUB DUP5 AND SWAP1 DUP2 EQ ISZERO SWAP2 POP DUP2 PUSH2 0x2007 JUMPI JUMPDEST POP CODESIZE PUSH2 0x1679 JUMP JUMPDEST PUSH1 0x7 SLOAD PUSH1 0x1 PUSH1 0x1 PUSH1 0xA0 SHL SUB AND EQ ISZERO SWAP1 POP CODESIZE PUSH2 0x2000 JUMP JUMPDEST PUSH1 0x7 SLOAD PUSH1 0x1 PUSH1 0x1 PUSH1 0xA0 SHL SUB AND DUP4 EQ ISZERO SWAP2 POP PUSH2 0x1673 JUMP JUMPDEST PUSH1 0x1 PUSH1 0x1 PUSH1 0xA0 SHL SUB SWAP1 DUP2 AND SWAP2 DUP3 ISZERO PUSH2 0x2157 JUMPI AND SWAP2 DUP3 ISZERO PUSH2 0x2106 JUMPI PUSH1 0x0 DUP3 DUP2 MSTORE PUSH1 0x2 PUSH1 0x20 MSTORE PUSH1 0x40 DUP2 KECCAK256 SLOAD SWAP2 DUP1 DUP4 LT PUSH2 0x20B2 JUMPI PUSH1 0x40 DUP3 DUP3 PUSH32 0xDDF252AD1BE2C89B69C2B068FC378DAA952BA7F163C4A11628F55A4DF523B3EF SWAP6 DUP8 PUSH1 0x20 SWAP7 MSTORE PUSH1 0x2 DUP7 MSTORE SUB DUP3 DUP3 KECCAK256 SSTORE DUP7 DUP2 MSTORE KECCAK256 PUSH2 0x20A7 DUP3 DUP3 SLOAD PUSH2 0x14F3 JUMP JUMPDEST SWAP1 SSTORE PUSH1 0x40 MLOAD SWAP1 DUP2 MSTORE LOG3 JUMP JUMPDEST PUSH1 0x40 MLOAD PUSH3 0x461BCD PUSH1 0xE5 SHL DUP2 MSTORE PUSH1 0x20 PUSH1 0x4 DUP3 ADD MSTORE PUSH1 0x26 PUSH1 0x24 DUP3 ADD MSTORE PUSH32 0x45524332303A207472616E7366657220616D6F756E7420657863656564732062 PUSH1 0x44 DUP3 ADD MSTORE PUSH6 0x616C616E6365 PUSH1 0xD0 SHL PUSH1 0x64 DUP3 ADD MSTORE PUSH1 0x84 SWAP1 REVERT JUMPDEST PUSH1 0x40 MLOAD PUSH3 0x461BCD PUSH1 0xE5 SHL DUP2 MSTORE PUSH1 0x20 PUSH1 0x4 DUP3 ADD MSTORE PUSH1 0x23 PUSH1 0x24 DUP3 ADD MSTORE PUSH32 0x45524332303A207472616E7366657220746F20746865207A65726F2061646472 PUSH1 0x44 DUP3 ADD MSTORE PUSH3 0x657373 PUSH1 0xE8 SHL PUSH1 0x64 DUP3 ADD MSTORE PUSH1 0x84 SWAP1 REVERT JUMPDEST PUSH1 0x40 MLOAD PUSH3 0x461BCD PUSH1 0xE5 SHL DUP2 MSTORE PUSH1 0x20 PUSH1 0x4 DUP3 ADD MSTORE PUSH1 0x25 PUSH1 0x24 DUP3 ADD MSTORE PUSH32 0x45524332303A207472616E736665722066726F6D20746865207A65726F206164 PUSH1 0x44 DUP3 ADD MSTORE PUSH5 0x6472657373 PUSH1 0xD8 SHL PUSH1 0x64 DUP3 ADD MSTORE PUSH1 0x84 SWAP1 REVERT JUMPDEST SWAP2 SWAP1 DUP3 SUB SWAP2 DUP3 GT PUSH2 0x1500 JUMPI JUMP JUMPDEST SWAP1 DUP2 PUSH1 0x60 SWAP2 SUB SLT PUSH2 0xFF9 JUMPI DUP1 MLOAD SWAP2 PUSH1 0x40 PUSH1 0x20 DUP4 ADD MLOAD SWAP3 ADD MLOAD SWAP1 JUMP JUMPDEST SWAP1 DUP2 PUSH1 0x20 SWAP2 SUB SLT PUSH2 0xFF9 JUMPI MLOAD PUSH1 0x1 PUSH1 0x1 PUSH1 0xA0 SHL SUB DUP2 AND DUP2 SUB PUSH2 0xFF9 JUMPI SWAP1 JUMP JUMPDEST SWAP2 SWAP1 SWAP5 SWAP4 SWAP3 SWAP5 PUSH1 0xA0 DUP4 ADD SWAP1 DUP4 MSTORE PUSH1 0x20 SWAP1 PUSH1 0x0 DUP3 DUP6 ADD MSTORE PUSH1 0xA0 PUSH1 0x40 DUP6 ADD MSTORE DUP3 MLOAD DUP1 SWAP2 MSTORE DUP2 PUSH1 0xC0 DUP6 ADD SWAP4 ADD SWAP2 PUSH1 0x0 JUMPDEST DUP3 DUP2 LT PUSH2 0x223F JUMPI POP POP POP POP SWAP1 PUSH1 0x80 SWAP2 SWAP5 PUSH1 0x1 DUP1 PUSH1 0xA0 SHL SUB AND PUSH1 0x60 DUP3 ADD MSTORE ADD MSTORE JUMP JUMPDEST DUP4 MLOAD PUSH1 0x1 PUSH1 0x1 PUSH1 0xA0 SHL SUB AND DUP6 MSTORE SWAP4 DUP2 ADD SWAP4 SWAP3 DUP2 ADD SWAP3 PUSH1 0x1 ADD PUSH2 0x221E JUMP JUMPDEST RETURNDATASIZE ISZERO PUSH2 0x2297 JUMPI RETURNDATASIZE SWAP1 PUSH8 0xFFFFFFFFFFFFFFFF DUP3 GT PUSH2 0x1357 JUMPI PUSH1 0x40 MLOAD SWAP2 PUSH2 0x228B PUSH1 0x1F DUP3 ADD PUSH1 0x1F NOT AND PUSH1 0x20 ADD DUP5 PUSH2 0x1389 JUMP JUMPDEST DUP3 MSTORE RETURNDATASIZE PUSH1 0x0 PUSH1 0x20 DUP5 ADD RETURNDATACOPY JUMP JUMPDEST PUSH1 0x60 SWAP1 JUMP JUMPDEST PUSH1 0x0 DUP1 DUP1 SWAP4 DUP2 SWAP4 GAS CALL SWAP1 PUSH2 0x22AE PUSH2 0x225C JUMP JUMPDEST POP DUP2 ISZERO PUSH2 0x22B7 JUMPI JUMP JUMPDEST PUSH1 0x40 MLOAD PUSH3 0x461BCD PUSH1 0xE5 SHL DUP2 MSTORE PUSH1 0x20 PUSH1 0x4 DUP3 ADD MSTORE PUSH1 0x18 PUSH1 0x24 DUP3 ADD MSTORE PUSH32 0x6661696C656420746F207472616E736665722065746865720000000000000000 PUSH1 0x44 DUP3 ADD MSTORE PUSH1 0x64 SWAP1 REVERT INVALID LOG2 PUSH5 0x6970667358 0x22 SLT KECCAK256 PUSH23 0x717A7C41A7719F81E86004ADB27F8563CDA8219C4945D3 0x2A PUSH20 0xD8C3ECE47EDD64736F6C63430008110033000000 "
        },
        "methodIdentifiers": {
          "DEFAULT_ADMIN_ROLE()": "a217fddf",
          "allowance(address,address)": "dd62ed3e",
          "approve(address,uint256)": "095ea7b3",
          "balanceOf(address)": "70a08231",
          "decimals()": "313ce567",
          "decreaseAllowance(address,uint256)": "a457c2d7",
          "excludeFromPayingTax(address)": "8e6dda25",
          "getRoleAdmin(bytes32)": "248a9ca3",
          "grantRole(bytes32,address)": "2f2ff15d",
          "hasRole(bytes32,address)": "91d14854",
          "inSwapAndLiquify()": "220f6696",
          "includeInTaxPayment(address)": "f3bf29de",
          "increaseAllowance(address,uint256)": "39509351",
          "liquidityExclusionPrivilege()": "31e4e4e5",
          "liquidityPercentageForEcosystem()": "59102d1c",
          "maxAmount()": "5f48f393",
          "minHoldOfTokenForContract()": "5c2a00b2",
          "name()": "06fdde03",
          "owner()": "8da5cb5b",
          "renounceOwnership()": "715018a6",
          "renounceRole(bytes32,address)": "36568abe",
          "retrieveERC20(address,address,uint256)": "d63f4594",
          "retrieveEther(address)": "084a1392",
          "revokeRole(bytes32,address)": "d547741f",
          "setIUniswapV2Router(address)": "3821a758",
          "setLiquidityPercentageForEcosystem(uint8)": "fd7b674d",
          "setMaxAmount(uint256)": "4fe47f70",
          "setMinHoldOfTokenForContract(uint256)": "c676ee6b",
          "setSphynxRouter(address)": "f6ed11c1",
          "setTaxCollector(address)": "08695b41",
          "setTaxPercentage(uint8)": "a5ffad52",
          "supportsInterface(bytes4)": "01ffc9a7",
          "swapAndLiquifyEnabled()": "4a74bb02",
          "switchSwapAndLiquifyEnabled()": "808c1643",
          "symbol()": "95d89b41",
          "taxCollector()": "bea1dcf8",
          "taxExclusionPrivilege()": "46e65523",
          "taxPercentage()": "ae7b6d16",
          "totalSupply()": "18160ddd",
          "transfer(address,uint256)": "a9059cbb",
          "transferFrom(address,address,uint256)": "23b872dd",
          "transferOwnership(address)": "f2fde38b"
        }
      }
    }
  }
}