{
  "_format": "hh-sol-artifact-1",
  "contractName": "VefiEcosystemToken",
  "sourceName": "contracts/VefiEcosystemToken.sol",
  "abi": [
    {
      "inputs": [
        {
          "internalType": "string",
          "name": "name_",
          "type": "string"
        },
        {
          "internalType": "string",
          "name": "symbol_",
          "type": "string"
        },
        {
          "internalType": "uint256",
          "name": "amount",
          "type": "uint256"
        },
        {
          "internalType": "address",
          "name": "_taxCollector",
          "type": "address"
        },
        {
          "internalType": "uint8",
          "name": "_taxPercentage",
          "type": "uint8"
        }
      ],
      "stateMutability": "nonpayable",
      "type": "constructor"
    },
    {
      "anonymous": false,
      "inputs": [
        {
          "indexed": true,
          "internalType": "address",
          "name": "owner",
          "type": "address"
        },
        {
          "indexed": true,
          "internalType": "address",
          "name": "spender",
          "type": "address"
        },
        {
          "indexed": false,
          "internalType": "uint256",
          "name": "value",
          "type": "uint256"
        }
      ],
      "name": "Approval",
      "type": "event"
    },
    {
      "anonymous": false,
      "inputs": [
        {
          "indexed": true,
          "internalType": "address",
          "name": "previousOwner",
          "type": "address"
        },
        {
          "indexed": true,
          "internalType": "address",
          "name": "newOwner",
          "type": "address"
        }
      ],
      "name": "OwnershipTransferred",
      "type": "event"
    },
    {
      "anonymous": false,
      "inputs": [
        {
          "indexed": true,
          "internalType": "bytes32",
          "name": "role",
          "type": "bytes32"
        },
        {
          "indexed": true,
          "internalType": "bytes32",
          "name": "previousAdminRole",
          "type": "bytes32"
        },
        {
          "indexed": true,
          "internalType": "bytes32",
          "name": "newAdminRole",
          "type": "bytes32"
        }
      ],
      "name": "RoleAdminChanged",
      "type": "event"
    },
    {
      "anonymous": false,
      "inputs": [
        {
          "indexed": true,
          "internalType": "bytes32",
          "name": "role",
          "type": "bytes32"
        },
        {
          "indexed": true,
          "internalType": "address",
          "name": "account",
          "type": "address"
        },
        {
          "indexed": true,
          "internalType": "address",
          "name": "sender",
          "type": "address"
        }
      ],
      "name": "RoleGranted",
      "type": "event"
    },
    {
      "anonymous": false,
      "inputs": [
        {
          "indexed": true,
          "internalType": "bytes32",
          "name": "role",
          "type": "bytes32"
        },
        {
          "indexed": true,
          "internalType": "address",
          "name": "account",
          "type": "address"
        },
        {
          "indexed": true,
          "internalType": "address",
          "name": "sender",
          "type": "address"
        }
      ],
      "name": "RoleRevoked",
      "type": "event"
    },
    {
      "anonymous": false,
      "inputs": [
        {
          "indexed": true,
          "internalType": "address",
          "name": "from",
          "type": "address"
        },
        {
          "indexed": true,
          "internalType": "address",
          "name": "to",
          "type": "address"
        },
        {
          "indexed": false,
          "internalType": "uint256",
          "name": "value",
          "type": "uint256"
        }
      ],
      "name": "Transfer",
      "type": "event"
    },
    {
      "inputs": [],
      "name": "DEFAULT_ADMIN_ROLE",
      "outputs": [
        {
          "internalType": "bytes32",
          "name": "",
          "type": "bytes32"
        }
      ],
      "stateMutability": "view",
      "type": "function"
    },
    {
      "inputs": [
        {
          "internalType": "address",
          "name": "owner",
          "type": "address"
        },
        {
          "internalType": "address",
          "name": "spender",
          "type": "address"
        }
      ],
      "name": "allowance",
      "outputs": [
        {
          "internalType": "uint256",
          "name": "",
          "type": "uint256"
        }
      ],
      "stateMutability": "view",
      "type": "function"
    },
    {
      "inputs": [
        {
          "internalType": "address",
          "name": "spender",
          "type": "address"
        },
        {
          "internalType": "uint256",
          "name": "amount",
          "type": "uint256"
        }
      ],
      "name": "approve",
      "outputs": [
        {
          "internalType": "bool",
          "name": "",
          "type": "bool"
        }
      ],
      "stateMutability": "nonpayable",
      "type": "function"
    },
    {
      "inputs": [
        {
          "internalType": "address",
          "name": "account",
          "type": "address"
        }
      ],
      "name": "balanceOf",
      "outputs": [
        {
          "internalType": "uint256",
          "name": "",
          "type": "uint256"
        }
      ],
      "stateMutability": "view",
      "type": "function"
    },
    {
      "inputs": [],
      "name": "decimals",
      "outputs": [
        {
          "internalType": "uint8",
          "name": "",
          "type": "uint8"
        }
      ],
      "stateMutability": "view",
      "type": "function"
    },
    {
      "inputs": [
        {
          "internalType": "address",
          "name": "spender",
          "type": "address"
        },
        {
          "internalType": "uint256",
          "name": "subtractedValue",
          "type": "uint256"
        }
      ],
      "name": "decreaseAllowance",
      "outputs": [
        {
          "internalType": "bool",
          "name": "",
          "type": "bool"
        }
      ],
      "stateMutability": "nonpayable",
      "type": "function"
    },
    {
      "inputs": [
        {
          "internalType": "address",
          "name": "account",
          "type": "address"
        }
      ],
      "name": "excludeFromPayingTax",
      "outputs": [],
      "stateMutability": "nonpayable",
      "type": "function"
    },
    {
      "inputs": [
        {
          "internalType": "bytes32",
          "name": "role",
          "type": "bytes32"
        }
      ],
      "name": "getRoleAdmin",
      "outputs": [
        {
          "internalType": "bytes32",
          "name": "",
          "type": "bytes32"
        }
      ],
      "stateMutability": "view",
      "type": "function"
    },
    {
      "inputs": [
        {
          "internalType": "bytes32",
          "name": "role",
          "type": "bytes32"
        },
        {
          "internalType": "address",
          "name": "account",
          "type": "address"
        }
      ],
      "name": "grantRole",
      "outputs": [],
      "stateMutability": "nonpayable",
      "type": "function"
    },
    {
      "inputs": [
        {
          "internalType": "bytes32",
          "name": "role",
          "type": "bytes32"
        },
        {
          "internalType": "address",
          "name": "account",
          "type": "address"
        }
      ],
      "name": "hasRole",
      "outputs": [
        {
          "internalType": "bool",
          "name": "",
          "type": "bool"
        }
      ],
      "stateMutability": "view",
      "type": "function"
    },
    {
      "inputs": [],
      "name": "inSwapAndLiquify",
      "outputs": [
        {
          "internalType": "bool",
          "name": "",
          "type": "bool"
        }
      ],
      "stateMutability": "view",
      "type": "function"
    },
    {
      "inputs": [
        {
          "internalType": "address",
          "name": "account",
          "type": "address"
        }
      ],
      "name": "includeInTaxPayment",
      "outputs": [],
      "stateMutability": "nonpayable",
      "type": "function"
    },
    {
      "inputs": [
        {
          "internalType": "address",
          "name": "spender",
          "type": "address"
        },
        {
          "internalType": "uint256",
          "name": "addedValue",
          "type": "uint256"
        }
      ],
      "name": "increaseAllowance",
      "outputs": [
        {
          "internalType": "bool",
          "name": "",
          "type": "bool"
        }
      ],
      "stateMutability": "nonpayable",
      "type": "function"
    },
    {
      "inputs": [],
      "name": "liquidityExclusionPrivilege",
      "outputs": [
        {
          "internalType": "bytes32",
          "name": "",
          "type": "bytes32"
        }
      ],
      "stateMutability": "view",
      "type": "function"
    },
    {
      "inputs": [],
      "name": "liquidityPercentageForEcosystem",
      "outputs": [
        {
          "internalType": "uint8",
          "name": "",
          "type": "uint8"
        }
      ],
      "stateMutability": "view",
      "type": "function"
    },
    {
      "inputs": [],
      "name": "maxAmount",
      "outputs": [
        {
          "internalType": "uint256",
          "name": "",
          "type": "uint256"
        }
      ],
      "stateMutability": "view",
      "type": "function"
    },
    {
      "inputs": [],
      "name": "minHoldOfTokenForContract",
      "outputs": [
        {
          "internalType": "uint256",
          "name": "",
          "type": "uint256"
        }
      ],
      "stateMutability": "view",
      "type": "function"
    },
    {
      "inputs": [],
      "name": "name",
      "outputs": [
        {
          "internalType": "string",
          "name": "",
          "type": "string"
        }
      ],
      "stateMutability": "view",
      "type": "function"
    },
    {
      "inputs": [],
      "name": "owner",
      "outputs": [
        {
          "internalType": "address",
          "name": "",
          "type": "address"
        }
      ],
      "stateMutability": "view",
      "type": "function"
    },
    {
      "inputs": [],
      "name": "renounceOwnership",
      "outputs": [],
      "stateMutability": "nonpayable",
      "type": "function"
    },
    {
      "inputs": [
        {
          "internalType": "bytes32",
          "name": "role",
          "type": "bytes32"
        },
        {
          "internalType": "address",
          "name": "account",
          "type": "address"
        }
      ],
      "name": "renounceRole",
      "outputs": [],
      "stateMutability": "nonpayable",
      "type": "function"
    },
    {
      "inputs": [
        {
          "internalType": "address",
          "name": "token",
          "type": "address"
        },
        {
          "internalType": "address",
          "name": "to",
          "type": "address"
        },
        {
          "internalType": "uint256",
          "name": "amount",
          "type": "uint256"
        }
      ],
      "name": "retrieveERC20",
      "outputs": [],
      "stateMutability": "nonpayable",
      "type": "function"
    },
    {
      "inputs": [
        {
          "internalType": "address",
          "name": "to",
          "type": "address"
        }
      ],
      "name": "retrieveEther",
      "outputs": [],
      "stateMutability": "nonpayable",
      "type": "function"
    },
    {
      "inputs": [
        {
          "internalType": "bytes32",
          "name": "role",
          "type": "bytes32"
        },
        {
          "internalType": "address",
          "name": "account",
          "type": "address"
        }
      ],
      "name": "revokeRole",
      "outputs": [],
      "stateMutability": "nonpayable",
      "type": "function"
    },
    {
      "inputs": [
        {
          "internalType": "uint8",
          "name": "_lpPercentage",
          "type": "uint8"
        }
      ],
      "name": "setLiquidityPercentageForEcosystem",
      "outputs": [],
      "stateMutability": "nonpayable",
      "type": "function"
    },
    {
      "inputs": [
        {
          "internalType": "uint256",
          "name": "_max",
          "type": "uint256"
        }
      ],
      "name": "setMaxAmount",
      "outputs": [],
      "stateMutability": "nonpayable",
      "type": "function"
    },
    {
      "inputs": [
        {
          "internalType": "uint256",
          "name": "minHold",
          "type": "uint256"
        }
      ],
      "name": "setMinHoldOfTokenForContract",
      "outputs": [],
      "stateMutability": "nonpayable",
      "type": "function"
    },
    {
      "inputs": [
        {
          "internalType": "address",
          "name": "router",
          "type": "address"
        }
      ],
      "name": "setPancakeRouter",
      "outputs": [],
      "stateMutability": "nonpayable",
      "type": "function"
    },
    {
      "inputs": [
        {
          "internalType": "address",
          "name": "_taxCollector",
          "type": "address"
        }
      ],
      "name": "setTaxCollector",
      "outputs": [],
      "stateMutability": "nonpayable",
      "type": "function"
    },
    {
      "inputs": [
        {
          "internalType": "uint8",
          "name": "_taxPercentage",
          "type": "uint8"
        }
      ],
      "name": "setTaxPercentage",
      "outputs": [],
      "stateMutability": "nonpayable",
      "type": "function"
    },
    {
      "inputs": [
        {
          "internalType": "bytes4",
          "name": "interfaceId",
          "type": "bytes4"
        }
      ],
      "name": "supportsInterface",
      "outputs": [
        {
          "internalType": "bool",
          "name": "",
          "type": "bool"
        }
      ],
      "stateMutability": "view",
      "type": "function"
    },
    {
      "inputs": [],
      "name": "swapAndLiquifyEnabled",
      "outputs": [
        {
          "internalType": "bool",
          "name": "",
          "type": "bool"
        }
      ],
      "stateMutability": "view",
      "type": "function"
    },
    {
      "inputs": [],
      "name": "switchSwapAndLiquifyEnabled",
      "outputs": [],
      "stateMutability": "nonpayable",
      "type": "function"
    },
    {
      "inputs": [],
      "name": "symbol",
      "outputs": [
        {
          "internalType": "string",
          "name": "",
          "type": "string"
        }
      ],
      "stateMutability": "view",
      "type": "function"
    },
    {
      "inputs": [],
      "name": "taxCollector",
      "outputs": [
        {
          "internalType": "address",
          "name": "",
          "type": "address"
        }
      ],
      "stateMutability": "view",
      "type": "function"
    },
    {
      "inputs": [],
      "name": "taxExclusionPrivilege",
      "outputs": [
        {
          "internalType": "bytes32",
          "name": "",
          "type": "bytes32"
        }
      ],
      "stateMutability": "view",
      "type": "function"
    },
    {
      "inputs": [],
      "name": "taxPercentage",
      "outputs": [
        {
          "internalType": "uint8",
          "name": "",
          "type": "uint8"
        }
      ],
      "stateMutability": "view",
      "type": "function"
    },
    {
      "inputs": [],
      "name": "totalSupply",
      "outputs": [
        {
          "internalType": "uint256",
          "name": "",
          "type": "uint256"
        }
      ],
      "stateMutability": "view",
      "type": "function"
    },
    {
      "inputs": [
        {
          "internalType": "address",
          "name": "to",
          "type": "address"
        },
        {
          "internalType": "uint256",
          "name": "amount",
          "type": "uint256"
        }
      ],
      "name": "transfer",
      "outputs": [
        {
          "internalType": "bool",
          "name": "",
          "type": "bool"
        }
      ],
      "stateMutability": "nonpayable",
      "type": "function"
    },
    {
      "inputs": [
        {
          "internalType": "address",
          "name": "from",
          "type": "address"
        },
        {
          "internalType": "address",
          "name": "to",
          "type": "address"
        },
        {
          "internalType": "uint256",
          "name": "amount",
          "type": "uint256"
        }
      ],
      "name": "transferFrom",
      "outputs": [
        {
          "internalType": "bool",
          "name": "",
          "type": "bool"
        }
      ],
      "stateMutability": "nonpayable",
      "type": "function"
    },
    {
      "inputs": [
        {
          "internalType": "address",
          "name": "newOwner",
          "type": "address"
        }
      ],
      "name": "transferOwnership",
      "outputs": [],
      "stateMutability": "nonpayable",
      "type": "function"
    },
    {
      "stateMutability": "payable",
      "type": "receive"
    }
  ],
  "bytecode": "0x602060a0819052601760c0527f5441585f4558434c5553494f4e5f50524956494c45474500000000000000000060e052606060808190527f08f71f64d6375789c7f6321601c1111ae3e5a2ac34fde7f4b510b5493b8110c660085561012091909152601d610140527f4c49515549444954595f4558434c5553494f4e5f50524956494c45474500000061016052610100526101806040527f8fab9e5aff098c8ce1a4f375c0042fa9c06e2124c574855ae8ad1810138a24b1600955600a805460ff60a81b1916600160ab1b1790556b024306c4097859c43c000000600b55691969368974c05b000000600c55348015620000f857600080fd5b5060405162002a7838038062002a788339810160408190526200011b916200062d565b8484620001283362000372565b60056200013683826200075d565b5060066200014582826200075d565b5050600780546001600160a01b0319166001600160a01b03851617905550600a805460ff60a01b1916600160a01b60ff8416021790556200018e620001873390565b84620003c2565b6008546200019d9033620004ab565b600854620001ac9083620004ab565b600a80546001600160a01b03191673e915d2393a08a00c5a463053edd31bae2199b9e79081179091556040805163c45a015560e01b815290516000929163c45a01559160048083019260209291908290030181865afa15801562000214573d6000803e3d6000fd5b505050506040513d601f19601f820116820180604052508101906200023a919062000829565b6001600160a01b031663c9c65396600a60009054906101000a90046001600160a01b03166001600160a01b031663ad5c46486040518163ffffffff1660e01b8152600401602060405180830381865afa1580156200029c573d6000803e3d6000fd5b505050506040513d601f19601f82011682018060405250810190620002c2919062000829565b6040516001600160e01b031960e084901b1681526001600160a01b0390911660048201523060248201526044016020604051808303816000875af11580156200030f573d6000803e3d6000fd5b505050506040513d601f19601f8201168201806040525081019062000335919062000829565b90506200034b60095482620004ab60201b60201c565b600954600a546200036691906001600160a01b0316620004ab565b50505050505062000870565b600080546001600160a01b038381166001600160a01b0319831681178455604051919092169283917f8be0079c531659141344cd1fd0a4f28419497f9722a3daafe3b4186f6b6457e09190a35050565b6001600160a01b0382166200041d5760405162461bcd60e51b815260206004820152601f60248201527f45524332303a206d696e7420746f20746865207a65726f206164647265737300604482015260640160405180910390fd5b80600460008282546200043191906200084e565b90915550506001600160a01b03821660009081526002602052604081208054839290620004609084906200084e565b90915550506040518181526001600160a01b038316906000907fddf252ad1be2c89b69c2b068fc378daa952ba7f163c4a11628f55a4df523b3ef9060200160405180910390a35b5050565b620004b782826200051e565b620004a75760008281526001602081815260408084206001600160a01b0386168086529252808420805460ff19169093179092559051339285917f2f8788117e7eff1d82e926ec794901d17c78024a50270940304540a733656f0d9190a45050565b505050565b60008281526001602090815260408083206001600160a01b038516845290915290205460ff165b92915050565b634e487b7160e01b600052604160045260246000fd5b600082601f8301126200057357600080fd5b81516001600160401b03808211156200059057620005906200054b565b604051601f8301601f19908116603f01168101908282118183101715620005bb57620005bb6200054b565b81604052838152602092508683858801011115620005d857600080fd5b600091505b83821015620005fc5785820183015181830184015290820190620005dd565b600093810190920192909252949350505050565b80516001600160a01b03811681146200062857600080fd5b919050565b600080600080600060a086880312156200064657600080fd5b85516001600160401b03808211156200065e57600080fd5b6200066c89838a0162000561565b965060208801519150808211156200068357600080fd5b50620006928882890162000561565b94505060408601519250620006aa6060870162000610565b9150608086015160ff81168114620006c157600080fd5b809150509295509295909350565b600181811c90821680620006e457607f821691505b6020821081036200070557634e487b7160e01b600052602260045260246000fd5b50919050565b601f8211156200051957600081815260208120601f850160051c81016020861015620007345750805b601f850160051c820191505b81811015620007555782815560010162000740565b505050505050565b81516001600160401b038111156200077957620007796200054b565b62000791816200078a8454620006cf565b846200070b565b602080601f831160018114620007c95760008415620007b05750858301515b600019600386901b1c1916600185901b17855562000755565b600085815260208120601f198616915b82811015620007fa57888601518255948401946001909101908401620007d9565b5085821015620008195787850151600019600388901b60f8161c191681555b5050505050600190811b01905550565b6000602082840312156200083c57600080fd5b620008478262000610565b9392505050565b808201808211156200054557634e487b7160e01b600052601160045260246000fd5b6121f880620008806000396000f3fe60806040526004361061024a5760003560e01c806370a0823111610139578063a9059cbb116100b6578063d63f45941161007a578063d63f4594146106b0578063dd62ed3e146106d0578063f2fde38b146106f0578063f3bf29de14610710578063f8316c9014610730578063fd7b674d1461075057600080fd5b8063a9059cbb1461060f578063ae7b6d161461062f578063bea1dcf814610650578063c676ee6b14610670578063d547741f1461069057600080fd5b806391d14854116100fd57806391d148541461058557806395d89b41146105a5578063a217fddf146105ba578063a457c2d7146105cf578063a5ffad52146105ef57600080fd5b806370a08231146104d3578063715018a614610509578063808c16431461051e5780638da5cb5b146105335780638e6dda251461056557600080fd5b8063313ce567116101c75780634a74bb021161018b5780634a74bb021461044c5780634fe47f701461046657806359102d1c146104865780635c2a00b2146104a75780635f48f393146104bd57600080fd5b8063313ce567146103be57806331e4e4e5146103e057806336568abe146103f6578063395093511461041657806346e655231461043657600080fd5b806318160ddd1161020e57806318160ddd1461030f578063220f66961461032e57806323b872dd1461034d578063248a9ca31461036d5780632f2ff15d1461039e57600080fd5b806301ffc9a71461025657806306fdde031461028b578063084a1392146102ad57806308695b41146102cf578063095ea7b3146102ef57600080fd5b3661025157005b600080fd5b34801561026257600080fd5b50610276610271366004611db0565b610770565b60405190151581526020015b60405180910390f35b34801561029757600080fd5b506102a06107a7565b6040516102829190611dfe565b3480156102b957600080fd5b506102cd6102c8366004611e46565b610839565b005b3480156102db57600080fd5b506102cd6102ea366004611e46565b61084f565b3480156102fb57600080fd5b5061027661030a366004611e63565b61089b565b34801561031b57600080fd5b506004545b604051908152602001610282565b34801561033a57600080fd5b50600d5461027690610100900460ff1681565b34801561035957600080fd5b50610276610368366004611e8f565b6108b3565b34801561037957600080fd5b50610320610388366004611ed0565b6000908152600160208190526040909120015490565b3480156103aa57600080fd5b506102cd6103b9366004611ee9565b6108d9565b3480156103ca57600080fd5b5060125b60405160ff9091168152602001610282565b3480156103ec57600080fd5b5061032060095481565b34801561040257600080fd5b506102cd610411366004611ee9565b610904565b34801561042257600080fd5b50610276610431366004611e63565b610983565b34801561044257600080fd5b5061032060085481565b34801561045857600080fd5b50600d546102769060ff1681565b34801561047257600080fd5b506102cd610481366004611ed0565b6109a5565b34801561049257600080fd5b50600a546103ce90600160a81b900460ff1681565b3480156104b357600080fd5b50610320600c5481565b3480156104c957600080fd5b50610320600b5481565b3480156104df57600080fd5b506103206104ee366004611e46565b6001600160a01b031660009081526002602052604090205490565b34801561051557600080fd5b506102cd6109b2565b34801561052a57600080fd5b506102cd6109c6565b34801561053f57600080fd5b506000546001600160a01b03165b6040516001600160a01b039091168152602001610282565b34801561057157600080fd5b506102cd610580366004611e46565b6109e2565b34801561059157600080fd5b506102766105a0366004611ee9565b610a4f565b3480156105b157600080fd5b506102a0610a7a565b3480156105c657600080fd5b50610320600081565b3480156105db57600080fd5b506102766105ea366004611e63565b610a89565b3480156105fb57600080fd5b506102cd61060a366004611f19565b610b0f565b34801561061b57600080fd5b5061027661062a366004611e63565b610b37565b34801561063b57600080fd5b50600a546103ce90600160a01b900460ff1681565b34801561065c57600080fd5b5060075461054d906001600160a01b031681565b34801561067c57600080fd5b506102cd61068b366004611ed0565b610b45565b34801561069c57600080fd5b506102cd6106ab366004611ee9565b610b52565b3480156106bc57600080fd5b506102cd6106cb366004611e8f565b610b78565b3480156106dc57600080fd5b506103206106eb366004611f3c565b610b91565b3480156106fc57600080fd5b506102cd61070b366004611e46565b610bbc565b34801561071c57600080fd5b506102cd61072b366004611e46565b610c32565b34801561073c57600080fd5b506102cd61074b366004611e46565b610c91565b34801561075c57600080fd5b506102cd61076b366004611f19565b610cbb565b60006001600160e01b03198216637965db0b60e01b14806107a157506301ffc9a760e01b6001600160e01b03198316145b92915050565b6060600580546107b690611f6a565b80601f01602080910402602001604051908101604052809291908181526020018280546107e290611f6a565b801561082f5780601f106108045761010080835404028352916020019161082f565b820191906000526020600020905b81548152906001019060200180831161081257829003601f168201915b5050505050905090565b610841610ce3565b61084b8147610d3d565b5050565b610857610ce3565b60085460075461087091906001600160a01b0316610de2565b600780546001600160a01b0319166001600160a01b0383161790556008546108989082610e49565b50565b6000336108a9818585610eb4565b5060019392505050565b6000336108c1858285610fd8565b6108cc85858561104c565b60019150505b9392505050565b600082815260016020819052604090912001546108f581611245565b6108ff8383610e49565b505050565b6001600160a01b03811633146109795760405162461bcd60e51b815260206004820152602f60248201527f416363657373436f6e74726f6c3a2063616e206f6e6c792072656e6f756e636560448201526e103937b632b9903337b91039b2b63360891b60648201526084015b60405180910390fd5b61084b8282610de2565b6000336108a98185856109968383610b91565b6109a09190611fba565b610eb4565b6109ad610ce3565b600b55565b6109ba610ce3565b6109c4600061124f565b565b6109ce610ce3565b600d805460ff19811660ff90911615179055565b6109ea610ce3565b6109f660085482610a4f565b15610a435760405162461bcd60e51b815260206004820181905260248201527f616c72656164795f6578636c756465645f66726f6d5f706179696e675f7461786044820152606401610970565b61089860085482610e49565b60009182526001602090815260408084206001600160a01b0393909316845291905290205460ff1690565b6060600680546107b690611f6a565b60003381610a978286610b91565b905083811015610af75760405162461bcd60e51b815260206004820152602560248201527f45524332303a2064656372656173656420616c6c6f77616e63652062656c6f77604482015264207a65726f60d81b6064820152608401610970565b610b048286868403610eb4565b506001949350505050565b610b17610ce3565b600a805460ff909216600160a01b0260ff60a01b19909216919091179055565b6000336108a981858561104c565b610b4d610ce3565b600c55565b60008281526001602081905260409091200154610b6e81611245565b6108ff8383610de2565b610b80610ce3565b610b8b83838361129f565b50505050565b6001600160a01b03918216600090815260036020908152604080832093909416825291909152205490565b610bc4610ce3565b6001600160a01b038116610c295760405162461bcd60e51b815260206004820152602660248201527f4f776e61626c653a206e6577206f776e657220697320746865207a65726f206160448201526564647265737360d01b6064820152608401610970565b6108988161124f565b610c3a610ce3565b610c4660085482610a4f565b610c855760405162461bcd60e51b815260206004820152601060248201526f0c2d8e4cac2c8f2bee0c2f2e6bee8c2f60831b6044820152606401610970565b61089860085482610de2565b610c99610ce3565b600a80546001600160a01b0319166001600160a01b0392909216919091179055565b610cc3610ce3565b600a805460ff909216600160a81b0260ff60a81b19909216919091179055565b6000546001600160a01b031633146109c45760405162461bcd60e51b815260206004820181905260248201527f4f776e61626c653a2063616c6c6572206973206e6f7420746865206f776e65726044820152606401610970565b6000826001600160a01b03168260405160006040518083038185875af1925050503d8060008114610d8a576040519150601f19603f3d011682016040523d82523d6000602084013e610d8f565b606091505b505080915050806107a15760405162461bcd60e51b815260206004820152601860248201527f6661696c656420746f207472616e7366657220657468657200000000000000006044820152606401610970565b610dec8282610a4f565b1561084b5760008281526001602090815260408083206001600160a01b0385168085529252808320805460ff1916905551339285917ff6391f5c32d9c69d2a47ea670b442974b53935d1edc7fd64eb21e047a839171b9190a45050565b610e538282610a4f565b61084b5760008281526001602081815260408084206001600160a01b0386168086529252808420805460ff19169093179092559051339285917f2f8788117e7eff1d82e926ec794901d17c78024a50270940304540a733656f0d9190a45050565b6001600160a01b038316610f165760405162461bcd60e51b8152602060048201526024808201527f45524332303a20617070726f76652066726f6d20746865207a65726f206164646044820152637265737360e01b6064820152608401610970565b6001600160a01b038216610f775760405162461bcd60e51b815260206004820152602260248201527f45524332303a20617070726f766520746f20746865207a65726f206164647265604482015261737360f01b6064820152608401610970565b6001600160a01b0383811660008181526003602090815260408083209487168084529482529182902085905590518481527f8c5be1e5ebec7d5bd14f71427d1e84f3dd0314c0f7b2291e5b200ac8c7c3b925910160405180910390a3505050565b6000610fe48484610b91565b90506000198114610b8b578181101561103f5760405162461bcd60e51b815260206004820152601d60248201527f45524332303a20696e73756666696369656e7420616c6c6f77616e63650000006044820152606401610970565b610b8b8484848403610eb4565b6000546001600160a01b0384811691161480159061107857506007546001600160a01b03848116911614155b80156110ab57506000546001600160a01b038381169116148015906110ab57506007546001600160a01b03838116911614155b1561111357600b548111156111135760405162461bcd60e51b815260206004820152602860248201527f7472616e736665725f616d6f756e745f63616e6e6f745f6578636565645f6d616044820152671e17d85b5bdd5b9d60c21b6064820152608401610970565b61111f60085484610a4f565b15801561113557506001600160a01b0383163014155b1561123a5760008060006111488461140b565b91945092509050600061115c846002611471565b3060009081526002602052604081205491925050600b54811061117e5750600b545b6000600c5482101590506111946009548a610a4f565b15801561119e5750805b80156111b25750600d54610100900460ff16155b80156111c05750600d5460ff165b156111ce576111ce8261147d565b61120189896111fc866111f6896111e58c8e611fba565b6111ef9190611fba565b8d90611530565b9061153c565b611548565b61120c898a85611548565b611217893087611548565b60075461122f908a906001600160a01b031686611548565b505050505050505050565b6108ff838383611548565b6108988133611716565b600080546001600160a01b038381166001600160a01b0319831681178455604051919092169283917f8be0079c531659141344cd1fd0a4f28419497f9722a3daafe3b4186f6b6457e09190a35050565b60006001600160a01b0384163b6112ef5760405162461bcd60e51b815260206004820152601460248201527318d85b1b17dd1bd7db9bdb97d8dbdb9d1c9858dd60621b6044820152606401610970565b604080518082018252601981527f7472616e7366657228616464726573732c75696e74323536290000000000000060209182015281516001600160a01b0386811660248301526044808301879052845180840390910181526064909201845291810180516001600160e01b031663a9059cbb60e01b17905291519086169161137691611fcd565b6000604051808303816000865af19150503d80600081146113b3576040519150601f19603f3d011682016040523d82523d6000602084013e6113b8565b606091505b505080915050806108d25760405162461bcd60e51b815260206004820152601e60248201527f6c6f775f6c6576656c5f636f6e74726163745f63616c6c5f6661696c656400006044820152606401610970565b600080600080611441606461143b600a60149054906101000a900460ff1660ff168861177a90919063ffffffff16565b90611471565b905061144e816003611471565b935061145b816003611471565b9250611468816003611471565b93959294505050565b60006108d28284611fe9565b600d805461ff0019166101001790556000611499826002611471565b905060006114a78383611530565b9050476114b383611786565b60006114bf4783611530565b600a549091506000906114e49060649061143b908590600160a81b900460ff1661177a565b905060006114f28383611530565b9050811561151257600754611510906001600160a01b031683610d3d565b505b61151c8582611b3f565b5050600d805461ff00191690555050505050565b60006108d2828461200b565b60006108d28284611fba565b6001600160a01b0383166115ac5760405162461bcd60e51b815260206004820152602560248201527f45524332303a207472616e736665722066726f6d20746865207a65726f206164604482015264647265737360d81b6064820152608401610970565b6001600160a01b03821661160e5760405162461bcd60e51b815260206004820152602360248201527f45524332303a207472616e7366657220746f20746865207a65726f206164647260448201526265737360e81b6064820152608401610970565b6001600160a01b038316600090815260026020526040902054818110156116865760405162461bcd60e51b815260206004820152602660248201527f45524332303a207472616e7366657220616d6f756e7420657863656564732062604482015265616c616e636560d01b6064820152608401610970565b6001600160a01b038085166000908152600260205260408082208585039055918516815290812080548492906116bd908490611fba565b92505081905550826001600160a01b0316846001600160a01b03167fddf252ad1be2c89b69c2b068fc378daa952ba7f163c4a11628f55a4df523b3ef8460405161170991815260200190565b60405180910390a3610b8b565b6117208282610a4f565b61084b57611738816001600160a01b03166014611c14565b611743836020611c14565b60405160200161175492919061201e565b60408051601f198184030181529082905262461bcd60e51b825261097091600401611dfe565b60006108d28284612093565b600a5461179e9030906001600160a01b031683610eb4565b600a546040805163c45a015560e01b815290516000926001600160a01b03169163c45a01559160048083019260209291908290030181865afa1580156117e8573d6000803e3d6000fd5b505050506040513d601f19601f8201168201806040525081019061180c91906120aa565b60408051600280825260608201835292935060009290916020830190803683370190505090503081600081518110611846576118466120dd565b6001600160a01b03928316602091820292909201810191909152600a54604080516315ab88c960e31b81529051919093169263ad5c46489260048083019391928290030181865afa15801561189f573d6000803e3d6000fd5b505050506040513d601f19601f820116820180604052508101906118c391906120aa565b816001815181106118d6576118d66120dd565b6001600160a01b03928316602091820292909201810191909152600a54604080516315ab88c960e31b81529051600094929092169263ad5c4648926004808401938290030181865afa158015611930573d6000803e3d6000fd5b505050506040513d601f19601f8201168201806040525081019061195491906120aa565b6001600160a01b03166370a08231846001600160a01b031663e6a4390530600a60009054906101000a90046001600160a01b03166001600160a01b031663ad5c46486040518163ffffffff1660e01b8152600401602060405180830381865afa1580156119c5573d6000803e3d6000fd5b505050506040513d601f19601f820116820180604052508101906119e991906120aa565b6040516001600160e01b031960e085901b1681526001600160a01b03928316600482015291166024820152604401602060405180830381865afa158015611a34573d6000803e3d6000fd5b505050506040513d601f19601f82011682018060405250810190611a5891906120aa565b6040516001600160e01b031960e084901b1681526001600160a01b039091166004820152602401602060405180830381865afa158015611a9c573d6000803e3d6000fd5b505050506040513d601f19601f82011682018060405250810190611ac091906120f3565b11156108ff57600a546001600160a01b031663791ac9478460008430611ae8426104b061153c565b6040518663ffffffff1660e01b8152600401611b0895949392919061210c565b600060405180830381600087803b158015611b2257600080fd5b505af1158015611b36573d6000803e3d6000fd5b50505050505050565b600a54611b579030906001600160a01b031684610eb4565b600a546001600160a01b031663f305d71982308560008083611b7b426104b061153c565b60405160e089901b6001600160e01b03191681526001600160a01b039687166004820152602481019590955260448501939093526064840191909152909216608482015260a481019190915260c40160606040518083038185885af1158015611be8573d6000803e3d6000fd5b50505050506040513d601f19601f82011682018060405250810190611c0d919061217d565b5050505050565b60606000611c23836002612093565b611c2e906002611fba565b67ffffffffffffffff811115611c4657611c466120c7565b6040519080825280601f01601f191660200182016040528015611c70576020820181803683370190505b509050600360fc1b81600081518110611c8b57611c8b6120dd565b60200101906001600160f81b031916908160001a905350600f60fb1b81600181518110611cba57611cba6120dd565b60200101906001600160f81b031916908160001a9053506000611cde846002612093565b611ce9906001611fba565b90505b6001811115611d61576f181899199a1a9b1b9c1cb0b131b232b360811b85600f1660108110611d1d57611d1d6120dd565b1a60f81b828281518110611d3357611d336120dd565b60200101906001600160f81b031916908160001a90535060049490941c93611d5a816121ab565b9050611cec565b5083156108d25760405162461bcd60e51b815260206004820181905260248201527f537472696e67733a20686578206c656e67746820696e73756666696369656e746044820152606401610970565b600060208284031215611dc257600080fd5b81356001600160e01b0319811681146108d257600080fd5b60005b83811015611df5578181015183820152602001611ddd565b50506000910152565b6020815260008251806020840152611e1d816040850160208701611dda565b601f01601f19169190910160400192915050565b6001600160a01b038116811461089857600080fd5b600060208284031215611e5857600080fd5b81356108d281611e31565b60008060408385031215611e7657600080fd5b8235611e8181611e31565b946020939093013593505050565b600080600060608486031215611ea457600080fd5b8335611eaf81611e31565b92506020840135611ebf81611e31565b929592945050506040919091013590565b600060208284031215611ee257600080fd5b5035919050565b60008060408385031215611efc57600080fd5b823591506020830135611f0e81611e31565b809150509250929050565b600060208284031215611f2b57600080fd5b813560ff811681146108d257600080fd5b60008060408385031215611f4f57600080fd5b8235611f5a81611e31565b91506020830135611f0e81611e31565b600181811c90821680611f7e57607f821691505b602082108103611f9e57634e487b7160e01b600052602260045260246000fd5b50919050565b634e487b7160e01b600052601160045260246000fd5b808201808211156107a1576107a1611fa4565b60008251611fdf818460208701611dda565b9190910192915050565b60008261200657634e487b7160e01b600052601260045260246000fd5b500490565b818103818111156107a1576107a1611fa4565b7f416363657373436f6e74726f6c3a206163636f756e7420000000000000000000815260008351612056816017850160208801611dda565b7001034b99036b4b9b9b4b733903937b6329607d1b6017918401918201528351612087816028840160208801611dda565b01602801949350505050565b80820281158282048414176107a1576107a1611fa4565b6000602082840312156120bc57600080fd5b81516108d281611e31565b634e487b7160e01b600052604160045260246000fd5b634e487b7160e01b600052603260045260246000fd5b60006020828403121561210557600080fd5b5051919050565b600060a082018783526020878185015260a0604085015281875180845260c086019150828901935060005b8181101561215c5784516001600160a01b031683529383019391830191600101612137565b50506001600160a01b03969096166060850152505050608001529392505050565b60008060006060848603121561219257600080fd5b8351925060208401519150604084015190509250925092565b6000816121ba576121ba611fa4565b50600019019056fea2646970667358221220cae07c5cde3be15515c66f2bb8b29c64cce2c5d4e3204e4f2fd52ddb095a999b64736f6c63430008110033",
  "linkReferences": {},
  "deployedLinkReferences": {}
}