{
  "_format": "hh-sol-artifact-1",
  "contractName": "VefiEcosystemTokenUpdated",
  "sourceName": "contracts/VefiEcosystemTokenUpdated.sol",
  "abi": [
    {
      "inputs": [
        {
          "internalType": "string",
          "name": "name_",
          "type": "string"
        },
        {
          "internalType": "string",
          "name": "symbol_",
          "type": "string"
        },
        {
          "internalType": "uint256",
          "name": "amount",
          "type": "uint256"
        },
        {
          "internalType": "address",
          "name": "_taxCollector",
          "type": "address"
        },
        {
          "internalType": "uint8",
          "name": "_taxPercentage",
          "type": "uint8"
        }
      ],
      "stateMutability": "nonpayable",
      "type": "constructor"
    },
    {
      "anonymous": false,
      "inputs": [
        {
          "indexed": true,
          "internalType": "address",
          "name": "owner",
          "type": "address"
        },
        {
          "indexed": true,
          "internalType": "address",
          "name": "spender",
          "type": "address"
        },
        {
          "indexed": false,
          "internalType": "uint256",
          "name": "value",
          "type": "uint256"
        }
      ],
      "name": "Approval",
      "type": "event"
    },
    {
      "anonymous": false,
      "inputs": [
        {
          "indexed": true,
          "internalType": "address",
          "name": "previousOwner",
          "type": "address"
        },
        {
          "indexed": true,
          "internalType": "address",
          "name": "newOwner",
          "type": "address"
        }
      ],
      "name": "OwnershipTransferred",
      "type": "event"
    },
    {
      "anonymous": false,
      "inputs": [
        {
          "indexed": true,
          "internalType": "bytes32",
          "name": "role",
          "type": "bytes32"
        },
        {
          "indexed": true,
          "internalType": "bytes32",
          "name": "previousAdminRole",
          "type": "bytes32"
        },
        {
          "indexed": true,
          "internalType": "bytes32",
          "name": "newAdminRole",
          "type": "bytes32"
        }
      ],
      "name": "RoleAdminChanged",
      "type": "event"
    },
    {
      "anonymous": false,
      "inputs": [
        {
          "indexed": true,
          "internalType": "bytes32",
          "name": "role",
          "type": "bytes32"
        },
        {
          "indexed": true,
          "internalType": "address",
          "name": "account",
          "type": "address"
        },
        {
          "indexed": true,
          "internalType": "address",
          "name": "sender",
          "type": "address"
        }
      ],
      "name": "RoleGranted",
      "type": "event"
    },
    {
      "anonymous": false,
      "inputs": [
        {
          "indexed": true,
          "internalType": "bytes32",
          "name": "role",
          "type": "bytes32"
        },
        {
          "indexed": true,
          "internalType": "address",
          "name": "account",
          "type": "address"
        },
        {
          "indexed": true,
          "internalType": "address",
          "name": "sender",
          "type": "address"
        }
      ],
      "name": "RoleRevoked",
      "type": "event"
    },
    {
      "anonymous": false,
      "inputs": [
        {
          "indexed": true,
          "internalType": "address",
          "name": "from",
          "type": "address"
        },
        {
          "indexed": true,
          "internalType": "address",
          "name": "to",
          "type": "address"
        },
        {
          "indexed": false,
          "internalType": "uint256",
          "name": "value",
          "type": "uint256"
        }
      ],
      "name": "Transfer",
      "type": "event"
    },
    {
      "inputs": [],
      "name": "DEFAULT_ADMIN_ROLE",
      "outputs": [
        {
          "internalType": "bytes32",
          "name": "",
          "type": "bytes32"
        }
      ],
      "stateMutability": "view",
      "type": "function"
    },
    {
      "inputs": [
        {
          "internalType": "address",
          "name": "owner",
          "type": "address"
        },
        {
          "internalType": "address",
          "name": "spender",
          "type": "address"
        }
      ],
      "name": "allowance",
      "outputs": [
        {
          "internalType": "uint256",
          "name": "",
          "type": "uint256"
        }
      ],
      "stateMutability": "view",
      "type": "function"
    },
    {
      "inputs": [
        {
          "internalType": "address",
          "name": "spender",
          "type": "address"
        },
        {
          "internalType": "uint256",
          "name": "amount",
          "type": "uint256"
        }
      ],
      "name": "approve",
      "outputs": [
        {
          "internalType": "bool",
          "name": "",
          "type": "bool"
        }
      ],
      "stateMutability": "nonpayable",
      "type": "function"
    },
    {
      "inputs": [
        {
          "internalType": "address",
          "name": "account",
          "type": "address"
        }
      ],
      "name": "balanceOf",
      "outputs": [
        {
          "internalType": "uint256",
          "name": "",
          "type": "uint256"
        }
      ],
      "stateMutability": "view",
      "type": "function"
    },
    {
      "inputs": [],
      "name": "decimals",
      "outputs": [
        {
          "internalType": "uint8",
          "name": "",
          "type": "uint8"
        }
      ],
      "stateMutability": "view",
      "type": "function"
    },
    {
      "inputs": [
        {
          "internalType": "address",
          "name": "spender",
          "type": "address"
        },
        {
          "internalType": "uint256",
          "name": "subtractedValue",
          "type": "uint256"
        }
      ],
      "name": "decreaseAllowance",
      "outputs": [
        {
          "internalType": "bool",
          "name": "",
          "type": "bool"
        }
      ],
      "stateMutability": "nonpayable",
      "type": "function"
    },
    {
      "inputs": [
        {
          "internalType": "address",
          "name": "account",
          "type": "address"
        }
      ],
      "name": "excludeFromPayingTax",
      "outputs": [],
      "stateMutability": "nonpayable",
      "type": "function"
    },
    {
      "inputs": [
        {
          "internalType": "bytes32",
          "name": "role",
          "type": "bytes32"
        }
      ],
      "name": "getRoleAdmin",
      "outputs": [
        {
          "internalType": "bytes32",
          "name": "",
          "type": "bytes32"
        }
      ],
      "stateMutability": "view",
      "type": "function"
    },
    {
      "inputs": [
        {
          "internalType": "bytes32",
          "name": "role",
          "type": "bytes32"
        },
        {
          "internalType": "address",
          "name": "account",
          "type": "address"
        }
      ],
      "name": "grantRole",
      "outputs": [],
      "stateMutability": "nonpayable",
      "type": "function"
    },
    {
      "inputs": [
        {
          "internalType": "bytes32",
          "name": "role",
          "type": "bytes32"
        },
        {
          "internalType": "address",
          "name": "account",
          "type": "address"
        }
      ],
      "name": "hasRole",
      "outputs": [
        {
          "internalType": "bool",
          "name": "",
          "type": "bool"
        }
      ],
      "stateMutability": "view",
      "type": "function"
    },
    {
      "inputs": [],
      "name": "inSwapAndLiquify",
      "outputs": [
        {
          "internalType": "bool",
          "name": "",
          "type": "bool"
        }
      ],
      "stateMutability": "view",
      "type": "function"
    },
    {
      "inputs": [
        {
          "internalType": "address",
          "name": "account",
          "type": "address"
        }
      ],
      "name": "includeInTaxPayment",
      "outputs": [],
      "stateMutability": "nonpayable",
      "type": "function"
    },
    {
      "inputs": [
        {
          "internalType": "address",
          "name": "spender",
          "type": "address"
        },
        {
          "internalType": "uint256",
          "name": "addedValue",
          "type": "uint256"
        }
      ],
      "name": "increaseAllowance",
      "outputs": [
        {
          "internalType": "bool",
          "name": "",
          "type": "bool"
        }
      ],
      "stateMutability": "nonpayable",
      "type": "function"
    },
    {
      "inputs": [],
      "name": "liquidityExclusionPrivilege",
      "outputs": [
        {
          "internalType": "bytes32",
          "name": "",
          "type": "bytes32"
        }
      ],
      "stateMutability": "view",
      "type": "function"
    },
    {
      "inputs": [],
      "name": "liquidityPercentageForEcosystem",
      "outputs": [
        {
          "internalType": "uint8",
          "name": "",
          "type": "uint8"
        }
      ],
      "stateMutability": "view",
      "type": "function"
    },
    {
      "inputs": [],
      "name": "maxAmount",
      "outputs": [
        {
          "internalType": "uint256",
          "name": "",
          "type": "uint256"
        }
      ],
      "stateMutability": "view",
      "type": "function"
    },
    {
      "inputs": [],
      "name": "minHoldOfTokenForContract",
      "outputs": [
        {
          "internalType": "uint256",
          "name": "",
          "type": "uint256"
        }
      ],
      "stateMutability": "view",
      "type": "function"
    },
    {
      "inputs": [],
      "name": "name",
      "outputs": [
        {
          "internalType": "string",
          "name": "",
          "type": "string"
        }
      ],
      "stateMutability": "view",
      "type": "function"
    },
    {
      "inputs": [],
      "name": "owner",
      "outputs": [
        {
          "internalType": "address",
          "name": "",
          "type": "address"
        }
      ],
      "stateMutability": "view",
      "type": "function"
    },
    {
      "inputs": [],
      "name": "renounceOwnership",
      "outputs": [],
      "stateMutability": "nonpayable",
      "type": "function"
    },
    {
      "inputs": [
        {
          "internalType": "bytes32",
          "name": "role",
          "type": "bytes32"
        },
        {
          "internalType": "address",
          "name": "account",
          "type": "address"
        }
      ],
      "name": "renounceRole",
      "outputs": [],
      "stateMutability": "nonpayable",
      "type": "function"
    },
    {
      "inputs": [
        {
          "internalType": "address",
          "name": "token",
          "type": "address"
        },
        {
          "internalType": "address",
          "name": "to",
          "type": "address"
        },
        {
          "internalType": "uint256",
          "name": "amount",
          "type": "uint256"
        }
      ],
      "name": "retrieveERC20",
      "outputs": [],
      "stateMutability": "nonpayable",
      "type": "function"
    },
    {
      "inputs": [
        {
          "internalType": "address",
          "name": "to",
          "type": "address"
        }
      ],
      "name": "retrieveEther",
      "outputs": [],
      "stateMutability": "nonpayable",
      "type": "function"
    },
    {
      "inputs": [
        {
          "internalType": "bytes32",
          "name": "role",
          "type": "bytes32"
        },
        {
          "internalType": "address",
          "name": "account",
          "type": "address"
        }
      ],
      "name": "revokeRole",
      "outputs": [],
      "stateMutability": "nonpayable",
      "type": "function"
    },
    {
      "inputs": [
        {
          "internalType": "address",
          "name": "router",
          "type": "address"
        }
      ],
      "name": "setIUniswapV2Router",
      "outputs": [],
      "stateMutability": "nonpayable",
      "type": "function"
    },
    {
      "inputs": [
        {
          "internalType": "uint8",
          "name": "_lpPercentage",
          "type": "uint8"
        }
      ],
      "name": "setLiquidityPercentageForEcosystem",
      "outputs": [],
      "stateMutability": "nonpayable",
      "type": "function"
    },
    {
      "inputs": [
        {
          "internalType": "uint256",
          "name": "_max",
          "type": "uint256"
        }
      ],
      "name": "setMaxAmount",
      "outputs": [],
      "stateMutability": "nonpayable",
      "type": "function"
    },
    {
      "inputs": [
        {
          "internalType": "uint256",
          "name": "minHold",
          "type": "uint256"
        }
      ],
      "name": "setMinHoldOfTokenForContract",
      "outputs": [],
      "stateMutability": "nonpayable",
      "type": "function"
    },
    {
      "inputs": [
        {
          "internalType": "address",
          "name": "router",
          "type": "address"
        }
      ],
      "name": "setSphynxRouter",
      "outputs": [],
      "stateMutability": "nonpayable",
      "type": "function"
    },
    {
      "inputs": [
        {
          "internalType": "address",
          "name": "_taxCollector",
          "type": "address"
        }
      ],
      "name": "setTaxCollector",
      "outputs": [],
      "stateMutability": "nonpayable",
      "type": "function"
    },
    {
      "inputs": [
        {
          "internalType": "uint8",
          "name": "_taxPercentage",
          "type": "uint8"
        }
      ],
      "name": "setTaxPercentage",
      "outputs": [],
      "stateMutability": "nonpayable",
      "type": "function"
    },
    {
      "inputs": [
        {
          "internalType": "bytes4",
          "name": "interfaceId",
          "type": "bytes4"
        }
      ],
      "name": "supportsInterface",
      "outputs": [
        {
          "internalType": "bool",
          "name": "",
          "type": "bool"
        }
      ],
      "stateMutability": "view",
      "type": "function"
    },
    {
      "inputs": [],
      "name": "swapAndLiquifyEnabled",
      "outputs": [
        {
          "internalType": "bool",
          "name": "",
          "type": "bool"
        }
      ],
      "stateMutability": "view",
      "type": "function"
    },
    {
      "inputs": [],
      "name": "switchSwapAndLiquifyEnabled",
      "outputs": [],
      "stateMutability": "nonpayable",
      "type": "function"
    },
    {
      "inputs": [],
      "name": "symbol",
      "outputs": [
        {
          "internalType": "string",
          "name": "",
          "type": "string"
        }
      ],
      "stateMutability": "view",
      "type": "function"
    },
    {
      "inputs": [],
      "name": "taxCollector",
      "outputs": [
        {
          "internalType": "address",
          "name": "",
          "type": "address"
        }
      ],
      "stateMutability": "view",
      "type": "function"
    },
    {
      "inputs": [],
      "name": "taxExclusionPrivilege",
      "outputs": [
        {
          "internalType": "bytes32",
          "name": "",
          "type": "bytes32"
        }
      ],
      "stateMutability": "view",
      "type": "function"
    },
    {
      "inputs": [],
      "name": "taxPercentage",
      "outputs": [
        {
          "internalType": "uint8",
          "name": "",
          "type": "uint8"
        }
      ],
      "stateMutability": "view",
      "type": "function"
    },
    {
      "inputs": [],
      "name": "totalSupply",
      "outputs": [
        {
          "internalType": "uint256",
          "name": "",
          "type": "uint256"
        }
      ],
      "stateMutability": "view",
      "type": "function"
    },
    {
      "inputs": [
        {
          "internalType": "address",
          "name": "to",
          "type": "address"
        },
        {
          "internalType": "uint256",
          "name": "amount",
          "type": "uint256"
        }
      ],
      "name": "transfer",
      "outputs": [
        {
          "internalType": "bool",
          "name": "",
          "type": "bool"
        }
      ],
      "stateMutability": "nonpayable",
      "type": "function"
    },
    {
      "inputs": [
        {
          "internalType": "address",
          "name": "from",
          "type": "address"
        },
        {
          "internalType": "address",
          "name": "to",
          "type": "address"
        },
        {
          "internalType": "uint256",
          "name": "amount",
          "type": "uint256"
        }
      ],
      "name": "transferFrom",
      "outputs": [
        {
          "internalType": "bool",
          "name": "",
          "type": "bool"
        }
      ],
      "stateMutability": "nonpayable",
      "type": "function"
    },
    {
      "inputs": [
        {
          "internalType": "address",
          "name": "newOwner",
          "type": "address"
        }
      ],
      "name": "transferOwnership",
      "outputs": [],
      "stateMutability": "nonpayable",
      "type": "function"
    },
    {
      "stateMutability": "payable",
      "type": "receive"
    }
  ],
  "bytecode": "0x6080604081815234620008a65762002d5f8038038091620000218286620008dd565b843982019160a081840312620008a65780516001600160401b039390848111620008a657816200005391840162000901565b906020908184015190868211620008a6576200007191850162000901565b848401516080620000856060870162000978565b9501519460ff86168603620008a65760008054336001600160a01b0319808316821784559a6001600160a01b03989396939290919089167f8be0079c531659141344cd1fd0a4f28419497f9722a3daafe3b4186f6b6457e08880a3815192818411620008925760058054946001948587811c9716801562000887575b8b881014620008735781908b601f988981116200081f575b50508b90888311600114620007ba578b92620007ae575b5050600019600383901b1c191690851b1781555b81519283116200079a57600654908482811c921680156200078f575b8a8310146200077b5785821162000734575b50508790848311600114620006ce579282939183928994620006c2575b50501b916000199060031b1c1916176006555b87518581019086825260178a8201527f5441585f4558434c5553494f4e5f50524956494c454745000000000000000000606082015260608152620001e681620008ab565b519020600855875185810190868252601d8a8201527f4c49515549444954595f4558434c5553494f4e5f50524956494c4547450000006060820152606081526200023081620008ab565b519020600955600b80546b024306c4097859c43c000000600c55691969368974c05b000000600d55600780548c16858a1617905561ffff60a01b191660a09890981b60ff60a01b1697909717600160ab1b1787553315620006805750620002fe90600492620002a181855462000a08565b845533855260028652888520620002ba82825462000a08565b90558851908152847fddf252ad1be2c89b69c2b068fc378daa952ba7f163c4a11628f55a4df523b3ef873393a3620002f5336008546200098d565b6008546200098d565b73bb5e1777a331ed93e07cf043363e48d320eb96c47383f465457c8cafbe85abb941f20291f826c7f72a978881600a541617600a5586541617855585519663c45a015560e01b9081895284898481845afa9889156200067657849962000633575b508751858185816315ab88c960e31b958682525afa9081156200055f578591620005f6575b5088516364e329cb60e11b8082526001600160a01b03909216858201908152306020820152909a87918c9190829089908c9083906040010393165af1998a156200055f57859a620005b7575b508688541691895193845286848681865afa938415620005ad57908791879562000569575b50858b518095819382525afa9182156200055f57918693918695938997926200050a575b508a519081526001600160a01b039091169281019283523060208401529485928391869183906040015b0393165af1928315620004fe578193620004aa575b5050506200047c90620004736200049c95966009546200098d565b6009546200098d565b6200048f60095482600a5416906200098d565b600954915416906200098d565b51612332908162000a2d8239f35b9091809350813d8311620004f6575b620004c58183620008dd565b81010312620004f357506200049c939462000473620004e86200047c9362000978565b928297965062000458565b80fd5b503d620004b9565b508551903d90823e3d90fd5b92948391949697508092503d831162000557575b6200052a8183620008dd565b8101031262000553579184939162000443958862000549899662000978565b9291509662000419565b8480fd5b503d6200051e565b89513d87823e3d90fd5b8281939296503d8311620005a5575b620005848183620008dd565b81010312620005a15762000599879162000978565b9338620003f5565b8580fd5b503d62000578565b8a513d88823e3d90fd5b9099508581813d8311620005ee575b620005d28183620008dd565b810103126200055357620005e69062000978565b9838620003d0565b503d620005c6565b90508581813d83116200062b575b620006108183620008dd565b810103126200055357620006249062000978565b3862000384565b503d62000604565b9098508481813d83116200066e575b6200064e8183620008dd565b810103126200066a57620006629062000978565b97386200035f565b8380fd5b503d62000642565b88513d86823e3d90fd5b8460649189519162461bcd60e51b8352600483015260248201527f45524332303a206d696e7420746f20746865207a65726f2061646472657373006044820152fd5b0151925038806200018f565b60068852888820919083601f1981168a5b8c888383106200071c575050501062000702575b505050811b01600655620001a2565b015160001960f88460031b161c19169055388080620006f3565b868601518855909601959485019487935001620006df565b600689528989209086808601821c8301938c871062000771575b01901c019084905b82811062000765575062000172565b89815501849062000756565b935082936200074e565b634e487b7160e01b89526022600452602489fd5b91607f169162000160565b634e487b7160e01b88526041600452602488fd5b01519050388062000130565b848c528c8c208894509190601f1984168d8f5b828210620008075750508411620007ed575b505050811b01815562000144565b015160001960f88460031b161c19169055388080620007df565b8385015186558b979095019493840193018f620007cd565b90919250848c5288828d2091818601871c830193861062000869575b9189918695949301871c01915b8281106200085a57508d915062000119565b8d815585945089910162000848565b925081926200083b565b634e487b7160e01b8a52602260045260248afd5b96607f169662000101565b634e487b7160e01b87526041600452602487fd5b600080fd5b608081019081106001600160401b03821117620008c757604052565b634e487b7160e01b600052604160045260246000fd5b601f909101601f19168101906001600160401b03821190821017620008c757604052565b919080601f84011215620008a6578251906001600160401b038211620008c757604051916020916200093d601f8301601f1916840185620008dd565b818452828287010111620008a65760005b8181106200096457508260009394955001015290565b85810183015184820184015282016200094e565b51906001600160a01b0382168203620008a657565b906000918083526001602052604083209160018060a01b03169182845260205260ff60408420541615620009c057505050565b80835260016020526040832082845260205260408320600160ff198254161790557f2f8788117e7eff1d82e926ec794901d17c78024a50270940304540a733656f0d339380a4565b9190820180921162000a1657565b634e487b7160e01b600052601160045260246000fdfe608060409080825260049081361015610023575b505050361561002157600080fd5b005b600092833560e01c91826301ffc9a714610f405750816306fdde0314610e82578163084a139214610e5257816308695b4114610df5578163095ea7b314610dcb57816318160ddd14610dac578163220f669614610d8557816323b872dd14610ccc578163248a9ca314610ca15781632f2ff15d14610c78578163313ce56714610c5c57816331e4e4e514610c3d57816336568abe14610bac5781633821a75814610b6c5781633950935114610b1c57816346e6552314610afd5781634a74bb0214610ad95781634fe47f7014610ab757816359102d1c14610a925781635c2a00b214610a735781635f48f39314610a5457816370a0823114610a1c578163715018a6146109c2578163808c1643146109935781638da5cb5b1461096b5781638e6dda25146108c457816391d148541461087c57816395d89b411461077a578163a217fddf1461075f578163a457c2d7146106bb578163a5ffad5214610675578163a9059cbb14610644578163ae7b6d161461061f578163bea1dcf8146105f6578163c676ee6b146105d4578163d547741f1461059a578163d63f45941461043b578163dd62ed3e146103f2578163f2fde38b1461032a578163f3bf29de1461028c57508063f6ed11c1146102495763fd7b674d146102015780610013565b34610245576020366003190112610245573560ff811681036102455761022561149b565b600b805460ff60a81b191660a89290921b60ff60a81b1691909117905580f35b5080fd5b823461028957602036600319011261028957610263610fe3565b61026b61149b565b60018060a01b03166001600160601b0360a01b600a541617600a5580f35b80fd5b838334610245576020366003190112610245576102a7610fe3565b906102b061149b565b600854906102e18383600052600160205260406000209060018060a01b031660005260205260ff6040600020541690565b156102f45750906102f191611425565b80f35b606490602086519162461bcd60e51b8352820152601060248201526f0c2d8e4cac2c8f2bee0c2f2e6bee8c2f60831b6044820152fd5b919050346103ee5760203660031901126103ee57610346610fe3565b9061034f61149b565b6001600160a01b0391821692831561039c57505082546001600160a01b0319811683178455167f8be0079c531659141344cd1fd0a4f28419497f9722a3daafe3b4186f6b6457e08380a380f35b906020608492519162461bcd60e51b8352820152602660248201527f4f776e61626c653a206e6577206f776e657220697320746865207a65726f206160448201526564647265737360d01b6064820152fd5b8280fd5b83903461024557806003193601126102455780602092610410610fe3565b610418610ffe565b6001600160a01b0391821683526003865283832091168252845220549051908152f35b9050346103ee5761044b36611014565b61045361149b565b823b1561056057835167ffffffffffffffff908086018281118282101761054d577f7472616e7366657228616464726573732c75696e743235362900000000000000916020918852601981520152845191602083019363a9059cbb60e01b855260018060a01b0316602484015260448301526044825260808201908282109082111761053a57845251859283929083905af16104ed61225c565b50156104f7578280f35b906020606492519162461bcd60e51b8352820152601e60248201527f6c6f775f6c6576656c5f636f6e74726163745f63616c6c5f6661696c656400006044820152fd5b634e487b7160e01b875260418652602487fd5b634e487b7160e01b895260418852602489fd5b835162461bcd60e51b8152602081870152601460248201527318d85b1b17dd1bd7db9bdb97d8dbdb9d1c9858dd60621b6044820152606490fd5b9050346103ee57806003193601126103ee576102f191356105cf60016105be610ffe565b938387528160205286200154611049565b611425565b505034610245576020366003190112610245576105ef61149b565b35600d5580f35b83903461024557816003193601126102455760075490516001600160a01b039091168152602090f35b83903461024557816003193601126102455760209060ff600b5460a01c169051908152f35b83903461024557806003193601126102455760209061066e610664610fe3565b6024359033611652565b5160018152f35b505034610245576020366003190112610245573560ff811681036102455761069b61149b565b600b805460ff60a01b191660a09290921b60ff60a01b1691909117905580f35b8284346102895782600319360112610289576106d5610fe3565b918360243592338152600360205281812060018060a01b038616825260205220549082821061070e5760208561066e8585038733611516565b608490602086519162461bcd60e51b8352820152602560248201527f45524332303a2064656372656173656420616c6c6f77616e63652062656c6f77604482015264207a65726f60d81b6064820152fd5b83903461024557816003193601126102455751908152602090f35b9050346103ee57826003193601126103ee57805191836006549060019082821c928281168015610872575b602095868610821461085f575084885290811561083d57506001146107e4575b6107e086866107d6828b0383611389565b5191829182610fb7565b0390f35b929550600683527ff652222313e28459528d920b65115c16c04f3efc82aaedc97be59f3f377c0d3f5b82841061082a57505050826107e0946107d69282010194386107c5565b805486850188015292860192810161080d565b60ff191687860152505050151560051b83010192506107d6826107e0386107c5565b634e487b7160e01b845260229052602483fd5b93607f16936107a5565b919050346103ee57816003193601126103ee578160209360ff9261089e610ffe565b90358252600186528282206001600160a01b039091168252855220549151911615158152f35b838334610245576020366003190112610245576108df610fe3565b906108e861149b565b600854906109198383600052600160205260406000209060018060a01b031660005260205260ff6040600020541690565b6109285750906102f1916113ab565b606490602086519162461bcd60e51b8352820152602060248201527f616c72656164795f6578636c756465645f66726f6d5f706179696e675f7461786044820152fd5b839034610245578160031936011261024557905490516001600160a01b039091168152602090f35b83346102895780600319360112610289576109ac61149b565b600e5460ff80821615169060ff191617600e5580f35b83346102895780600319360112610289576109db61149b565b80546001600160a01b03198116825581906001600160a01b03167f8be0079c531659141344cd1fd0a4f28419497f9722a3daafe3b4186f6b6457e08280a380f35b8390346102455760203660031901126102455760209181906001600160a01b03610a44610fe3565b1681526002845220549051908152f35b839034610245578160031936011261024557602090600c549051908152f35b839034610245578160031936011261024557602090600d549051908152f35b83903461024557816003193601126102455760209060ff600b5460a81c169051908152f35b50503461024557602036600319011261024557610ad261149b565b35600c5580f35b83903461024557816003193601126102455760209060ff600e541690519015158152f35b8390346102455781600319360112610245576020906008549051908152f35b83903461024557806003193601126102455761066e602092610b65610b3f610fe3565b338352600386528483206001600160a01b038216845286529184902054602435906114f3565b9033611516565b833461028957602036600319011261028957610b86610fe3565b610b8e61149b565b60018060a01b03166001600160601b0360a01b600b541617600b5580f35b838334610245578260031936011261024557610bc6610ffe565b90336001600160a01b03831603610be257906102f19135611425565b608490602085519162461bcd60e51b8352820152602f60248201527f416363657373436f6e74726f6c3a2063616e206f6e6c792072656e6f756e636560448201526e103937b632b9903337b91039b2b63360891b6064820152fd5b8390346102455781600319360112610245576020906009549051908152f35b8390346102455781600319360112610245576020905160128152f35b9050346103ee57806003193601126103ee576102f19135610c9c60016105be610ffe565b6113ab565b919050346103ee5760203660031901126103ee57816020936001923581528285522001549051908152f35b8284346102895782610cdd36611014565b6001600160a01b03831685526003602090815284862033875290529290932054919390919060018201610d19575b60208661066e878787611652565b848210610d425750918391610d376020969561066e95033383611516565b919394819350610d0b565b606490602087519162461bcd60e51b8352820152601d60248201527f45524332303a20696e73756666696369656e7420616c6c6f77616e63650000006044820152fd5b83903461024557816003193601126102455760209060ff600e5460081c1690519015158152f35b919050346103ee57826003193601126103ee5760209250549051908152f35b83903461024557806003193601126102455760209061066e610deb610fe3565b6024359033611516565b8334610289576020366003190112610289576102f1610e12610fe3565b610e1a61149b565b6008546007546001600160a01b0391610e3591831690611425565b81166001600160601b0360a01b60075416176007556008546113ab565b833461028957602036600319011261028957610e7e610e6f610fe3565b610e7761149b565b479061229c565b5080f35b9050346103ee57826003193601126103ee57805191836005549060019082821c928281168015610f36575b602095868610821461085f575084885290811561083d5750600114610edd576107e086866107d6828b0383611389565b929550600583527f036b6384b5eca791c62761152d0c79bb0604c104a5fb6f4eb0703f3154bb3db05b828410610f2357505050826107e0946107d69282010194386107c5565b8054868501880152928601928101610f06565b93607f1693610ead565b849084346103ee5760203660031901126103ee573563ffffffff60e01b81168091036103ee5760209250637965db0b60e01b8114908115610f83575b5015158152f35b6301ffc9a760e01b14905083610f7c565b60005b838110610fa75750506000910152565b8181015183820152602001610f97565b60409160208252610fd78151809281602086015260208686019101610f94565b601f01601f1916010190565b600435906001600160a01b0382168203610ff957565b600080fd5b602435906001600160a01b0382168203610ff957565b6060906003190112610ff9576001600160a01b03906004358281168103610ff957916024359081168103610ff9579060443590565b6000818152600190602091808352604093848320338452845260ff858420541615611075575050505050565b845133916110828261136d565b602a8252858201928736853782511561132f5760308453825185101561132f576078602184015360295b8581116112c55750611283578651936080850185811067ffffffffffffffff82111761126f5788526042855286850195606036883785511561125b5760308753855182101561125b5790607860218701536041915b8183116111ed575050506111ab57938593611191936111826048946111597f416363657373436f6e74726f6c3a206163636f756e7420000000000000000000996111a79b519a8b978801525180926037880190610f94565b8401917001034b99036b4b9b9b4b733903937b6329607d1b603784015251809386840190610f94565b01036028810185520183611389565b5162461bcd60e51b815291829160048301610fb7565b0390fd5b60648587519062461bcd60e51b825280600483015260248201527f537472696e67733a20686578206c656e67746820696e73756666696369656e746044820152fd5b909192600f81166010811015611247576f181899199a1a9b1b9c1cb0b131b232b360811b901a61121d858961162b565b5360041c92801561123357600019019190611101565b634e487b7160e01b82526011600452602482fd5b634e487b7160e01b83526032600452602483fd5b634e487b7160e01b81526032600452602490fd5b634e487b7160e01b87526041600452602487fd5b60648688519062461bcd60e51b825280600483015260248201527f537472696e67733a20686578206c656e67746820696e73756666696369656e746044820152fd5b90600f8116601081101561131b576f181899199a1a9b1b9c1cb0b131b232b360811b901a6112f3838661162b565b5360041c90801561130757600019016110ac565b634e487b7160e01b87526011600452602487fd5b634e487b7160e01b88526032600452602488fd5b634e487b7160e01b86526032600452602486fd5b67ffffffffffffffff811161135757604052565b634e487b7160e01b600052604160045260246000fd5b6060810190811067ffffffffffffffff82111761135757604052565b90601f8019910116810190811067ffffffffffffffff82111761135757604052565b906000918083526001602052604083209160018060a01b03169182845260205260ff604084205416156113dd57505050565b80835260016020526040832082845260205260408320600160ff198254161790557f2f8788117e7eff1d82e926ec794901d17c78024a50270940304540a733656f0d339380a4565b906000918083526001602052604083209160018060a01b03169182845260205260ff60408420541661145657505050565b8083526001602052604083208284526020526040832060ff1981541690557ff6391f5c32d9c69d2a47ea670b442974b53935d1edc7fd64eb21e047a839171b339380a4565b6000546001600160a01b031633036114af57565b606460405162461bcd60e51b815260206004820152602060248201527f4f776e61626c653a2063616c6c6572206973206e6f7420746865206f776e65726044820152fd5b9190820180921161150057565b634e487b7160e01b600052601160045260246000fd5b6001600160a01b039081169182156115c757169182156115775760207f8c5be1e5ebec7d5bd14f71427d1e84f3dd0314c0f7b2291e5b200ac8c7c3b925918360005260038252604060002085600052825280604060002055604051908152a3565b60405162461bcd60e51b815260206004820152602260248201527f45524332303a20617070726f766520746f20746865207a65726f206164647265604482015261737360f01b6064820152608490fd5b60405162461bcd60e51b8152602060048201526024808201527f45524332303a20617070726f76652066726f6d20746865207a65726f206164646044820152637265737360e01b6064820152608490fd5b8181029291811591840414171561150057565b90815181101561163c570160200190565b634e487b7160e01b600052603260045260246000fd5b6000805490949392906001600160a01b03808416911681811415908161201d575b81611fea575b50611f8a575b60085460009081526001602090815260408083206001600160a01b038716845290915290205460ff16159081611f7f575b5015611f7357600360646116cc60ff600b5460a01c1686611618565b0404928360011c953081526002602052604081205490600c5480831015611f6b575b50600d5482101561172486600954600052600160205260406000209060018060a01b031660005260205260ff6040600020541690565b159081611f63575b5080611f53575b80611f47575b61179a575b50509461177461177b9261176d83611762611798999a6117678a61176281806114f3565b6114f3565b906121aa565b9085612033565b8280612033565b611786823083612033565b6007546001600160a01b031690612033565b565b61010061ff0019600e541617600e556117b68260011c836121aa565b9147906117d18160021c60018060a01b03600a541630611516565b600b546117ed90600283901c906001600160a01b031630611516565b600a5460405163c45a015560e01b8152906001600160a01b0316602082600481845afa918215611df8578592611f26575b506040519161182c8361136d565b60028352602083016040368237835115611ef3573090526040516315ab88c960e31b8152602081600481865afa908115611d81578791611f07575b50835160011015611ef3576001600160a01b0316604084810191909152516315ab88c960e31b815290602082600481865afa918215611d81578792611ed2575b506040516315ab88c960e31b815290602082600481875afa918215611dab5791602091611909938a92611d8c575b5060405163e6a4390560e01b81523060048201526001600160a01b0390921660248301529092839190829081906044820190565b03916001600160a01b03165afa908115611d8157906020918891611eb5575b506040516370a0823160e01b81526001600160a01b0391821660048201529283916024918391165afa908115611c62578691611e7f575b50611e03575b5050600b5460405163c45a015560e01b8152906001600160a01b0316602082600481845afa918215611df8578592611dd7575b50604051916119a68361136d565b6002835260403660208501376040516315ab88c960e31b815290602082600481865afa918215611d81578792611db6575b506040516315ab88c960e31b815290602082600481875afa918215611dab5791602091611a38938a92611d8c575060405163e6a4390560e01b81523060048201526001600160a01b0390921660248301529092839190829081906044820190565b03916001600160a01b03165afa908115611d8157906020918891611d54575b506040516370a0823160e01b81526001600160a01b0391821660048201529283916024918391165afa908115611c62578691611d22575b50611c9e575b505050611aa190476121aa565b91611ac16064611ab960ff600b5460a81c1686611618565b0480946121aa565b9280611c81575b5060011c611ae18160018060a01b03600a541630611516565b600b54611af99082906001600160a01b031630611516565b60018060a01b03600a54166104b0420191824211611c6d5760405163f305d71960e01b8082523060048301819052602483018490526000604484018190526064840152608483015260a48201859052606096909360019190911c91908790829060c490829086905af18015611c625791611bcb96959391889593611c45575b50600b54604051938452306004850181905260248501939093526000604485018190526064850152608484019290925260a4830193909352909485926001600160a01b03909216918391829060c4820190565b03925af1908115611c39575088611762611798999a956117749561177b989561176d95611c0d575b505061ff0019600e5416600e55955050989750509261173e565b81611c2c92903d10611c32575b611c248183611389565b8101906121b7565b50611bf3565b503d611c1a565b604051903d90823e3d90fd5b611c5b90863d8811611c3257611c248183611389565b5050611b78565b6040513d88823e3d90fd5b634e487b7160e01b84526011600452602484fd5b600754611c9791906001600160a01b031661229c565b5038611ac8565b60018060a01b0360075416916104b042019384421161130757823b15611d1e57908680949392611ce76040519788968795869463791ac94760e01b865260021c600486016121f1565b03925af18015611d1357908391611cff575b80611a94565b611d0890611343565b610245578138611cf9565b6040513d85823e3d90fd5b8680fd5b90506020813d602011611d4c575b81611d3d60209383611389565b81010312610ff9575138611a8e565b3d9150611d30565b611d749150823d8411611d7a575b611d6c8183611389565b8101906121d2565b38611a57565b503d611d62565b6040513d89823e3d90fd5b611da4919250833d8511611d7a57611d6c8183611389565b90386118d5565b6040513d8a823e3d90fd5b611dd091925060203d602011611d7a57611d6c8183611389565b90386119d7565b611df191925060203d602011611d7a57611d6c8183611389565b9038611998565b6040513d87823e3d90fd5b60018060a01b03600754166104b042019283421161130757823b15611d1e5791611e4c93918780946040519687958694859363791ac94760e01b85528b60021c600486016121f1565b03925af18015611e7457611e61575b80611965565b611e6d90939193611343565b9138611e5b565b6040513d86823e3d90fd5b90506020813d602011611ead575b81611e9a60209383611389565b81010312611ea957513861195f565b8580fd5b3d9150611e8d565b611ecc9150823d8411611d7a57611d6c8183611389565b38611928565b611eec91925060203d602011611d7a57611d6c8183611389565b90386118a7565b634e487b7160e01b87526032600452602487fd5b611f20915060203d602011611d7a57611d6c8183611389565b38611867565b611f4091925060203d602011611d7a57611d6c8183611389565b903861181e565b5060ff600e5416611739565b5060ff600e5460081c1615611733565b90503861172c565b9150386116ee565b90611798939450612033565b9050301415386116b0565b600c5484111561167f5760405162461bcd60e51b815260206004820152602860248201527f7472616e736665725f616d6f756e745f63616e6e6f745f6578636565645f6d616044820152671e17d85b5bdd5b9d60c21b6064820152608490fd5b6001600160a01b03841690811415915081612007575b5038611679565b6007546001600160a01b03161415905038612000565b6007546001600160a01b03168314159150611673565b6001600160a01b03908116918215612157571691821561210657600082815260026020526040812054918083106120b257604082827fddf252ad1be2c89b69c2b068fc378daa952ba7f163c4a11628f55a4df523b3ef958760209652600286520382822055868152206120a78282546114f3565b9055604051908152a3565b60405162461bcd60e51b815260206004820152602660248201527f45524332303a207472616e7366657220616d6f756e7420657863656564732062604482015265616c616e636560d01b6064820152608490fd5b60405162461bcd60e51b815260206004820152602360248201527f45524332303a207472616e7366657220746f20746865207a65726f206164647260448201526265737360e81b6064820152608490fd5b60405162461bcd60e51b815260206004820152602560248201527f45524332303a207472616e736665722066726f6d20746865207a65726f206164604482015264647265737360d81b6064820152608490fd5b9190820391821161150057565b90816060910312610ff9578051916040602083015192015190565b90816020910312610ff957516001600160a01b0381168103610ff95790565b91909493929460a0830190835260209060008285015260a0604085015282518091528160c0850193019160005b82811061223f5750505050906080919460018060a01b031660608201520152565b83516001600160a01b03168552938101939281019260010161221e565b3d15612297573d9067ffffffffffffffff8211611357576040519161228b601f8201601f191660200184611389565b82523d6000602084013e565b606090565b600080809381935af1906122ae61225c565b5081156122b757565b60405162461bcd60e51b815260206004820152601860248201527f6661696c656420746f207472616e7366657220657468657200000000000000006044820152606490fdfea264697066735822122076717a7c41a7719f81e86004adb27f8563cda8219c4945d32a73d8c3ece47edd64736f6c63430008110033",
  "linkReferences": {},
  "deployedLinkReferences": {}
}