{
  "_format": "hh-sol-artifact-1",
  "contractName": "VefiEcosystemTokenUpdated",
  "sourceName": "contracts/VefiEcosystemTokenUpdated.sol",
  "abi": [
    {
      "inputs": [
        {
          "internalType": "string",
          "name": "name_",
          "type": "string"
        },
        {
          "internalType": "string",
          "name": "symbol_",
          "type": "string"
        },
        {
          "internalType": "uint256",
          "name": "amount",
          "type": "uint256"
        },
        {
          "internalType": "address",
          "name": "_taxCollector",
          "type": "address"
        },
        {
          "internalType": "uint8",
          "name": "_taxPercentage",
          "type": "uint8"
        }
      ],
      "stateMutability": "nonpayable",
      "type": "constructor"
    },
    {
      "anonymous": false,
      "inputs": [
        {
          "indexed": true,
          "internalType": "address",
          "name": "owner",
          "type": "address"
        },
        {
          "indexed": true,
          "internalType": "address",
          "name": "spender",
          "type": "address"
        },
        {
          "indexed": false,
          "internalType": "uint256",
          "name": "value",
          "type": "uint256"
        }
      ],
      "name": "Approval",
      "type": "event"
    },
    {
      "anonymous": false,
      "inputs": [
        {
          "indexed": true,
          "internalType": "address",
          "name": "previousOwner",
          "type": "address"
        },
        {
          "indexed": true,
          "internalType": "address",
          "name": "newOwner",
          "type": "address"
        }
      ],
      "name": "OwnershipTransferred",
      "type": "event"
    },
    {
      "anonymous": false,
      "inputs": [
        {
          "indexed": true,
          "internalType": "bytes32",
          "name": "role",
          "type": "bytes32"
        },
        {
          "indexed": true,
          "internalType": "bytes32",
          "name": "previousAdminRole",
          "type": "bytes32"
        },
        {
          "indexed": true,
          "internalType": "bytes32",
          "name": "newAdminRole",
          "type": "bytes32"
        }
      ],
      "name": "RoleAdminChanged",
      "type": "event"
    },
    {
      "anonymous": false,
      "inputs": [
        {
          "indexed": true,
          "internalType": "bytes32",
          "name": "role",
          "type": "bytes32"
        },
        {
          "indexed": true,
          "internalType": "address",
          "name": "account",
          "type": "address"
        },
        {
          "indexed": true,
          "internalType": "address",
          "name": "sender",
          "type": "address"
        }
      ],
      "name": "RoleGranted",
      "type": "event"
    },
    {
      "anonymous": false,
      "inputs": [
        {
          "indexed": true,
          "internalType": "bytes32",
          "name": "role",
          "type": "bytes32"
        },
        {
          "indexed": true,
          "internalType": "address",
          "name": "account",
          "type": "address"
        },
        {
          "indexed": true,
          "internalType": "address",
          "name": "sender",
          "type": "address"
        }
      ],
      "name": "RoleRevoked",
      "type": "event"
    },
    {
      "anonymous": false,
      "inputs": [
        {
          "indexed": true,
          "internalType": "address",
          "name": "from",
          "type": "address"
        },
        {
          "indexed": true,
          "internalType": "address",
          "name": "to",
          "type": "address"
        },
        {
          "indexed": false,
          "internalType": "uint256",
          "name": "value",
          "type": "uint256"
        }
      ],
      "name": "Transfer",
      "type": "event"
    },
    {
      "inputs": [],
      "name": "DEFAULT_ADMIN_ROLE",
      "outputs": [
        {
          "internalType": "bytes32",
          "name": "",
          "type": "bytes32"
        }
      ],
      "stateMutability": "view",
      "type": "function"
    },
    {
      "inputs": [
        {
          "internalType": "address",
          "name": "owner",
          "type": "address"
        },
        {
          "internalType": "address",
          "name": "spender",
          "type": "address"
        }
      ],
      "name": "allowance",
      "outputs": [
        {
          "internalType": "uint256",
          "name": "",
          "type": "uint256"
        }
      ],
      "stateMutability": "view",
      "type": "function"
    },
    {
      "inputs": [
        {
          "internalType": "address",
          "name": "spender",
          "type": "address"
        },
        {
          "internalType": "uint256",
          "name": "amount",
          "type": "uint256"
        }
      ],
      "name": "approve",
      "outputs": [
        {
          "internalType": "bool",
          "name": "",
          "type": "bool"
        }
      ],
      "stateMutability": "nonpayable",
      "type": "function"
    },
    {
      "inputs": [
        {
          "internalType": "address",
          "name": "account",
          "type": "address"
        }
      ],
      "name": "balanceOf",
      "outputs": [
        {
          "internalType": "uint256",
          "name": "",
          "type": "uint256"
        }
      ],
      "stateMutability": "view",
      "type": "function"
    },
    {
      "inputs": [],
      "name": "decimals",
      "outputs": [
        {
          "internalType": "uint8",
          "name": "",
          "type": "uint8"
        }
      ],
      "stateMutability": "view",
      "type": "function"
    },
    {
      "inputs": [
        {
          "internalType": "address",
          "name": "spender",
          "type": "address"
        },
        {
          "internalType": "uint256",
          "name": "subtractedValue",
          "type": "uint256"
        }
      ],
      "name": "decreaseAllowance",
      "outputs": [
        {
          "internalType": "bool",
          "name": "",
          "type": "bool"
        }
      ],
      "stateMutability": "nonpayable",
      "type": "function"
    },
    {
      "inputs": [
        {
          "internalType": "address",
          "name": "account",
          "type": "address"
        }
      ],
      "name": "excludeFromPayingTax",
      "outputs": [],
      "stateMutability": "nonpayable",
      "type": "function"
    },
    {
      "inputs": [
        {
          "internalType": "bytes32",
          "name": "role",
          "type": "bytes32"
        }
      ],
      "name": "getRoleAdmin",
      "outputs": [
        {
          "internalType": "bytes32",
          "name": "",
          "type": "bytes32"
        }
      ],
      "stateMutability": "view",
      "type": "function"
    },
    {
      "inputs": [
        {
          "internalType": "bytes32",
          "name": "role",
          "type": "bytes32"
        },
        {
          "internalType": "address",
          "name": "account",
          "type": "address"
        }
      ],
      "name": "grantRole",
      "outputs": [],
      "stateMutability": "nonpayable",
      "type": "function"
    },
    {
      "inputs": [
        {
          "internalType": "bytes32",
          "name": "role",
          "type": "bytes32"
        },
        {
          "internalType": "address",
          "name": "account",
          "type": "address"
        }
      ],
      "name": "hasRole",
      "outputs": [
        {
          "internalType": "bool",
          "name": "",
          "type": "bool"
        }
      ],
      "stateMutability": "view",
      "type": "function"
    },
    {
      "inputs": [],
      "name": "inSwapAndLiquify",
      "outputs": [
        {
          "internalType": "bool",
          "name": "",
          "type": "bool"
        }
      ],
      "stateMutability": "view",
      "type": "function"
    },
    {
      "inputs": [
        {
          "internalType": "address",
          "name": "account",
          "type": "address"
        }
      ],
      "name": "includeInTaxPayment",
      "outputs": [],
      "stateMutability": "nonpayable",
      "type": "function"
    },
    {
      "inputs": [
        {
          "internalType": "address",
          "name": "spender",
          "type": "address"
        },
        {
          "internalType": "uint256",
          "name": "addedValue",
          "type": "uint256"
        }
      ],
      "name": "increaseAllowance",
      "outputs": [
        {
          "internalType": "bool",
          "name": "",
          "type": "bool"
        }
      ],
      "stateMutability": "nonpayable",
      "type": "function"
    },
    {
      "inputs": [],
      "name": "liquidityExclusionPrivilege",
      "outputs": [
        {
          "internalType": "bytes32",
          "name": "",
          "type": "bytes32"
        }
      ],
      "stateMutability": "view",
      "type": "function"
    },
    {
      "inputs": [],
      "name": "liquidityPercentageForEcosystem",
      "outputs": [
        {
          "internalType": "uint8",
          "name": "",
          "type": "uint8"
        }
      ],
      "stateMutability": "view",
      "type": "function"
    },
    {
      "inputs": [],
      "name": "maxAmount",
      "outputs": [
        {
          "internalType": "uint256",
          "name": "",
          "type": "uint256"
        }
      ],
      "stateMutability": "view",
      "type": "function"
    },
    {
      "inputs": [],
      "name": "minHoldOfTokenForContract",
      "outputs": [
        {
          "internalType": "uint256",
          "name": "",
          "type": "uint256"
        }
      ],
      "stateMutability": "view",
      "type": "function"
    },
    {
      "inputs": [],
      "name": "name",
      "outputs": [
        {
          "internalType": "string",
          "name": "",
          "type": "string"
        }
      ],
      "stateMutability": "view",
      "type": "function"
    },
    {
      "inputs": [],
      "name": "owner",
      "outputs": [
        {
          "internalType": "address",
          "name": "",
          "type": "address"
        }
      ],
      "stateMutability": "view",
      "type": "function"
    },
    {
      "inputs": [],
      "name": "renounceOwnership",
      "outputs": [],
      "stateMutability": "nonpayable",
      "type": "function"
    },
    {
      "inputs": [
        {
          "internalType": "bytes32",
          "name": "role",
          "type": "bytes32"
        },
        {
          "internalType": "address",
          "name": "account",
          "type": "address"
        }
      ],
      "name": "renounceRole",
      "outputs": [],
      "stateMutability": "nonpayable",
      "type": "function"
    },
    {
      "inputs": [
        {
          "internalType": "address",
          "name": "token",
          "type": "address"
        },
        {
          "internalType": "address",
          "name": "to",
          "type": "address"
        },
        {
          "internalType": "uint256",
          "name": "amount",
          "type": "uint256"
        }
      ],
      "name": "retrieveERC20",
      "outputs": [],
      "stateMutability": "nonpayable",
      "type": "function"
    },
    {
      "inputs": [
        {
          "internalType": "address",
          "name": "to",
          "type": "address"
        }
      ],
      "name": "retrieveEther",
      "outputs": [],
      "stateMutability": "nonpayable",
      "type": "function"
    },
    {
      "inputs": [
        {
          "internalType": "bytes32",
          "name": "role",
          "type": "bytes32"
        },
        {
          "internalType": "address",
          "name": "account",
          "type": "address"
        }
      ],
      "name": "revokeRole",
      "outputs": [],
      "stateMutability": "nonpayable",
      "type": "function"
    },
    {
      "inputs": [
        {
          "internalType": "uint8",
          "name": "_lpPercentage",
          "type": "uint8"
        }
      ],
      "name": "setLiquidityPercentageForEcosystem",
      "outputs": [],
      "stateMutability": "nonpayable",
      "type": "function"
    },
    {
      "inputs": [
        {
          "internalType": "uint256",
          "name": "_max",
          "type": "uint256"
        }
      ],
      "name": "setMaxAmount",
      "outputs": [],
      "stateMutability": "nonpayable",
      "type": "function"
    },
    {
      "inputs": [
        {
          "internalType": "uint256",
          "name": "minHold",
          "type": "uint256"
        }
      ],
      "name": "setMinHoldOfTokenForContract",
      "outputs": [],
      "stateMutability": "nonpayable",
      "type": "function"
    },
    {
      "inputs": [
        {
          "internalType": "address",
          "name": "router",
          "type": "address"
        }
      ],
      "name": "setSphynxRouter",
      "outputs": [],
      "stateMutability": "nonpayable",
      "type": "function"
    },
    {
      "inputs": [
        {
          "internalType": "address",
          "name": "_taxCollector",
          "type": "address"
        }
      ],
      "name": "setTaxCollector",
      "outputs": [],
      "stateMutability": "nonpayable",
      "type": "function"
    },
    {
      "inputs": [
        {
          "internalType": "uint8",
          "name": "_taxPercentage",
          "type": "uint8"
        }
      ],
      "name": "setTaxPercentage",
      "outputs": [],
      "stateMutability": "nonpayable",
      "type": "function"
    },
    {
      "inputs": [
        {
          "internalType": "bytes4",
          "name": "interfaceId",
          "type": "bytes4"
        }
      ],
      "name": "supportsInterface",
      "outputs": [
        {
          "internalType": "bool",
          "name": "",
          "type": "bool"
        }
      ],
      "stateMutability": "view",
      "type": "function"
    },
    {
      "inputs": [],
      "name": "swapAndLiquifyEnabled",
      "outputs": [
        {
          "internalType": "bool",
          "name": "",
          "type": "bool"
        }
      ],
      "stateMutability": "view",
      "type": "function"
    },
    {
      "inputs": [],
      "name": "switchSwapAndLiquifyEnabled",
      "outputs": [],
      "stateMutability": "nonpayable",
      "type": "function"
    },
    {
      "inputs": [],
      "name": "symbol",
      "outputs": [
        {
          "internalType": "string",
          "name": "",
          "type": "string"
        }
      ],
      "stateMutability": "view",
      "type": "function"
    },
    {
      "inputs": [],
      "name": "taxCollector",
      "outputs": [
        {
          "internalType": "address",
          "name": "",
          "type": "address"
        }
      ],
      "stateMutability": "view",
      "type": "function"
    },
    {
      "inputs": [],
      "name": "taxExclusionPrivilege",
      "outputs": [
        {
          "internalType": "bytes32",
          "name": "",
          "type": "bytes32"
        }
      ],
      "stateMutability": "view",
      "type": "function"
    },
    {
      "inputs": [],
      "name": "taxPercentage",
      "outputs": [
        {
          "internalType": "uint8",
          "name": "",
          "type": "uint8"
        }
      ],
      "stateMutability": "view",
      "type": "function"
    },
    {
      "inputs": [],
      "name": "totalSupply",
      "outputs": [
        {
          "internalType": "uint256",
          "name": "",
          "type": "uint256"
        }
      ],
      "stateMutability": "view",
      "type": "function"
    },
    {
      "inputs": [
        {
          "internalType": "address",
          "name": "to",
          "type": "address"
        },
        {
          "internalType": "uint256",
          "name": "amount",
          "type": "uint256"
        }
      ],
      "name": "transfer",
      "outputs": [
        {
          "internalType": "bool",
          "name": "",
          "type": "bool"
        }
      ],
      "stateMutability": "nonpayable",
      "type": "function"
    },
    {
      "inputs": [
        {
          "internalType": "address",
          "name": "from",
          "type": "address"
        },
        {
          "internalType": "address",
          "name": "to",
          "type": "address"
        },
        {
          "internalType": "uint256",
          "name": "amount",
          "type": "uint256"
        }
      ],
      "name": "transferFrom",
      "outputs": [
        {
          "internalType": "bool",
          "name": "",
          "type": "bool"
        }
      ],
      "stateMutability": "nonpayable",
      "type": "function"
    },
    {
      "inputs": [
        {
          "internalType": "address",
          "name": "newOwner",
          "type": "address"
        }
      ],
      "name": "transferOwnership",
      "outputs": [],
      "stateMutability": "nonpayable",
      "type": "function"
    },
    {
      "stateMutability": "payable",
      "type": "receive"
    }
  ],
  "bytecode": "0x608060409080825234620004475762002875803803809162000022828562000757565b833981019060a081830312620004475780516001600160401b038111620004475782620000519183016200077b565b602082015190926001600160401b0382116200044757620000749183016200077b565b838201519060806200008960608501620007f2565b9301519060ff82168203620004475760008054336001600160a01b03198216811783556001600160a01b03979290918816907f8be0079c531659141344cd1fd0a4f28419497f9722a3daafe3b4186f6b6457e09080a380516001600160401b0381116200064757600591825490600182811c9216801562000730575b6020831014620006265781601f849311620006da575b50602090601f831160011462000669576000926200065d575b50508160011b916000199060031b1c19161781555b8151916001600160401b0383116200064757600654600181811c911680156200063c575b602082101462000626578392601f8211620005c7575b5050602090601f83116001146200054d5760009262000541575b50508160011b916000199060031b1c1916176006555b84516020810190602082526017878201527f5441585f4558434c5553494f4e5f50524956494c454745000000000000000000606082015260608152620001f9816200073b565b5190206008558451602081019060208252601d878201527f4c49515549444954595f4558434c5553494f4e5f50524956494c45474500000060608201526060815262000245816200073b565b519020600955600a80546b024306c4097859c43c000000600b55691969368974c05b000000600c55600780546001600160a01b03191686881617905561ffff60a01b191660a09290921b60ff60a01b1691909117600160ab1b1790553315620004fd579081620002bc6200031f9360045462000882565b60045533600052600260205284600020620002d982825462000882565b9055845190815260007fddf252ad1be2c89b69c2b068fc378daa952ba7f163c4a11628f55a4df523b3ef60203393a3620003163360085462000807565b60085462000807565b600a80546001600160a01b0319167383f465457c8cafbe85abb941f20291f826c7f72a908117909155825163c45a015560e01b81529190602083600481845afa928315620004a957600093620004b4575b5060206004918551928380926315ab88c960e31b82525afa908115620004a957829060009262000460575b506044602092600083885197889586946364e329cb60e11b8652166004850152306024850152165af1918215620004555760009262000405575b50620003e8620003f79260095462000807565b60095490600a54169062000807565b51611fae9081620008a78239f35b91506020823d6020116200044c575b81620004236020938362000757565b810103126200044757620003e86200043f620003f793620007f2565b9250620003d5565b600080fd5b3d915062000414565b83513d6000823e3d90fd5b9150506020813d602011620004a0575b816200047f6020938362000757565b81010312620004475781604462000498602093620007f2565b92506200039b565b3d915062000470565b84513d6000823e3d90fd5b9092506020813d602011620004f4575b81620004d36020938362000757565b8101031262000447576020620004eb600492620007f2565b93915062000370565b3d9150620004c4565b835162461bcd60e51b815260206004820152601f60248201527f45524332303a206d696e7420746f20746865207a65726f2061646472657373006044820152606490fd5b0151905038806200019d565b60066000908152600080516020620028558339815191529350601f198516905b818110620005ae575090846001959493921062000594575b505050811b01600655620001b3565b015160001960f88460031b161c1916905538808062000585565b929360206001819287860151815501950193016200056d565b600660005291925060008051602062002855833981519152601f8501831c8101929091602086106200061b575b90601f869594939201901c01905b8181101562000183576000815584935060010162000602565b9192508291620005f4565b634e487b7160e01b600052602260045260246000fd5b90607f16906200016d565b634e487b7160e01b600052604160045260246000fd5b01519050388062000134565b9250836000526020600020906000935b601f1984168510620006be576001945083601f19811610620006a4575b505050811b01815562000149565b015160001960f88460031b161c1916905538808062000696565b8181015183556020948501946001909301929091019062000679565b909150836000526020600020601f8401851c8101916020851062000725575b90601f8594939201861c01905b8181106200071557506200011b565b6000815584935060010162000706565b9091508190620006f9565b91607f169162000105565b608081019081106001600160401b038211176200064757604052565b601f909101601f19168101906001600160401b038211908210176200064757604052565b919080601f8401121562000447578251906001600160401b038211620006475760405191602091620007b7601f8301601f191684018562000757565b818452828287010111620004475760005b818110620007de57508260009394955001015290565b8581018301518482018401528201620007c8565b51906001600160a01b03821682036200044757565b906000918083526001602052604083209160018060a01b03169182845260205260ff604084205416156200083a57505050565b80835260016020526040832082845260205260408320600160ff198254161790557f2f8788117e7eff1d82e926ec794901d17c78024a50270940304540a733656f0d339380a4565b919082018092116200089057565b634e487b7160e01b600052601160045260246000fdfe608060409080825260049081361015610023575b505050361561002157600080fd5b005b600092833560e01c91826301ffc9a714610eff5750816306fdde0314610e41578163084a139214610e1157816308695b4114610daf578163095ea7b314610d8557816318160ddd14610d66578163220f669614610d3f57816323b872dd14610c86578163248a9ca314610c5b5781632f2ff15d14610c32578163313ce56714610c1657816331e4e4e514610bf757816336568abe14610b665781633950935114610b1657816346e6552314610af75781634a74bb0214610ad35781634fe47f7014610ab157816359102d1c14610a8c5781635c2a00b214610a6d5781635f48f39314610a4e57816370a0823114610a16578163715018a6146109bc578163808c16431461098d5781638da5cb5b146109655781638e6dda25146108be57816391d148541461087657816395d89b4114610774578163a217fddf14610759578163a457c2d7146106b5578163a5ffad521461066f578163a9059cbb1461063e578163ae7b6d1614610619578163bea1dcf8146105f0578163c676ee6b146105ce578163d547741f14610594578163d63f459414610435578163dd62ed3e146103ec578163f2fde38b14610324578163f3bf29de1461028657508063f6ed11c11461023e5763fd7b674d146101f65780610013565b3461023a57602036600319011261023a573560ff8116810361023a5761021a611438565b600a805460ff60a81b191660a89290921b60ff60a81b1691909117905580f35b5080fd5b823461028357602036600319011261028357610258610fa2565b610260611438565b60018060a01b03166bffffffffffffffffffffffff60a01b600a541617600a5580f35b80fd5b83833461023a57602036600319011261023a576102a1610fa2565b906102aa611438565b600854906102db8383600052600160205260406000209060018060a01b031660005260205260ff6040600020541690565b156102ee5750906102eb916113c2565b80f35b606490602086519162461bcd60e51b8352820152601060248201526f0c2d8e4cac2c8f2bee0c2f2e6bee8c2f60831b6044820152fd5b919050346103e85760203660031901126103e857610340610fa2565b90610349611438565b6001600160a01b0391821692831561039657505082546001600160a01b0319811683178455167f8be0079c531659141344cd1fd0a4f28419497f9722a3daafe3b4186f6b6457e08380a380f35b906020608492519162461bcd60e51b8352820152602660248201527f4f776e61626c653a206e6577206f776e657220697320746865207a65726f206160448201526564647265737360d01b6064820152fd5b8280fd5b83903461023a578060031936011261023a578060209261040a610fa2565b610412610fbd565b6001600160a01b0391821683526003865283832091168252845220549051908152f35b9050346103e85761044536610fd3565b61044d611438565b823b1561055a57835167ffffffffffffffff9080860182811182821017610547577f7472616e7366657228616464726573732c75696e743235362900000000000000916020918852601981520152845191602083019363a9059cbb60e01b855260018060a01b0316602484015260448301526044825260808201908282109082111761053457845251859283929083905af16104e7611ed8565b50156104f1578280f35b906020606492519162461bcd60e51b8352820152601e60248201527f6c6f775f6c6576656c5f636f6e74726163745f63616c6c5f6661696c656400006044820152fd5b634e487b7160e01b875260418652602487fd5b634e487b7160e01b895260418852602489fd5b835162461bcd60e51b8152602081870152601460248201527318d85b1b17dd1bd7db9bdb97d8dbdb9d1c9858dd60621b6044820152606490fd5b9050346103e857806003193601126103e8576102eb91356105c960016105b8610fbd565b938387528160205286200154611008565b6113c2565b50503461023a57602036600319011261023a576105e9611438565b35600c5580f35b83903461023a578160031936011261023a5760075490516001600160a01b039091168152602090f35b83903461023a578160031936011261023a5760209060ff600a5460a01c169051908152f35b83903461023a578060031936011261023a5760209061066861065e610fa2565b60243590336115ef565b5160018152f35b50503461023a57602036600319011261023a573560ff8116810361023a57610695611438565b600a805460ff60a01b191660a09290921b60ff60a01b1691909117905580f35b8284346102835782600319360112610283576106cf610fa2565b918360243592338152600360205281812060018060a01b03861682526020522054908282106107085760208561066885850387336114b3565b608490602086519162461bcd60e51b8352820152602560248201527f45524332303a2064656372656173656420616c6c6f77616e63652062656c6f77604482015264207a65726f60d81b6064820152fd5b83903461023a578160031936011261023a5751908152602090f35b9050346103e857826003193601126103e857805191836006549060019082821c92828116801561086c575b6020958686108214610859575084885290811561083757506001146107de575b6107da86866107d0828b0383611310565b5191829182610f76565b0390f35b929550600683527ff652222313e28459528d920b65115c16c04f3efc82aaedc97be59f3f377c0d3f5b82841061082457505050826107da946107d09282010194386107bf565b8054868501880152928601928101610807565b60ff191687860152505050151560051b83010192506107d0826107da386107bf565b634e487b7160e01b845260229052602483fd5b93607f169361079f565b919050346103e857816003193601126103e8578160209360ff92610898610fbd565b90358252600186528282206001600160a01b039091168252855220549151911615158152f35b83833461023a57602036600319011261023a576108d9610fa2565b906108e2611438565b600854906109138383600052600160205260406000209060018060a01b031660005260205260ff6040600020541690565b6109225750906102eb91611348565b606490602086519162461bcd60e51b8352820152602060248201527f616c72656164795f6578636c756465645f66726f6d5f706179696e675f7461786044820152fd5b83903461023a578160031936011261023a57905490516001600160a01b039091168152602090f35b83346102835780600319360112610283576109a6611438565b600d5460ff80821615169060ff191617600d5580f35b83346102835780600319360112610283576109d5611438565b80546001600160a01b03198116825581906001600160a01b03167f8be0079c531659141344cd1fd0a4f28419497f9722a3daafe3b4186f6b6457e08280a380f35b83903461023a57602036600319011261023a5760209181906001600160a01b03610a3e610fa2565b1681526002845220549051908152f35b83903461023a578160031936011261023a57602090600b549051908152f35b83903461023a578160031936011261023a57602090600c549051908152f35b83903461023a578160031936011261023a5760209060ff600a5460a81c169051908152f35b50503461023a57602036600319011261023a57610acc611438565b35600b5580f35b83903461023a578160031936011261023a5760209060ff600d541690519015158152f35b83903461023a578160031936011261023a576020906008549051908152f35b83903461023a578060031936011261023a57610668602092610b5f610b39610fa2565b338352600386528483206001600160a01b03821684528652918490205460243590611490565b90336114b3565b83833461023a578260031936011261023a57610b80610fbd565b90336001600160a01b03831603610b9c57906102eb91356113c2565b608490602085519162461bcd60e51b8352820152602f60248201527f416363657373436f6e74726f6c3a2063616e206f6e6c792072656e6f756e636560448201526e103937b632b9903337b91039b2b63360891b6064820152fd5b83903461023a578160031936011261023a576020906009549051908152f35b83903461023a578160031936011261023a576020905160128152f35b9050346103e857806003193601126103e8576102eb9135610c5660016105b8610fbd565b611348565b919050346103e85760203660031901126103e857816020936001923581528285522001549051908152f35b8284346102835782610c9736610fd3565b6001600160a01b03831685526003602090815284862033875290529290932054919390919060018201610cd3575b6020866106688787876115ef565b848210610cfc5750918391610cf160209695610668950333836114b3565b919394819350610cc5565b606490602087519162461bcd60e51b8352820152601d60248201527f45524332303a20696e73756666696369656e7420616c6c6f77616e63650000006044820152fd5b83903461023a578160031936011261023a5760209060ff600d5460081c1690519015158152f35b919050346103e857826003193601126103e85760209250549051908152f35b83903461023a578060031936011261023a57602090610668610da5610fa2565b60243590336114b3565b8334610283576020366003190112610283576102eb610dcc610fa2565b610dd4611438565b6008546007546001600160a01b0391610def918316906113c2565b81166bffffffffffffffffffffffff60a01b6007541617600755600854611348565b833461028357602036600319011261028357610e3d610e2e610fa2565b610e36611438565b4790611f18565b5080f35b9050346103e857826003193601126103e857805191836005549060019082821c928281168015610ef5575b602095868610821461085957508488529081156108375750600114610e9c576107da86866107d0828b0383611310565b929550600583527f036b6384b5eca791c62761152d0c79bb0604c104a5fb6f4eb0703f3154bb3db05b828410610ee257505050826107da946107d09282010194386107bf565b8054868501880152928601928101610ec5565b93607f1693610e6c565b849084346103e85760203660031901126103e8573563ffffffff60e01b81168091036103e85760209250637965db0b60e01b8114908115610f42575b5015158152f35b6301ffc9a760e01b14905083610f3b565b60005b838110610f665750506000910152565b8181015183820152602001610f56565b60409160208252610f968151809281602086015260208686019101610f53565b601f01601f1916010190565b600435906001600160a01b0382168203610fb857565b600080fd5b602435906001600160a01b0382168203610fb857565b6060906003190112610fb8576001600160a01b03906004358281168103610fb857916024359081168103610fb8579060443590565b600090808252600191602091838352604093848320338452845260ff858420541615611035575050505050565b845167ffffffffffffffff92339290606083018581118482101761123c578852602a835286830193883686378351156112fc576030855383518310156112fc576078602185015360295b8381116112925750611250579087519460808601908682109082111761123c57885260428552868501956060368837855115611228576030875385518210156112285790607860218701536041915b8183116111ba575050506111785793859361115e9361114f6048946111267f416363657373436f6e74726f6c3a206163636f756e7420000000000000000000996111749b519a8b978801525180926037880190610f53565b8401917001034b99036b4b9b9b4b733903937b6329607d1b603784015251809386840190610f53565b01036028810185520183611310565b5162461bcd60e51b815291829160048301610f76565b0390fd5b60648587519062461bcd60e51b825280600483015260248201527f537472696e67733a20686578206c656e67746820696e73756666696369656e746044820152fd5b909192600f81166010811015611214576f181899199a1a9b1b9c1cb0b131b232b360811b901a6111ea85896115c8565b5360041c928015611200576000190191906110ce565b634e487b7160e01b82526011600452602482fd5b634e487b7160e01b83526032600452602483fd5b634e487b7160e01b81526032600452602490fd5b634e487b7160e01b87526041600452602487fd5b60648789519062461bcd60e51b825280600483015260248201527f537472696e67733a20686578206c656e67746820696e73756666696369656e746044820152fd5b90600f811660108110156112e8576f181899199a1a9b1b9c1cb0b131b232b360811b901a6112c083876115c8565b5360041c9080156112d4576000190161107f565b634e487b7160e01b88526011600452602488fd5b634e487b7160e01b89526032600452602489fd5b634e487b7160e01b87526032600452602487fd5b90601f8019910116810190811067ffffffffffffffff82111761133257604052565b634e487b7160e01b600052604160045260246000fd5b906000918083526001602052604083209160018060a01b03169182845260205260ff6040842054161561137a57505050565b80835260016020526040832082845260205260408320600160ff198254161790557f2f8788117e7eff1d82e926ec794901d17c78024a50270940304540a733656f0d339380a4565b906000918083526001602052604083209160018060a01b03169182845260205260ff6040842054166113f357505050565b8083526001602052604083208284526020526040832060ff1981541690557ff6391f5c32d9c69d2a47ea670b442974b53935d1edc7fd64eb21e047a839171b339380a4565b6000546001600160a01b0316330361144c57565b606460405162461bcd60e51b815260206004820152602060248201527f4f776e61626c653a2063616c6c6572206973206e6f7420746865206f776e65726044820152fd5b9190820180921161149d57565b634e487b7160e01b600052601160045260246000fd5b6001600160a01b0390811691821561156457169182156115145760207f8c5be1e5ebec7d5bd14f71427d1e84f3dd0314c0f7b2291e5b200ac8c7c3b925918360005260038252604060002085600052825280604060002055604051908152a3565b60405162461bcd60e51b815260206004820152602260248201527f45524332303a20617070726f766520746f20746865207a65726f206164647265604482015261737360f01b6064820152608490fd5b60405162461bcd60e51b8152602060048201526024808201527f45524332303a20617070726f76652066726f6d20746865207a65726f206164646044820152637265737360e01b6064820152608490fd5b8181029291811591840414171561149d57565b9081518110156115d9570160200190565b634e487b7160e01b600052603260045260246000fd5b600080549394939092906001600160a01b038084169116818114159081611d1f575b81611cec575b50611c8c575b60085460009081526001602090815260408083206001600160a01b038716845290915290205460ff16159081611c81575b5015611c7457600a54946003606461166c60ff8960a01c16846115b5565b0404938460011c963082526002602052604082205490600b5480831015611c6c575b50600c548210156116c487600954600052600160205260406000209060018060a01b031660005260205260ff6040600020541690565b159081611c64575b5080611c54575b80611c48575b61173b575b5050509461171561171c9261170e83611703611739999a6117088a6117038180611490565b611490565b90611eac565b9085611d35565b8280611d35565b611727823083611d35565b6007546001600160a01b031690611d35565b565b61010061ff0019600d541617600d556117578260011c83611eac565b91479161177390600183901c906001600160a01b0316306114b3565b600a5460405163c45a015560e01b81526001600160a01b0390911690602081600481855afa908115611c3d578691611c1e575b50604051906060820182811067ffffffffffffffff821117611c0a576040526002825260403660208401378151156112fc573060208301526040516315ab88c960e31b8152602081600481875afa908115611b83578891611beb575b50825160011015611bd7576001600160a01b0316604083810191909152516315ab88c960e31b815290602082600481875afa918215611b83578892611bb6575b506040516315ab88c960e31b8152602081600481885afa908115611bab57906020918a91611b8e575b5060405163e6a4390560e01b81523060048201526001600160a01b0391821660248201529283916044918391165afa908115611b8357906020918991611b56575b506040516370a0823160e01b81526001600160a01b0391821660048201529283916024918391165afa908115611b4b578791611b15575b50611a18575b5050506118f69047611eac565b611915606461190d60ff600a5460a81c16846115b5565b048092611eac565b90806119fb575b50600a546119359083906001600160a01b0316306114b3565b600a546001600160a01b031691426104b08101929083106119e7576060929160c491604051958694859363f305d71960e01b8552306004860152602485015288604485015288606485015230608485015260a48401525af180156119dc576119b1575b5050600d805461ff00191690556117158261170e6116de565b606090813d81116119d5575b6119c78183611310565b810103126102835780611998565b503d6119bd565b6040513d84823e3d90fd5b634e487b7160e01b85526011600452602485fd5b600754611a1191906001600160a01b0316611f18565b503861191c565b6104b042014211611b0157813b15611afd5791859160405193849263791ac94760e01b845260a484019060011c600485015284602485015260a060448501528151809152602060c48501920190855b818110611ad857505050838380923060648301526104b04201608483015203925af18015611acd57611a9b575b80806118e9565b67ffffffffffffffff8194929411611ab957604052916118f6611a94565b634e487b7160e01b82526041600452602482fd5b6040513d86823e3d90fd5b82516001600160a01b031684528a965087955060209384019390920191600101611a67565b8580fd5b634e487b7160e01b86526011600452602486fd5b90506020813d602011611b43575b81611b3060209383611310565b81010312611b3f5751386118e3565b8680fd5b3d9150611b23565b6040513d89823e3d90fd5b611b769150823d8411611b7c575b611b6e8183611310565b810190611eb9565b386118ac565b503d611b64565b6040513d8a823e3d90fd5b611ba59150823d8411611b7c57611b6e8183611310565b3861186b565b6040513d8b823e3d90fd5b611bd091925060203d602011611b7c57611b6e8183611310565b9038611842565b634e487b7160e01b88526032600452602488fd5b611c04915060203d602011611b7c57611b6e8183611310565b38611802565b634e487b7160e01b88526041600452602488fd5b611c37915060203d602011611b7c57611b6e8183611310565b386117a6565b6040513d88823e3d90fd5b5060ff600d54166116d9565b5060ff600d5460081c16156116d3565b9050386116cc565b91503861168e565b9061173993949250611d35565b90503014153861164e565b600b5486111561161d5760405162461bcd60e51b815260206004820152602860248201527f7472616e736665725f616d6f756e745f63616e6e6f745f6578636565645f6d616044820152671e17d85b5bdd5b9d60c21b6064820152608490fd5b6001600160a01b03841690811415915081611d09575b5038611617565b6007546001600160a01b03161415905038611d02565b6007546001600160a01b03168314159150611611565b6001600160a01b03908116918215611e595716918215611e085760008281526002602052604081205491808310611db457604082827fddf252ad1be2c89b69c2b068fc378daa952ba7f163c4a11628f55a4df523b3ef95876020965260028652038282205586815220611da9828254611490565b9055604051908152a3565b60405162461bcd60e51b815260206004820152602660248201527f45524332303a207472616e7366657220616d6f756e7420657863656564732062604482015265616c616e636560d01b6064820152608490fd5b60405162461bcd60e51b815260206004820152602360248201527f45524332303a207472616e7366657220746f20746865207a65726f206164647260448201526265737360e81b6064820152608490fd5b60405162461bcd60e51b815260206004820152602560248201527f45524332303a207472616e736665722066726f6d20746865207a65726f206164604482015264647265737360d81b6064820152608490fd5b9190820391821161149d57565b90816020910312610fb857516001600160a01b0381168103610fb85790565b3d15611f13573d9067ffffffffffffffff82116113325760405191611f07601f8201601f191660200184611310565b82523d6000602084013e565b606090565b600080809381935af190611f2a611ed8565b508115611f3357565b60405162461bcd60e51b815260206004820152601860248201527f6661696c656420746f207472616e7366657220657468657200000000000000006044820152606490fdfea264697066735822122093d92d8f0c66bdb4e23f6e5395d869c4612c6f314993846319b70055f631176d64736f6c63430008110033f652222313e28459528d920b65115c16c04f3efc82aaedc97be59f3f377c0d3f",
  "linkReferences": {},
  "deployedLinkReferences": {}
}